{
  "address": "0xe166A5787a663445465789c218f9b9CBb3583260",
  "abi": [
    {
      "anonymous": false,
      "inputs": [
        {
          "indexed": false,
          "internalType": "string",
          "name": "dealId",
          "type": "string"
        },
        {
          "indexed": false,
          "internalType": "enum SharedStructs.AgreementState",
          "name": "state",
          "type": "uint8"
        }
      ],
      "name": "DealStateChange",
      "type": "event"
    },
    {
      "anonymous": false,
      "inputs": [
        {
          "indexed": false,
          "internalType": "uint8",
          "name": "version",
          "type": "uint8"
        }
      ],
      "name": "Initialized",
      "type": "event"
    },
    {
      "anonymous": false,
      "inputs": [
        {
          "indexed": true,
          "internalType": "address",
          "name": "previousOwner",
          "type": "address"
        },
        {
          "indexed": true,
          "internalType": "address",
          "name": "newOwner",
          "type": "address"
        }
      ],
      "name": "OwnershipTransferred",
      "type": "event"
    },
    {
      "inputs": [
        {
          "internalType": "string",
          "name": "dealId",
          "type": "string"
        }
      ],
      "name": "acceptResult",
      "outputs": [],
      "stateMutability": "nonpayable",
      "type": "function"
    },
    {
      "inputs": [
        {
          "internalType": "string",
          "name": "dealId",
          "type": "string"
        },
        {
          "internalType": "string",
          "name": "resultsId",
          "type": "string"
        },
        {
          "internalType": "string",
          "name": "dataId",
          "type": "string"
        },
        {
          "internalType": "uint256",
          "name": "instructionCount",
          "type": "uint256"
        }
      ],
      "name": "addResult",
      "outputs": [
        {
          "components": [
            {
              "internalType": "string",
              "name": "dealId",
              "type": "string"
            },
            {
              "internalType": "string",
              "name": "resultsId",
              "type": "string"
            },
            {
              "internalType": "string",
              "name": "dataId",
              "type": "string"
            },
            {
              "internalType": "uint256",
              "name": "instructionCount",
              "type": "uint256"
            }
          ],
          "internalType": "struct SharedStructs.Result",
          "name": "",
          "type": "tuple"
        }
      ],
      "stateMutability": "nonpayable",
      "type": "function"
    },
    {
      "inputs": [
        {
          "internalType": "string",
          "name": "dealId",
          "type": "string"
        }
      ],
      "name": "agreeJobCreator",
      "outputs": [
        {
          "components": [
            {
              "internalType": "enum SharedStructs.AgreementState",
              "name": "state",
              "type": "uint8"
            },
            {
              "internalType": "uint256",
              "name": "resourceProviderAgreedAt",
              "type": "uint256"
            },
            {
              "internalType": "uint256",
              "name": "jobCreatorAgreedAt",
              "type": "uint256"
            },
            {
              "internalType": "uint256",
              "name": "dealCreatedAt",
              "type": "uint256"
            },
            {
              "internalType": "uint256",
              "name": "dealAgreedAt",
              "type": "uint256"
            },
            {
              "internalType": "uint256",
              "name": "resultsSubmittedAt",
              "type": "uint256"
            },
            {
              "internalType": "uint256",
              "name": "resultsAcceptedAt",
              "type": "uint256"
            },
            {
              "internalType": "uint256",
              "name": "resultsCheckedAt",
              "type": "uint256"
            },
            {
              "internalType": "uint256",
              "name": "mediationAcceptedAt",
              "type": "uint256"
            },
            {
              "internalType": "uint256",
              "name": "mediationRejectedAt",
              "type": "uint256"
            },
            {
              "internalType": "uint256",
              "name": "timeoutAgreeAt",
              "type": "uint256"
            },
            {
              "internalType": "uint256",
              "name": "timeoutSubmitResultsAt",
              "type": "uint256"
            },
            {
              "internalType": "uint256",
              "name": "timeoutJudgeResultsAt",
              "type": "uint256"
            },
            {
              "internalType": "uint256",
              "name": "timeoutMediateResultsAt",
              "type": "uint256"
            }
          ],
          "internalType": "struct SharedStructs.Agreement",
          "name": "",
          "type": "tuple"
        }
      ],
      "stateMutability": "nonpayable",
      "type": "function"
    },
    {
      "inputs": [
        {
          "internalType": "string",
          "name": "dealId",
          "type": "string"
        }
      ],
      "name": "agreeResourceProvider",
      "outputs": [
        {
          "components": [
            {
              "internalType": "enum SharedStructs.AgreementState",
              "name": "state",
              "type": "uint8"
            },
            {
              "internalType": "uint256",
              "name": "resourceProviderAgreedAt",
              "type": "uint256"
            },
            {
              "internalType": "uint256",
              "name": "jobCreatorAgreedAt",
              "type": "uint256"
            },
            {
              "internalType": "uint256",
              "name": "dealCreatedAt",
              "type": "uint256"
            },
            {
              "internalType": "uint256",
              "name": "dealAgreedAt",
              "type": "uint256"
            },
            {
              "internalType": "uint256",
              "name": "resultsSubmittedAt",
              "type": "uint256"
            },
            {
              "internalType": "uint256",
              "name": "resultsAcceptedAt",
              "type": "uint256"
            },
            {
              "internalType": "uint256",
              "name": "resultsCheckedAt",
              "type": "uint256"
            },
            {
              "internalType": "uint256",
              "name": "mediationAcceptedAt",
              "type": "uint256"
            },
            {
              "internalType": "uint256",
              "name": "mediationRejectedAt",
              "type": "uint256"
            },
            {
              "internalType": "uint256",
              "name": "timeoutAgreeAt",
              "type": "uint256"
            },
            {
              "internalType": "uint256",
              "name": "timeoutSubmitResultsAt",
              "type": "uint256"
            },
            {
              "internalType": "uint256",
              "name": "timeoutJudgeResultsAt",
              "type": "uint256"
            },
            {
              "internalType": "uint256",
              "name": "timeoutMediateResultsAt",
              "type": "uint256"
            }
          ],
          "internalType": "struct SharedStructs.Agreement",
          "name": "",
          "type": "tuple"
        }
      ],
      "stateMutability": "nonpayable",
      "type": "function"
    },
    {
      "inputs": [
        {
          "internalType": "string",
          "name": "dealId",
          "type": "string"
        }
      ],
      "name": "checkResult",
      "outputs": [],
      "stateMutability": "nonpayable",
      "type": "function"
    },
    {
      "inputs": [],
      "name": "disableChangeControllerAddress",
      "outputs": [],
      "stateMutability": "nonpayable",
      "type": "function"
    },
    {
      "inputs": [
        {
          "internalType": "string",
          "name": "dealId",
          "type": "string"
        },
        {
          "components": [
            {
              "internalType": "address",
              "name": "solver",
              "type": "address"
            },
            {
              "internalType": "address",
              "name": "jobCreator",
              "type": "address"
            },
            {
              "internalType": "address",
              "name": "resourceProvider",
              "type": "address"
            },
            {
              "internalType": "address[]",
              "name": "mediators",
              "type": "address[]"
            }
          ],
          "internalType": "struct SharedStructs.DealMembers",
          "name": "members",
          "type": "tuple"
        },
        {
          "components": [
            {
              "components": [
                {
                  "internalType": "uint256",
                  "name": "timeout",
                  "type": "uint256"
                },
                {
                  "internalType": "uint256",
                  "name": "collateral",
                  "type": "uint256"
                }
              ],
              "internalType": "struct SharedStructs.DealTimeout",
              "name": "agree",
              "type": "tuple"
            },
            {
              "components": [
                {
                  "internalType": "uint256",
                  "name": "timeout",
                  "type": "uint256"
                },
                {
                  "internalType": "uint256",
                  "name": "collateral",
                  "type": "uint256"
                }
              ],
              "internalType": "struct SharedStructs.DealTimeout",
              "name": "submitResults",
              "type": "tuple"
            },
            {
              "components": [
                {
                  "internalType": "uint256",
                  "name": "timeout",
                  "type": "uint256"
                },
                {
                  "internalType": "uint256",
                  "name": "collateral",
                  "type": "uint256"
                }
              ],
              "internalType": "struct SharedStructs.DealTimeout",
              "name": "judgeResults",
              "type": "tuple"
            },
            {
              "components": [
                {
                  "internalType": "uint256",
                  "name": "timeout",
                  "type": "uint256"
                },
                {
                  "internalType": "uint256",
                  "name": "collateral",
                  "type": "uint256"
                }
              ],
              "internalType": "struct SharedStructs.DealTimeout",
              "name": "mediateResults",
              "type": "tuple"
            }
          ],
          "internalType": "struct SharedStructs.DealTimeouts",
          "name": "timeouts",
          "type": "tuple"
        },
        {
          "components": [
            {
              "internalType": "uint256",
              "name": "instructionPrice",
              "type": "uint256"
            },
            {
              "internalType": "uint256",
              "name": "paymentCollateral",
              "type": "uint256"
            },
            {
              "internalType": "uint256",
              "name": "resultsCollateralMultiple",
              "type": "uint256"
            },
            {
              "internalType": "uint256",
              "name": "mediationFee",
              "type": "uint256"
            }
          ],
          "internalType": "struct SharedStructs.DealPricing",
          "name": "pricing",
          "type": "tuple"
        }
      ],
      "name": "ensureDeal",
      "outputs": [
        {
          "components": [
            {
              "internalType": "string",
              "name": "dealId",
              "type": "string"
            },
            {
              "components": [
                {
                  "internalType": "address",
                  "name": "solver",
                  "type": "address"
                },
                {
                  "internalType": "address",
                  "name": "jobCreator",
                  "type": "address"
                },
                {
                  "internalType": "address",
                  "name": "resourceProvider",
                  "type": "address"
                },
                {
                  "internalType": "address[]",
                  "name": "mediators",
                  "type": "address[]"
                }
              ],
              "internalType": "struct SharedStructs.DealMembers",
              "name": "members",
              "type": "tuple"
            },
            {
              "components": [
                {
                  "components": [
                    {
                      "internalType": "uint256",
                      "name": "timeout",
                      "type": "uint256"
                    },
                    {
                      "internalType": "uint256",
                      "name": "collateral",
                      "type": "uint256"
                    }
                  ],
                  "internalType": "struct SharedStructs.DealTimeout",
                  "name": "agree",
                  "type": "tuple"
                },
                {
                  "components": [
                    {
                      "internalType": "uint256",
                      "name": "timeout",
                      "type": "uint256"
                    },
                    {
                      "internalType": "uint256",
                      "name": "collateral",
                      "type": "uint256"
                    }
                  ],
                  "internalType": "struct SharedStructs.DealTimeout",
                  "name": "submitResults",
                  "type": "tuple"
                },
                {
                  "components": [
                    {
                      "internalType": "uint256",
                      "name": "timeout",
                      "type": "uint256"
                    },
                    {
                      "internalType": "uint256",
                      "name": "collateral",
                      "type": "uint256"
                    }
                  ],
                  "internalType": "struct SharedStructs.DealTimeout",
                  "name": "judgeResults",
                  "type": "tuple"
                },
                {
                  "components": [
                    {
                      "internalType": "uint256",
                      "name": "timeout",
                      "type": "uint256"
                    },
                    {
                      "internalType": "uint256",
                      "name": "collateral",
                      "type": "uint256"
                    }
                  ],
                  "internalType": "struct SharedStructs.DealTimeout",
                  "name": "mediateResults",
                  "type": "tuple"
                }
              ],
              "internalType": "struct SharedStructs.DealTimeouts",
              "name": "timeouts",
              "type": "tuple"
            },
            {
              "components": [
                {
                  "internalType": "uint256",
                  "name": "instructionPrice",
                  "type": "uint256"
                },
                {
                  "internalType": "uint256",
                  "name": "paymentCollateral",
                  "type": "uint256"
                },
                {
                  "internalType": "uint256",
                  "name": "resultsCollateralMultiple",
                  "type": "uint256"
                },
                {
                  "internalType": "uint256",
                  "name": "mediationFee",
                  "type": "uint256"
                }
              ],
              "internalType": "struct SharedStructs.DealPricing",
              "name": "pricing",
              "type": "tuple"
            }
          ],
          "internalType": "struct SharedStructs.Deal",
          "name": "",
          "type": "tuple"
        }
      ],
      "stateMutability": "nonpayable",
      "type": "function"
    },
    {
      "inputs": [
        {
          "internalType": "string",
          "name": "dealId",
          "type": "string"
        }
      ],
      "name": "getAgreement",
      "outputs": [
        {
          "components": [
            {
              "internalType": "enum SharedStructs.AgreementState",
              "name": "state",
              "type": "uint8"
            },
            {
              "internalType": "uint256",
              "name": "resourceProviderAgreedAt",
              "type": "uint256"
            },
            {
              "internalType": "uint256",
              "name": "jobCreatorAgreedAt",
              "type": "uint256"
            },
            {
              "internalType": "uint256",
              "name": "dealCreatedAt",
              "type": "uint256"
            },
            {
              "internalType": "uint256",
              "name": "dealAgreedAt",
              "type": "uint256"
            },
            {
              "internalType": "uint256",
              "name": "resultsSubmittedAt",
              "type": "uint256"
            },
            {
              "internalType": "uint256",
              "name": "resultsAcceptedAt",
              "type": "uint256"
            },
            {
              "internalType": "uint256",
              "name": "resultsCheckedAt",
              "type": "uint256"
            },
            {
              "internalType": "uint256",
              "name": "mediationAcceptedAt",
              "type": "uint256"
            },
            {
              "internalType": "uint256",
              "name": "mediationRejectedAt",
              "type": "uint256"
            },
            {
              "internalType": "uint256",
              "name": "timeoutAgreeAt",
              "type": "uint256"
            },
            {
              "internalType": "uint256",
              "name": "timeoutSubmitResultsAt",
              "type": "uint256"
            },
            {
              "internalType": "uint256",
              "name": "timeoutJudgeResultsAt",
              "type": "uint256"
            },
            {
              "internalType": "uint256",
              "name": "timeoutMediateResultsAt",
              "type": "uint256"
            }
          ],
          "internalType": "struct SharedStructs.Agreement",
          "name": "",
          "type": "tuple"
        }
      ],
      "stateMutability": "view",
      "type": "function"
    },
    {
      "inputs": [],
      "name": "getControllerAddress",
      "outputs": [
        {
          "internalType": "address",
          "name": "",
          "type": "address"
        }
      ],
      "stateMutability": "view",
      "type": "function"
    },
    {
      "inputs": [
        {
          "internalType": "string",
          "name": "dealId",
          "type": "string"
        }
      ],
      "name": "getDeal",
      "outputs": [
        {
          "components": [
            {
              "internalType": "string",
              "name": "dealId",
              "type": "string"
            },
            {
              "components": [
                {
                  "internalType": "address",
                  "name": "solver",
                  "type": "address"
                },
                {
                  "internalType": "address",
                  "name": "jobCreator",
                  "type": "address"
                },
                {
                  "internalType": "address",
                  "name": "resourceProvider",
                  "type": "address"
                },
                {
                  "internalType": "address[]",
                  "name": "mediators",
                  "type": "address[]"
                }
              ],
              "internalType": "struct SharedStructs.DealMembers",
              "name": "members",
              "type": "tuple"
            },
            {
              "components": [
                {
                  "components": [
                    {
                      "internalType": "uint256",
                      "name": "timeout",
                      "type": "uint256"
                    },
                    {
                      "internalType": "uint256",
                      "name": "collateral",
                      "type": "uint256"
                    }
                  ],
                  "internalType": "struct SharedStructs.DealTimeout",
                  "name": "agree",
                  "type": "tuple"
                },
                {
                  "components": [
                    {
                      "internalType": "uint256",
                      "name": "timeout",
                      "type": "uint256"
                    },
                    {
                      "internalType": "uint256",
                      "name": "collateral",
                      "type": "uint256"
                    }
                  ],
                  "internalType": "struct SharedStructs.DealTimeout",
                  "name": "submitResults",
                  "type": "tuple"
                },
                {
                  "components": [
                    {
                      "internalType": "uint256",
                      "name": "timeout",
                      "type": "uint256"
                    },
                    {
                      "internalType": "uint256",
                      "name": "collateral",
                      "type": "uint256"
                    }
                  ],
                  "internalType": "struct SharedStructs.DealTimeout",
                  "name": "judgeResults",
                  "type": "tuple"
                },
                {
                  "components": [
                    {
                      "internalType": "uint256",
                      "name": "timeout",
                      "type": "uint256"
                    },
                    {
                      "internalType": "uint256",
                      "name": "collateral",
                      "type": "uint256"
                    }
                  ],
                  "internalType": "struct SharedStructs.DealTimeout",
                  "name": "mediateResults",
                  "type": "tuple"
                }
              ],
              "internalType": "struct SharedStructs.DealTimeouts",
              "name": "timeouts",
              "type": "tuple"
            },
            {
              "components": [
                {
                  "internalType": "uint256",
                  "name": "instructionPrice",
                  "type": "uint256"
                },
                {
                  "internalType": "uint256",
                  "name": "paymentCollateral",
                  "type": "uint256"
                },
                {
                  "internalType": "uint256",
                  "name": "resultsCollateralMultiple",
                  "type": "uint256"
                },
                {
                  "internalType": "uint256",
                  "name": "mediationFee",
                  "type": "uint256"
                }
              ],
              "internalType": "struct SharedStructs.DealPricing",
              "name": "pricing",
              "type": "tuple"
            }
          ],
          "internalType": "struct SharedStructs.Deal",
          "name": "",
          "type": "tuple"
        }
      ],
      "stateMutability": "view",
      "type": "function"
    },
    {
      "inputs": [
        {
          "internalType": "address",
          "name": "party",
          "type": "address"
        }
      ],
      "name": "getDealsForParty",
      "outputs": [
        {
          "internalType": "string[]",
          "name": "",
          "type": "string[]"
        }
      ],
      "stateMutability": "view",
      "type": "function"
    },
    {
      "inputs": [
        {
          "internalType": "string",
          "name": "dealId",
          "type": "string"
        }
      ],
      "name": "getJobCost",
      "outputs": [
        {
          "internalType": "uint256",
          "name": "",
          "type": "uint256"
        }
      ],
      "stateMutability": "view",
      "type": "function"
    },
    {
      "inputs": [
        {
          "internalType": "string",
          "name": "dealId",
          "type": "string"
        }
      ],
      "name": "getResult",
      "outputs": [
        {
          "components": [
            {
              "internalType": "string",
              "name": "dealId",
              "type": "string"
            },
            {
              "internalType": "string",
              "name": "resultsId",
              "type": "string"
            },
            {
              "internalType": "string",
              "name": "dataId",
              "type": "string"
            },
            {
              "internalType": "uint256",
              "name": "instructionCount",
              "type": "uint256"
            }
          ],
          "internalType": "struct SharedStructs.Result",
          "name": "",
          "type": "tuple"
        }
      ],
      "stateMutability": "view",
      "type": "function"
    },
    {
      "inputs": [
        {
          "internalType": "string",
          "name": "dealId",
          "type": "string"
        }
      ],
      "name": "getResultsCollateral",
      "outputs": [
        {
          "internalType": "uint256",
          "name": "",
          "type": "uint256"
        }
      ],
      "stateMutability": "view",
      "type": "function"
    },
    {
      "inputs": [
        {
          "internalType": "string",
          "name": "dealId",
          "type": "string"
        }
      ],
      "name": "hasDeal",
      "outputs": [
        {
          "internalType": "bool",
          "name": "",
          "type": "bool"
        }
      ],
      "stateMutability": "view",
      "type": "function"
    },
    {
      "inputs": [],
      "name": "initialize",
      "outputs": [],
      "stateMutability": "nonpayable",
      "type": "function"
    },
    {
      "inputs": [
        {
          "internalType": "string",
          "name": "dealId",
          "type": "string"
        },
        {
          "internalType": "enum SharedStructs.AgreementState",
          "name": "state",
          "type": "uint8"
        }
      ],
      "name": "isState",
      "outputs": [
        {
          "internalType": "bool",
          "name": "",
          "type": "bool"
        }
      ],
      "stateMutability": "view",
      "type": "function"
    },
    {
      "inputs": [
        {
          "internalType": "string",
          "name": "dealId",
          "type": "string"
        }
      ],
      "name": "mediationAcceptResult",
      "outputs": [],
      "stateMutability": "nonpayable",
      "type": "function"
    },
    {
      "inputs": [
        {
          "internalType": "string",
          "name": "dealId",
          "type": "string"
        }
      ],
      "name": "mediationRejectResult",
      "outputs": [],
      "stateMutability": "nonpayable",
      "type": "function"
    },
    {
      "inputs": [],
      "name": "owner",
      "outputs": [
        {
          "internalType": "address",
          "name": "",
          "type": "address"
        }
      ],
      "stateMutability": "view",
      "type": "function"
    },
    {
      "inputs": [],
      "name": "renounceOwnership",
      "outputs": [],
      "stateMutability": "nonpayable",
      "type": "function"
    },
    {
      "inputs": [
        {
          "internalType": "address",
          "name": "_controllerAddress",
          "type": "address"
        }
      ],
      "name": "setControllerAddress",
      "outputs": [],
      "stateMutability": "nonpayable",
      "type": "function"
    },
    {
      "inputs": [
        {
          "internalType": "string",
          "name": "dealId",
          "type": "string"
        }
      ],
      "name": "timeoutAgree",
      "outputs": [],
      "stateMutability": "nonpayable",
      "type": "function"
    },
    {
      "inputs": [
        {
          "internalType": "string",
          "name": "dealId",
          "type": "string"
        }
      ],
      "name": "timeoutJudgeResult",
      "outputs": [],
      "stateMutability": "nonpayable",
      "type": "function"
    },
    {
      "inputs": [
        {
          "internalType": "string",
          "name": "dealId",
          "type": "string"
        }
      ],
      "name": "timeoutMediateResult",
      "outputs": [],
      "stateMutability": "nonpayable",
      "type": "function"
    },
    {
      "inputs": [
        {
          "internalType": "string",
          "name": "dealId",
          "type": "string"
        }
      ],
      "name": "timeoutSubmitResult",
      "outputs": [],
      "stateMutability": "nonpayable",
      "type": "function"
    },
    {
      "inputs": [
        {
          "internalType": "address",
          "name": "newOwner",
          "type": "address"
        }
      ],
      "name": "transferOwnership",
      "outputs": [],
      "stateMutability": "nonpayable",
      "type": "function"
    }
  ],
  "transactionHash": "0x26a86598a7dbe417ce8aefc435948bcbc3edcee1a5ac081841c1adb3302fee9f",
  "args": [],
  "numDeployments": 1,
  "solcInputHash": "ab0f00af5c684f8beb74f63719b99652",
  "bytecode": "0x608060405260018060146101000a81548160ff0219169083151502179055506001600260146101000a81548160ff0219169083151502179055503480156200004657600080fd5b50620000676200005b6200006d60201b60201c565b6200007560201b60201c565b62000139565b600033905090565b60008060009054906101000a900473ffffffffffffffffffffffffffffffffffffffff169050816000806101000a81548173ffffffffffffffffffffffffffffffffffffffff021916908373ffffffffffffffffffffffffffffffffffffffff1602179055508173ffffffffffffffffffffffffffffffffffffffff168173ffffffffffffffffffffffffffffffffffffffff167f8be0079c531659141344cd1fd0a4f28419497f9722a3daafe3b4186f6b6457e060405160405180910390a35050565b6150df80620001496000396000f3fe608060405234801561001057600080fd5b50600436106101a95760003560e01c80638224ce5f116100f9578063cdd82d1d11610097578063e850be3711610071578063e850be37146104dc578063ec95b967146104f8578063f2fde38b14610528578063f3d3d44814610544576101a9565b8063cdd82d1d14610460578063e707918014610490578063e7b957d1146104c0576101a9565b8063a4702958116100d3578063a4702958146103d8578063a6370b0e146103e2578063b050e74b14610412578063c57380a214610442576101a9565b80638224ce5f1461036e578063824518aa1461039e5780638da5cb5b146103ba576101a9565b8063498cc70d1161016657806373db5c6a1161014057806373db5c6a146102fc578063795f9abf1461032c57806380ffdfe0146103485780638129fc1c14610364576101a9565b8063498cc70d146102a6578063511a9f68146102d6578063715018a6146102f2576101a9565b806311d5af33146101ae5780632244ad2b146101de578063297f9e551461020e5780633955548e1461022a5780633c4135da1461025a57806346834d1e1461028a575b600080fd5b6101c860048036038101906101c391906130fd565b610560565b6040516101d5919061327c565b60405180910390f35b6101f860048036038101906101f391906133d3565b610678565b6040516102059190613437565b60405180910390f35b610228600480360381019061022391906133d3565b610691565b005b610244600480360381019061023f9190613488565b610718565b60405161025191906135c3565b60405180910390f35b610274600480360381019061026f91906133d3565b610a25565b604051610281919061377c565b60405180910390f35b6102a4600480360381019061029f91906133d3565b610bff565b005b6102c060048036038101906102bb91906133d3565b610c86565b6040516102cd91906135c3565b60405180910390f35b6102f060048036038101906102eb91906133d3565b610e7e565b005b6102fa610f05565b005b610316600480360381019061031191906133d3565b610f19565b60405161032391906137a7565b60405180910390f35b610346600480360381019061034191906133d3565b610f73565b005b610362600480360381019061035d91906133d3565b610ffa565b005b61036c611081565b005b610388600480360381019061038391906133d3565b6111ba565b60405161039591906137a7565b60405180910390f35b6103b860048036038101906103b391906133d3565b6111fb565b005b6103c2611282565b6040516103cf91906137d1565b60405180910390f35b6103e06112ab565b005b6103fc60048036038101906103f79190613a93565b6112d0565b6040516104099190613d9b565b60405180910390f35b61042c60048036038101906104279190613de2565b6119dd565b6040516104399190613437565b60405180910390f35b61044a611a79565b60405161045791906137d1565b60405180910390f35b61047a600480360381019061047591906133d3565b611aa3565b604051610487919061377c565b60405180910390f35b6104aa60048036038101906104a591906133d3565b611b99565b6040516104b79190613d9b565b60405180910390f35b6104da60048036038101906104d591906133d3565b611ef7565b005b6104f660048036038101906104f191906133d3565b611f7e565b005b610512600480360381019061050d91906133d3565b612005565b60405161051f919061377c565b60405180910390f35b610542600480360381019061053d91906130fd565b6121df565b005b61055e600480360381019061055991906130fd565b612262565b005b6060600460008373ffffffffffffffffffffffffffffffffffffffff1673ffffffffffffffffffffffffffffffffffffffff168152602001908152602001600020805480602002602001604051908101604052809291908181526020016000905b8282101561066d5783829060005260206000200180546105e090613e6d565b80601f016020809104026020016040519081016040528092919081815260200182805461060c90613e6d565b80156106595780601f1061062e57610100808354040283529160200191610659565b820191906000526020600020905b81548152906001019060200180831161063c57829003601f168201915b5050505050815260200190600101906105c1565b505050509050919050565b60008061068483611b99565b6000015151119050919050565b61069961236c565b506106a58160026119dd565b6106e4576040517f08c379a00000000000000000000000000000000000000000000000000000000081526004016106db90613efb565b60405180910390fd5b426005826040516106f59190613f57565b90815260200160405180910390206006018190555061071581600361249c565b50565b610720612e15565b61072861236c565b506107348560016119dd565b610773576040517f08c379a000000000000000000000000000000000000000000000000000000000815260040161076a90613fba565b60405180910390fd5b426005866040516107849190613f57565b9081526020016040518091039020600501819055506107a485600261249c565b6040518060800160405280868152602001858152602001848152602001838152506006866040516107d59190613f57565b908152602001604051809103902060008201518160000190816107f89190614186565b50602082015181600101908161080e9190614186565b5060408201518160020190816108249190614186565b50606082015181600301559050506006856040516108429190613f57565b908152602001604051809103902060405180608001604052908160008201805461086b90613e6d565b80601f016020809104026020016040519081016040528092919081815260200182805461089790613e6d565b80156108e45780601f106108b9576101008083540402835291602001916108e4565b820191906000526020600020905b8154815290600101906020018083116108c757829003601f168201915b505050505081526020016001820180546108fd90613e6d565b80601f016020809104026020016040519081016040528092919081815260200182805461092990613e6d565b80156109765780601f1061094b57610100808354040283529160200191610976565b820191906000526020600020905b81548152906001019060200180831161095957829003601f168201915b5050505050815260200160028201805461098f90613e6d565b80601f01602080910402602001604051908101604052809291908181526020018280546109bb90613e6d565b8015610a085780601f106109dd57610100808354040283529160200191610a08565b820191906000526020600020905b8154815290600101906020018083116109eb57829003601f168201915b505050505081526020016003820154815250509050949350505050565b610a2d612e3d565b610a3561236c565b50610a3f82610678565b610a7e576040517f08c379a0000000000000000000000000000000000000000000000000000000008152600401610a75906142a4565b60405180910390fd5b6000600583604051610a909190613f57565b90815260200160405180910390206002015414610ae2576040517f08c379a0000000000000000000000000000000000000000000000000000000008152600401610ad990614310565b60405180910390fd5b42600583604051610af39190613f57565b908152602001604051809103902060020181905550610b1182612522565b600582604051610b219190613f57565b9081526020016040518091039020604051806101c00160405290816000820160009054906101000a900460ff16600a811115610b6057610b5f6135e5565b5b600a811115610b7257610b716135e5565b5b8152602001600182015481526020016002820154815260200160038201548152602001600482015481526020016005820154815260200160068201548152602001600782015481526020016008820154815260200160098201548152602001600a8201548152602001600b8201548152602001600c8201548152602001600d820154815250509050919050565b610c0761236c565b50610c138160026119dd565b610c52576040517f08c379a0000000000000000000000000000000000000000000000000000000008152600401610c4990613efb565b60405180910390fd5b42600582604051610c639190613f57565b908152602001604051809103902060070181905550610c8381600461249c565b50565b610c8e612e15565b600682604051610c9e9190613f57565b9081526020016040518091039020604051806080016040529081600082018054610cc790613e6d565b80601f0160208091040260200160405190810160405280929190818152602001828054610cf390613e6d565b8015610d405780601f10610d1557610100808354040283529160200191610d40565b820191906000526020600020905b815481529060010190602001808311610d2357829003601f168201915b50505050508152602001600182018054610d5990613e6d565b80601f0160208091040260200160405190810160405280929190818152602001828054610d8590613e6d565b8015610dd25780601f10610da757610100808354040283529160200191610dd2565b820191906000526020600020905b815481529060010190602001808311610db557829003601f168201915b50505050508152602001600282018054610deb90613e6d565b80601f0160208091040260200160405190810160405280929190818152602001828054610e1790613e6d565b8015610e645780601f10610e3957610100808354040283529160200191610e64565b820191906000526020600020905b815481529060010190602001808311610e4757829003601f168201915b505050505081526020016003820154815250509050919050565b610e8661236c565b50610e928160016119dd565b610ed1576040517f08c379a0000000000000000000000000000000000000000000000000000000008152600401610ec890613fba565b60405180910390fd5b42600582604051610ee29190613f57565b9081526020016040518091039020600b0181905550610f0281600861249c565b50565b610f0d6125db565b610f176000612659565b565b6000600682604051610f2b9190613f57565b908152602001604051809103902060030154600383604051610f4d9190613f57565b9081526020016040518091039020600d0160000154610f6c919061435f565b9050919050565b610f7b61236c565b50610f878160006119dd565b610fc6576040517f08c379a0000000000000000000000000000000000000000000000000000000008152600401610fbd906143ed565b60405180910390fd5b42600582604051610fd79190613f57565b9081526020016040518091039020600a0181905550610ff781600761249c565b50565b61100261236c565b5061100e8160046119dd565b61104d576040517f08c379a000000000000000000000000000000000000000000000000000000000815260040161104490614459565b60405180910390fd5b4260058260405161105e9190613f57565b90815260200160405180910390206009018190555061107e81600661249c565b50565b6000600160169054906101000a900460ff161590508080156110b4575060018060159054906101000a900460ff1660ff16105b806110e257506110c33061271d565b1580156110e1575060018060159054906101000a900460ff1660ff16145b5b611121576040517f08c379a0000000000000000000000000000000000000000000000000000000008152600401611118906144eb565b60405180910390fd5b60018060156101000a81548160ff021916908360ff160217905550801561115d5760018060166101000a81548160ff0219169083151502179055505b80156111b7576000600160166101000a81548160ff0219169083151502179055507f7f26b83ff96e1f2b6a682f133852f6798a09c465da95921460cefb384740249860016040516111ae9190614553565b60405180910390a15b50565b60006111c582610f19565b6003836040516111d59190613f57565b9081526020016040518091039020600d01600201546111f4919061435f565b9050919050565b61120361236c565b5061120f8160046119dd565b61124e576040517f08c379a000000000000000000000000000000000000000000000000000000000815260040161124590614459565b60405180910390fd5b4260058260405161125f9190613f57565b90815260200160405180910390206008018190555061127f81600561249c565b50565b60008060009054906101000a900473ffffffffffffffffffffffffffffffffffffffff16905090565b6112b36125db565b6000600160146101000a81548160ff021916908315150217905550565b6112d8612ebe565b6112e061236c565b506112ec8560006119dd565b61132b576040517f08c379a0000000000000000000000000000000000000000000000000000000008152600401611322906143ed565b60405180910390fd5b61133484612740565b61133d836128e4565b61134685610678565b1561138857600061135686611b99565b905061136681602001518661297d565b611374816040015185612bfd565b611382816060015184612c49565b50611684565b6040518060800160405280868152602001858152602001848152602001838152506003866040516113b99190613f57565b908152602001604051809103902060008201518160000190816113dc9190614186565b5060208201518160010160008201518160000160006101000a81548173ffffffffffffffffffffffffffffffffffffffff021916908373ffffffffffffffffffffffffffffffffffffffff16021790555060208201518160010160006101000a81548173ffffffffffffffffffffffffffffffffffffffff021916908373ffffffffffffffffffffffffffffffffffffffff16021790555060408201518160020160006101000a81548173ffffffffffffffffffffffffffffffffffffffff021916908373ffffffffffffffffffffffffffffffffffffffff16021790555060608201518160030190805190602001906114d7929190612ef8565b505050604082015181600501600082015181600001600082015181600001556020820151816001015550506020820151816002016000820151816000015560208201518160010155505060408201518160040160008201518160000155602082015181600101555050606082015181600601600082015181600001556020820151816001015550505050606082015181600d0160008201518160000155602082015181600101556040820151816002015560608201518160030155505090505060046000856040015173ffffffffffffffffffffffffffffffffffffffff1673ffffffffffffffffffffffffffffffffffffffff1681526020019081526020016000208590806001815401808255809150506001900390600052602060002001600090919091909150908161160c9190614186565b5060046000856020015173ffffffffffffffffffffffffffffffffffffffff1673ffffffffffffffffffffffffffffffffffffffff168152602001908152602001600020859080600181540180825580915050600190039060005260206000200160009091909190915090816116829190614186565b505b6003856040516116949190613f57565b90815260200160405180910390206040518060800160405290816000820180546116bd90613e6d565b80601f01602080910402602001604051908101604052809291908181526020018280546116e990613e6d565b80156117365780601f1061170b57610100808354040283529160200191611736565b820191906000526020600020905b81548152906001019060200180831161171957829003601f168201915b50505050508152602001600182016040518060800160405290816000820160009054906101000a900473ffffffffffffffffffffffffffffffffffffffff1673ffffffffffffffffffffffffffffffffffffffff1673ffffffffffffffffffffffffffffffffffffffff1681526020016001820160009054906101000a900473ffffffffffffffffffffffffffffffffffffffff1673ffffffffffffffffffffffffffffffffffffffff1673ffffffffffffffffffffffffffffffffffffffff1681526020016002820160009054906101000a900473ffffffffffffffffffffffffffffffffffffffff1673ffffffffffffffffffffffffffffffffffffffff1673ffffffffffffffffffffffffffffffffffffffff168152602001600382018054806020026020016040519081016040528092919081815260200182805480156118d657602002820191906000526020600020905b8160009054906101000a900473ffffffffffffffffffffffffffffffffffffffff1673ffffffffffffffffffffffffffffffffffffffff168152602001906001019080831161188c575b5050505050815250508152602001600582016040518060800160405290816000820160405180604001604052908160008201548152602001600182015481525050815260200160028201604051806040016040529081600082015481526020016001820154815250508152602001600482016040518060400160405290816000820154815260200160018201548152505081526020016006820160405180604001604052908160008201548152602001600182015481525050815250508152602001600d8201604051806080016040529081600082015481526020016001820154815260200160028201548152602001600382015481525050815250509050949350505050565b60006119e883610678565b611a1b576000600a811115611a00576119ff6135e5565b5b82600a811115611a1357611a126135e5565b5b149050611a73565b81600a811115611a2e57611a2d6135e5565b5b600584604051611a3e9190613f57565b908152602001604051809103902060000160009054906101000a900460ff16600a811115611a6f57611a6e6135e5565b5b1490505b92915050565b6000600160009054906101000a900473ffffffffffffffffffffffffffffffffffffffff16905090565b611aab612e3d565b600582604051611abb9190613f57565b9081526020016040518091039020604051806101c00160405290816000820160009054906101000a900460ff16600a811115611afa57611af96135e5565b5b600a811115611b0c57611b0b6135e5565b5b8152602001600182015481526020016002820154815260200160038201548152602001600482015481526020016005820154815260200160068201548152602001600782015481526020016008820154815260200160098201548152602001600a8201548152602001600b8201548152602001600c8201548152602001600d820154815250509050919050565b611ba1612ebe565b600382604051611bb19190613f57565b9081526020016040518091039020604051806080016040529081600082018054611bda90613e6d565b80601f0160208091040260200160405190810160405280929190818152602001828054611c0690613e6d565b8015611c535780601f10611c2857610100808354040283529160200191611c53565b820191906000526020600020905b815481529060010190602001808311611c3657829003601f168201915b50505050508152602001600182016040518060800160405290816000820160009054906101000a900473ffffffffffffffffffffffffffffffffffffffff1673ffffffffffffffffffffffffffffffffffffffff1673ffffffffffffffffffffffffffffffffffffffff1681526020016001820160009054906101000a900473ffffffffffffffffffffffffffffffffffffffff1673ffffffffffffffffffffffffffffffffffffffff1673ffffffffffffffffffffffffffffffffffffffff1681526020016002820160009054906101000a900473ffffffffffffffffffffffffffffffffffffffff1673ffffffffffffffffffffffffffffffffffffffff1673ffffffffffffffffffffffffffffffffffffffff16815260200160038201805480602002602001604051908101604052809291908181526020018280548015611df357602002820191906000526020600020905b8160009054906101000a900473ffffffffffffffffffffffffffffffffffffffff1673ffffffffffffffffffffffffffffffffffffffff1681526020019060010190808311611da9575b5050505050815250508152602001600582016040518060800160405290816000820160405180604001604052908160008201548152602001600182015481525050815260200160028201604051806040016040529081600082015481526020016001820154815250508152602001600482016040518060400160405290816000820154815260200160018201548152505081526020016006820160405180604001604052908160008201548152602001600182015481525050815250508152602001600d8201604051806080016040529081600082015481526020016001820154815260200160028201548152602001600382015481525050815250509050919050565b611eff61236c565b50611f0b8160046119dd565b611f4a576040517f08c379a0000000000000000000000000000000000000000000000000000000008152600401611f4190614459565b60405180910390fd5b42600582604051611f5b9190613f57565b9081526020016040518091039020600d0181905550611f7b81600a61249c565b50565b611f8661236c565b50611f928160026119dd565b611fd1576040517f08c379a0000000000000000000000000000000000000000000000000000000008152600401611fc890613efb565b60405180910390fd5b42600582604051611fe29190613f57565b9081526020016040518091039020600c018190555061200281600961249c565b50565b61200d612e3d565b61201561236c565b5061201f82610678565b61205e576040517f08c379a0000000000000000000000000000000000000000000000000000000008152600401612055906142a4565b60405180910390fd5b60006005836040516120709190613f57565b908152602001604051809103902060010154146120c2576040517f08c379a00000000000000000000000000000000000000000000000000000000081526004016120b9906145ba565b60405180910390fd5b426005836040516120d39190613f57565b9081526020016040518091039020600101819055506120f182612522565b6005826040516121019190613f57565b9081526020016040518091039020604051806101c00160405290816000820160009054906101000a900460ff16600a8111156121405761213f6135e5565b5b600a811115612152576121516135e5565b5b8152602001600182015481526020016002820154815260200160038201548152602001600482015481526020016005820154815260200160068201548152602001600782015481526020016008820154815260200160098201548152602001600a8201548152602001600b8201548152602001600c8201548152602001600d820154815250509050919050565b6121e76125db565b600073ffffffffffffffffffffffffffffffffffffffff168173ffffffffffffffffffffffffffffffffffffffff1603612256576040517f08c379a000000000000000000000000000000000000000000000000000000000815260040161224d9061464c565b60405180910390fd5b61225f81612659565b50565b61226a6125db565b600073ffffffffffffffffffffffffffffffffffffffff168173ffffffffffffffffffffffffffffffffffffffff16036122d9576040517f08c379a00000000000000000000000000000000000000000000000000000000081526004016122d0906146de565b60405180910390fd5b600160149054906101000a900460ff16612328576040517f08c379a000000000000000000000000000000000000000000000000000000000815260040161231f90614770565b60405180910390fd5b80600160006101000a81548173ffffffffffffffffffffffffffffffffffffffff021916908373ffffffffffffffffffffffffffffffffffffffff16021790555050565b60008073ffffffffffffffffffffffffffffffffffffffff16600160009054906101000a900473ffffffffffffffffffffffffffffffffffffffff1673ffffffffffffffffffffffffffffffffffffffff16036123fe576040517f08c379a00000000000000000000000000000000000000000000000000000000081526004016123f5906146de565b60405180910390fd5b600160009054906101000a900473ffffffffffffffffffffffffffffffffffffffff1673ffffffffffffffffffffffffffffffffffffffff1661243f612d75565b73ffffffffffffffffffffffffffffffffffffffff1614612495576040517f08c379a000000000000000000000000000000000000000000000000000000000815260040161248c90614802565b60405180910390fd5b6001905090565b806005836040516124ad9190613f57565b908152602001604051809103902060000160006101000a81548160ff0219169083600a8111156124e0576124df6135e5565b5b02179055507f10ca3d89184491f5d8de422bd36534abe6eb4b4aa1429a261bdb5ff1dd9ac386828260405161251692919061486a565b60405180910390a15050565b60006005826040516125349190613f57565b90815260200160405180910390206001015414158015612576575060006005826040516125619190613f57565b90815260200160405180910390206002015414155b156125b1574260058260405161258c9190613f57565b9081526020016040518091039020600401819055506125ac81600161249c565b6125d8565b426005826040516125c29190613f57565b9081526020016040518091039020600301819055505b50565b6125e3612d75565b73ffffffffffffffffffffffffffffffffffffffff16612601611282565b73ffffffffffffffffffffffffffffffffffffffff1614612657576040517f08c379a000000000000000000000000000000000000000000000000000000000815260040161264e906148e6565b60405180910390fd5b565b60008060009054906101000a900473ffffffffffffffffffffffffffffffffffffffff169050816000806101000a81548173ffffffffffffffffffffffffffffffffffffffff021916908373ffffffffffffffffffffffffffffffffffffffff1602179055508173ffffffffffffffffffffffffffffffffffffffff168173ffffffffffffffffffffffffffffffffffffffff167f8be0079c531659141344cd1fd0a4f28419497f9722a3daafe3b4186f6b6457e060405160405180910390a35050565b6000808273ffffffffffffffffffffffffffffffffffffffff163b119050919050565b600073ffffffffffffffffffffffffffffffffffffffff16816040015173ffffffffffffffffffffffffffffffffffffffff16036127b3576040517f08c379a00000000000000000000000000000000000000000000000000000000081526004016127aa90614952565b60405180910390fd5b600073ffffffffffffffffffffffffffffffffffffffff16816020015173ffffffffffffffffffffffffffffffffffffffff1603612826576040517f08c379a000000000000000000000000000000000000000000000000000000000815260040161281d906149be565b60405180910390fd5b600073ffffffffffffffffffffffffffffffffffffffff16816000015173ffffffffffffffffffffffffffffffffffffffff1603612899576040517f08c379a000000000000000000000000000000000000000000000000000000000815260040161289090614a2a565b60405180910390fd5b6000816060015151116128e1576040517f08c379a00000000000000000000000000000000000000000000000000000000081526004016128d890614a96565b60405180910390fd5b50565b60008160000151602001511461292f576040517f08c379a000000000000000000000000000000000000000000000000000000000815260040161292690614b02565b60405180910390fd5b60008160600151602001511461297a576040517f08c379a000000000000000000000000000000000000000000000000000000000815260040161297190614b6e565b60405180910390fd5b50565b806040015173ffffffffffffffffffffffffffffffffffffffff16826040015173ffffffffffffffffffffffffffffffffffffffff16146129f3576040517f08c379a00000000000000000000000000000000000000000000000000000000081526004016129ea90614bda565b60405180910390fd5b806020015173ffffffffffffffffffffffffffffffffffffffff16826020015173ffffffffffffffffffffffffffffffffffffffff1614612a69576040517f08c379a0000000000000000000000000000000000000000000000000000000008152600401612a6090614c46565b60405180910390fd5b806000015173ffffffffffffffffffffffffffffffffffffffff16826000015173ffffffffffffffffffffffffffffffffffffffff1614612adf576040517f08c379a0000000000000000000000000000000000000000000000000000000008152600401612ad690614cb2565b60405180910390fd5b80606001515182606001515114612b2b576040517f08c379a0000000000000000000000000000000000000000000000000000000008152600401612b2290614d1e565b60405180910390fd5b60005b826060015151811015612bf85781606001518181518110612b5257612b51614d3e565b5b602002602001015173ffffffffffffffffffffffffffffffffffffffff1683606001518281518110612b8757612b86614d3e565b5b602002602001015173ffffffffffffffffffffffffffffffffffffffff1614612be5576040517f08c379a0000000000000000000000000000000000000000000000000000000008152600401612bdc90614db9565b60405180910390fd5b8080612bf090614dd9565b915050612b2e565b505050565b612c0f82600001518260000151612d7d565b612c2182602001518260200151612d7d565b612c3382604001518260400151612d7d565b612c4582606001518260600151612d7d565b5050565b8060000151826000015114612c93576040517f08c379a0000000000000000000000000000000000000000000000000000000008152600401612c8a90614e6d565b60405180910390fd5b8060200151826020015114612cdd576040517f08c379a0000000000000000000000000000000000000000000000000000000008152600401612cd490614ed9565b60405180910390fd5b8060400151826040015114612d27576040517f08c379a0000000000000000000000000000000000000000000000000000000008152600401612d1e90614f45565b60405180910390fd5b8060600151826060015114612d71576040517f08c379a0000000000000000000000000000000000000000000000000000000008152600401612d6890614fb1565b60405180910390fd5b5050565b600033905090565b8060000151826000015114612dc7576040517f08c379a0000000000000000000000000000000000000000000000000000000008152600401612dbe9061501d565b60405180910390fd5b8060200151826020015114612e11576040517f08c379a0000000000000000000000000000000000000000000000000000000008152600401612e0890615089565b60405180910390fd5b5050565b6040518060800160405280606081526020016060815260200160608152602001600081525090565b604051806101c001604052806000600a811115612e5d57612e5c6135e5565b5b8152602001600081526020016000815260200160008152602001600081526020016000815260200160008152602001600081526020016000815260200160008152602001600081526020016000815260200160008152602001600081525090565b604051806080016040528060608152602001612ed8612f82565b8152602001612ee5612fec565b8152602001612ef261302c565b81525090565b828054828255906000526020600020908101928215612f71579160200282015b82811115612f705782518260006101000a81548173ffffffffffffffffffffffffffffffffffffffff021916908373ffffffffffffffffffffffffffffffffffffffff16021790555091602001919060010190612f18565b5b509050612f7e9190613054565b5090565b6040518060800160405280600073ffffffffffffffffffffffffffffffffffffffff168152602001600073ffffffffffffffffffffffffffffffffffffffff168152602001600073ffffffffffffffffffffffffffffffffffffffff168152602001606081525090565b6040518060800160405280612fff613071565b815260200161300c613071565b8152602001613019613071565b8152602001613026613071565b81525090565b6040518060800160405280600081526020016000815260200160008152602001600081525090565b5b8082111561306d576000816000905550600101613055565b5090565b604051806040016040528060008152602001600081525090565b6000604051905090565b600080fd5b600080fd5b600073ffffffffffffffffffffffffffffffffffffffff82169050919050565b60006130ca8261309f565b9050919050565b6130da816130bf565b81146130e557600080fd5b50565b6000813590506130f7816130d1565b92915050565b60006020828403121561311357613112613095565b5b6000613121848285016130e8565b91505092915050565b600081519050919050565b600082825260208201905092915050565b6000819050602082019050919050565b600081519050919050565b600082825260208201905092915050565b60005b83811015613190578082015181840152602081019050613175565b60008484015250505050565b6000601f19601f8301169050919050565b60006131b882613156565b6131c28185613161565b93506131d2818560208601613172565b6131db8161319c565b840191505092915050565b60006131f283836131ad565b905092915050565b6000602082019050919050565b60006132128261312a565b61321c8185613135565b93508360208202850161322e85613146565b8060005b8581101561326a578484038952815161324b85826131e6565b9450613256836131fa565b925060208a01995050600181019050613232565b50829750879550505050505092915050565b600060208201905081810360008301526132968184613207565b905092915050565b600080fd5b600080fd5b7f4e487b7100000000000000000000000000000000000000000000000000000000600052604160045260246000fd5b6132e08261319c565b810181811067ffffffffffffffff821117156132ff576132fe6132a8565b5b80604052505050565b600061331261308b565b905061331e82826132d7565b919050565b600067ffffffffffffffff82111561333e5761333d6132a8565b5b6133478261319c565b9050602081019050919050565b82818337600083830152505050565b600061337661337184613323565b613308565b905082815260208101848484011115613392576133916132a3565b5b61339d848285613354565b509392505050565b600082601f8301126133ba576133b961329e565b5b81356133ca848260208601613363565b91505092915050565b6000602082840312156133e9576133e8613095565b5b600082013567ffffffffffffffff8111156134075761340661309a565b5b613413848285016133a5565b91505092915050565b60008115159050919050565b6134318161341c565b82525050565b600060208201905061344c6000830184613428565b92915050565b6000819050919050565b61346581613452565b811461347057600080fd5b50565b6000813590506134828161345c565b92915050565b600080600080608085870312156134a2576134a1613095565b5b600085013567ffffffffffffffff8111156134c0576134bf61309a565b5b6134cc878288016133a5565b945050602085013567ffffffffffffffff8111156134ed576134ec61309a565b5b6134f9878288016133a5565b935050604085013567ffffffffffffffff81111561351a5761351961309a565b5b613526878288016133a5565b925050606061353787828801613473565b91505092959194509250565b61354c81613452565b82525050565b6000608083016000830151848203600086015261356f82826131ad565b9150506020830151848203602086015261358982826131ad565b915050604083015184820360408601526135a382826131ad565b91505060608301516135b86060860182613543565b508091505092915050565b600060208201905081810360008301526135dd8184613552565b905092915050565b7f4e487b7100000000000000000000000000000000000000000000000000000000600052602160045260246000fd5b600b8110613625576136246135e5565b5b50565b600081905061363682613614565b919050565b600061364682613628565b9050919050565b6136568161363b565b82525050565b6101c082016000820151613673600085018261364d565b5060208201516136866020850182613543565b5060408201516136996040850182613543565b5060608201516136ac6060850182613543565b5060808201516136bf6080850182613543565b5060a08201516136d260a0850182613543565b5060c08201516136e560c0850182613543565b5060e08201516136f860e0850182613543565b5061010082015161370d610100850182613543565b50610120820151613722610120850182613543565b50610140820151613737610140850182613543565b5061016082015161374c610160850182613543565b50610180820151613761610180850182613543565b506101a08201516137766101a0850182613543565b50505050565b60006101c082019050613792600083018461365c565b92915050565b6137a181613452565b82525050565b60006020820190506137bc6000830184613798565b92915050565b6137cb816130bf565b82525050565b60006020820190506137e660008301846137c2565b92915050565b600080fd5b600080fd5b600067ffffffffffffffff821115613811576138106132a8565b5b602082029050602081019050919050565b600080fd5b600061383a613835846137f6565b613308565b9050808382526020820190506020840283018581111561385d5761385c613822565b5b835b81811015613886578061387288826130e8565b84526020840193505060208101905061385f565b5050509392505050565b600082601f8301126138a5576138a461329e565b5b81356138b5848260208601613827565b91505092915050565b6000608082840312156138d4576138d36137ec565b5b6138de6080613308565b905060006138ee848285016130e8565b6000830152506020613902848285016130e8565b6020830152506040613916848285016130e8565b604083015250606082013567ffffffffffffffff81111561393a576139396137f1565b5b61394684828501613890565b60608301525092915050565b600060408284031215613968576139676137ec565b5b6139726040613308565b9050600061398284828501613473565b600083015250602061399684828501613473565b60208301525092915050565b600061010082840312156139b9576139b86137ec565b5b6139c36080613308565b905060006139d384828501613952565b60008301525060406139e784828501613952565b60208301525060806139fb84828501613952565b60408301525060c0613a0f84828501613952565b60608301525092915050565b600060808284031215613a3157613a306137ec565b5b613a3b6080613308565b90506000613a4b84828501613473565b6000830152506020613a5f84828501613473565b6020830152506040613a7384828501613473565b6040830152506060613a8784828501613473565b60608301525092915050565b6000806000806101c08587031215613aae57613aad613095565b5b600085013567ffffffffffffffff811115613acc57613acb61309a565b5b613ad8878288016133a5565b945050602085013567ffffffffffffffff811115613af957613af861309a565b5b613b05878288016138be565b9350506040613b16878288016139a2565b925050610140613b2887828801613a1b565b91505092959194509250565b613b3d816130bf565b82525050565b600081519050919050565b600082825260208201905092915050565b6000819050602082019050919050565b6000613b7b8383613b34565b60208301905092915050565b6000602082019050919050565b6000613b9f82613b43565b613ba98185613b4e565b9350613bb483613b5f565b8060005b83811015613be5578151613bcc8882613b6f565b9750613bd783613b87565b925050600181019050613bb8565b5085935050505092915050565b6000608083016000830151613c0a6000860182613b34565b506020830151613c1d6020860182613b34565b506040830151613c306040860182613b34565b5060608301518482036060860152613c488282613b94565b9150508091505092915050565b604082016000820151613c6b6000850182613543565b506020820151613c7e6020850182613543565b50505050565b61010082016000820151613c9b6000850182613c55565b506020820151613cae6040850182613c55565b506040820151613cc16080850182613c55565b506060820151613cd460c0850182613c55565b50505050565b608082016000820151613cf06000850182613543565b506020820151613d036020850182613543565b506040820151613d166040850182613543565b506060820151613d296060850182613543565b50505050565b60006101c0830160008301518482036000860152613d4d82826131ad565b91505060208301518482036020860152613d678282613bf2565b9150506040830151613d7c6040860182613c84565b506060830151613d90610140860182613cda565b508091505092915050565b60006020820190508181036000830152613db58184613d2f565b905092915050565b600b8110613dca57600080fd5b50565b600081359050613ddc81613dbd565b92915050565b60008060408385031215613df957613df8613095565b5b600083013567ffffffffffffffff811115613e1757613e1661309a565b5b613e23858286016133a5565b9250506020613e3485828601613dcd565b9150509250929050565b7f4e487b7100000000000000000000000000000000000000000000000000000000600052602260045260246000fd5b60006002820490506001821680613e8557607f821691505b602082108103613e9857613e97613e3e565b5b50919050565b600082825260208201905092915050565b7f526573756c74735375626d697474656400000000000000000000000000000000600082015250565b6000613ee5601083613e9e565b9150613ef082613eaf565b602082019050919050565b60006020820190508181036000830152613f1481613ed8565b9050919050565b600081905092915050565b6000613f3182613156565b613f3b8185613f1b565b9350613f4b818560208601613172565b80840191505092915050565b6000613f638284613f26565b915081905092915050565b7f4465616c41677265656400000000000000000000000000000000000000000000600082015250565b6000613fa4600a83613e9e565b9150613faf82613f6e565b602082019050919050565b60006020820190508181036000830152613fd381613f97565b9050919050565b60008190508160005260206000209050919050565b60006020601f8301049050919050565b600082821b905092915050565b60006008830261403c7fffffffffffffffffffffffffffffffffffffffffffffffffffffffffffffffff82613fff565b6140468683613fff565b95508019841693508086168417925050509392505050565b6000819050919050565b600061408361407e61407984613452565b61405e565b613452565b9050919050565b6000819050919050565b61409d83614068565b6140b16140a98261408a565b84845461400c565b825550505050565b600090565b6140c66140b9565b6140d1818484614094565b505050565b5b818110156140f5576140ea6000826140be565b6001810190506140d7565b5050565b601f82111561413a5761410b81613fda565b61411484613fef565b81016020851015614123578190505b61413761412f85613fef565b8301826140d6565b50505b505050565b600082821c905092915050565b600061415d6000198460080261413f565b1980831691505092915050565b6000614176838361414c565b9150826002028217905092915050565b61418f82613156565b67ffffffffffffffff8111156141a8576141a76132a8565b5b6141b28254613e6d565b6141bd8282856140f9565b600060209050601f8311600181146141f057600084156141de578287015190505b6141e8858261416a565b865550614250565b601f1984166141fe86613fda565b60005b8281101561422657848901518255600182019150602085019450602081019050614201565b86831015614243578489015161423f601f89168261414c565b8355505b6001600288020188555050505b505050505050565b7f4465616c20646f6573206e6f7420657869737400000000000000000000000000600082015250565b600061428e601383613e9e565b915061429982614258565b602082019050919050565b600060208201905081810360008301526142bd81614281565b9050919050565b7f4a432068617320616c7265616479206167726565640000000000000000000000600082015250565b60006142fa601583613e9e565b9150614305826142c4565b602082019050919050565b60006020820190508181036000830152614329816142ed565b9050919050565b7f4e487b7100000000000000000000000000000000000000000000000000000000600052601160045260246000fd5b600061436a82613452565b915061437583613452565b925082820261438381613452565b9150828204841483151761439a57614399614330565b5b5092915050565b7f4465616c4e65676f74696174696e670000000000000000000000000000000000600082015250565b60006143d7600f83613e9e565b91506143e2826143a1565b602082019050919050565b60006020820190508181036000830152614406816143ca565b9050919050565b7f526573756c7473436865636b6564000000000000000000000000000000000000600082015250565b6000614443600e83613e9e565b915061444e8261440d565b602082019050919050565b6000602082019050818103600083015261447281614436565b9050919050565b7f496e697469616c697a61626c653a20636f6e747261637420697320616c72656160008201527f647920696e697469616c697a6564000000000000000000000000000000000000602082015250565b60006144d5602e83613e9e565b91506144e082614479565b604082019050919050565b60006020820190508181036000830152614504816144c8565b9050919050565b6000819050919050565b600060ff82169050919050565b600061453d6145386145338461450b565b61405e565b614515565b9050919050565b61454d81614522565b82525050565b60006020820190506145686000830184614544565b92915050565b7f52502068617320616c7265616479206167726565640000000000000000000000600082015250565b60006145a4601583613e9e565b91506145af8261456e565b602082019050919050565b600060208201905081810360008301526145d381614597565b9050919050565b7f4f776e61626c653a206e6577206f776e657220697320746865207a65726f206160008201527f6464726573730000000000000000000000000000000000000000000000000000602082015250565b6000614636602683613e9e565b9150614641826145da565b604082019050919050565b6000602082019050818103600083015261466581614629565b9050919050565b7f436f6e74726f6c6c65724f776e61626c653a20436f6e74726f6c6c657220616460008201527f6472657373206d75737420626520646566696e65640000000000000000000000602082015250565b60006146c8603583613e9e565b91506146d38261466c565b604082019050919050565b600060208201905081810360008301526146f7816146bb565b9050919050565b7f436f6e74726f6c6c65724f776e61626c653a2063616e4368616e6765436f6e7460008201527f726f6c6c6572416464726573732069732064697361626c656400000000000000602082015250565b600061475a603983613e9e565b9150614765826146fe565b604082019050919050565b600060208201905081810360008301526147898161474d565b9050919050565b7f436f6e74726f6c6c65724f776e61626c653a204f6e6c792074686520636f6e7460008201527f726f6c6c65722063616e2063616c6c2074686973206d6574686f640000000000602082015250565b60006147ec603b83613e9e565b91506147f782614790565b604082019050919050565b6000602082019050818103600083015261481b816147df565b9050919050565b600061482d82613156565b6148378185613e9e565b9350614847818560208601613172565b6148508161319c565b840191505092915050565b6148648161363b565b82525050565b600060408201905081810360008301526148848185614822565b9050614893602083018461485b565b9392505050565b7f4f776e61626c653a2063616c6c6572206973206e6f7420746865206f776e6572600082015250565b60006148d0602083613e9e565b91506148db8261489a565b602082019050919050565b600060208201905081810360008301526148ff816148c3565b9050919050565b7f5250206d697373696e6700000000000000000000000000000000000000000000600082015250565b600061493c600a83613e9e565b915061494782614906565b602082019050919050565b6000602082019050818103600083015261496b8161492f565b9050919050565b7f4a43206d697373696e6700000000000000000000000000000000000000000000600082015250565b60006149a8600a83613e9e565b91506149b382614972565b602082019050919050565b600060208201905081810360008301526149d78161499b565b9050919050565b7f536f6c766572206d697373696e67000000000000000000000000000000000000600082015250565b6000614a14600e83613e9e565b9150614a1f826149de565b602082019050919050565b60006020820190508181036000830152614a4381614a07565b9050919050565b7f4d65646961746f7273203c3d2030000000000000000000000000000000000000600082015250565b6000614a80600e83613e9e565b9150614a8b82614a4a565b602082019050919050565b60006020820190508181036000830152614aaf81614a73565b9050919050565b7f4167726565206465706f736974206d7573742062652030000000000000000000600082015250565b6000614aec601783613e9e565b9150614af782614ab6565b602082019050919050565b60006020820190508181036000830152614b1b81614adf565b9050919050565b7f4d656469617465206465706f736974206d757374206265203000000000000000600082015250565b6000614b58601983613e9e565b9150614b6382614b22565b602082019050919050565b60006020820190508181036000830152614b8781614b4b565b9050919050565b7f5250000000000000000000000000000000000000000000000000000000000000600082015250565b6000614bc4600283613e9e565b9150614bcf82614b8e565b602082019050919050565b60006020820190508181036000830152614bf381614bb7565b9050919050565b7f4a43000000000000000000000000000000000000000000000000000000000000600082015250565b6000614c30600283613e9e565b9150614c3b82614bfa565b602082019050919050565b60006020820190508181036000830152614c5f81614c23565b9050919050565b7f536f6c7665720000000000000000000000000000000000000000000000000000600082015250565b6000614c9c600683613e9e565b9150614ca782614c66565b602082019050919050565b60006020820190508181036000830152614ccb81614c8f565b9050919050565b7f4d65646961746f72730000000000000000000000000000000000000000000000600082015250565b6000614d08600983613e9e565b9150614d1382614cd2565b602082019050919050565b60006020820190508181036000830152614d3781614cfb565b9050919050565b7f4e487b7100000000000000000000000000000000000000000000000000000000600052603260045260246000fd5b7f4d65646961746f72000000000000000000000000000000000000000000000000600082015250565b6000614da3600883613e9e565b9150614dae82614d6d565b602082019050919050565b60006020820190508181036000830152614dd281614d96565b9050919050565b6000614de482613452565b91507fffffffffffffffffffffffffffffffffffffffffffffffffffffffffffffffff8203614e1657614e15614330565b5b600182019050919050565b7f5072696365000000000000000000000000000000000000000000000000000000600082015250565b6000614e57600583613e9e565b9150614e6282614e21565b602082019050919050565b60006020820190508181036000830152614e8681614e4a565b9050919050565b7f5061796d656e7400000000000000000000000000000000000000000000000000600082015250565b6000614ec3600783613e9e565b9150614ece82614e8d565b602082019050919050565b60006020820190508181036000830152614ef281614eb6565b9050919050565b7f526573756c747300000000000000000000000000000000000000000000000000600082015250565b6000614f2f600783613e9e565b9150614f3a82614ef9565b602082019050919050565b60006020820190508181036000830152614f5e81614f22565b9050919050565b7f4d6564696174696f6e0000000000000000000000000000000000000000000000600082015250565b6000614f9b600983613e9e565b9150614fa682614f65565b602082019050919050565b60006020820190508181036000830152614fca81614f8e565b9050919050565b7f54696d656f757400000000000000000000000000000000000000000000000000600082015250565b6000615007600783613e9e565b915061501282614fd1565b602082019050919050565b6000602082019050818103600083015261503681614ffa565b9050919050565b7f436f6c6c61746572616c00000000000000000000000000000000000000000000600082015250565b6000615073600a83613e9e565b915061507e8261503d565b602082019050919050565b600060208201905081810360008301526150a281615066565b905091905056fea26469706673582212206a56f96d96948c3037b5db6f6a792bea07bd6e9be4697d33ab798a20f9cbab3a64736f6c63430008150033",
  "devdoc": {
    "events": {
      "Initialized(uint8)": {
        "details": "Triggered when the contract has been initialized or reinitialized."
      }
    },
    "kind": "dev",
    "methods": {
      "owner()": {
        "details": "Returns the address of the current owner."
      },
      "renounceOwnership()": {
        "details": "Leaves the contract without owner. It will not be possible to call `onlyOwner` functions. Can only be called by the current owner. NOTE: Renouncing ownership will leave the contract without an owner, thereby disabling any functionality that is only available to the owner."
      },
      "transferOwnership(address)": {
        "details": "Transfers ownership of the contract to a new account (`newOwner`). Can only be called by the current owner."
      }
    },
    "version": 1
  },
  "userdoc": {
    "kind": "user",
    "methods": {
      "acceptResult(string)": {
        "notice": "Judge Results"
      },
      "getAgreement(string)": {
        "notice": "Agreements"
      },
      "getDeal(string)": {
        "notice": "Deals"
      },
      "getJobCost(string)": {
        "notice": "Costings"
      },
      "getResult(string)": {
        "notice": "Post Results"
      },
      "hasDeal(string)": {
        "notice": "Checkers"
      },
      "initialize()": {
        "notice": "Init"
      },
      "mediationAcceptResult(string)": {
        "notice": "Mediati:"
      },
      "timeoutAgree(string)": {
        "notice": "Timeouts"
      }
    },
    "version": 1
  },
  "storageLayout": {
    "storage": [
      {
        "astId": 506,
        "contract": "contracts/HiveStorage.sol:HiveStorage",
        "label": "_owner",
        "offset": 0,
        "slot": "0",
        "type": "t_address"
      },
      {
        "astId": 648,
        "contract": "contracts/HiveStorage.sol:HiveStorage",
        "label": "controllerAddress",
        "offset": 0,
        "slot": "1",
        "type": "t_address"
      },
      {
        "astId": 651,
        "contract": "contracts/HiveStorage.sol:HiveStorage",
        "label": "canChangeControllerAddress",
        "offset": 20,
        "slot": "1",
        "type": "t_bool"
      },
      {
        "astId": 6,
        "contract": "contracts/HiveStorage.sol:HiveStorage",
        "label": "_initialized",
        "offset": 21,
        "slot": "1",
        "type": "t_uint8"
      },
      {
        "astId": 9,
        "contract": "contracts/HiveStorage.sol:HiveStorage",
        "label": "_initializing",
        "offset": 22,
        "slot": "1",
        "type": "t_bool"
      },
      {
        "astId": 741,
        "contract": "contracts/HiveStorage.sol:HiveStorage",
        "label": "controllerAddress",
        "offset": 0,
        "slot": "2",
        "type": "t_address"
      },
      {
        "astId": 744,
        "contract": "contracts/HiveStorage.sol:HiveStorage",
        "label": "canChangeControllerAddress",
        "offset": 20,
        "slot": "2",
        "type": "t_bool"
      },
      {
        "astId": 749,
        "contract": "contracts/HiveStorage.sol:HiveStorage",
        "label": "deals",
        "offset": 0,
        "slot": "3",
        "type": "t_mapping(t_string_memory_ptr,t_struct(Deal)1865_storage)"
      },
      {
        "astId": 754,
        "contract": "contracts/HiveStorage.sol:HiveStorage",
        "label": "dealsForParty",
        "offset": 0,
        "slot": "4",
        "type": "t_mapping(t_address,t_array(t_string_storage)dyn_storage)"
      },
      {
        "astId": 759,
        "contract": "contracts/HiveStorage.sol:HiveStorage",
        "label": "agreements",
        "offset": 0,
        "slot": "5",
        "type": "t_mapping(t_string_memory_ptr,t_struct(Agreement)1904_storage)"
      },
      {
        "astId": 764,
        "contract": "contracts/HiveStorage.sol:HiveStorage",
        "label": "results",
        "offset": 0,
        "slot": "6",
        "type": "t_mapping(t_string_memory_ptr,t_struct(Result)1874_storage)"
      },
      {
        "astId": 769,
        "contract": "contracts/HiveStorage.sol:HiveStorage",
        "label": "mediations",
        "offset": 0,
        "slot": "7",
        "type": "t_mapping(t_string_memory_ptr,t_struct(Result)1874_storage)"
      }
    ],
    "types": {
      "t_address": {
        "encoding": "inplace",
        "label": "address",
        "numberOfBytes": "20"
      },
      "t_array(t_address)dyn_storage": {
        "base": "t_address",
        "encoding": "dynamic_array",
        "label": "address[]",
        "numberOfBytes": "32"
      },
      "t_array(t_string_storage)dyn_storage": {
        "base": "t_string_storage",
        "encoding": "dynamic_array",
        "label": "string[]",
        "numberOfBytes": "32"
      },
      "t_bool": {
        "encoding": "inplace",
        "label": "bool",
        "numberOfBytes": "1"
      },
      "t_enum(AgreementState)1805": {
        "encoding": "inplace",
        "label": "enum SharedStructs.AgreementState",
        "numberOfBytes": "1"
      },
      "t_mapping(t_address,t_array(t_string_storage)dyn_storage)": {
        "encoding": "mapping",
        "key": "t_address",
        "label": "mapping(address => string[])",
        "numberOfBytes": "32",
        "value": "t_array(t_string_storage)dyn_storage"
      },
      "t_mapping(t_string_memory_ptr,t_struct(Agreement)1904_storage)": {
        "encoding": "mapping",
        "key": "t_string_memory_ptr",
        "label": "mapping(string => struct SharedStructs.Agreement)",
        "numberOfBytes": "32",
        "value": "t_struct(Agreement)1904_storage"
      },
      "t_mapping(t_string_memory_ptr,t_struct(Deal)1865_storage)": {
        "encoding": "mapping",
        "key": "t_string_memory_ptr",
        "label": "mapping(string => struct SharedStructs.Deal)",
        "numberOfBytes": "32",
        "value": "t_struct(Deal)1865_storage"
      },
      "t_mapping(t_string_memory_ptr,t_struct(Result)1874_storage)": {
        "encoding": "mapping",
        "key": "t_string_memory_ptr",
        "label": "mapping(string => struct SharedStructs.Result)",
        "numberOfBytes": "32",
        "value": "t_struct(Result)1874_storage"
      },
      "t_string_memory_ptr": {
        "encoding": "bytes",
        "label": "string",
        "numberOfBytes": "32"
      },
      "t_string_storage": {
        "encoding": "bytes",
        "label": "string",
        "numberOfBytes": "32"
      },
      "t_struct(Agreement)1904_storage": {
        "encoding": "inplace",
        "label": "struct SharedStructs.Agreement",
        "members": [
          {
            "astId": 1877,
            "contract": "contracts/HiveStorage.sol:HiveStorage",
            "label": "state",
            "offset": 0,
            "slot": "0",
            "type": "t_enum(AgreementState)1805"
          },
          {
            "astId": 1879,
            "contract": "contracts/HiveStorage.sol:HiveStorage",
            "label": "resourceProviderAgreedAt",
            "offset": 0,
            "slot": "1",
            "type": "t_uint256"
          },
          {
            "astId": 1881,
            "contract": "contracts/HiveStorage.sol:HiveStorage",
            "label": "jobCreatorAgreedAt",
            "offset": 0,
            "slot": "2",
            "type": "t_uint256"
          },
          {
            "astId": 1883,
            "contract": "contracts/HiveStorage.sol:HiveStorage",
            "label": "dealCreatedAt",
            "offset": 0,
            "slot": "3",
            "type": "t_uint256"
          },
          {
            "astId": 1885,
            "contract": "contracts/HiveStorage.sol:HiveStorage",
            "label": "dealAgreedAt",
            "offset": 0,
            "slot": "4",
            "type": "t_uint256"
          },
          {
            "astId": 1887,
            "contract": "contracts/HiveStorage.sol:HiveStorage",
            "label": "resultsSubmittedAt",
            "offset": 0,
            "slot": "5",
            "type": "t_uint256"
          },
          {
            "astId": 1889,
            "contract": "contracts/HiveStorage.sol:HiveStorage",
            "label": "resultsAcceptedAt",
            "offset": 0,
            "slot": "6",
            "type": "t_uint256"
          },
          {
            "astId": 1891,
            "contract": "contracts/HiveStorage.sol:HiveStorage",
            "label": "resultsCheckedAt",
            "offset": 0,
            "slot": "7",
            "type": "t_uint256"
          },
          {
            "astId": 1893,
            "contract": "contracts/HiveStorage.sol:HiveStorage",
            "label": "mediationAcceptedAt",
            "offset": 0,
            "slot": "8",
            "type": "t_uint256"
          },
          {
            "astId": 1895,
            "contract": "contracts/HiveStorage.sol:HiveStorage",
            "label": "mediationRejectedAt",
            "offset": 0,
            "slot": "9",
            "type": "t_uint256"
          },
          {
            "astId": 1897,
            "contract": "contracts/HiveStorage.sol:HiveStorage",
            "label": "timeoutAgreeAt",
            "offset": 0,
            "slot": "10",
            "type": "t_uint256"
          },
          {
            "astId": 1899,
            "contract": "contracts/HiveStorage.sol:HiveStorage",
            "label": "timeoutSubmitResultsAt",
            "offset": 0,
            "slot": "11",
            "type": "t_uint256"
          },
          {
            "astId": 1901,
            "contract": "contracts/HiveStorage.sol:HiveStorage",
            "label": "timeoutJudgeResultsAt",
            "offset": 0,
            "slot": "12",
            "type": "t_uint256"
          },
          {
            "astId": 1903,
            "contract": "contracts/HiveStorage.sol:HiveStorage",
            "label": "timeoutMediateResultsAt",
            "offset": 0,
            "slot": "13",
            "type": "t_uint256"
          }
        ],
        "numberOfBytes": "448"
      },
      "t_struct(Deal)1865_storage": {
        "encoding": "inplace",
        "label": "struct SharedStructs.Deal",
        "members": [
          {
            "astId": 1855,
            "contract": "contracts/HiveStorage.sol:HiveStorage",
            "label": "dealId",
            "offset": 0,
            "slot": "0",
            "type": "t_string_storage"
          },
          {
            "astId": 1858,
            "contract": "contracts/HiveStorage.sol:HiveStorage",
            "label": "members",
            "offset": 0,
            "slot": "1",
            "type": "t_struct(DealMembers)1826_storage"
          },
          {
            "astId": 1861,
            "contract": "contracts/HiveStorage.sol:HiveStorage",
            "label": "timeouts",
            "offset": 0,
            "slot": "5",
            "type": "t_struct(DealTimeouts)1844_storage"
          },
          {
            "astId": 1864,
            "contract": "contracts/HiveStorage.sol:HiveStorage",
            "label": "pricing",
            "offset": 0,
            "slot": "13",
            "type": "t_struct(DealPricing)1853_storage"
          }
        ],
        "numberOfBytes": "544"
      },
      "t_struct(DealMembers)1826_storage": {
        "encoding": "inplace",
        "label": "struct SharedStructs.DealMembers",
        "members": [
          {
            "astId": 1818,
            "contract": "contracts/HiveStorage.sol:HiveStorage",
            "label": "solver",
            "offset": 0,
            "slot": "0",
            "type": "t_address"
          },
          {
            "astId": 1820,
            "contract": "contracts/HiveStorage.sol:HiveStorage",
            "label": "jobCreator",
            "offset": 0,
            "slot": "1",
            "type": "t_address"
          },
          {
            "astId": 1822,
            "contract": "contracts/HiveStorage.sol:HiveStorage",
            "label": "resourceProvider",
            "offset": 0,
            "slot": "2",
            "type": "t_address"
          },
          {
            "astId": 1825,
            "contract": "contracts/HiveStorage.sol:HiveStorage",
            "label": "mediators",
            "offset": 0,
            "slot": "3",
            "type": "t_array(t_address)dyn_storage"
          }
        ],
        "numberOfBytes": "128"
      },
      "t_struct(DealPricing)1853_storage": {
        "encoding": "inplace",
        "label": "struct SharedStructs.DealPricing",
        "members": [
          {
            "astId": 1846,
            "contract": "contracts/HiveStorage.sol:HiveStorage",
            "label": "instructionPrice",
            "offset": 0,
            "slot": "0",
            "type": "t_uint256"
          },
          {
            "astId": 1848,
            "contract": "contracts/HiveStorage.sol:HiveStorage",
            "label": "paymentCollateral",
            "offset": 0,
            "slot": "1",
            "type": "t_uint256"
          },
          {
            "astId": 1850,
            "contract": "contracts/HiveStorage.sol:HiveStorage",
            "label": "resultsCollateralMultiple",
            "offset": 0,
            "slot": "2",
            "type": "t_uint256"
          },
          {
            "astId": 1852,
            "contract": "contracts/HiveStorage.sol:HiveStorage",
            "label": "mediationFee",
            "offset": 0,
            "slot": "3",
            "type": "t_uint256"
          }
        ],
        "numberOfBytes": "128"
      },
      "t_struct(DealTimeout)1831_storage": {
        "encoding": "inplace",
        "label": "struct SharedStructs.DealTimeout",
        "members": [
          {
            "astId": 1828,
            "contract": "contracts/HiveStorage.sol:HiveStorage",
            "label": "timeout",
            "offset": 0,
            "slot": "0",
            "type": "t_uint256"
          },
          {
            "astId": 1830,
            "contract": "contracts/HiveStorage.sol:HiveStorage",
            "label": "collateral",
            "offset": 0,
            "slot": "1",
            "type": "t_uint256"
          }
        ],
        "numberOfBytes": "64"
      },
      "t_struct(DealTimeouts)1844_storage": {
        "encoding": "inplace",
        "label": "struct SharedStructs.DealTimeouts",
        "members": [
          {
            "astId": 1834,
            "contract": "contracts/HiveStorage.sol:HiveStorage",
            "label": "agree",
            "offset": 0,
            "slot": "0",
            "type": "t_struct(DealTimeout)1831_storage"
          },
          {
            "astId": 1837,
            "contract": "contracts/HiveStorage.sol:HiveStorage",
            "label": "submitResults",
            "offset": 0,
            "slot": "2",
            "type": "t_struct(DealTimeout)1831_storage"
          },
          {
            "astId": 1840,
            "contract": "contracts/HiveStorage.sol:HiveStorage",
            "label": "judgeResults",
            "offset": 0,
            "slot": "4",
            "type": "t_struct(DealTimeout)1831_storage"
          },
          {
            "astId": 1843,
            "contract": "contracts/HiveStorage.sol:HiveStorage",
            "label": "mediateResults",
            "offset": 0,
            "slot": "6",
            "type": "t_struct(DealTimeout)1831_storage"
          }
        ],
        "numberOfBytes": "256"
      },
      "t_struct(Result)1874_storage": {
        "encoding": "inplace",
        "label": "struct SharedStructs.Result",
        "members": [
          {
            "astId": 1867,
            "contract": "contracts/HiveStorage.sol:HiveStorage",
            "label": "dealId",
            "offset": 0,
            "slot": "0",
            "type": "t_string_storage"
          },
          {
            "astId": 1869,
            "contract": "contracts/HiveStorage.sol:HiveStorage",
            "label": "resultsId",
            "offset": 0,
            "slot": "1",
            "type": "t_string_storage"
          },
          {
            "astId": 1871,
            "contract": "contracts/HiveStorage.sol:HiveStorage",
            "label": "dataId",
            "offset": 0,
            "slot": "2",
            "type": "t_string_storage"
          },
          {
            "astId": 1873,
            "contract": "contracts/HiveStorage.sol:HiveStorage",
            "label": "instructionCount",
            "offset": 0,
            "slot": "3",
            "type": "t_uint256"
          }
        ],
        "numberOfBytes": "128"
      },
      "t_uint256": {
        "encoding": "inplace",
        "label": "uint256",
        "numberOfBytes": "32"
      },
      "t_uint8": {
        "encoding": "inplace",
        "label": "uint8",
        "numberOfBytes": "1"
      }
    }
  }
}