{"contracts/HiveStorage.sol":{"HiveStorage":{"abi":[{"anonymous":false,"inputs":[{"indexed":false,"internalType":"string","name":"dealId","type":"string"},{"indexed":false,"internalType":"enum SharedStructs.AgreementState","name":"state","type":"uint8"}],"name":"DealStateChange","type":"event"},{"anonymous":false,"inputs":[{"indexed":false,"internalType":"uint8","name":"version","type":"uint8"}],"name":"Initialized","type":"event"},{"anonymous":false,"inputs":[{"indexed":true,"internalType":"address","name":"previousOwner","type":"address"},{"indexed":true,"internalType":"address","name":"newOwner","type":"address"}],"name":"OwnershipTransferred","type":"event"},{"inputs":[{"internalType":"string","name":"dealId","type":"string"}],"name":"acceptResult","outputs":[],"stateMutability":"nonpayable","type":"function"},{"inputs":[{"internalType":"string","name":"dealId","type":"string"},{"internalType":"string","name":"resultsId","type":"string"},{"internalType":"string","name":"dataId","type":"string"},{"internalType":"uint256","name":"instructionCount","type":"uint256"}],"name":"addResult","outputs":[{"components":[{"internalType":"string","name":"dealId","type":"string"},{"internalType":"string","name":"resultsId","type":"string"},{"internalType":"string","name":"dataId","type":"string"},{"internalType":"uint256","name":"instructionCount","type":"uint256"}],"internalType":"struct SharedStructs.Result","name":"","type":"tuple"}],"stateMutability":"nonpayable","type":"function"},{"inputs":[{"internalType":"string","name":"dealId","type":"string"}],"name":"agreeJobCreator","outputs":[{"components":[{"internalType":"enum SharedStructs.AgreementState","name":"state","type":"uint8"},{"internalType":"uint256","name":"resourceProviderAgreedAt","type":"uint256"},{"internalType":"uint256","name":"jobCreatorAgreedAt","type":"uint256"},{"internalType":"uint256","name":"dealCreatedAt","type":"uint256"},{"internalType":"uint256","name":"dealAgreedAt","type":"uint256"},{"internalType":"uint256","name":"resultsSubmittedAt","type":"uint256"},{"internalType":"uint256","name":"resultsAcceptedAt","type":"uint256"},{"internalType":"uint256","name":"resultsCheckedAt","type":"uint256"},{"internalType":"uint256","name":"mediationAcceptedAt","type":"uint256"},{"internalType":"uint256","name":"mediationRejectedAt","type":"uint256"},{"internalType":"uint256","name":"timeoutAgreeAt","type":"uint256"},{"internalType":"uint256","name":"timeoutSubmitResultsAt","type":"uint256"},{"internalType":"uint256","name":"timeoutJudgeResultsAt","type":"uint256"},{"internalType":"uint256","name":"timeoutMediateResultsAt","type":"uint256"}],"internalType":"struct SharedStructs.Agreement","name":"","type":"tuple"}],"stateMutability":"nonpayable","type":"function"},{"inputs":[{"internalType":"string","name":"dealId","type":"string"}],"name":"agreeResourceProvider","outputs":[{"components":[{"internalType":"enum SharedStructs.AgreementState","name":"state","type":"uint8"},{"internalType":"uint256","name":"resourceProviderAgreedAt","type":"uint256"},{"internalType":"uint256","name":"jobCreatorAgreedAt","type":"uint256"},{"internalType":"uint256","name":"dealCreatedAt","type":"uint256"},{"internalType":"uint256","name":"dealAgreedAt","type":"uint256"},{"internalType":"uint256","name":"resultsSubmittedAt","type":"uint256"},{"internalType":"uint256","name":"resultsAcceptedAt","type":"uint256"},{"internalType":"uint256","name":"resultsCheckedAt","type":"uint256"},{"internalType":"uint256","name":"mediationAcceptedAt","type":"uint256"},{"internalType":"uint256","name":"mediationRejectedAt","type":"uint256"},{"internalType":"uint256","name":"timeoutAgreeAt","type":"uint256"},{"internalType":"uint256","name":"timeoutSubmitResultsAt","type":"uint256"},{"internalType":"uint256","name":"timeoutJudgeResultsAt","type":"uint256"},{"internalType":"uint256","name":"timeoutMediateResultsAt","type":"uint256"}],"internalType":"struct SharedStructs.Agreement","name":"","type":"tuple"}],"stateMutability":"nonpayable","type":"function"},{"inputs":[{"internalType":"string","name":"dealId","type":"string"}],"name":"checkResult","outputs":[],"stateMutability":"nonpayable","type":"function"},{"inputs":[],"name":"disableChangeControllerAddress","outputs":[],"stateMutability":"nonpayable","type":"function"},{"inputs":[{"internalType":"string","name":"dealId","type":"string"},{"components":[{"internalType":"address","name":"solver","type":"address"},{"internalType":"address","name":"jobCreator","type":"address"},{"internalType":"address","name":"resourceProvider","type":"address"},{"internalType":"address[]","name":"mediators","type":"address[]"}],"internalType":"struct SharedStructs.DealMembers","name":"members","type":"tuple"},{"components":[{"components":[{"internalType":"uint256","name":"timeout","type":"uint256"},{"internalType":"uint256","name":"collateral","type":"uint256"}],"internalType":"struct SharedStructs.DealTimeout","name":"agree","type":"tuple"},{"components":[{"internalType":"uint256","name":"timeout","type":"uint256"},{"internalType":"uint256","name":"collateral","type":"uint256"}],"internalType":"struct SharedStructs.DealTimeout","name":"submitResults","type":"tuple"},{"components":[{"internalType":"uint256","name":"timeout","type":"uint256"},{"internalType":"uint256","name":"collateral","type":"uint256"}],"internalType":"struct SharedStructs.DealTimeout","name":"judgeResults","type":"tuple"},{"components":[{"internalType":"uint256","name":"timeout","type":"uint256"},{"internalType":"uint256","name":"collateral","type":"uint256"}],"internalType":"struct SharedStructs.DealTimeout","name":"mediateResults","type":"tuple"}],"internalType":"struct SharedStructs.DealTimeouts","name":"timeouts","type":"tuple"},{"components":[{"internalType":"uint256","name":"instructionPrice","type":"uint256"},{"internalType":"uint256","name":"paymentCollateral","type":"uint256"},{"internalType":"uint256","name":"resultsCollateralMultiple","type":"uint256"},{"internalType":"uint256","name":"mediationFee","type":"uint256"}],"internalType":"struct SharedStructs.DealPricing","name":"pricing","type":"tuple"}],"name":"ensureDeal","outputs":[{"components":[{"internalType":"string","name":"dealId","type":"string"},{"components":[{"internalType":"address","name":"solver","type":"address"},{"internalType":"address","name":"jobCreator","type":"address"},{"internalType":"address","name":"resourceProvider","type":"address"},{"internalType":"address[]","name":"mediators","type":"address[]"}],"internalType":"struct SharedStructs.DealMembers","name":"members","type":"tuple"},{"components":[{"components":[{"internalType":"uint256","name":"timeout","type":"uint256"},{"internalType":"uint256","name":"collateral","type":"uint256"}],"internalType":"struct SharedStructs.DealTimeout","name":"agree","type":"tuple"},{"components":[{"internalType":"uint256","name":"timeout","type":"uint256"},{"internalType":"uint256","name":"collateral","type":"uint256"}],"internalType":"struct SharedStructs.DealTimeout","name":"submitResults","type":"tuple"},{"components":[{"internalType":"uint256","name":"timeout","type":"uint256"},{"internalType":"uint256","name":"collateral","type":"uint256"}],"internalType":"struct SharedStructs.DealTimeout","name":"judgeResults","type":"tuple"},{"components":[{"internalType":"uint256","name":"timeout","type":"uint256"},{"internalType":"uint256","name":"collateral","type":"uint256"}],"internalType":"struct SharedStructs.DealTimeout","name":"mediateResults","type":"tuple"}],"internalType":"struct SharedStructs.DealTimeouts","name":"timeouts","type":"tuple"},{"components":[{"internalType":"uint256","name":"instructionPrice","type":"uint256"},{"internalType":"uint256","name":"paymentCollateral","type":"uint256"},{"internalType":"uint256","name":"resultsCollateralMultiple","type":"uint256"},{"internalType":"uint256","name":"mediationFee","type":"uint256"}],"internalType":"struct SharedStructs.DealPricing","name":"pricing","type":"tuple"}],"internalType":"struct SharedStructs.Deal","name":"","type":"tuple"}],"stateMutability":"nonpayable","type":"function"},{"inputs":[{"internalType":"string","name":"dealId","type":"string"}],"name":"getAgreement","outputs":[{"components":[{"internalType":"enum SharedStructs.AgreementState","name":"state","type":"uint8"},{"internalType":"uint256","name":"resourceProviderAgreedAt","type":"uint256"},{"internalType":"uint256","name":"jobCreatorAgreedAt","type":"uint256"},{"internalType":"uint256","name":"dealCreatedAt","type":"uint256"},{"internalType":"uint256","name":"dealAgreedAt","type":"uint256"},{"internalType":"uint256","name":"resultsSubmittedAt","type":"uint256"},{"internalType":"uint256","name":"resultsAcceptedAt","type":"uint256"},{"internalType":"uint256","name":"resultsCheckedAt","type":"uint256"},{"internalType":"uint256","name":"mediationAcceptedAt","type":"uint256"},{"internalType":"uint256","name":"mediationRejectedAt","type":"uint256"},{"internalType":"uint256","name":"timeoutAgreeAt","type":"uint256"},{"internalType":"uint256","name":"timeoutSubmitResultsAt","type":"uint256"},{"internalType":"uint256","name":"timeoutJudgeResultsAt","type":"uint256"},{"internalType":"uint256","name":"timeoutMediateResultsAt","type":"uint256"}],"internalType":"struct SharedStructs.Agreement","name":"","type":"tuple"}],"stateMutability":"view","type":"function"},{"inputs":[],"name":"getControllerAddress","outputs":[{"internalType":"address","name":"","type":"address"}],"stateMutability":"view","type":"function"},{"inputs":[{"internalType":"string","name":"dealId","type":"string"}],"name":"getDeal","outputs":[{"components":[{"internalType":"string","name":"dealId","type":"string"},{"components":[{"internalType":"address","name":"solver","type":"address"},{"internalType":"address","name":"jobCreator","type":"address"},{"internalType":"address","name":"resourceProvider","type":"address"},{"internalType":"address[]","name":"mediators","type":"address[]"}],"internalType":"struct SharedStructs.DealMembers","name":"members","type":"tuple"},{"components":[{"components":[{"internalType":"uint256","name":"timeout","type":"uint256"},{"internalType":"uint256","name":"collateral","type":"uint256"}],"internalType":"struct SharedStructs.DealTimeout","name":"agree","type":"tuple"},{"components":[{"internalType":"uint256","name":"timeout","type":"uint256"},{"internalType":"uint256","name":"collateral","type":"uint256"}],"internalType":"struct SharedStructs.DealTimeout","name":"submitResults","type":"tuple"},{"components":[{"internalType":"uint256","name":"timeout","type":"uint256"},{"internalType":"uint256","name":"collateral","type":"uint256"}],"internalType":"struct SharedStructs.DealTimeout","name":"judgeResults","type":"tuple"},{"components":[{"internalType":"uint256","name":"timeout","type":"uint256"},{"internalType":"uint256","name":"collateral","type":"uint256"}],"internalType":"struct SharedStructs.DealTimeout","name":"mediateResults","type":"tuple"}],"internalType":"struct SharedStructs.DealTimeouts","name":"timeouts","type":"tuple"},{"components":[{"internalType":"uint256","name":"instructionPrice","type":"uint256"},{"internalType":"uint256","name":"paymentCollateral","type":"uint256"},{"internalType":"uint256","name":"resultsCollateralMultiple","type":"uint256"},{"internalType":"uint256","name":"mediationFee","type":"uint256"}],"internalType":"struct SharedStructs.DealPricing","name":"pricing","type":"tuple"}],"internalType":"struct SharedStructs.Deal","name":"","type":"tuple"}],"stateMutability":"view","type":"function"},{"inputs":[{"internalType":"address","name":"party","type":"address"}],"name":"getDealsForParty","outputs":[{"internalType":"string[]","name":"","type":"string[]"}],"stateMutability":"view","type":"function"},{"inputs":[{"internalType":"string","name":"dealId","type":"string"}],"name":"getJobCost","outputs":[{"internalType":"uint256","name":"","type":"uint256"}],"stateMutability":"view","type":"function"},{"inputs":[{"internalType":"string","name":"dealId","type":"string"}],"name":"getResult","outputs":[{"components":[{"internalType":"string","name":"dealId","type":"string"},{"internalType":"string","name":"resultsId","type":"string"},{"internalType":"string","name":"dataId","type":"string"},{"internalType":"uint256","name":"instructionCount","type":"uint256"}],"internalType":"struct SharedStructs.Result","name":"","type":"tuple"}],"stateMutability":"view","type":"function"},{"inputs":[{"internalType":"string","name":"dealId","type":"string"}],"name":"getResultsCollateral","outputs":[{"internalType":"uint256","name":"","type":"uint256"}],"stateMutability":"view","type":"function"},{"inputs":[{"internalType":"string","name":"dealId","type":"string"}],"name":"hasDeal","outputs":[{"internalType":"bool","name":"","type":"bool"}],"stateMutability":"view","type":"function"},{"inputs":[],"name":"initialize","outputs":[],"stateMutability":"nonpayable","type":"function"},{"inputs":[{"internalType":"string","name":"dealId","type":"string"},{"internalType":"enum SharedStructs.AgreementState","name":"state","type":"uint8"}],"name":"isState","outputs":[{"internalType":"bool","name":"","type":"bool"}],"stateMutability":"view","type":"function"},{"inputs":[{"internalType":"string","name":"dealId","type":"string"}],"name":"mediationAcceptResult","outputs":[],"stateMutability":"nonpayable","type":"function"},{"inputs":[{"internalType":"string","name":"dealId","type":"string"}],"name":"mediationRejectResult","outputs":[],"stateMutability":"nonpayable","type":"function"},{"inputs":[],"name":"owner","outputs":[{"internalType":"address","name":"","type":"address"}],"stateMutability":"view","type":"function"},{"inputs":[],"name":"renounceOwnership","outputs":[],"stateMutability":"nonpayable","type":"function"},{"inputs":[{"internalType":"address","name":"_controllerAddress","type":"address"}],"name":"setControllerAddress","outputs":[],"stateMutability":"nonpayable","type":"function"},{"inputs":[{"internalType":"string","name":"dealId","type":"string"}],"name":"timeoutAgree","outputs":[],"stateMutability":"nonpayable","type":"function"},{"inputs":[{"internalType":"string","name":"dealId","type":"string"}],"name":"timeoutJudgeResult","outputs":[],"stateMutability":"nonpayable","type":"function"},{"inputs":[{"internalType":"string","name":"dealId","type":"string"}],"name":"timeoutMediateResult","outputs":[],"stateMutability":"nonpayable","type":"function"},{"inputs":[{"internalType":"string","name":"dealId","type":"string"}],"name":"timeoutSubmitResult","outputs":[],"stateMutability":"nonpayable","type":"function"},{"inputs":[{"internalType":"address","name":"newOwner","type":"address"}],"name":"transferOwnership","outputs":[],"stateMutability":"nonpayable","type":"function"}],"devdoc":{"events":{"Initialized(uint8)":{"details":"Triggered when the contract has been initialized or reinitialized."}},"kind":"dev","methods":{"owner()":{"details":"Returns the address of the current owner."},"renounceOwnership()":{"details":"Leaves the contract without owner. It will not be possible to call `onlyOwner` functions. Can only be called by the current owner. NOTE: Renouncing ownership will leave the contract without an owner, thereby disabling any functionality that is only available to the owner."},"transferOwnership(address)":{"details":"Transfers ownership of the contract to a new account (`newOwner`). Can only be called by the current owner."}},"version":1},"evm":{"bytecode":{"linkReferences":{},"object":"608060405260018060146101000a81548160ff0219169083151502179055506001600260146101000a81548160ff0219169083151502179055503480156200004657600080fd5b50620000676200005b6200006d60201b60201c565b6200007560201b60201c565b62000139565b600033905090565b60008060009054906101000a900473ffffffffffffffffffffffffffffffffffffffff169050816000806101000a81548173ffffffffffffffffffffffffffffffffffffffff021916908373ffffffffffffffffffffffffffffffffffffffff1602179055508173ffffffffffffffffffffffffffffffffffffffff168173ffffffffffffffffffffffffffffffffffffffff167f8be0079c531659141344cd1fd0a4f28419497f9722a3daafe3b4186f6b6457e060405160405180910390a35050565b6150df80620001496000396000f3fe608060405234801561001057600080fd5b50600436106101a95760003560e01c80638224ce5f116100f9578063cdd82d1d11610097578063e850be3711610071578063e850be37146104dc578063ec95b967146104f8578063f2fde38b14610528578063f3d3d44814610544576101a9565b8063cdd82d1d14610460578063e707918014610490578063e7b957d1146104c0576101a9565b8063a4702958116100d3578063a4702958146103d8578063a6370b0e146103e2578063b050e74b14610412578063c57380a214610442576101a9565b80638224ce5f1461036e578063824518aa1461039e5780638da5cb5b146103ba576101a9565b8063498cc70d1161016657806373db5c6a1161014057806373db5c6a146102fc578063795f9abf1461032c57806380ffdfe0146103485780638129fc1c14610364576101a9565b8063498cc70d146102a6578063511a9f68146102d6578063715018a6146102f2576101a9565b806311d5af33146101ae5780632244ad2b146101de578063297f9e551461020e5780633955548e1461022a5780633c4135da1461025a57806346834d1e1461028a575b600080fd5b6101c860048036038101906101c391906130fd565b610560565b6040516101d5919061327c565b60405180910390f35b6101f860048036038101906101f391906133d3565b610678565b6040516102059190613437565b60405180910390f35b610228600480360381019061022391906133d3565b610691565b005b610244600480360381019061023f9190613488565b610718565b60405161025191906135c3565b60405180910390f35b610274600480360381019061026f91906133d3565b610a25565b604051610281919061377c565b60405180910390f35b6102a4600480360381019061029f91906133d3565b610bff565b005b6102c060048036038101906102bb91906133d3565b610c86565b6040516102cd91906135c3565b60405180910390f35b6102f060048036038101906102eb91906133d3565b610e7e565b005b6102fa610f05565b005b610316600480360381019061031191906133d3565b610f19565b60405161032391906137a7565b60405180910390f35b610346600480360381019061034191906133d3565b610f73565b005b610362600480360381019061035d91906133d3565b610ffa565b005b61036c611081565b005b610388600480360381019061038391906133d3565b6111ba565b60405161039591906137a7565b60405180910390f35b6103b860048036038101906103b391906133d3565b6111fb565b005b6103c2611282565b6040516103cf91906137d1565b60405180910390f35b6103e06112ab565b005b6103fc60048036038101906103f79190613a93565b6112d0565b6040516104099190613d9b565b60405180910390f35b61042c60048036038101906104279190613de2565b6119dd565b6040516104399190613437565b60405180910390f35b61044a611a79565b60405161045791906137d1565b60405180910390f35b61047a600480360381019061047591906133d3565b611aa3565b604051610487919061377c565b60405180910390f35b6104aa60048036038101906104a591906133d3565b611b99565b6040516104b79190613d9b565b60405180910390f35b6104da60048036038101906104d591906133d3565b611ef7565b005b6104f660048036038101906104f191906133d3565b611f7e565b005b610512600480360381019061050d91906133d3565b612005565b60405161051f919061377c565b60405180910390f35b610542600480360381019061053d91906130fd565b6121df565b005b61055e600480360381019061055991906130fd565b612262565b005b6060600460008373ffffffffffffffffffffffffffffffffffffffff1673ffffffffffffffffffffffffffffffffffffffff168152602001908152602001600020805480602002602001604051908101604052809291908181526020016000905b8282101561066d5783829060005260206000200180546105e090613e6d565b80601f016020809104026020016040519081016040528092919081815260200182805461060c90613e6d565b80156106595780601f1061062e57610100808354040283529160200191610659565b820191906000526020600020905b81548152906001019060200180831161063c57829003601f168201915b5050505050815260200190600101906105c1565b505050509050919050565b60008061068483611b99565b6000015151119050919050565b61069961236c565b506106a58160026119dd565b6106e4576040517f08c379a00000000000000000000000000000000000000000000000000000000081526004016106db90613efb565b60405180910390fd5b426005826040516106f59190613f57565b90815260200160405180910390206006018190555061071581600361249c565b50565b610720612e15565b61072861236c565b506107348560016119dd565b610773576040517f08c379a000000000000000000000000000000000000000000000000000000000815260040161076a90613fba565b60405180910390fd5b426005866040516107849190613f57565b9081526020016040518091039020600501819055506107a485600261249c565b6040518060800160405280868152602001858152602001848152602001838152506006866040516107d59190613f57565b908152602001604051809103902060008201518160000190816107f89190614186565b50602082015181600101908161080e9190614186565b5060408201518160020190816108249190614186565b50606082015181600301559050506006856040516108429190613f57565b908152602001604051809103902060405180608001604052908160008201805461086b90613e6d565b80601f016020809104026020016040519081016040528092919081815260200182805461089790613e6d565b80156108e45780601f106108b9576101008083540402835291602001916108e4565b820191906000526020600020905b8154815290600101906020018083116108c757829003601f168201915b505050505081526020016001820180546108fd90613e6d565b80601f016020809104026020016040519081016040528092919081815260200182805461092990613e6d565b80156109765780601f1061094b57610100808354040283529160200191610976565b820191906000526020600020905b81548152906001019060200180831161095957829003601f168201915b5050505050815260200160028201805461098f90613e6d565b80601f01602080910402602001604051908101604052809291908181526020018280546109bb90613e6d565b8015610a085780601f106109dd57610100808354040283529160200191610a08565b820191906000526020600020905b8154815290600101906020018083116109eb57829003601f168201915b505050505081526020016003820154815250509050949350505050565b610a2d612e3d565b610a3561236c565b50610a3f82610678565b610a7e576040517f08c379a0000000000000000000000000000000000000000000000000000000008152600401610a75906142a4565b60405180910390fd5b6000600583604051610a909190613f57565b90815260200160405180910390206002015414610ae2576040517f08c379a0000000000000000000000000000000000000000000000000000000008152600401610ad990614310565b60405180910390fd5b42600583604051610af39190613f57565b908152602001604051809103902060020181905550610b1182612522565b600582604051610b219190613f57565b9081526020016040518091039020604051806101c00160405290816000820160009054906101000a900460ff16600a811115610b6057610b5f6135e5565b5b600a811115610b7257610b716135e5565b5b8152602001600182015481526020016002820154815260200160038201548152602001600482015481526020016005820154815260200160068201548152602001600782015481526020016008820154815260200160098201548152602001600a8201548152602001600b8201548152602001600c8201548152602001600d820154815250509050919050565b610c0761236c565b50610c138160026119dd565b610c52576040517f08c379a0000000000000000000000000000000000000000000000000000000008152600401610c4990613efb565b60405180910390fd5b42600582604051610c639190613f57565b908152602001604051809103902060070181905550610c8381600461249c565b50565b610c8e612e15565b600682604051610c9e9190613f57565b9081526020016040518091039020604051806080016040529081600082018054610cc790613e6d565b80601f0160208091040260200160405190810160405280929190818152602001828054610cf390613e6d565b8015610d405780601f10610d1557610100808354040283529160200191610d40565b820191906000526020600020905b815481529060010190602001808311610d2357829003601f168201915b50505050508152602001600182018054610d5990613e6d565b80601f0160208091040260200160405190810160405280929190818152602001828054610d8590613e6d565b8015610dd25780601f10610da757610100808354040283529160200191610dd2565b820191906000526020600020905b815481529060010190602001808311610db557829003601f168201915b50505050508152602001600282018054610deb90613e6d565b80601f0160208091040260200160405190810160405280929190818152602001828054610e1790613e6d565b8015610e645780601f10610e3957610100808354040283529160200191610e64565b820191906000526020600020905b815481529060010190602001808311610e4757829003601f168201915b505050505081526020016003820154815250509050919050565b610e8661236c565b50610e928160016119dd565b610ed1576040517f08c379a0000000000000000000000000000000000000000000000000000000008152600401610ec890613fba565b60405180910390fd5b42600582604051610ee29190613f57565b9081526020016040518091039020600b0181905550610f0281600861249c565b50565b610f0d6125db565b610f176000612659565b565b6000600682604051610f2b9190613f57565b908152602001604051809103902060030154600383604051610f4d9190613f57565b9081526020016040518091039020600d0160000154610f6c919061435f565b9050919050565b610f7b61236c565b50610f878160006119dd565b610fc6576040517f08c379a0000000000000000000000000000000000000000000000000000000008152600401610fbd906143ed565b60405180910390fd5b42600582604051610fd79190613f57565b9081526020016040518091039020600a0181905550610ff781600761249c565b50565b61100261236c565b5061100e8160046119dd565b61104d576040517f08c379a000000000000000000000000000000000000000000000000000000000815260040161104490614459565b60405180910390fd5b4260058260405161105e9190613f57565b90815260200160405180910390206009018190555061107e81600661249c565b50565b6000600160169054906101000a900460ff161590508080156110b4575060018060159054906101000a900460ff1660ff16105b806110e257506110c33061271d565b1580156110e1575060018060159054906101000a900460ff1660ff16145b5b611121576040517f08c379a0000000000000000000000000000000000000000000000000000000008152600401611118906144eb565b60405180910390fd5b60018060156101000a81548160ff021916908360ff160217905550801561115d5760018060166101000a81548160ff0219169083151502179055505b80156111b7576000600160166101000a81548160ff0219169083151502179055507f7f26b83ff96e1f2b6a682f133852f6798a09c465da95921460cefb384740249860016040516111ae9190614553565b60405180910390a15b50565b60006111c582610f19565b6003836040516111d59190613f57565b9081526020016040518091039020600d01600201546111f4919061435f565b9050919050565b61120361236c565b5061120f8160046119dd565b61124e576040517f08c379a000000000000000000000000000000000000000000000000000000000815260040161124590614459565b60405180910390fd5b4260058260405161125f9190613f57565b90815260200160405180910390206008018190555061127f81600561249c565b50565b60008060009054906101000a900473ffffffffffffffffffffffffffffffffffffffff16905090565b6112b36125db565b6000600160146101000a81548160ff021916908315150217905550565b6112d8612ebe565b6112e061236c565b506112ec8560006119dd565b61132b576040517f08c379a0000000000000000000000000000000000000000000000000000000008152600401611322906143ed565b60405180910390fd5b61133484612740565b61133d836128e4565b61134685610678565b1561138857600061135686611b99565b905061136681602001518661297d565b611374816040015185612bfd565b611382816060015184612c49565b50611684565b6040518060800160405280868152602001858152602001848152602001838152506003866040516113b99190613f57565b908152602001604051809103902060008201518160000190816113dc9190614186565b5060208201518160010160008201518160000160006101000a81548173ffffffffffffffffffffffffffffffffffffffff021916908373ffffffffffffffffffffffffffffffffffffffff16021790555060208201518160010160006101000a81548173ffffffffffffffffffffffffffffffffffffffff021916908373ffffffffffffffffffffffffffffffffffffffff16021790555060408201518160020160006101000a81548173ffffffffffffffffffffffffffffffffffffffff021916908373ffffffffffffffffffffffffffffffffffffffff16021790555060608201518160030190805190602001906114d7929190612ef8565b505050604082015181600501600082015181600001600082015181600001556020820151816001015550506020820151816002016000820151816000015560208201518160010155505060408201518160040160008201518160000155602082015181600101555050606082015181600601600082015181600001556020820151816001015550505050606082015181600d0160008201518160000155602082015181600101556040820151816002015560608201518160030155505090505060046000856040015173ffffffffffffffffffffffffffffffffffffffff1673ffffffffffffffffffffffffffffffffffffffff1681526020019081526020016000208590806001815401808255809150506001900390600052602060002001600090919091909150908161160c9190614186565b5060046000856020015173ffffffffffffffffffffffffffffffffffffffff1673ffffffffffffffffffffffffffffffffffffffff168152602001908152602001600020859080600181540180825580915050600190039060005260206000200160009091909190915090816116829190614186565b505b6003856040516116949190613f57565b90815260200160405180910390206040518060800160405290816000820180546116bd90613e6d565b80601f01602080910402602001604051908101604052809291908181526020018280546116e990613e6d565b80156117365780601f1061170b57610100808354040283529160200191611736565b820191906000526020600020905b81548152906001019060200180831161171957829003601f168201915b50505050508152602001600182016040518060800160405290816000820160009054906101000a900473ffffffffffffffffffffffffffffffffffffffff1673ffffffffffffffffffffffffffffffffffffffff1673ffffffffffffffffffffffffffffffffffffffff1681526020016001820160009054906101000a900473ffffffffffffffffffffffffffffffffffffffff1673ffffffffffffffffffffffffffffffffffffffff1673ffffffffffffffffffffffffffffffffffffffff1681526020016002820160009054906101000a900473ffffffffffffffffffffffffffffffffffffffff1673ffffffffffffffffffffffffffffffffffffffff1673ffffffffffffffffffffffffffffffffffffffff168152602001600382018054806020026020016040519081016040528092919081815260200182805480156118d657602002820191906000526020600020905b8160009054906101000a900473ffffffffffffffffffffffffffffffffffffffff1673ffffffffffffffffffffffffffffffffffffffff168152602001906001019080831161188c575b5050505050815250508152602001600582016040518060800160405290816000820160405180604001604052908160008201548152602001600182015481525050815260200160028201604051806040016040529081600082015481526020016001820154815250508152602001600482016040518060400160405290816000820154815260200160018201548152505081526020016006820160405180604001604052908160008201548152602001600182015481525050815250508152602001600d8201604051806080016040529081600082015481526020016001820154815260200160028201548152602001600382015481525050815250509050949350505050565b60006119e883610678565b611a1b576000600a811115611a00576119ff6135e5565b5b82600a811115611a1357611a126135e5565b5b149050611a73565b81600a811115611a2e57611a2d6135e5565b5b600584604051611a3e9190613f57565b908152602001604051809103902060000160009054906101000a900460ff16600a811115611a6f57611a6e6135e5565b5b1490505b92915050565b6000600160009054906101000a900473ffffffffffffffffffffffffffffffffffffffff16905090565b611aab612e3d565b600582604051611abb9190613f57565b9081526020016040518091039020604051806101c00160405290816000820160009054906101000a900460ff16600a811115611afa57611af96135e5565b5b600a811115611b0c57611b0b6135e5565b5b8152602001600182015481526020016002820154815260200160038201548152602001600482015481526020016005820154815260200160068201548152602001600782015481526020016008820154815260200160098201548152602001600a8201548152602001600b8201548152602001600c8201548152602001600d820154815250509050919050565b611ba1612ebe565b600382604051611bb19190613f57565b9081526020016040518091039020604051806080016040529081600082018054611bda90613e6d565b80601f0160208091040260200160405190810160405280929190818152602001828054611c0690613e6d565b8015611c535780601f10611c2857610100808354040283529160200191611c53565b820191906000526020600020905b815481529060010190602001808311611c3657829003601f168201915b50505050508152602001600182016040518060800160405290816000820160009054906101000a900473ffffffffffffffffffffffffffffffffffffffff1673ffffffffffffffffffffffffffffffffffffffff1673ffffffffffffffffffffffffffffffffffffffff1681526020016001820160009054906101000a900473ffffffffffffffffffffffffffffffffffffffff1673ffffffffffffffffffffffffffffffffffffffff1673ffffffffffffffffffffffffffffffffffffffff1681526020016002820160009054906101000a900473ffffffffffffffffffffffffffffffffffffffff1673ffffffffffffffffffffffffffffffffffffffff1673ffffffffffffffffffffffffffffffffffffffff16815260200160038201805480602002602001604051908101604052809291908181526020018280548015611df357602002820191906000526020600020905b8160009054906101000a900473ffffffffffffffffffffffffffffffffffffffff1673ffffffffffffffffffffffffffffffffffffffff1681526020019060010190808311611da9575b5050505050815250508152602001600582016040518060800160405290816000820160405180604001604052908160008201548152602001600182015481525050815260200160028201604051806040016040529081600082015481526020016001820154815250508152602001600482016040518060400160405290816000820154815260200160018201548152505081526020016006820160405180604001604052908160008201548152602001600182015481525050815250508152602001600d8201604051806080016040529081600082015481526020016001820154815260200160028201548152602001600382015481525050815250509050919050565b611eff61236c565b50611f0b8160046119dd565b611f4a576040517f08c379a0000000000000000000000000000000000000000000000000000000008152600401611f4190614459565b60405180910390fd5b42600582604051611f5b9190613f57565b9081526020016040518091039020600d0181905550611f7b81600a61249c565b50565b611f8661236c565b50611f928160026119dd565b611fd1576040517f08c379a0000000000000000000000000000000000000000000000000000000008152600401611fc890613efb565b60405180910390fd5b42600582604051611fe29190613f57565b9081526020016040518091039020600c018190555061200281600961249c565b50565b61200d612e3d565b61201561236c565b5061201f82610678565b61205e576040517f08c379a0000000000000000000000000000000000000000000000000000000008152600401612055906142a4565b60405180910390fd5b60006005836040516120709190613f57565b908152602001604051809103902060010154146120c2576040517f08c379a00000000000000000000000000000000000000000000000000000000081526004016120b9906145ba565b60405180910390fd5b426005836040516120d39190613f57565b9081526020016040518091039020600101819055506120f182612522565b6005826040516121019190613f57565b9081526020016040518091039020604051806101c00160405290816000820160009054906101000a900460ff16600a8111156121405761213f6135e5565b5b600a811115612152576121516135e5565b5b8152602001600182015481526020016002820154815260200160038201548152602001600482015481526020016005820154815260200160068201548152602001600782015481526020016008820154815260200160098201548152602001600a8201548152602001600b8201548152602001600c8201548152602001600d820154815250509050919050565b6121e76125db565b600073ffffffffffffffffffffffffffffffffffffffff168173ffffffffffffffffffffffffffffffffffffffff1603612256576040517f08c379a000000000000000000000000000000000000000000000000000000000815260040161224d9061464c565b60405180910390fd5b61225f81612659565b50565b61226a6125db565b600073ffffffffffffffffffffffffffffffffffffffff168173ffffffffffffffffffffffffffffffffffffffff16036122d9576040517f08c379a00000000000000000000000000000000000000000000000000000000081526004016122d0906146de565b60405180910390fd5b600160149054906101000a900460ff16612328576040517f08c379a000000000000000000000000000000000000000000000000000000000815260040161231f90614770565b60405180910390fd5b80600160006101000a81548173ffffffffffffffffffffffffffffffffffffffff021916908373ffffffffffffffffffffffffffffffffffffffff16021790555050565b60008073ffffffffffffffffffffffffffffffffffffffff16600160009054906101000a900473ffffffffffffffffffffffffffffffffffffffff1673ffffffffffffffffffffffffffffffffffffffff16036123fe576040517f08c379a00000000000000000000000000000000000000000000000000000000081526004016123f5906146de565b60405180910390fd5b600160009054906101000a900473ffffffffffffffffffffffffffffffffffffffff1673ffffffffffffffffffffffffffffffffffffffff1661243f612d75565b73ffffffffffffffffffffffffffffffffffffffff1614612495576040517f08c379a000000000000000000000000000000000000000000000000000000000815260040161248c90614802565b60405180910390fd5b6001905090565b806005836040516124ad9190613f57565b908152602001604051809103902060000160006101000a81548160ff0219169083600a8111156124e0576124df6135e5565b5b02179055507f10ca3d89184491f5d8de422bd36534abe6eb4b4aa1429a261bdb5ff1dd9ac386828260405161251692919061486a565b60405180910390a15050565b60006005826040516125349190613f57565b90815260200160405180910390206001015414158015612576575060006005826040516125619190613f57565b90815260200160405180910390206002015414155b156125b1574260058260405161258c9190613f57565b9081526020016040518091039020600401819055506125ac81600161249c565b6125d8565b426005826040516125c29190613f57565b9081526020016040518091039020600301819055505b50565b6125e3612d75565b73ffffffffffffffffffffffffffffffffffffffff16612601611282565b73ffffffffffffffffffffffffffffffffffffffff1614612657576040517f08c379a000000000000000000000000000000000000000000000000000000000815260040161264e906148e6565b60405180910390fd5b565b60008060009054906101000a900473ffffffffffffffffffffffffffffffffffffffff169050816000806101000a81548173ffffffffffffffffffffffffffffffffffffffff021916908373ffffffffffffffffffffffffffffffffffffffff1602179055508173ffffffffffffffffffffffffffffffffffffffff168173ffffffffffffffffffffffffffffffffffffffff167f8be0079c531659141344cd1fd0a4f28419497f9722a3daafe3b4186f6b6457e060405160405180910390a35050565b6000808273ffffffffffffffffffffffffffffffffffffffff163b119050919050565b600073ffffffffffffffffffffffffffffffffffffffff16816040015173ffffffffffffffffffffffffffffffffffffffff16036127b3576040517f08c379a00000000000000000000000000000000000000000000000000000000081526004016127aa90614952565b60405180910390fd5b600073ffffffffffffffffffffffffffffffffffffffff16816020015173ffffffffffffffffffffffffffffffffffffffff1603612826576040517f08c379a000000000000000000000000000000000000000000000000000000000815260040161281d906149be565b60405180910390fd5b600073ffffffffffffffffffffffffffffffffffffffff16816000015173ffffffffffffffffffffffffffffffffffffffff1603612899576040517f08c379a000000000000000000000000000000000000000000000000000000000815260040161289090614a2a565b60405180910390fd5b6000816060015151116128e1576040517f08c379a00000000000000000000000000000000000000000000000000000000081526004016128d890614a96565b60405180910390fd5b50565b60008160000151602001511461292f576040517f08c379a000000000000000000000000000000000000000000000000000000000815260040161292690614b02565b60405180910390fd5b60008160600151602001511461297a576040517f08c379a000000000000000000000000000000000000000000000000000000000815260040161297190614b6e565b60405180910390fd5b50565b806040015173ffffffffffffffffffffffffffffffffffffffff16826040015173ffffffffffffffffffffffffffffffffffffffff16146129f3576040517f08c379a00000000000000000000000000000000000000000000000000000000081526004016129ea90614bda565b60405180910390fd5b806020015173ffffffffffffffffffffffffffffffffffffffff16826020015173ffffffffffffffffffffffffffffffffffffffff1614612a69576040517f08c379a0000000000000000000000000000000000000000000000000000000008152600401612a6090614c46565b60405180910390fd5b806000015173ffffffffffffffffffffffffffffffffffffffff16826000015173ffffffffffffffffffffffffffffffffffffffff1614612adf576040517f08c379a0000000000000000000000000000000000000000000000000000000008152600401612ad690614cb2565b60405180910390fd5b80606001515182606001515114612b2b576040517f08c379a0000000000000000000000000000000000000000000000000000000008152600401612b2290614d1e565b60405180910390fd5b60005b826060015151811015612bf85781606001518181518110612b5257612b51614d3e565b5b602002602001015173ffffffffffffffffffffffffffffffffffffffff1683606001518281518110612b8757612b86614d3e565b5b602002602001015173ffffffffffffffffffffffffffffffffffffffff1614612be5576040517f08c379a0000000000000000000000000000000000000000000000000000000008152600401612bdc90614db9565b60405180910390fd5b8080612bf090614dd9565b915050612b2e565b505050565b612c0f82600001518260000151612d7d565b612c2182602001518260200151612d7d565b612c3382604001518260400151612d7d565b612c4582606001518260600151612d7d565b5050565b8060000151826000015114612c93576040517f08c379a0000000000000000000000000000000000000000000000000000000008152600401612c8a90614e6d565b60405180910390fd5b8060200151826020015114612cdd576040517f08c379a0000000000000000000000000000000000000000000000000000000008152600401612cd490614ed9565b60405180910390fd5b8060400151826040015114612d27576040517f08c379a0000000000000000000000000000000000000000000000000000000008152600401612d1e90614f45565b60405180910390fd5b8060600151826060015114612d71576040517f08c379a0000000000000000000000000000000000000000000000000000000008152600401612d6890614fb1565b60405180910390fd5b5050565b600033905090565b8060000151826000015114612dc7576040517f08c379a0000000000000000000000000000000000000000000000000000000008152600401612dbe9061501d565b60405180910390fd5b8060200151826020015114612e11576040517f08c379a0000000000000000000000000000000000000000000000000000000008152600401612e0890615089565b60405180910390fd5b5050565b6040518060800160405280606081526020016060815260200160608152602001600081525090565b604051806101c001604052806000600a811115612e5d57612e5c6135e5565b5b8152602001600081526020016000815260200160008152602001600081526020016000815260200160008152602001600081526020016000815260200160008152602001600081526020016000815260200160008152602001600081525090565b604051806080016040528060608152602001612ed8612f82565b8152602001612ee5612fec565b8152602001612ef261302c565b81525090565b828054828255906000526020600020908101928215612f71579160200282015b82811115612f705782518260006101000a81548173ffffffffffffffffffffffffffffffffffffffff021916908373ffffffffffffffffffffffffffffffffffffffff16021790555091602001919060010190612f18565b5b509050612f7e9190613054565b5090565b6040518060800160405280600073ffffffffffffffffffffffffffffffffffffffff168152602001600073ffffffffffffffffffffffffffffffffffffffff168152602001600073ffffffffffffffffffffffffffffffffffffffff168152602001606081525090565b6040518060800160405280612fff613071565b815260200161300c613071565b8152602001613019613071565b8152602001613026613071565b81525090565b6040518060800160405280600081526020016000815260200160008152602001600081525090565b5b8082111561306d576000816000905550600101613055565b5090565b604051806040016040528060008152602001600081525090565b6000604051905090565b600080fd5b600080fd5b600073ffffffffffffffffffffffffffffffffffffffff82169050919050565b60006130ca8261309f565b9050919050565b6130da816130bf565b81146130e557600080fd5b50565b6000813590506130f7816130d1565b92915050565b60006020828403121561311357613112613095565b5b6000613121848285016130e8565b91505092915050565b600081519050919050565b600082825260208201905092915050565b6000819050602082019050919050565b600081519050919050565b600082825260208201905092915050565b60005b83811015613190578082015181840152602081019050613175565b60008484015250505050565b6000601f19601f8301169050919050565b60006131b882613156565b6131c28185613161565b93506131d2818560208601613172565b6131db8161319c565b840191505092915050565b60006131f283836131ad565b905092915050565b6000602082019050919050565b60006132128261312a565b61321c8185613135565b93508360208202850161322e85613146565b8060005b8581101561326a578484038952815161324b85826131e6565b9450613256836131fa565b925060208a01995050600181019050613232565b50829750879550505050505092915050565b600060208201905081810360008301526132968184613207565b905092915050565b600080fd5b600080fd5b7f4e487b7100000000000000000000000000000000000000000000000000000000600052604160045260246000fd5b6132e08261319c565b810181811067ffffffffffffffff821117156132ff576132fe6132a8565b5b80604052505050565b600061331261308b565b905061331e82826132d7565b919050565b600067ffffffffffffffff82111561333e5761333d6132a8565b5b6133478261319c565b9050602081019050919050565b82818337600083830152505050565b600061337661337184613323565b613308565b905082815260208101848484011115613392576133916132a3565b5b61339d848285613354565b509392505050565b600082601f8301126133ba576133b961329e565b5b81356133ca848260208601613363565b91505092915050565b6000602082840312156133e9576133e8613095565b5b600082013567ffffffffffffffff8111156134075761340661309a565b5b613413848285016133a5565b91505092915050565b60008115159050919050565b6134318161341c565b82525050565b600060208201905061344c6000830184613428565b92915050565b6000819050919050565b61346581613452565b811461347057600080fd5b50565b6000813590506134828161345c565b92915050565b600080600080608085870312156134a2576134a1613095565b5b600085013567ffffffffffffffff8111156134c0576134bf61309a565b5b6134cc878288016133a5565b945050602085013567ffffffffffffffff8111156134ed576134ec61309a565b5b6134f9878288016133a5565b935050604085013567ffffffffffffffff81111561351a5761351961309a565b5b613526878288016133a5565b925050606061353787828801613473565b91505092959194509250565b61354c81613452565b82525050565b6000608083016000830151848203600086015261356f82826131ad565b9150506020830151848203602086015261358982826131ad565b915050604083015184820360408601526135a382826131ad565b91505060608301516135b86060860182613543565b508091505092915050565b600060208201905081810360008301526135dd8184613552565b905092915050565b7f4e487b7100000000000000000000000000000000000000000000000000000000600052602160045260246000fd5b600b8110613625576136246135e5565b5b50565b600081905061363682613614565b919050565b600061364682613628565b9050919050565b6136568161363b565b82525050565b6101c082016000820151613673600085018261364d565b5060208201516136866020850182613543565b5060408201516136996040850182613543565b5060608201516136ac6060850182613543565b5060808201516136bf6080850182613543565b5060a08201516136d260a0850182613543565b5060c08201516136e560c0850182613543565b5060e08201516136f860e0850182613543565b5061010082015161370d610100850182613543565b50610120820151613722610120850182613543565b50610140820151613737610140850182613543565b5061016082015161374c610160850182613543565b50610180820151613761610180850182613543565b506101a08201516137766101a0850182613543565b50505050565b60006101c082019050613792600083018461365c565b92915050565b6137a181613452565b82525050565b60006020820190506137bc6000830184613798565b92915050565b6137cb816130bf565b82525050565b60006020820190506137e660008301846137c2565b92915050565b600080fd5b600080fd5b600067ffffffffffffffff821115613811576138106132a8565b5b602082029050602081019050919050565b600080fd5b600061383a613835846137f6565b613308565b9050808382526020820190506020840283018581111561385d5761385c613822565b5b835b81811015613886578061387288826130e8565b84526020840193505060208101905061385f565b5050509392505050565b600082601f8301126138a5576138a461329e565b5b81356138b5848260208601613827565b91505092915050565b6000608082840312156138d4576138d36137ec565b5b6138de6080613308565b905060006138ee848285016130e8565b6000830152506020613902848285016130e8565b6020830152506040613916848285016130e8565b604083015250606082013567ffffffffffffffff81111561393a576139396137f1565b5b61394684828501613890565b60608301525092915050565b600060408284031215613968576139676137ec565b5b6139726040613308565b9050600061398284828501613473565b600083015250602061399684828501613473565b60208301525092915050565b600061010082840312156139b9576139b86137ec565b5b6139c36080613308565b905060006139d384828501613952565b60008301525060406139e784828501613952565b60208301525060806139fb84828501613952565b60408301525060c0613a0f84828501613952565b60608301525092915050565b600060808284031215613a3157613a306137ec565b5b613a3b6080613308565b90506000613a4b84828501613473565b6000830152506020613a5f84828501613473565b6020830152506040613a7384828501613473565b6040830152506060613a8784828501613473565b60608301525092915050565b6000806000806101c08587031215613aae57613aad613095565b5b600085013567ffffffffffffffff811115613acc57613acb61309a565b5b613ad8878288016133a5565b945050602085013567ffffffffffffffff811115613af957613af861309a565b5b613b05878288016138be565b9350506040613b16878288016139a2565b925050610140613b2887828801613a1b565b91505092959194509250565b613b3d816130bf565b82525050565b600081519050919050565b600082825260208201905092915050565b6000819050602082019050919050565b6000613b7b8383613b34565b60208301905092915050565b6000602082019050919050565b6000613b9f82613b43565b613ba98185613b4e565b9350613bb483613b5f565b8060005b83811015613be5578151613bcc8882613b6f565b9750613bd783613b87565b925050600181019050613bb8565b5085935050505092915050565b6000608083016000830151613c0a6000860182613b34565b506020830151613c1d6020860182613b34565b506040830151613c306040860182613b34565b5060608301518482036060860152613c488282613b94565b9150508091505092915050565b604082016000820151613c6b6000850182613543565b506020820151613c7e6020850182613543565b50505050565b61010082016000820151613c9b6000850182613c55565b506020820151613cae6040850182613c55565b506040820151613cc16080850182613c55565b506060820151613cd460c0850182613c55565b50505050565b608082016000820151613cf06000850182613543565b506020820151613d036020850182613543565b506040820151613d166040850182613543565b506060820151613d296060850182613543565b50505050565b60006101c0830160008301518482036000860152613d4d82826131ad565b91505060208301518482036020860152613d678282613bf2565b9150506040830151613d7c6040860182613c84565b506060830151613d90610140860182613cda565b508091505092915050565b60006020820190508181036000830152613db58184613d2f565b905092915050565b600b8110613dca57600080fd5b50565b600081359050613ddc81613dbd565b92915050565b60008060408385031215613df957613df8613095565b5b600083013567ffffffffffffffff811115613e1757613e1661309a565b5b613e23858286016133a5565b9250506020613e3485828601613dcd565b9150509250929050565b7f4e487b7100000000000000000000000000000000000000000000000000000000600052602260045260246000fd5b60006002820490506001821680613e8557607f821691505b602082108103613e9857613e97613e3e565b5b50919050565b600082825260208201905092915050565b7f526573756c74735375626d697474656400000000000000000000000000000000600082015250565b6000613ee5601083613e9e565b9150613ef082613eaf565b602082019050919050565b60006020820190508181036000830152613f1481613ed8565b9050919050565b600081905092915050565b6000613f3182613156565b613f3b8185613f1b565b9350613f4b818560208601613172565b80840191505092915050565b6000613f638284613f26565b915081905092915050565b7f4465616c41677265656400000000000000000000000000000000000000000000600082015250565b6000613fa4600a83613e9e565b9150613faf82613f6e565b602082019050919050565b60006020820190508181036000830152613fd381613f97565b9050919050565b60008190508160005260206000209050919050565b60006020601f8301049050919050565b600082821b905092915050565b60006008830261403c7fffffffffffffffffffffffffffffffffffffffffffffffffffffffffffffffff82613fff565b6140468683613fff565b95508019841693508086168417925050509392505050565b6000819050919050565b600061408361407e61407984613452565b61405e565b613452565b9050919050565b6000819050919050565b61409d83614068565b6140b16140a98261408a565b84845461400c565b825550505050565b600090565b6140c66140b9565b6140d1818484614094565b505050565b5b818110156140f5576140ea6000826140be565b6001810190506140d7565b5050565b601f82111561413a5761410b81613fda565b61411484613fef565b81016020851015614123578190505b61413761412f85613fef565b8301826140d6565b50505b505050565b600082821c905092915050565b600061415d6000198460080261413f565b1980831691505092915050565b6000614176838361414c565b9150826002028217905092915050565b61418f82613156565b67ffffffffffffffff8111156141a8576141a76132a8565b5b6141b28254613e6d565b6141bd8282856140f9565b600060209050601f8311600181146141f057600084156141de578287015190505b6141e8858261416a565b865550614250565b601f1984166141fe86613fda565b60005b8281101561422657848901518255600182019150602085019450602081019050614201565b86831015614243578489015161423f601f89168261414c565b8355505b6001600288020188555050505b505050505050565b7f4465616c20646f6573206e6f7420657869737400000000000000000000000000600082015250565b600061428e601383613e9e565b915061429982614258565b602082019050919050565b600060208201905081810360008301526142bd81614281565b9050919050565b7f4a432068617320616c7265616479206167726565640000000000000000000000600082015250565b60006142fa601583613e9e565b9150614305826142c4565b602082019050919050565b60006020820190508181036000830152614329816142ed565b9050919050565b7f4e487b7100000000000000000000000000000000000000000000000000000000600052601160045260246000fd5b600061436a82613452565b915061437583613452565b925082820261438381613452565b9150828204841483151761439a57614399614330565b5b5092915050565b7f4465616c4e65676f74696174696e670000000000000000000000000000000000600082015250565b60006143d7600f83613e9e565b91506143e2826143a1565b602082019050919050565b60006020820190508181036000830152614406816143ca565b9050919050565b7f526573756c7473436865636b6564000000000000000000000000000000000000600082015250565b6000614443600e83613e9e565b915061444e8261440d565b602082019050919050565b6000602082019050818103600083015261447281614436565b9050919050565b7f496e697469616c697a61626c653a20636f6e747261637420697320616c72656160008201527f647920696e697469616c697a6564000000000000000000000000000000000000602082015250565b60006144d5602e83613e9e565b91506144e082614479565b604082019050919050565b60006020820190508181036000830152614504816144c8565b9050919050565b6000819050919050565b600060ff82169050919050565b600061453d6145386145338461450b565b61405e565b614515565b9050919050565b61454d81614522565b82525050565b60006020820190506145686000830184614544565b92915050565b7f52502068617320616c7265616479206167726565640000000000000000000000600082015250565b60006145a4601583613e9e565b91506145af8261456e565b602082019050919050565b600060208201905081810360008301526145d381614597565b9050919050565b7f4f776e61626c653a206e6577206f776e657220697320746865207a65726f206160008201527f6464726573730000000000000000000000000000000000000000000000000000602082015250565b6000614636602683613e9e565b9150614641826145da565b604082019050919050565b6000602082019050818103600083015261466581614629565b9050919050565b7f436f6e74726f6c6c65724f776e61626c653a20436f6e74726f6c6c657220616460008201527f6472657373206d75737420626520646566696e65640000000000000000000000602082015250565b60006146c8603583613e9e565b91506146d38261466c565b604082019050919050565b600060208201905081810360008301526146f7816146bb565b9050919050565b7f436f6e74726f6c6c65724f776e61626c653a2063616e4368616e6765436f6e7460008201527f726f6c6c6572416464726573732069732064697361626c656400000000000000602082015250565b600061475a603983613e9e565b9150614765826146fe565b604082019050919050565b600060208201905081810360008301526147898161474d565b9050919050565b7f436f6e74726f6c6c65724f776e61626c653a204f6e6c792074686520636f6e7460008201527f726f6c6c65722063616e2063616c6c2074686973206d6574686f640000000000602082015250565b60006147ec603b83613e9e565b91506147f782614790565b604082019050919050565b6000602082019050818103600083015261481b816147df565b9050919050565b600061482d82613156565b6148378185613e9e565b9350614847818560208601613172565b6148508161319c565b840191505092915050565b6148648161363b565b82525050565b600060408201905081810360008301526148848185614822565b9050614893602083018461485b565b9392505050565b7f4f776e61626c653a2063616c6c6572206973206e6f7420746865206f776e6572600082015250565b60006148d0602083613e9e565b91506148db8261489a565b602082019050919050565b600060208201905081810360008301526148ff816148c3565b9050919050565b7f5250206d697373696e6700000000000000000000000000000000000000000000600082015250565b600061493c600a83613e9e565b915061494782614906565b602082019050919050565b6000602082019050818103600083015261496b8161492f565b9050919050565b7f4a43206d697373696e6700000000000000000000000000000000000000000000600082015250565b60006149a8600a83613e9e565b91506149b382614972565b602082019050919050565b600060208201905081810360008301526149d78161499b565b9050919050565b7f536f6c766572206d697373696e67000000000000000000000000000000000000600082015250565b6000614a14600e83613e9e565b9150614a1f826149de565b602082019050919050565b60006020820190508181036000830152614a4381614a07565b9050919050565b7f4d65646961746f7273203c3d2030000000000000000000000000000000000000600082015250565b6000614a80600e83613e9e565b9150614a8b82614a4a565b602082019050919050565b60006020820190508181036000830152614aaf81614a73565b9050919050565b7f4167726565206465706f736974206d7573742062652030000000000000000000600082015250565b6000614aec601783613e9e565b9150614af782614ab6565b602082019050919050565b60006020820190508181036000830152614b1b81614adf565b9050919050565b7f4d656469617465206465706f736974206d757374206265203000000000000000600082015250565b6000614b58601983613e9e565b9150614b6382614b22565b602082019050919050565b60006020820190508181036000830152614b8781614b4b565b9050919050565b7f5250000000000000000000000000000000000000000000000000000000000000600082015250565b6000614bc4600283613e9e565b9150614bcf82614b8e565b602082019050919050565b60006020820190508181036000830152614bf381614bb7565b9050919050565b7f4a43000000000000000000000000000000000000000000000000000000000000600082015250565b6000614c30600283613e9e565b9150614c3b82614bfa565b602082019050919050565b60006020820190508181036000830152614c5f81614c23565b9050919050565b7f536f6c7665720000000000000000000000000000000000000000000000000000600082015250565b6000614c9c600683613e9e565b9150614ca782614c66565b602082019050919050565b60006020820190508181036000830152614ccb81614c8f565b9050919050565b7f4d65646961746f72730000000000000000000000000000000000000000000000600082015250565b6000614d08600983613e9e565b9150614d1382614cd2565b602082019050919050565b60006020820190508181036000830152614d3781614cfb565b9050919050565b7f4e487b7100000000000000000000000000000000000000000000000000000000600052603260045260246000fd5b7f4d65646961746f72000000000000000000000000000000000000000000000000600082015250565b6000614da3600883613e9e565b9150614dae82614d6d565b602082019050919050565b60006020820190508181036000830152614dd281614d96565b9050919050565b6000614de482613452565b91507fffffffffffffffffffffffffffffffffffffffffffffffffffffffffffffffff8203614e1657614e15614330565b5b600182019050919050565b7f5072696365000000000000000000000000000000000000000000000000000000600082015250565b6000614e57600583613e9e565b9150614e6282614e21565b602082019050919050565b60006020820190508181036000830152614e8681614e4a565b9050919050565b7f5061796d656e7400000000000000000000000000000000000000000000000000600082015250565b6000614ec3600783613e9e565b9150614ece82614e8d565b602082019050919050565b60006020820190508181036000830152614ef281614eb6565b9050919050565b7f526573756c747300000000000000000000000000000000000000000000000000600082015250565b6000614f2f600783613e9e565b9150614f3a82614ef9565b602082019050919050565b60006020820190508181036000830152614f5e81614f22565b9050919050565b7f4d6564696174696f6e0000000000000000000000000000000000000000000000600082015250565b6000614f9b600983613e9e565b9150614fa682614f65565b602082019050919050565b60006020820190508181036000830152614fca81614f8e565b9050919050565b7f54696d656f757400000000000000000000000000000000000000000000000000600082015250565b6000615007600783613e9e565b915061501282614fd1565b602082019050919050565b6000602082019050818103600083015261503681614ffa565b9050919050565b7f436f6c6c61746572616c00000000000000000000000000000000000000000000600082015250565b6000615073600a83613e9e565b915061507e8261503d565b602082019050919050565b600060208201905081810360008301526150a281615066565b905091905056fea26469706673582212206a56f96d96948c3037b5db6f6a792bea07bd6e9be4697d33ab798a20f9cbab3a64736f6c63430008150033","opcodes":"PUSH1 0x80 PUSH1 0x40 MSTORE PUSH1 0x1 DUP1 PUSH1 0x14 PUSH2 0x100 EXP DUP2 SLOAD DUP2 PUSH1 0xFF MUL NOT AND SWAP1 DUP4 ISZERO ISZERO MUL OR SWAP1 SSTORE POP PUSH1 0x1 PUSH1 0x2 PUSH1 0x14 PUSH2 0x100 EXP DUP2 SLOAD DUP2 PUSH1 0xFF MUL NOT AND SWAP1 DUP4 ISZERO ISZERO MUL OR SWAP1 SSTORE POP CALLVALUE DUP1 ISZERO PUSH3 0x46 JUMPI PUSH1 0x0 DUP1 REVERT JUMPDEST POP PUSH3 0x67 PUSH3 0x5B PUSH3 0x6D PUSH1 0x20 SHL PUSH1 0x20 SHR JUMP JUMPDEST PUSH3 0x75 PUSH1 0x20 SHL PUSH1 0x20 SHR JUMP JUMPDEST PUSH3 0x139 JUMP JUMPDEST PUSH1 0x0 CALLER SWAP1 POP SWAP1 JUMP JUMPDEST PUSH1 0x0 DUP1 PUSH1 0x0 SWAP1 SLOAD SWAP1 PUSH2 0x100 EXP SWAP1 DIV PUSH20 0xFFFFFFFFFFFFFFFFFFFFFFFFFFFFFFFFFFFFFFFF AND SWAP1 POP DUP2 PUSH1 0x0 DUP1 PUSH2 0x100 EXP DUP2 SLOAD DUP2 PUSH20 0xFFFFFFFFFFFFFFFFFFFFFFFFFFFFFFFFFFFFFFFF MUL NOT AND SWAP1 DUP4 PUSH20 0xFFFFFFFFFFFFFFFFFFFFFFFFFFFFFFFFFFFFFFFF AND MUL OR SWAP1 SSTORE POP DUP2 PUSH20 0xFFFFFFFFFFFFFFFFFFFFFFFFFFFFFFFFFFFFFFFF AND DUP2 PUSH20 0xFFFFFFFFFFFFFFFFFFFFFFFFFFFFFFFFFFFFFFFF AND PUSH32 0x8BE0079C531659141344CD1FD0A4F28419497F9722A3DAAFE3B4186F6B6457E0 PUSH1 0x40 MLOAD PUSH1 0x40 MLOAD DUP1 SWAP2 SUB SWAP1 LOG3 POP POP JUMP JUMPDEST PUSH2 0x50DF DUP1 PUSH3 0x149 PUSH1 0x0 CODECOPY PUSH1 0x0 RETURN INVALID PUSH1 0x80 PUSH1 0x40 MSTORE CALLVALUE DUP1 ISZERO PUSH2 0x10 JUMPI PUSH1 0x0 DUP1 REVERT JUMPDEST POP PUSH1 0x4 CALLDATASIZE LT PUSH2 0x1A9 JUMPI PUSH1 0x0 CALLDATALOAD PUSH1 0xE0 SHR DUP1 PUSH4 0x8224CE5F GT PUSH2 0xF9 JUMPI DUP1 PUSH4 0xCDD82D1D GT PUSH2 0x97 JUMPI DUP1 PUSH4 0xE850BE37 GT PUSH2 0x71 JUMPI DUP1 PUSH4 0xE850BE37 EQ PUSH2 0x4DC JUMPI DUP1 PUSH4 0xEC95B967 EQ PUSH2 0x4F8 JUMPI DUP1 PUSH4 0xF2FDE38B EQ PUSH2 0x528 JUMPI DUP1 PUSH4 0xF3D3D448 EQ PUSH2 0x544 JUMPI PUSH2 0x1A9 JUMP JUMPDEST DUP1 PUSH4 0xCDD82D1D EQ PUSH2 0x460 JUMPI DUP1 PUSH4 0xE7079180 EQ PUSH2 0x490 JUMPI DUP1 PUSH4 0xE7B957D1 EQ PUSH2 0x4C0 JUMPI PUSH2 0x1A9 JUMP JUMPDEST DUP1 PUSH4 0xA4702958 GT PUSH2 0xD3 JUMPI DUP1 PUSH4 0xA4702958 EQ PUSH2 0x3D8 JUMPI DUP1 PUSH4 0xA6370B0E EQ PUSH2 0x3E2 JUMPI DUP1 PUSH4 0xB050E74B EQ PUSH2 0x412 JUMPI DUP1 PUSH4 0xC57380A2 EQ PUSH2 0x442 JUMPI PUSH2 0x1A9 JUMP JUMPDEST DUP1 PUSH4 0x8224CE5F EQ PUSH2 0x36E JUMPI DUP1 PUSH4 0x824518AA EQ PUSH2 0x39E JUMPI DUP1 PUSH4 0x8DA5CB5B EQ PUSH2 0x3BA JUMPI PUSH2 0x1A9 JUMP JUMPDEST DUP1 PUSH4 0x498CC70D GT PUSH2 0x166 JUMPI DUP1 PUSH4 0x73DB5C6A GT PUSH2 0x140 JUMPI DUP1 PUSH4 0x73DB5C6A EQ PUSH2 0x2FC JUMPI DUP1 PUSH4 0x795F9ABF EQ PUSH2 0x32C JUMPI DUP1 PUSH4 0x80FFDFE0 EQ PUSH2 0x348 JUMPI DUP1 PUSH4 0x8129FC1C EQ PUSH2 0x364 JUMPI PUSH2 0x1A9 JUMP JUMPDEST DUP1 PUSH4 0x498CC70D EQ PUSH2 0x2A6 JUMPI DUP1 PUSH4 0x511A9F68 EQ PUSH2 0x2D6 JUMPI DUP1 PUSH4 0x715018A6 EQ PUSH2 0x2F2 JUMPI PUSH2 0x1A9 JUMP JUMPDEST DUP1 PUSH4 0x11D5AF33 EQ PUSH2 0x1AE JUMPI DUP1 PUSH4 0x2244AD2B EQ PUSH2 0x1DE JUMPI DUP1 PUSH4 0x297F9E55 EQ PUSH2 0x20E JUMPI DUP1 PUSH4 0x3955548E EQ PUSH2 0x22A JUMPI DUP1 PUSH4 0x3C4135DA EQ PUSH2 0x25A JUMPI DUP1 PUSH4 0x46834D1E EQ PUSH2 0x28A JUMPI JUMPDEST PUSH1 0x0 DUP1 REVERT JUMPDEST PUSH2 0x1C8 PUSH1 0x4 DUP1 CALLDATASIZE SUB DUP2 ADD SWAP1 PUSH2 0x1C3 SWAP2 SWAP1 PUSH2 0x30FD JUMP JUMPDEST PUSH2 0x560 JUMP JUMPDEST PUSH1 0x40 MLOAD PUSH2 0x1D5 SWAP2 SWAP1 PUSH2 0x327C JUMP JUMPDEST PUSH1 0x40 MLOAD DUP1 SWAP2 SUB SWAP1 RETURN JUMPDEST PUSH2 0x1F8 PUSH1 0x4 DUP1 CALLDATASIZE SUB DUP2 ADD SWAP1 PUSH2 0x1F3 SWAP2 SWAP1 PUSH2 0x33D3 JUMP JUMPDEST PUSH2 0x678 JUMP JUMPDEST PUSH1 0x40 MLOAD PUSH2 0x205 SWAP2 SWAP1 PUSH2 0x3437 JUMP JUMPDEST PUSH1 0x40 MLOAD DUP1 SWAP2 SUB SWAP1 RETURN JUMPDEST PUSH2 0x228 PUSH1 0x4 DUP1 CALLDATASIZE SUB DUP2 ADD SWAP1 PUSH2 0x223 SWAP2 SWAP1 PUSH2 0x33D3 JUMP JUMPDEST PUSH2 0x691 JUMP JUMPDEST STOP JUMPDEST PUSH2 0x244 PUSH1 0x4 DUP1 CALLDATASIZE SUB DUP2 ADD SWAP1 PUSH2 0x23F SWAP2 SWAP1 PUSH2 0x3488 JUMP JUMPDEST PUSH2 0x718 JUMP JUMPDEST PUSH1 0x40 MLOAD PUSH2 0x251 SWAP2 SWAP1 PUSH2 0x35C3 JUMP JUMPDEST PUSH1 0x40 MLOAD DUP1 SWAP2 SUB SWAP1 RETURN JUMPDEST PUSH2 0x274 PUSH1 0x4 DUP1 CALLDATASIZE SUB DUP2 ADD SWAP1 PUSH2 0x26F SWAP2 SWAP1 PUSH2 0x33D3 JUMP JUMPDEST PUSH2 0xA25 JUMP JUMPDEST PUSH1 0x40 MLOAD PUSH2 0x281 SWAP2 SWAP1 PUSH2 0x377C JUMP JUMPDEST PUSH1 0x40 MLOAD DUP1 SWAP2 SUB SWAP1 RETURN JUMPDEST PUSH2 0x2A4 PUSH1 0x4 DUP1 CALLDATASIZE SUB DUP2 ADD SWAP1 PUSH2 0x29F SWAP2 SWAP1 PUSH2 0x33D3 JUMP JUMPDEST PUSH2 0xBFF JUMP JUMPDEST STOP JUMPDEST PUSH2 0x2C0 PUSH1 0x4 DUP1 CALLDATASIZE SUB DUP2 ADD SWAP1 PUSH2 0x2BB SWAP2 SWAP1 PUSH2 0x33D3 JUMP JUMPDEST PUSH2 0xC86 JUMP JUMPDEST PUSH1 0x40 MLOAD PUSH2 0x2CD SWAP2 SWAP1 PUSH2 0x35C3 JUMP JUMPDEST PUSH1 0x40 MLOAD DUP1 SWAP2 SUB SWAP1 RETURN JUMPDEST PUSH2 0x2F0 PUSH1 0x4 DUP1 CALLDATASIZE SUB DUP2 ADD SWAP1 PUSH2 0x2EB SWAP2 SWAP1 PUSH2 0x33D3 JUMP JUMPDEST PUSH2 0xE7E JUMP JUMPDEST STOP JUMPDEST PUSH2 0x2FA PUSH2 0xF05 JUMP JUMPDEST STOP JUMPDEST PUSH2 0x316 PUSH1 0x4 DUP1 CALLDATASIZE SUB DUP2 ADD SWAP1 PUSH2 0x311 SWAP2 SWAP1 PUSH2 0x33D3 JUMP JUMPDEST PUSH2 0xF19 JUMP JUMPDEST PUSH1 0x40 MLOAD PUSH2 0x323 SWAP2 SWAP1 PUSH2 0x37A7 JUMP JUMPDEST PUSH1 0x40 MLOAD DUP1 SWAP2 SUB SWAP1 RETURN JUMPDEST PUSH2 0x346 PUSH1 0x4 DUP1 CALLDATASIZE SUB DUP2 ADD SWAP1 PUSH2 0x341 SWAP2 SWAP1 PUSH2 0x33D3 JUMP JUMPDEST PUSH2 0xF73 JUMP JUMPDEST STOP JUMPDEST PUSH2 0x362 PUSH1 0x4 DUP1 CALLDATASIZE SUB DUP2 ADD SWAP1 PUSH2 0x35D SWAP2 SWAP1 PUSH2 0x33D3 JUMP JUMPDEST PUSH2 0xFFA JUMP JUMPDEST STOP JUMPDEST PUSH2 0x36C PUSH2 0x1081 JUMP JUMPDEST STOP JUMPDEST PUSH2 0x388 PUSH1 0x4 DUP1 CALLDATASIZE SUB DUP2 ADD SWAP1 PUSH2 0x383 SWAP2 SWAP1 PUSH2 0x33D3 JUMP JUMPDEST PUSH2 0x11BA JUMP JUMPDEST PUSH1 0x40 MLOAD PUSH2 0x395 SWAP2 SWAP1 PUSH2 0x37A7 JUMP JUMPDEST PUSH1 0x40 MLOAD DUP1 SWAP2 SUB SWAP1 RETURN JUMPDEST PUSH2 0x3B8 PUSH1 0x4 DUP1 CALLDATASIZE SUB DUP2 ADD SWAP1 PUSH2 0x3B3 SWAP2 SWAP1 PUSH2 0x33D3 JUMP JUMPDEST PUSH2 0x11FB JUMP JUMPDEST STOP JUMPDEST PUSH2 0x3C2 PUSH2 0x1282 JUMP JUMPDEST PUSH1 0x40 MLOAD PUSH2 0x3CF SWAP2 SWAP1 PUSH2 0x37D1 JUMP JUMPDEST PUSH1 0x40 MLOAD DUP1 SWAP2 SUB SWAP1 RETURN JUMPDEST PUSH2 0x3E0 PUSH2 0x12AB JUMP JUMPDEST STOP JUMPDEST PUSH2 0x3FC PUSH1 0x4 DUP1 CALLDATASIZE SUB DUP2 ADD SWAP1 PUSH2 0x3F7 SWAP2 SWAP1 PUSH2 0x3A93 JUMP JUMPDEST PUSH2 0x12D0 JUMP JUMPDEST PUSH1 0x40 MLOAD PUSH2 0x409 SWAP2 SWAP1 PUSH2 0x3D9B JUMP JUMPDEST PUSH1 0x40 MLOAD DUP1 SWAP2 SUB SWAP1 RETURN JUMPDEST PUSH2 0x42C PUSH1 0x4 DUP1 CALLDATASIZE SUB DUP2 ADD SWAP1 PUSH2 0x427 SWAP2 SWAP1 PUSH2 0x3DE2 JUMP JUMPDEST PUSH2 0x19DD JUMP JUMPDEST PUSH1 0x40 MLOAD PUSH2 0x439 SWAP2 SWAP1 PUSH2 0x3437 JUMP JUMPDEST PUSH1 0x40 MLOAD DUP1 SWAP2 SUB SWAP1 RETURN JUMPDEST PUSH2 0x44A PUSH2 0x1A79 JUMP JUMPDEST PUSH1 0x40 MLOAD PUSH2 0x457 SWAP2 SWAP1 PUSH2 0x37D1 JUMP JUMPDEST PUSH1 0x40 MLOAD DUP1 SWAP2 SUB SWAP1 RETURN JUMPDEST PUSH2 0x47A PUSH1 0x4 DUP1 CALLDATASIZE SUB DUP2 ADD SWAP1 PUSH2 0x475 SWAP2 SWAP1 PUSH2 0x33D3 JUMP JUMPDEST PUSH2 0x1AA3 JUMP JUMPDEST PUSH1 0x40 MLOAD PUSH2 0x487 SWAP2 SWAP1 PUSH2 0x377C JUMP JUMPDEST PUSH1 0x40 MLOAD DUP1 SWAP2 SUB SWAP1 RETURN JUMPDEST PUSH2 0x4AA PUSH1 0x4 DUP1 CALLDATASIZE SUB DUP2 ADD SWAP1 PUSH2 0x4A5 SWAP2 SWAP1 PUSH2 0x33D3 JUMP JUMPDEST PUSH2 0x1B99 JUMP JUMPDEST PUSH1 0x40 MLOAD PUSH2 0x4B7 SWAP2 SWAP1 PUSH2 0x3D9B JUMP JUMPDEST PUSH1 0x40 MLOAD DUP1 SWAP2 SUB SWAP1 RETURN JUMPDEST PUSH2 0x4DA PUSH1 0x4 DUP1 CALLDATASIZE SUB DUP2 ADD SWAP1 PUSH2 0x4D5 SWAP2 SWAP1 PUSH2 0x33D3 JUMP JUMPDEST PUSH2 0x1EF7 JUMP JUMPDEST STOP JUMPDEST PUSH2 0x4F6 PUSH1 0x4 DUP1 CALLDATASIZE SUB DUP2 ADD SWAP1 PUSH2 0x4F1 SWAP2 SWAP1 PUSH2 0x33D3 JUMP JUMPDEST PUSH2 0x1F7E JUMP JUMPDEST STOP JUMPDEST PUSH2 0x512 PUSH1 0x4 DUP1 CALLDATASIZE SUB DUP2 ADD SWAP1 PUSH2 0x50D SWAP2 SWAP1 PUSH2 0x33D3 JUMP JUMPDEST PUSH2 0x2005 JUMP JUMPDEST PUSH1 0x40 MLOAD PUSH2 0x51F SWAP2 SWAP1 PUSH2 0x377C JUMP JUMPDEST PUSH1 0x40 MLOAD DUP1 SWAP2 SUB SWAP1 RETURN JUMPDEST PUSH2 0x542 PUSH1 0x4 DUP1 CALLDATASIZE SUB DUP2 ADD SWAP1 PUSH2 0x53D SWAP2 SWAP1 PUSH2 0x30FD JUMP JUMPDEST PUSH2 0x21DF JUMP JUMPDEST STOP JUMPDEST PUSH2 0x55E PUSH1 0x4 DUP1 CALLDATASIZE SUB DUP2 ADD SWAP1 PUSH2 0x559 SWAP2 SWAP1 PUSH2 0x30FD JUMP JUMPDEST PUSH2 0x2262 JUMP JUMPDEST STOP JUMPDEST PUSH1 0x60 PUSH1 0x4 PUSH1 0x0 DUP4 PUSH20 0xFFFFFFFFFFFFFFFFFFFFFFFFFFFFFFFFFFFFFFFF AND PUSH20 0xFFFFFFFFFFFFFFFFFFFFFFFFFFFFFFFFFFFFFFFF AND DUP2 MSTORE PUSH1 0x20 ADD SWAP1 DUP2 MSTORE PUSH1 0x20 ADD PUSH1 0x0 KECCAK256 DUP1 SLOAD DUP1 PUSH1 0x20 MUL PUSH1 0x20 ADD PUSH1 0x40 MLOAD SWAP1 DUP2 ADD PUSH1 0x40 MSTORE DUP1 SWAP3 SWAP2 SWAP1 DUP2 DUP2 MSTORE PUSH1 0x20 ADD PUSH1 0x0 SWAP1 JUMPDEST DUP3 DUP3 LT ISZERO PUSH2 0x66D JUMPI DUP4 DUP3 SWAP1 PUSH1 0x0 MSTORE PUSH1 0x20 PUSH1 0x0 KECCAK256 ADD DUP1 SLOAD PUSH2 0x5E0 SWAP1 PUSH2 0x3E6D JUMP JUMPDEST DUP1 PUSH1 0x1F ADD PUSH1 0x20 DUP1 SWAP2 DIV MUL PUSH1 0x20 ADD PUSH1 0x40 MLOAD SWAP1 DUP2 ADD PUSH1 0x40 MSTORE DUP1 SWAP3 SWAP2 SWAP1 DUP2 DUP2 MSTORE PUSH1 0x20 ADD DUP3 DUP1 SLOAD PUSH2 0x60C SWAP1 PUSH2 0x3E6D JUMP JUMPDEST DUP1 ISZERO PUSH2 0x659 JUMPI DUP1 PUSH1 0x1F LT PUSH2 0x62E JUMPI PUSH2 0x100 DUP1 DUP4 SLOAD DIV MUL DUP4 MSTORE SWAP2 PUSH1 0x20 ADD SWAP2 PUSH2 0x659 JUMP JUMPDEST DUP3 ADD SWAP2 SWAP1 PUSH1 0x0 MSTORE PUSH1 0x20 PUSH1 0x0 KECCAK256 SWAP1 JUMPDEST DUP2 SLOAD DUP2 MSTORE SWAP1 PUSH1 0x1 ADD SWAP1 PUSH1 0x20 ADD DUP1 DUP4 GT PUSH2 0x63C JUMPI DUP3 SWAP1 SUB PUSH1 0x1F AND DUP3 ADD SWAP2 JUMPDEST POP POP POP POP POP DUP2 MSTORE PUSH1 0x20 ADD SWAP1 PUSH1 0x1 ADD SWAP1 PUSH2 0x5C1 JUMP JUMPDEST POP POP POP POP SWAP1 POP SWAP2 SWAP1 POP JUMP JUMPDEST PUSH1 0x0 DUP1 PUSH2 0x684 DUP4 PUSH2 0x1B99 JUMP JUMPDEST PUSH1 0x0 ADD MLOAD MLOAD GT SWAP1 POP SWAP2 SWAP1 POP JUMP JUMPDEST PUSH2 0x699 PUSH2 0x236C JUMP JUMPDEST POP PUSH2 0x6A5 DUP2 PUSH1 0x2 PUSH2 0x19DD JUMP JUMPDEST PUSH2 0x6E4 JUMPI PUSH1 0x40 MLOAD PUSH32 0x8C379A000000000000000000000000000000000000000000000000000000000 DUP2 MSTORE PUSH1 0x4 ADD PUSH2 0x6DB SWAP1 PUSH2 0x3EFB JUMP JUMPDEST PUSH1 0x40 MLOAD DUP1 SWAP2 SUB SWAP1 REVERT JUMPDEST TIMESTAMP PUSH1 0x5 DUP3 PUSH1 0x40 MLOAD PUSH2 0x6F5 SWAP2 SWAP1 PUSH2 0x3F57 JUMP JUMPDEST SWAP1 DUP2 MSTORE PUSH1 0x20 ADD PUSH1 0x40 MLOAD DUP1 SWAP2 SUB SWAP1 KECCAK256 PUSH1 0x6 ADD DUP2 SWAP1 SSTORE POP PUSH2 0x715 DUP2 PUSH1 0x3 PUSH2 0x249C JUMP JUMPDEST POP JUMP JUMPDEST PUSH2 0x720 PUSH2 0x2E15 JUMP JUMPDEST PUSH2 0x728 PUSH2 0x236C JUMP JUMPDEST POP PUSH2 0x734 DUP6 PUSH1 0x1 PUSH2 0x19DD JUMP JUMPDEST PUSH2 0x773 JUMPI PUSH1 0x40 MLOAD PUSH32 0x8C379A000000000000000000000000000000000000000000000000000000000 DUP2 MSTORE PUSH1 0x4 ADD PUSH2 0x76A SWAP1 PUSH2 0x3FBA JUMP JUMPDEST PUSH1 0x40 MLOAD DUP1 SWAP2 SUB SWAP1 REVERT JUMPDEST TIMESTAMP PUSH1 0x5 DUP7 PUSH1 0x40 MLOAD PUSH2 0x784 SWAP2 SWAP1 PUSH2 0x3F57 JUMP JUMPDEST SWAP1 DUP2 MSTORE PUSH1 0x20 ADD PUSH1 0x40 MLOAD DUP1 SWAP2 SUB SWAP1 KECCAK256 PUSH1 0x5 ADD DUP2 SWAP1 SSTORE POP PUSH2 0x7A4 DUP6 PUSH1 0x2 PUSH2 0x249C JUMP JUMPDEST PUSH1 0x40 MLOAD DUP1 PUSH1 0x80 ADD PUSH1 0x40 MSTORE DUP1 DUP7 DUP2 MSTORE PUSH1 0x20 ADD DUP6 DUP2 MSTORE PUSH1 0x20 ADD DUP5 DUP2 MSTORE PUSH1 0x20 ADD DUP4 DUP2 MSTORE POP PUSH1 0x6 DUP7 PUSH1 0x40 MLOAD PUSH2 0x7D5 SWAP2 SWAP1 PUSH2 0x3F57 JUMP JUMPDEST SWAP1 DUP2 MSTORE PUSH1 0x20 ADD PUSH1 0x40 MLOAD DUP1 SWAP2 SUB SWAP1 KECCAK256 PUSH1 0x0 DUP3 ADD MLOAD DUP2 PUSH1 0x0 ADD SWAP1 DUP2 PUSH2 0x7F8 SWAP2 SWAP1 PUSH2 0x4186 JUMP JUMPDEST POP PUSH1 0x20 DUP3 ADD MLOAD DUP2 PUSH1 0x1 ADD SWAP1 DUP2 PUSH2 0x80E SWAP2 SWAP1 PUSH2 0x4186 JUMP JUMPDEST POP PUSH1 0x40 DUP3 ADD MLOAD DUP2 PUSH1 0x2 ADD SWAP1 DUP2 PUSH2 0x824 SWAP2 SWAP1 PUSH2 0x4186 JUMP JUMPDEST POP PUSH1 0x60 DUP3 ADD MLOAD DUP2 PUSH1 0x3 ADD SSTORE SWAP1 POP POP PUSH1 0x6 DUP6 PUSH1 0x40 MLOAD PUSH2 0x842 SWAP2 SWAP1 PUSH2 0x3F57 JUMP JUMPDEST SWAP1 DUP2 MSTORE PUSH1 0x20 ADD PUSH1 0x40 MLOAD DUP1 SWAP2 SUB SWAP1 KECCAK256 PUSH1 0x40 MLOAD DUP1 PUSH1 0x80 ADD PUSH1 0x40 MSTORE SWAP1 DUP2 PUSH1 0x0 DUP3 ADD DUP1 SLOAD PUSH2 0x86B SWAP1 PUSH2 0x3E6D JUMP JUMPDEST DUP1 PUSH1 0x1F ADD PUSH1 0x20 DUP1 SWAP2 DIV MUL PUSH1 0x20 ADD PUSH1 0x40 MLOAD SWAP1 DUP2 ADD PUSH1 0x40 MSTORE DUP1 SWAP3 SWAP2 SWAP1 DUP2 DUP2 MSTORE PUSH1 0x20 ADD DUP3 DUP1 SLOAD PUSH2 0x897 SWAP1 PUSH2 0x3E6D JUMP JUMPDEST DUP1 ISZERO PUSH2 0x8E4 JUMPI DUP1 PUSH1 0x1F LT PUSH2 0x8B9 JUMPI PUSH2 0x100 DUP1 DUP4 SLOAD DIV MUL DUP4 MSTORE SWAP2 PUSH1 0x20 ADD SWAP2 PUSH2 0x8E4 JUMP JUMPDEST DUP3 ADD SWAP2 SWAP1 PUSH1 0x0 MSTORE PUSH1 0x20 PUSH1 0x0 KECCAK256 SWAP1 JUMPDEST DUP2 SLOAD DUP2 MSTORE SWAP1 PUSH1 0x1 ADD SWAP1 PUSH1 0x20 ADD DUP1 DUP4 GT PUSH2 0x8C7 JUMPI DUP3 SWAP1 SUB PUSH1 0x1F AND DUP3 ADD SWAP2 JUMPDEST POP POP POP POP POP DUP2 MSTORE PUSH1 0x20 ADD PUSH1 0x1 DUP3 ADD DUP1 SLOAD PUSH2 0x8FD SWAP1 PUSH2 0x3E6D JUMP JUMPDEST DUP1 PUSH1 0x1F ADD PUSH1 0x20 DUP1 SWAP2 DIV MUL PUSH1 0x20 ADD PUSH1 0x40 MLOAD SWAP1 DUP2 ADD PUSH1 0x40 MSTORE DUP1 SWAP3 SWAP2 SWAP1 DUP2 DUP2 MSTORE PUSH1 0x20 ADD DUP3 DUP1 SLOAD PUSH2 0x929 SWAP1 PUSH2 0x3E6D JUMP JUMPDEST DUP1 ISZERO PUSH2 0x976 JUMPI DUP1 PUSH1 0x1F LT PUSH2 0x94B JUMPI PUSH2 0x100 DUP1 DUP4 SLOAD DIV MUL DUP4 MSTORE SWAP2 PUSH1 0x20 ADD SWAP2 PUSH2 0x976 JUMP JUMPDEST DUP3 ADD SWAP2 SWAP1 PUSH1 0x0 MSTORE PUSH1 0x20 PUSH1 0x0 KECCAK256 SWAP1 JUMPDEST DUP2 SLOAD DUP2 MSTORE SWAP1 PUSH1 0x1 ADD SWAP1 PUSH1 0x20 ADD DUP1 DUP4 GT PUSH2 0x959 JUMPI DUP3 SWAP1 SUB PUSH1 0x1F AND DUP3 ADD SWAP2 JUMPDEST POP POP POP POP POP DUP2 MSTORE PUSH1 0x20 ADD PUSH1 0x2 DUP3 ADD DUP1 SLOAD PUSH2 0x98F SWAP1 PUSH2 0x3E6D JUMP JUMPDEST DUP1 PUSH1 0x1F ADD PUSH1 0x20 DUP1 SWAP2 DIV MUL PUSH1 0x20 ADD PUSH1 0x40 MLOAD SWAP1 DUP2 ADD PUSH1 0x40 MSTORE DUP1 SWAP3 SWAP2 SWAP1 DUP2 DUP2 MSTORE PUSH1 0x20 ADD DUP3 DUP1 SLOAD PUSH2 0x9BB SWAP1 PUSH2 0x3E6D JUMP JUMPDEST DUP1 ISZERO PUSH2 0xA08 JUMPI DUP1 PUSH1 0x1F LT PUSH2 0x9DD JUMPI PUSH2 0x100 DUP1 DUP4 SLOAD DIV MUL DUP4 MSTORE SWAP2 PUSH1 0x20 ADD SWAP2 PUSH2 0xA08 JUMP JUMPDEST DUP3 ADD SWAP2 SWAP1 PUSH1 0x0 MSTORE PUSH1 0x20 PUSH1 0x0 KECCAK256 SWAP1 JUMPDEST DUP2 SLOAD DUP2 MSTORE SWAP1 PUSH1 0x1 ADD SWAP1 PUSH1 0x20 ADD DUP1 DUP4 GT PUSH2 0x9EB JUMPI DUP3 SWAP1 SUB PUSH1 0x1F AND DUP3 ADD SWAP2 JUMPDEST POP POP POP POP POP DUP2 MSTORE PUSH1 0x20 ADD PUSH1 0x3 DUP3 ADD SLOAD DUP2 MSTORE POP POP SWAP1 POP SWAP5 SWAP4 POP POP POP POP JUMP JUMPDEST PUSH2 0xA2D PUSH2 0x2E3D JUMP JUMPDEST PUSH2 0xA35 PUSH2 0x236C JUMP JUMPDEST POP PUSH2 0xA3F DUP3 PUSH2 0x678 JUMP JUMPDEST PUSH2 0xA7E JUMPI PUSH1 0x40 MLOAD PUSH32 0x8C379A000000000000000000000000000000000000000000000000000000000 DUP2 MSTORE PUSH1 0x4 ADD PUSH2 0xA75 SWAP1 PUSH2 0x42A4 JUMP JUMPDEST PUSH1 0x40 MLOAD DUP1 SWAP2 SUB SWAP1 REVERT JUMPDEST PUSH1 0x0 PUSH1 0x5 DUP4 PUSH1 0x40 MLOAD PUSH2 0xA90 SWAP2 SWAP1 PUSH2 0x3F57 JUMP JUMPDEST SWAP1 DUP2 MSTORE PUSH1 0x20 ADD PUSH1 0x40 MLOAD DUP1 SWAP2 SUB SWAP1 KECCAK256 PUSH1 0x2 ADD SLOAD EQ PUSH2 0xAE2 JUMPI PUSH1 0x40 MLOAD PUSH32 0x8C379A000000000000000000000000000000000000000000000000000000000 DUP2 MSTORE PUSH1 0x4 ADD PUSH2 0xAD9 SWAP1 PUSH2 0x4310 JUMP JUMPDEST PUSH1 0x40 MLOAD DUP1 SWAP2 SUB SWAP1 REVERT JUMPDEST TIMESTAMP PUSH1 0x5 DUP4 PUSH1 0x40 MLOAD PUSH2 0xAF3 SWAP2 SWAP1 PUSH2 0x3F57 JUMP JUMPDEST SWAP1 DUP2 MSTORE PUSH1 0x20 ADD PUSH1 0x40 MLOAD DUP1 SWAP2 SUB SWAP1 KECCAK256 PUSH1 0x2 ADD DUP2 SWAP1 SSTORE POP PUSH2 0xB11 DUP3 PUSH2 0x2522 JUMP JUMPDEST PUSH1 0x5 DUP3 PUSH1 0x40 MLOAD PUSH2 0xB21 SWAP2 SWAP1 PUSH2 0x3F57 JUMP JUMPDEST SWAP1 DUP2 MSTORE PUSH1 0x20 ADD PUSH1 0x40 MLOAD DUP1 SWAP2 SUB SWAP1 KECCAK256 PUSH1 0x40 MLOAD DUP1 PUSH2 0x1C0 ADD PUSH1 0x40 MSTORE SWAP1 DUP2 PUSH1 0x0 DUP3 ADD PUSH1 0x0 SWAP1 SLOAD SWAP1 PUSH2 0x100 EXP SWAP1 DIV PUSH1 0xFF AND PUSH1 0xA DUP2 GT ISZERO PUSH2 0xB60 JUMPI PUSH2 0xB5F PUSH2 0x35E5 JUMP JUMPDEST JUMPDEST PUSH1 0xA DUP2 GT ISZERO PUSH2 0xB72 JUMPI PUSH2 0xB71 PUSH2 0x35E5 JUMP JUMPDEST JUMPDEST DUP2 MSTORE PUSH1 0x20 ADD PUSH1 0x1 DUP3 ADD SLOAD DUP2 MSTORE PUSH1 0x20 ADD PUSH1 0x2 DUP3 ADD SLOAD DUP2 MSTORE PUSH1 0x20 ADD PUSH1 0x3 DUP3 ADD SLOAD DUP2 MSTORE PUSH1 0x20 ADD PUSH1 0x4 DUP3 ADD SLOAD DUP2 MSTORE PUSH1 0x20 ADD PUSH1 0x5 DUP3 ADD SLOAD DUP2 MSTORE PUSH1 0x20 ADD PUSH1 0x6 DUP3 ADD SLOAD DUP2 MSTORE PUSH1 0x20 ADD PUSH1 0x7 DUP3 ADD SLOAD DUP2 MSTORE PUSH1 0x20 ADD PUSH1 0x8 DUP3 ADD SLOAD DUP2 MSTORE PUSH1 0x20 ADD PUSH1 0x9 DUP3 ADD SLOAD DUP2 MSTORE PUSH1 0x20 ADD PUSH1 0xA DUP3 ADD SLOAD DUP2 MSTORE PUSH1 0x20 ADD PUSH1 0xB DUP3 ADD SLOAD DUP2 MSTORE PUSH1 0x20 ADD PUSH1 0xC DUP3 ADD SLOAD DUP2 MSTORE PUSH1 0x20 ADD PUSH1 0xD DUP3 ADD SLOAD DUP2 MSTORE POP POP SWAP1 POP SWAP2 SWAP1 POP JUMP JUMPDEST PUSH2 0xC07 PUSH2 0x236C JUMP JUMPDEST POP PUSH2 0xC13 DUP2 PUSH1 0x2 PUSH2 0x19DD JUMP JUMPDEST PUSH2 0xC52 JUMPI PUSH1 0x40 MLOAD PUSH32 0x8C379A000000000000000000000000000000000000000000000000000000000 DUP2 MSTORE PUSH1 0x4 ADD PUSH2 0xC49 SWAP1 PUSH2 0x3EFB JUMP JUMPDEST PUSH1 0x40 MLOAD DUP1 SWAP2 SUB SWAP1 REVERT JUMPDEST TIMESTAMP PUSH1 0x5 DUP3 PUSH1 0x40 MLOAD PUSH2 0xC63 SWAP2 SWAP1 PUSH2 0x3F57 JUMP JUMPDEST SWAP1 DUP2 MSTORE PUSH1 0x20 ADD PUSH1 0x40 MLOAD DUP1 SWAP2 SUB SWAP1 KECCAK256 PUSH1 0x7 ADD DUP2 SWAP1 SSTORE POP PUSH2 0xC83 DUP2 PUSH1 0x4 PUSH2 0x249C JUMP JUMPDEST POP JUMP JUMPDEST PUSH2 0xC8E PUSH2 0x2E15 JUMP JUMPDEST PUSH1 0x6 DUP3 PUSH1 0x40 MLOAD PUSH2 0xC9E SWAP2 SWAP1 PUSH2 0x3F57 JUMP JUMPDEST SWAP1 DUP2 MSTORE PUSH1 0x20 ADD PUSH1 0x40 MLOAD DUP1 SWAP2 SUB SWAP1 KECCAK256 PUSH1 0x40 MLOAD DUP1 PUSH1 0x80 ADD PUSH1 0x40 MSTORE SWAP1 DUP2 PUSH1 0x0 DUP3 ADD DUP1 SLOAD PUSH2 0xCC7 SWAP1 PUSH2 0x3E6D JUMP JUMPDEST DUP1 PUSH1 0x1F ADD PUSH1 0x20 DUP1 SWAP2 DIV MUL PUSH1 0x20 ADD PUSH1 0x40 MLOAD SWAP1 DUP2 ADD PUSH1 0x40 MSTORE DUP1 SWAP3 SWAP2 SWAP1 DUP2 DUP2 MSTORE PUSH1 0x20 ADD DUP3 DUP1 SLOAD PUSH2 0xCF3 SWAP1 PUSH2 0x3E6D JUMP JUMPDEST DUP1 ISZERO PUSH2 0xD40 JUMPI DUP1 PUSH1 0x1F LT PUSH2 0xD15 JUMPI PUSH2 0x100 DUP1 DUP4 SLOAD DIV MUL DUP4 MSTORE SWAP2 PUSH1 0x20 ADD SWAP2 PUSH2 0xD40 JUMP JUMPDEST DUP3 ADD SWAP2 SWAP1 PUSH1 0x0 MSTORE PUSH1 0x20 PUSH1 0x0 KECCAK256 SWAP1 JUMPDEST DUP2 SLOAD DUP2 MSTORE SWAP1 PUSH1 0x1 ADD SWAP1 PUSH1 0x20 ADD DUP1 DUP4 GT PUSH2 0xD23 JUMPI DUP3 SWAP1 SUB PUSH1 0x1F AND DUP3 ADD SWAP2 JUMPDEST POP POP POP POP POP DUP2 MSTORE PUSH1 0x20 ADD PUSH1 0x1 DUP3 ADD DUP1 SLOAD PUSH2 0xD59 SWAP1 PUSH2 0x3E6D JUMP JUMPDEST DUP1 PUSH1 0x1F ADD PUSH1 0x20 DUP1 SWAP2 DIV MUL PUSH1 0x20 ADD PUSH1 0x40 MLOAD SWAP1 DUP2 ADD PUSH1 0x40 MSTORE DUP1 SWAP3 SWAP2 SWAP1 DUP2 DUP2 MSTORE PUSH1 0x20 ADD DUP3 DUP1 SLOAD PUSH2 0xD85 SWAP1 PUSH2 0x3E6D JUMP JUMPDEST DUP1 ISZERO PUSH2 0xDD2 JUMPI DUP1 PUSH1 0x1F LT PUSH2 0xDA7 JUMPI PUSH2 0x100 DUP1 DUP4 SLOAD DIV MUL DUP4 MSTORE SWAP2 PUSH1 0x20 ADD SWAP2 PUSH2 0xDD2 JUMP JUMPDEST DUP3 ADD SWAP2 SWAP1 PUSH1 0x0 MSTORE PUSH1 0x20 PUSH1 0x0 KECCAK256 SWAP1 JUMPDEST DUP2 SLOAD DUP2 MSTORE SWAP1 PUSH1 0x1 ADD SWAP1 PUSH1 0x20 ADD DUP1 DUP4 GT PUSH2 0xDB5 JUMPI DUP3 SWAP1 SUB PUSH1 0x1F AND DUP3 ADD SWAP2 JUMPDEST POP POP POP POP POP DUP2 MSTORE PUSH1 0x20 ADD PUSH1 0x2 DUP3 ADD DUP1 SLOAD PUSH2 0xDEB SWAP1 PUSH2 0x3E6D JUMP JUMPDEST DUP1 PUSH1 0x1F ADD PUSH1 0x20 DUP1 SWAP2 DIV MUL PUSH1 0x20 ADD PUSH1 0x40 MLOAD SWAP1 DUP2 ADD PUSH1 0x40 MSTORE DUP1 SWAP3 SWAP2 SWAP1 DUP2 DUP2 MSTORE PUSH1 0x20 ADD DUP3 DUP1 SLOAD PUSH2 0xE17 SWAP1 PUSH2 0x3E6D JUMP JUMPDEST DUP1 ISZERO PUSH2 0xE64 JUMPI DUP1 PUSH1 0x1F LT PUSH2 0xE39 JUMPI PUSH2 0x100 DUP1 DUP4 SLOAD DIV MUL DUP4 MSTORE SWAP2 PUSH1 0x20 ADD SWAP2 PUSH2 0xE64 JUMP JUMPDEST DUP3 ADD SWAP2 SWAP1 PUSH1 0x0 MSTORE PUSH1 0x20 PUSH1 0x0 KECCAK256 SWAP1 JUMPDEST DUP2 SLOAD DUP2 MSTORE SWAP1 PUSH1 0x1 ADD SWAP1 PUSH1 0x20 ADD DUP1 DUP4 GT PUSH2 0xE47 JUMPI DUP3 SWAP1 SUB PUSH1 0x1F AND DUP3 ADD SWAP2 JUMPDEST POP POP POP POP POP DUP2 MSTORE PUSH1 0x20 ADD PUSH1 0x3 DUP3 ADD SLOAD DUP2 MSTORE POP POP SWAP1 POP SWAP2 SWAP1 POP JUMP JUMPDEST PUSH2 0xE86 PUSH2 0x236C JUMP JUMPDEST POP PUSH2 0xE92 DUP2 PUSH1 0x1 PUSH2 0x19DD JUMP JUMPDEST PUSH2 0xED1 JUMPI PUSH1 0x40 MLOAD PUSH32 0x8C379A000000000000000000000000000000000000000000000000000000000 DUP2 MSTORE PUSH1 0x4 ADD PUSH2 0xEC8 SWAP1 PUSH2 0x3FBA JUMP JUMPDEST PUSH1 0x40 MLOAD DUP1 SWAP2 SUB SWAP1 REVERT JUMPDEST TIMESTAMP PUSH1 0x5 DUP3 PUSH1 0x40 MLOAD PUSH2 0xEE2 SWAP2 SWAP1 PUSH2 0x3F57 JUMP JUMPDEST SWAP1 DUP2 MSTORE PUSH1 0x20 ADD PUSH1 0x40 MLOAD DUP1 SWAP2 SUB SWAP1 KECCAK256 PUSH1 0xB ADD DUP2 SWAP1 SSTORE POP PUSH2 0xF02 DUP2 PUSH1 0x8 PUSH2 0x249C JUMP JUMPDEST POP JUMP JUMPDEST PUSH2 0xF0D PUSH2 0x25DB JUMP JUMPDEST PUSH2 0xF17 PUSH1 0x0 PUSH2 0x2659 JUMP JUMPDEST JUMP JUMPDEST PUSH1 0x0 PUSH1 0x6 DUP3 PUSH1 0x40 MLOAD PUSH2 0xF2B SWAP2 SWAP1 PUSH2 0x3F57 JUMP JUMPDEST SWAP1 DUP2 MSTORE PUSH1 0x20 ADD PUSH1 0x40 MLOAD DUP1 SWAP2 SUB SWAP1 KECCAK256 PUSH1 0x3 ADD SLOAD PUSH1 0x3 DUP4 PUSH1 0x40 MLOAD PUSH2 0xF4D SWAP2 SWAP1 PUSH2 0x3F57 JUMP JUMPDEST SWAP1 DUP2 MSTORE PUSH1 0x20 ADD PUSH1 0x40 MLOAD DUP1 SWAP2 SUB SWAP1 KECCAK256 PUSH1 0xD ADD PUSH1 0x0 ADD SLOAD PUSH2 0xF6C SWAP2 SWAP1 PUSH2 0x435F JUMP JUMPDEST SWAP1 POP SWAP2 SWAP1 POP JUMP JUMPDEST PUSH2 0xF7B PUSH2 0x236C JUMP JUMPDEST POP PUSH2 0xF87 DUP2 PUSH1 0x0 PUSH2 0x19DD JUMP JUMPDEST PUSH2 0xFC6 JUMPI PUSH1 0x40 MLOAD PUSH32 0x8C379A000000000000000000000000000000000000000000000000000000000 DUP2 MSTORE PUSH1 0x4 ADD PUSH2 0xFBD SWAP1 PUSH2 0x43ED JUMP JUMPDEST PUSH1 0x40 MLOAD DUP1 SWAP2 SUB SWAP1 REVERT JUMPDEST TIMESTAMP PUSH1 0x5 DUP3 PUSH1 0x40 MLOAD PUSH2 0xFD7 SWAP2 SWAP1 PUSH2 0x3F57 JUMP JUMPDEST SWAP1 DUP2 MSTORE PUSH1 0x20 ADD PUSH1 0x40 MLOAD DUP1 SWAP2 SUB SWAP1 KECCAK256 PUSH1 0xA ADD DUP2 SWAP1 SSTORE POP PUSH2 0xFF7 DUP2 PUSH1 0x7 PUSH2 0x249C JUMP JUMPDEST POP JUMP JUMPDEST PUSH2 0x1002 PUSH2 0x236C JUMP JUMPDEST POP PUSH2 0x100E DUP2 PUSH1 0x4 PUSH2 0x19DD JUMP JUMPDEST PUSH2 0x104D JUMPI PUSH1 0x40 MLOAD PUSH32 0x8C379A000000000000000000000000000000000000000000000000000000000 DUP2 MSTORE PUSH1 0x4 ADD PUSH2 0x1044 SWAP1 PUSH2 0x4459 JUMP JUMPDEST PUSH1 0x40 MLOAD DUP1 SWAP2 SUB SWAP1 REVERT JUMPDEST TIMESTAMP PUSH1 0x5 DUP3 PUSH1 0x40 MLOAD PUSH2 0x105E SWAP2 SWAP1 PUSH2 0x3F57 JUMP JUMPDEST SWAP1 DUP2 MSTORE PUSH1 0x20 ADD PUSH1 0x40 MLOAD DUP1 SWAP2 SUB SWAP1 KECCAK256 PUSH1 0x9 ADD DUP2 SWAP1 SSTORE POP PUSH2 0x107E DUP2 PUSH1 0x6 PUSH2 0x249C JUMP JUMPDEST POP JUMP JUMPDEST PUSH1 0x0 PUSH1 0x1 PUSH1 0x16 SWAP1 SLOAD SWAP1 PUSH2 0x100 EXP SWAP1 DIV PUSH1 0xFF AND ISZERO SWAP1 POP DUP1 DUP1 ISZERO PUSH2 0x10B4 JUMPI POP PUSH1 0x1 DUP1 PUSH1 0x15 SWAP1 SLOAD SWAP1 PUSH2 0x100 EXP SWAP1 DIV PUSH1 0xFF AND PUSH1 0xFF AND LT JUMPDEST DUP1 PUSH2 0x10E2 JUMPI POP PUSH2 0x10C3 ADDRESS PUSH2 0x271D JUMP JUMPDEST ISZERO DUP1 ISZERO PUSH2 0x10E1 JUMPI POP PUSH1 0x1 DUP1 PUSH1 0x15 SWAP1 SLOAD SWAP1 PUSH2 0x100 EXP SWAP1 DIV PUSH1 0xFF AND PUSH1 0xFF AND EQ JUMPDEST JUMPDEST PUSH2 0x1121 JUMPI PUSH1 0x40 MLOAD PUSH32 0x8C379A000000000000000000000000000000000000000000000000000000000 DUP2 MSTORE PUSH1 0x4 ADD PUSH2 0x1118 SWAP1 PUSH2 0x44EB JUMP JUMPDEST PUSH1 0x40 MLOAD DUP1 SWAP2 SUB SWAP1 REVERT JUMPDEST PUSH1 0x1 DUP1 PUSH1 0x15 PUSH2 0x100 EXP DUP2 SLOAD DUP2 PUSH1 0xFF MUL NOT AND SWAP1 DUP4 PUSH1 0xFF AND MUL OR SWAP1 SSTORE POP DUP1 ISZERO PUSH2 0x115D JUMPI PUSH1 0x1 DUP1 PUSH1 0x16 PUSH2 0x100 EXP DUP2 SLOAD DUP2 PUSH1 0xFF MUL NOT AND SWAP1 DUP4 ISZERO ISZERO MUL OR SWAP1 SSTORE POP JUMPDEST DUP1 ISZERO PUSH2 0x11B7 JUMPI PUSH1 0x0 PUSH1 0x1 PUSH1 0x16 PUSH2 0x100 EXP DUP2 SLOAD DUP2 PUSH1 0xFF MUL NOT AND SWAP1 DUP4 ISZERO ISZERO MUL OR SWAP1 SSTORE POP PUSH32 0x7F26B83FF96E1F2B6A682F133852F6798A09C465DA95921460CEFB3847402498 PUSH1 0x1 PUSH1 0x40 MLOAD PUSH2 0x11AE SWAP2 SWAP1 PUSH2 0x4553 JUMP JUMPDEST PUSH1 0x40 MLOAD DUP1 SWAP2 SUB SWAP1 LOG1 JUMPDEST POP JUMP JUMPDEST PUSH1 0x0 PUSH2 0x11C5 DUP3 PUSH2 0xF19 JUMP JUMPDEST PUSH1 0x3 DUP4 PUSH1 0x40 MLOAD PUSH2 0x11D5 SWAP2 SWAP1 PUSH2 0x3F57 JUMP JUMPDEST SWAP1 DUP2 MSTORE PUSH1 0x20 ADD PUSH1 0x40 MLOAD DUP1 SWAP2 SUB SWAP1 KECCAK256 PUSH1 0xD ADD PUSH1 0x2 ADD SLOAD PUSH2 0x11F4 SWAP2 SWAP1 PUSH2 0x435F JUMP JUMPDEST SWAP1 POP SWAP2 SWAP1 POP JUMP JUMPDEST PUSH2 0x1203 PUSH2 0x236C JUMP JUMPDEST POP PUSH2 0x120F DUP2 PUSH1 0x4 PUSH2 0x19DD JUMP JUMPDEST PUSH2 0x124E JUMPI PUSH1 0x40 MLOAD PUSH32 0x8C379A000000000000000000000000000000000000000000000000000000000 DUP2 MSTORE PUSH1 0x4 ADD PUSH2 0x1245 SWAP1 PUSH2 0x4459 JUMP JUMPDEST PUSH1 0x40 MLOAD DUP1 SWAP2 SUB SWAP1 REVERT JUMPDEST TIMESTAMP PUSH1 0x5 DUP3 PUSH1 0x40 MLOAD PUSH2 0x125F SWAP2 SWAP1 PUSH2 0x3F57 JUMP JUMPDEST SWAP1 DUP2 MSTORE PUSH1 0x20 ADD PUSH1 0x40 MLOAD DUP1 SWAP2 SUB SWAP1 KECCAK256 PUSH1 0x8 ADD DUP2 SWAP1 SSTORE POP PUSH2 0x127F DUP2 PUSH1 0x5 PUSH2 0x249C JUMP JUMPDEST POP JUMP JUMPDEST PUSH1 0x0 DUP1 PUSH1 0x0 SWAP1 SLOAD SWAP1 PUSH2 0x100 EXP SWAP1 DIV PUSH20 0xFFFFFFFFFFFFFFFFFFFFFFFFFFFFFFFFFFFFFFFF AND SWAP1 POP SWAP1 JUMP JUMPDEST PUSH2 0x12B3 PUSH2 0x25DB JUMP JUMPDEST PUSH1 0x0 PUSH1 0x1 PUSH1 0x14 PUSH2 0x100 EXP DUP2 SLOAD DUP2 PUSH1 0xFF MUL NOT AND SWAP1 DUP4 ISZERO ISZERO MUL OR SWAP1 SSTORE POP JUMP JUMPDEST PUSH2 0x12D8 PUSH2 0x2EBE JUMP JUMPDEST PUSH2 0x12E0 PUSH2 0x236C JUMP JUMPDEST POP PUSH2 0x12EC DUP6 PUSH1 0x0 PUSH2 0x19DD JUMP JUMPDEST PUSH2 0x132B JUMPI PUSH1 0x40 MLOAD PUSH32 0x8C379A000000000000000000000000000000000000000000000000000000000 DUP2 MSTORE PUSH1 0x4 ADD PUSH2 0x1322 SWAP1 PUSH2 0x43ED JUMP JUMPDEST PUSH1 0x40 MLOAD DUP1 SWAP2 SUB SWAP1 REVERT JUMPDEST PUSH2 0x1334 DUP5 PUSH2 0x2740 JUMP JUMPDEST PUSH2 0x133D DUP4 PUSH2 0x28E4 JUMP JUMPDEST PUSH2 0x1346 DUP6 PUSH2 0x678 JUMP JUMPDEST ISZERO PUSH2 0x1388 JUMPI PUSH1 0x0 PUSH2 0x1356 DUP7 PUSH2 0x1B99 JUMP JUMPDEST SWAP1 POP PUSH2 0x1366 DUP2 PUSH1 0x20 ADD MLOAD DUP7 PUSH2 0x297D JUMP JUMPDEST PUSH2 0x1374 DUP2 PUSH1 0x40 ADD MLOAD DUP6 PUSH2 0x2BFD JUMP JUMPDEST PUSH2 0x1382 DUP2 PUSH1 0x60 ADD MLOAD DUP5 PUSH2 0x2C49 JUMP JUMPDEST POP PUSH2 0x1684 JUMP JUMPDEST PUSH1 0x40 MLOAD DUP1 PUSH1 0x80 ADD PUSH1 0x40 MSTORE DUP1 DUP7 DUP2 MSTORE PUSH1 0x20 ADD DUP6 DUP2 MSTORE PUSH1 0x20 ADD DUP5 DUP2 MSTORE PUSH1 0x20 ADD DUP4 DUP2 MSTORE POP PUSH1 0x3 DUP7 PUSH1 0x40 MLOAD PUSH2 0x13B9 SWAP2 SWAP1 PUSH2 0x3F57 JUMP JUMPDEST SWAP1 DUP2 MSTORE PUSH1 0x20 ADD PUSH1 0x40 MLOAD DUP1 SWAP2 SUB SWAP1 KECCAK256 PUSH1 0x0 DUP3 ADD MLOAD DUP2 PUSH1 0x0 ADD SWAP1 DUP2 PUSH2 0x13DC SWAP2 SWAP1 PUSH2 0x4186 JUMP JUMPDEST POP PUSH1 0x20 DUP3 ADD MLOAD DUP2 PUSH1 0x1 ADD PUSH1 0x0 DUP3 ADD MLOAD DUP2 PUSH1 0x0 ADD PUSH1 0x0 PUSH2 0x100 EXP DUP2 SLOAD DUP2 PUSH20 0xFFFFFFFFFFFFFFFFFFFFFFFFFFFFFFFFFFFFFFFF MUL NOT AND SWAP1 DUP4 PUSH20 0xFFFFFFFFFFFFFFFFFFFFFFFFFFFFFFFFFFFFFFFF AND MUL OR SWAP1 SSTORE POP PUSH1 0x20 DUP3 ADD MLOAD DUP2 PUSH1 0x1 ADD PUSH1 0x0 PUSH2 0x100 EXP DUP2 SLOAD DUP2 PUSH20 0xFFFFFFFFFFFFFFFFFFFFFFFFFFFFFFFFFFFFFFFF MUL NOT AND SWAP1 DUP4 PUSH20 0xFFFFFFFFFFFFFFFFFFFFFFFFFFFFFFFFFFFFFFFF AND MUL OR SWAP1 SSTORE POP PUSH1 0x40 DUP3 ADD MLOAD DUP2 PUSH1 0x2 ADD PUSH1 0x0 PUSH2 0x100 EXP DUP2 SLOAD DUP2 PUSH20 0xFFFFFFFFFFFFFFFFFFFFFFFFFFFFFFFFFFFFFFFF MUL NOT AND SWAP1 DUP4 PUSH20 0xFFFFFFFFFFFFFFFFFFFFFFFFFFFFFFFFFFFFFFFF AND MUL OR SWAP1 SSTORE POP PUSH1 0x60 DUP3 ADD MLOAD DUP2 PUSH1 0x3 ADD SWAP1 DUP1 MLOAD SWAP1 PUSH1 0x20 ADD SWAP1 PUSH2 0x14D7 SWAP3 SWAP2 SWAP1 PUSH2 0x2EF8 JUMP JUMPDEST POP POP POP PUSH1 0x40 DUP3 ADD MLOAD DUP2 PUSH1 0x5 ADD PUSH1 0x0 DUP3 ADD MLOAD DUP2 PUSH1 0x0 ADD PUSH1 0x0 DUP3 ADD MLOAD DUP2 PUSH1 0x0 ADD SSTORE PUSH1 0x20 DUP3 ADD MLOAD DUP2 PUSH1 0x1 ADD SSTORE POP POP PUSH1 0x20 DUP3 ADD MLOAD DUP2 PUSH1 0x2 ADD PUSH1 0x0 DUP3 ADD MLOAD DUP2 PUSH1 0x0 ADD SSTORE PUSH1 0x20 DUP3 ADD MLOAD DUP2 PUSH1 0x1 ADD SSTORE POP POP PUSH1 0x40 DUP3 ADD MLOAD DUP2 PUSH1 0x4 ADD PUSH1 0x0 DUP3 ADD MLOAD DUP2 PUSH1 0x0 ADD SSTORE PUSH1 0x20 DUP3 ADD MLOAD DUP2 PUSH1 0x1 ADD SSTORE POP POP PUSH1 0x60 DUP3 ADD MLOAD DUP2 PUSH1 0x6 ADD PUSH1 0x0 DUP3 ADD MLOAD DUP2 PUSH1 0x0 ADD SSTORE PUSH1 0x20 DUP3 ADD MLOAD DUP2 PUSH1 0x1 ADD SSTORE POP POP POP POP PUSH1 0x60 DUP3 ADD MLOAD DUP2 PUSH1 0xD ADD PUSH1 0x0 DUP3 ADD MLOAD DUP2 PUSH1 0x0 ADD SSTORE PUSH1 0x20 DUP3 ADD MLOAD DUP2 PUSH1 0x1 ADD SSTORE PUSH1 0x40 DUP3 ADD MLOAD DUP2 PUSH1 0x2 ADD SSTORE PUSH1 0x60 DUP3 ADD MLOAD DUP2 PUSH1 0x3 ADD SSTORE POP POP SWAP1 POP POP PUSH1 0x4 PUSH1 0x0 DUP6 PUSH1 0x40 ADD MLOAD PUSH20 0xFFFFFFFFFFFFFFFFFFFFFFFFFFFFFFFFFFFFFFFF AND PUSH20 0xFFFFFFFFFFFFFFFFFFFFFFFFFFFFFFFFFFFFFFFF AND DUP2 MSTORE PUSH1 0x20 ADD SWAP1 DUP2 MSTORE PUSH1 0x20 ADD PUSH1 0x0 KECCAK256 DUP6 SWAP1 DUP1 PUSH1 0x1 DUP2 SLOAD ADD DUP1 DUP3 SSTORE DUP1 SWAP2 POP POP PUSH1 0x1 SWAP1 SUB SWAP1 PUSH1 0x0 MSTORE PUSH1 0x20 PUSH1 0x0 KECCAK256 ADD PUSH1 0x0 SWAP1 SWAP2 SWAP1 SWAP2 SWAP1 SWAP2 POP SWAP1 DUP2 PUSH2 0x160C SWAP2 SWAP1 PUSH2 0x4186 JUMP JUMPDEST POP PUSH1 0x4 PUSH1 0x0 DUP6 PUSH1 0x20 ADD MLOAD PUSH20 0xFFFFFFFFFFFFFFFFFFFFFFFFFFFFFFFFFFFFFFFF AND PUSH20 0xFFFFFFFFFFFFFFFFFFFFFFFFFFFFFFFFFFFFFFFF AND DUP2 MSTORE PUSH1 0x20 ADD SWAP1 DUP2 MSTORE PUSH1 0x20 ADD PUSH1 0x0 KECCAK256 DUP6 SWAP1 DUP1 PUSH1 0x1 DUP2 SLOAD ADD DUP1 DUP3 SSTORE DUP1 SWAP2 POP POP PUSH1 0x1 SWAP1 SUB SWAP1 PUSH1 0x0 MSTORE PUSH1 0x20 PUSH1 0x0 KECCAK256 ADD PUSH1 0x0 SWAP1 SWAP2 SWAP1 SWAP2 SWAP1 SWAP2 POP SWAP1 DUP2 PUSH2 0x1682 SWAP2 SWAP1 PUSH2 0x4186 JUMP JUMPDEST POP JUMPDEST PUSH1 0x3 DUP6 PUSH1 0x40 MLOAD PUSH2 0x1694 SWAP2 SWAP1 PUSH2 0x3F57 JUMP JUMPDEST SWAP1 DUP2 MSTORE PUSH1 0x20 ADD PUSH1 0x40 MLOAD DUP1 SWAP2 SUB SWAP1 KECCAK256 PUSH1 0x40 MLOAD DUP1 PUSH1 0x80 ADD PUSH1 0x40 MSTORE SWAP1 DUP2 PUSH1 0x0 DUP3 ADD DUP1 SLOAD PUSH2 0x16BD SWAP1 PUSH2 0x3E6D JUMP JUMPDEST DUP1 PUSH1 0x1F ADD PUSH1 0x20 DUP1 SWAP2 DIV MUL PUSH1 0x20 ADD PUSH1 0x40 MLOAD SWAP1 DUP2 ADD PUSH1 0x40 MSTORE DUP1 SWAP3 SWAP2 SWAP1 DUP2 DUP2 MSTORE PUSH1 0x20 ADD DUP3 DUP1 SLOAD PUSH2 0x16E9 SWAP1 PUSH2 0x3E6D JUMP JUMPDEST DUP1 ISZERO PUSH2 0x1736 JUMPI DUP1 PUSH1 0x1F LT PUSH2 0x170B JUMPI PUSH2 0x100 DUP1 DUP4 SLOAD DIV MUL DUP4 MSTORE SWAP2 PUSH1 0x20 ADD SWAP2 PUSH2 0x1736 JUMP JUMPDEST DUP3 ADD SWAP2 SWAP1 PUSH1 0x0 MSTORE PUSH1 0x20 PUSH1 0x0 KECCAK256 SWAP1 JUMPDEST DUP2 SLOAD DUP2 MSTORE SWAP1 PUSH1 0x1 ADD SWAP1 PUSH1 0x20 ADD DUP1 DUP4 GT PUSH2 0x1719 JUMPI DUP3 SWAP1 SUB PUSH1 0x1F AND DUP3 ADD SWAP2 JUMPDEST POP POP POP POP POP DUP2 MSTORE PUSH1 0x20 ADD PUSH1 0x1 DUP3 ADD PUSH1 0x40 MLOAD DUP1 PUSH1 0x80 ADD PUSH1 0x40 MSTORE SWAP1 DUP2 PUSH1 0x0 DUP3 ADD PUSH1 0x0 SWAP1 SLOAD SWAP1 PUSH2 0x100 EXP SWAP1 DIV PUSH20 0xFFFFFFFFFFFFFFFFFFFFFFFFFFFFFFFFFFFFFFFF AND PUSH20 0xFFFFFFFFFFFFFFFFFFFFFFFFFFFFFFFFFFFFFFFF AND PUSH20 0xFFFFFFFFFFFFFFFFFFFFFFFFFFFFFFFFFFFFFFFF AND DUP2 MSTORE PUSH1 0x20 ADD PUSH1 0x1 DUP3 ADD PUSH1 0x0 SWAP1 SLOAD SWAP1 PUSH2 0x100 EXP SWAP1 DIV PUSH20 0xFFFFFFFFFFFFFFFFFFFFFFFFFFFFFFFFFFFFFFFF AND PUSH20 0xFFFFFFFFFFFFFFFFFFFFFFFFFFFFFFFFFFFFFFFF AND PUSH20 0xFFFFFFFFFFFFFFFFFFFFFFFFFFFFFFFFFFFFFFFF AND DUP2 MSTORE PUSH1 0x20 ADD PUSH1 0x2 DUP3 ADD PUSH1 0x0 SWAP1 SLOAD SWAP1 PUSH2 0x100 EXP SWAP1 DIV PUSH20 0xFFFFFFFFFFFFFFFFFFFFFFFFFFFFFFFFFFFFFFFF AND PUSH20 0xFFFFFFFFFFFFFFFFFFFFFFFFFFFFFFFFFFFFFFFF AND PUSH20 0xFFFFFFFFFFFFFFFFFFFFFFFFFFFFFFFFFFFFFFFF AND DUP2 MSTORE PUSH1 0x20 ADD PUSH1 0x3 DUP3 ADD DUP1 SLOAD DUP1 PUSH1 0x20 MUL PUSH1 0x20 ADD PUSH1 0x40 MLOAD SWAP1 DUP2 ADD PUSH1 0x40 MSTORE DUP1 SWAP3 SWAP2 SWAP1 DUP2 DUP2 MSTORE PUSH1 0x20 ADD DUP3 DUP1 SLOAD DUP1 ISZERO PUSH2 0x18D6 JUMPI PUSH1 0x20 MUL DUP3 ADD SWAP2 SWAP1 PUSH1 0x0 MSTORE PUSH1 0x20 PUSH1 0x0 KECCAK256 SWAP1 JUMPDEST DUP2 PUSH1 0x0 SWAP1 SLOAD SWAP1 PUSH2 0x100 EXP SWAP1 DIV PUSH20 0xFFFFFFFFFFFFFFFFFFFFFFFFFFFFFFFFFFFFFFFF AND PUSH20 0xFFFFFFFFFFFFFFFFFFFFFFFFFFFFFFFFFFFFFFFF AND DUP2 MSTORE PUSH1 0x20 ADD SWAP1 PUSH1 0x1 ADD SWAP1 DUP1 DUP4 GT PUSH2 0x188C JUMPI JUMPDEST POP POP POP POP POP DUP2 MSTORE POP POP DUP2 MSTORE PUSH1 0x20 ADD PUSH1 0x5 DUP3 ADD PUSH1 0x40 MLOAD DUP1 PUSH1 0x80 ADD PUSH1 0x40 MSTORE SWAP1 DUP2 PUSH1 0x0 DUP3 ADD PUSH1 0x40 MLOAD DUP1 PUSH1 0x40 ADD PUSH1 0x40 MSTORE SWAP1 DUP2 PUSH1 0x0 DUP3 ADD SLOAD DUP2 MSTORE PUSH1 0x20 ADD PUSH1 0x1 DUP3 ADD SLOAD DUP2 MSTORE POP POP DUP2 MSTORE PUSH1 0x20 ADD PUSH1 0x2 DUP3 ADD PUSH1 0x40 MLOAD DUP1 PUSH1 0x40 ADD PUSH1 0x40 MSTORE SWAP1 DUP2 PUSH1 0x0 DUP3 ADD SLOAD DUP2 MSTORE PUSH1 0x20 ADD PUSH1 0x1 DUP3 ADD SLOAD DUP2 MSTORE POP POP DUP2 MSTORE PUSH1 0x20 ADD PUSH1 0x4 DUP3 ADD PUSH1 0x40 MLOAD DUP1 PUSH1 0x40 ADD PUSH1 0x40 MSTORE SWAP1 DUP2 PUSH1 0x0 DUP3 ADD SLOAD DUP2 MSTORE PUSH1 0x20 ADD PUSH1 0x1 DUP3 ADD SLOAD DUP2 MSTORE POP POP DUP2 MSTORE PUSH1 0x20 ADD PUSH1 0x6 DUP3 ADD PUSH1 0x40 MLOAD DUP1 PUSH1 0x40 ADD PUSH1 0x40 MSTORE SWAP1 DUP2 PUSH1 0x0 DUP3 ADD SLOAD DUP2 MSTORE PUSH1 0x20 ADD PUSH1 0x1 DUP3 ADD SLOAD DUP2 MSTORE POP POP DUP2 MSTORE POP POP DUP2 MSTORE PUSH1 0x20 ADD PUSH1 0xD DUP3 ADD PUSH1 0x40 MLOAD DUP1 PUSH1 0x80 ADD PUSH1 0x40 MSTORE SWAP1 DUP2 PUSH1 0x0 DUP3 ADD SLOAD DUP2 MSTORE PUSH1 0x20 ADD PUSH1 0x1 DUP3 ADD SLOAD DUP2 MSTORE PUSH1 0x20 ADD PUSH1 0x2 DUP3 ADD SLOAD DUP2 MSTORE PUSH1 0x20 ADD PUSH1 0x3 DUP3 ADD SLOAD DUP2 MSTORE POP POP DUP2 MSTORE POP POP SWAP1 POP SWAP5 SWAP4 POP POP POP POP JUMP JUMPDEST PUSH1 0x0 PUSH2 0x19E8 DUP4 PUSH2 0x678 JUMP JUMPDEST PUSH2 0x1A1B JUMPI PUSH1 0x0 PUSH1 0xA DUP2 GT ISZERO PUSH2 0x1A00 JUMPI PUSH2 0x19FF PUSH2 0x35E5 JUMP JUMPDEST JUMPDEST DUP3 PUSH1 0xA DUP2 GT ISZERO PUSH2 0x1A13 JUMPI PUSH2 0x1A12 PUSH2 0x35E5 JUMP JUMPDEST JUMPDEST EQ SWAP1 POP PUSH2 0x1A73 JUMP JUMPDEST DUP2 PUSH1 0xA DUP2 GT ISZERO PUSH2 0x1A2E JUMPI PUSH2 0x1A2D PUSH2 0x35E5 JUMP JUMPDEST JUMPDEST PUSH1 0x5 DUP5 PUSH1 0x40 MLOAD PUSH2 0x1A3E SWAP2 SWAP1 PUSH2 0x3F57 JUMP JUMPDEST SWAP1 DUP2 MSTORE PUSH1 0x20 ADD PUSH1 0x40 MLOAD DUP1 SWAP2 SUB SWAP1 KECCAK256 PUSH1 0x0 ADD PUSH1 0x0 SWAP1 SLOAD SWAP1 PUSH2 0x100 EXP SWAP1 DIV PUSH1 0xFF AND PUSH1 0xA DUP2 GT ISZERO PUSH2 0x1A6F JUMPI PUSH2 0x1A6E PUSH2 0x35E5 JUMP JUMPDEST JUMPDEST EQ SWAP1 POP JUMPDEST SWAP3 SWAP2 POP POP JUMP JUMPDEST PUSH1 0x0 PUSH1 0x1 PUSH1 0x0 SWAP1 SLOAD SWAP1 PUSH2 0x100 EXP SWAP1 DIV PUSH20 0xFFFFFFFFFFFFFFFFFFFFFFFFFFFFFFFFFFFFFFFF AND SWAP1 POP SWAP1 JUMP JUMPDEST PUSH2 0x1AAB PUSH2 0x2E3D JUMP JUMPDEST PUSH1 0x5 DUP3 PUSH1 0x40 MLOAD PUSH2 0x1ABB SWAP2 SWAP1 PUSH2 0x3F57 JUMP JUMPDEST SWAP1 DUP2 MSTORE PUSH1 0x20 ADD PUSH1 0x40 MLOAD DUP1 SWAP2 SUB SWAP1 KECCAK256 PUSH1 0x40 MLOAD DUP1 PUSH2 0x1C0 ADD PUSH1 0x40 MSTORE SWAP1 DUP2 PUSH1 0x0 DUP3 ADD PUSH1 0x0 SWAP1 SLOAD SWAP1 PUSH2 0x100 EXP SWAP1 DIV PUSH1 0xFF AND PUSH1 0xA DUP2 GT ISZERO PUSH2 0x1AFA JUMPI PUSH2 0x1AF9 PUSH2 0x35E5 JUMP JUMPDEST JUMPDEST PUSH1 0xA DUP2 GT ISZERO PUSH2 0x1B0C JUMPI PUSH2 0x1B0B PUSH2 0x35E5 JUMP JUMPDEST JUMPDEST DUP2 MSTORE PUSH1 0x20 ADD PUSH1 0x1 DUP3 ADD SLOAD DUP2 MSTORE PUSH1 0x20 ADD PUSH1 0x2 DUP3 ADD SLOAD DUP2 MSTORE PUSH1 0x20 ADD PUSH1 0x3 DUP3 ADD SLOAD DUP2 MSTORE PUSH1 0x20 ADD PUSH1 0x4 DUP3 ADD SLOAD DUP2 MSTORE PUSH1 0x20 ADD PUSH1 0x5 DUP3 ADD SLOAD DUP2 MSTORE PUSH1 0x20 ADD PUSH1 0x6 DUP3 ADD SLOAD DUP2 MSTORE PUSH1 0x20 ADD PUSH1 0x7 DUP3 ADD SLOAD DUP2 MSTORE PUSH1 0x20 ADD PUSH1 0x8 DUP3 ADD SLOAD DUP2 MSTORE PUSH1 0x20 ADD PUSH1 0x9 DUP3 ADD SLOAD DUP2 MSTORE PUSH1 0x20 ADD PUSH1 0xA DUP3 ADD SLOAD DUP2 MSTORE PUSH1 0x20 ADD PUSH1 0xB DUP3 ADD SLOAD DUP2 MSTORE PUSH1 0x20 ADD PUSH1 0xC DUP3 ADD SLOAD DUP2 MSTORE PUSH1 0x20 ADD PUSH1 0xD DUP3 ADD SLOAD DUP2 MSTORE POP POP SWAP1 POP SWAP2 SWAP1 POP JUMP JUMPDEST PUSH2 0x1BA1 PUSH2 0x2EBE JUMP JUMPDEST PUSH1 0x3 DUP3 PUSH1 0x40 MLOAD PUSH2 0x1BB1 SWAP2 SWAP1 PUSH2 0x3F57 JUMP JUMPDEST SWAP1 DUP2 MSTORE PUSH1 0x20 ADD PUSH1 0x40 MLOAD DUP1 SWAP2 SUB SWAP1 KECCAK256 PUSH1 0x40 MLOAD DUP1 PUSH1 0x80 ADD PUSH1 0x40 MSTORE SWAP1 DUP2 PUSH1 0x0 DUP3 ADD DUP1 SLOAD PUSH2 0x1BDA SWAP1 PUSH2 0x3E6D JUMP JUMPDEST DUP1 PUSH1 0x1F ADD PUSH1 0x20 DUP1 SWAP2 DIV MUL PUSH1 0x20 ADD PUSH1 0x40 MLOAD SWAP1 DUP2 ADD PUSH1 0x40 MSTORE DUP1 SWAP3 SWAP2 SWAP1 DUP2 DUP2 MSTORE PUSH1 0x20 ADD DUP3 DUP1 SLOAD PUSH2 0x1C06 SWAP1 PUSH2 0x3E6D JUMP JUMPDEST DUP1 ISZERO PUSH2 0x1C53 JUMPI DUP1 PUSH1 0x1F LT PUSH2 0x1C28 JUMPI PUSH2 0x100 DUP1 DUP4 SLOAD DIV MUL DUP4 MSTORE SWAP2 PUSH1 0x20 ADD SWAP2 PUSH2 0x1C53 JUMP JUMPDEST DUP3 ADD SWAP2 SWAP1 PUSH1 0x0 MSTORE PUSH1 0x20 PUSH1 0x0 KECCAK256 SWAP1 JUMPDEST DUP2 SLOAD DUP2 MSTORE SWAP1 PUSH1 0x1 ADD SWAP1 PUSH1 0x20 ADD DUP1 DUP4 GT PUSH2 0x1C36 JUMPI DUP3 SWAP1 SUB PUSH1 0x1F AND DUP3 ADD SWAP2 JUMPDEST POP POP POP POP POP DUP2 MSTORE PUSH1 0x20 ADD PUSH1 0x1 DUP3 ADD PUSH1 0x40 MLOAD DUP1 PUSH1 0x80 ADD PUSH1 0x40 MSTORE SWAP1 DUP2 PUSH1 0x0 DUP3 ADD PUSH1 0x0 SWAP1 SLOAD SWAP1 PUSH2 0x100 EXP SWAP1 DIV PUSH20 0xFFFFFFFFFFFFFFFFFFFFFFFFFFFFFFFFFFFFFFFF AND PUSH20 0xFFFFFFFFFFFFFFFFFFFFFFFFFFFFFFFFFFFFFFFF AND PUSH20 0xFFFFFFFFFFFFFFFFFFFFFFFFFFFFFFFFFFFFFFFF AND DUP2 MSTORE PUSH1 0x20 ADD PUSH1 0x1 DUP3 ADD PUSH1 0x0 SWAP1 SLOAD SWAP1 PUSH2 0x100 EXP SWAP1 DIV PUSH20 0xFFFFFFFFFFFFFFFFFFFFFFFFFFFFFFFFFFFFFFFF AND PUSH20 0xFFFFFFFFFFFFFFFFFFFFFFFFFFFFFFFFFFFFFFFF AND PUSH20 0xFFFFFFFFFFFFFFFFFFFFFFFFFFFFFFFFFFFFFFFF AND DUP2 MSTORE PUSH1 0x20 ADD PUSH1 0x2 DUP3 ADD PUSH1 0x0 SWAP1 SLOAD SWAP1 PUSH2 0x100 EXP SWAP1 DIV PUSH20 0xFFFFFFFFFFFFFFFFFFFFFFFFFFFFFFFFFFFFFFFF AND PUSH20 0xFFFFFFFFFFFFFFFFFFFFFFFFFFFFFFFFFFFFFFFF AND PUSH20 0xFFFFFFFFFFFFFFFFFFFFFFFFFFFFFFFFFFFFFFFF AND DUP2 MSTORE PUSH1 0x20 ADD PUSH1 0x3 DUP3 ADD DUP1 SLOAD DUP1 PUSH1 0x20 MUL PUSH1 0x20 ADD PUSH1 0x40 MLOAD SWAP1 DUP2 ADD PUSH1 0x40 MSTORE DUP1 SWAP3 SWAP2 SWAP1 DUP2 DUP2 MSTORE PUSH1 0x20 ADD DUP3 DUP1 SLOAD DUP1 ISZERO PUSH2 0x1DF3 JUMPI PUSH1 0x20 MUL DUP3 ADD SWAP2 SWAP1 PUSH1 0x0 MSTORE PUSH1 0x20 PUSH1 0x0 KECCAK256 SWAP1 JUMPDEST DUP2 PUSH1 0x0 SWAP1 SLOAD SWAP1 PUSH2 0x100 EXP SWAP1 DIV PUSH20 0xFFFFFFFFFFFFFFFFFFFFFFFFFFFFFFFFFFFFFFFF AND PUSH20 0xFFFFFFFFFFFFFFFFFFFFFFFFFFFFFFFFFFFFFFFF AND DUP2 MSTORE PUSH1 0x20 ADD SWAP1 PUSH1 0x1 ADD SWAP1 DUP1 DUP4 GT PUSH2 0x1DA9 JUMPI JUMPDEST POP POP POP POP POP DUP2 MSTORE POP POP DUP2 MSTORE PUSH1 0x20 ADD PUSH1 0x5 DUP3 ADD PUSH1 0x40 MLOAD DUP1 PUSH1 0x80 ADD PUSH1 0x40 MSTORE SWAP1 DUP2 PUSH1 0x0 DUP3 ADD PUSH1 0x40 MLOAD DUP1 PUSH1 0x40 ADD PUSH1 0x40 MSTORE SWAP1 DUP2 PUSH1 0x0 DUP3 ADD SLOAD DUP2 MSTORE PUSH1 0x20 ADD PUSH1 0x1 DUP3 ADD SLOAD DUP2 MSTORE POP POP DUP2 MSTORE PUSH1 0x20 ADD PUSH1 0x2 DUP3 ADD PUSH1 0x40 MLOAD DUP1 PUSH1 0x40 ADD PUSH1 0x40 MSTORE SWAP1 DUP2 PUSH1 0x0 DUP3 ADD SLOAD DUP2 MSTORE PUSH1 0x20 ADD PUSH1 0x1 DUP3 ADD SLOAD DUP2 MSTORE POP POP DUP2 MSTORE PUSH1 0x20 ADD PUSH1 0x4 DUP3 ADD PUSH1 0x40 MLOAD DUP1 PUSH1 0x40 ADD PUSH1 0x40 MSTORE SWAP1 DUP2 PUSH1 0x0 DUP3 ADD SLOAD DUP2 MSTORE PUSH1 0x20 ADD PUSH1 0x1 DUP3 ADD SLOAD DUP2 MSTORE POP POP DUP2 MSTORE PUSH1 0x20 ADD PUSH1 0x6 DUP3 ADD PUSH1 0x40 MLOAD DUP1 PUSH1 0x40 ADD PUSH1 0x40 MSTORE SWAP1 DUP2 PUSH1 0x0 DUP3 ADD SLOAD DUP2 MSTORE PUSH1 0x20 ADD PUSH1 0x1 DUP3 ADD SLOAD DUP2 MSTORE POP POP DUP2 MSTORE POP POP DUP2 MSTORE PUSH1 0x20 ADD PUSH1 0xD DUP3 ADD PUSH1 0x40 MLOAD DUP1 PUSH1 0x80 ADD PUSH1 0x40 MSTORE SWAP1 DUP2 PUSH1 0x0 DUP3 ADD SLOAD DUP2 MSTORE PUSH1 0x20 ADD PUSH1 0x1 DUP3 ADD SLOAD DUP2 MSTORE PUSH1 0x20 ADD PUSH1 0x2 DUP3 ADD SLOAD DUP2 MSTORE PUSH1 0x20 ADD PUSH1 0x3 DUP3 ADD SLOAD DUP2 MSTORE POP POP DUP2 MSTORE POP POP SWAP1 POP SWAP2 SWAP1 POP JUMP JUMPDEST PUSH2 0x1EFF PUSH2 0x236C JUMP JUMPDEST POP PUSH2 0x1F0B DUP2 PUSH1 0x4 PUSH2 0x19DD JUMP JUMPDEST PUSH2 0x1F4A JUMPI PUSH1 0x40 MLOAD PUSH32 0x8C379A000000000000000000000000000000000000000000000000000000000 DUP2 MSTORE PUSH1 0x4 ADD PUSH2 0x1F41 SWAP1 PUSH2 0x4459 JUMP JUMPDEST PUSH1 0x40 MLOAD DUP1 SWAP2 SUB SWAP1 REVERT JUMPDEST TIMESTAMP PUSH1 0x5 DUP3 PUSH1 0x40 MLOAD PUSH2 0x1F5B SWAP2 SWAP1 PUSH2 0x3F57 JUMP JUMPDEST SWAP1 DUP2 MSTORE PUSH1 0x20 ADD PUSH1 0x40 MLOAD DUP1 SWAP2 SUB SWAP1 KECCAK256 PUSH1 0xD ADD DUP2 SWAP1 SSTORE POP PUSH2 0x1F7B DUP2 PUSH1 0xA PUSH2 0x249C JUMP JUMPDEST POP JUMP JUMPDEST PUSH2 0x1F86 PUSH2 0x236C JUMP JUMPDEST POP PUSH2 0x1F92 DUP2 PUSH1 0x2 PUSH2 0x19DD JUMP JUMPDEST PUSH2 0x1FD1 JUMPI PUSH1 0x40 MLOAD PUSH32 0x8C379A000000000000000000000000000000000000000000000000000000000 DUP2 MSTORE PUSH1 0x4 ADD PUSH2 0x1FC8 SWAP1 PUSH2 0x3EFB JUMP JUMPDEST PUSH1 0x40 MLOAD DUP1 SWAP2 SUB SWAP1 REVERT JUMPDEST TIMESTAMP PUSH1 0x5 DUP3 PUSH1 0x40 MLOAD PUSH2 0x1FE2 SWAP2 SWAP1 PUSH2 0x3F57 JUMP JUMPDEST SWAP1 DUP2 MSTORE PUSH1 0x20 ADD PUSH1 0x40 MLOAD DUP1 SWAP2 SUB SWAP1 KECCAK256 PUSH1 0xC ADD DUP2 SWAP1 SSTORE POP PUSH2 0x2002 DUP2 PUSH1 0x9 PUSH2 0x249C JUMP JUMPDEST POP JUMP JUMPDEST PUSH2 0x200D PUSH2 0x2E3D JUMP JUMPDEST PUSH2 0x2015 PUSH2 0x236C JUMP JUMPDEST POP PUSH2 0x201F DUP3 PUSH2 0x678 JUMP JUMPDEST PUSH2 0x205E JUMPI PUSH1 0x40 MLOAD PUSH32 0x8C379A000000000000000000000000000000000000000000000000000000000 DUP2 MSTORE PUSH1 0x4 ADD PUSH2 0x2055 SWAP1 PUSH2 0x42A4 JUMP JUMPDEST PUSH1 0x40 MLOAD DUP1 SWAP2 SUB SWAP1 REVERT JUMPDEST PUSH1 0x0 PUSH1 0x5 DUP4 PUSH1 0x40 MLOAD PUSH2 0x2070 SWAP2 SWAP1 PUSH2 0x3F57 JUMP JUMPDEST SWAP1 DUP2 MSTORE PUSH1 0x20 ADD PUSH1 0x40 MLOAD DUP1 SWAP2 SUB SWAP1 KECCAK256 PUSH1 0x1 ADD SLOAD EQ PUSH2 0x20C2 JUMPI PUSH1 0x40 MLOAD PUSH32 0x8C379A000000000000000000000000000000000000000000000000000000000 DUP2 MSTORE PUSH1 0x4 ADD PUSH2 0x20B9 SWAP1 PUSH2 0x45BA JUMP JUMPDEST PUSH1 0x40 MLOAD DUP1 SWAP2 SUB SWAP1 REVERT JUMPDEST TIMESTAMP PUSH1 0x5 DUP4 PUSH1 0x40 MLOAD PUSH2 0x20D3 SWAP2 SWAP1 PUSH2 0x3F57 JUMP JUMPDEST SWAP1 DUP2 MSTORE PUSH1 0x20 ADD PUSH1 0x40 MLOAD DUP1 SWAP2 SUB SWAP1 KECCAK256 PUSH1 0x1 ADD DUP2 SWAP1 SSTORE POP PUSH2 0x20F1 DUP3 PUSH2 0x2522 JUMP JUMPDEST PUSH1 0x5 DUP3 PUSH1 0x40 MLOAD PUSH2 0x2101 SWAP2 SWAP1 PUSH2 0x3F57 JUMP JUMPDEST SWAP1 DUP2 MSTORE PUSH1 0x20 ADD PUSH1 0x40 MLOAD DUP1 SWAP2 SUB SWAP1 KECCAK256 PUSH1 0x40 MLOAD DUP1 PUSH2 0x1C0 ADD PUSH1 0x40 MSTORE SWAP1 DUP2 PUSH1 0x0 DUP3 ADD PUSH1 0x0 SWAP1 SLOAD SWAP1 PUSH2 0x100 EXP SWAP1 DIV PUSH1 0xFF AND PUSH1 0xA DUP2 GT ISZERO PUSH2 0x2140 JUMPI PUSH2 0x213F PUSH2 0x35E5 JUMP JUMPDEST JUMPDEST PUSH1 0xA DUP2 GT ISZERO PUSH2 0x2152 JUMPI PUSH2 0x2151 PUSH2 0x35E5 JUMP JUMPDEST JUMPDEST DUP2 MSTORE PUSH1 0x20 ADD PUSH1 0x1 DUP3 ADD SLOAD DUP2 MSTORE PUSH1 0x20 ADD PUSH1 0x2 DUP3 ADD SLOAD DUP2 MSTORE PUSH1 0x20 ADD PUSH1 0x3 DUP3 ADD SLOAD DUP2 MSTORE PUSH1 0x20 ADD PUSH1 0x4 DUP3 ADD SLOAD DUP2 MSTORE PUSH1 0x20 ADD PUSH1 0x5 DUP3 ADD SLOAD DUP2 MSTORE PUSH1 0x20 ADD PUSH1 0x6 DUP3 ADD SLOAD DUP2 MSTORE PUSH1 0x20 ADD PUSH1 0x7 DUP3 ADD SLOAD DUP2 MSTORE PUSH1 0x20 ADD PUSH1 0x8 DUP3 ADD SLOAD DUP2 MSTORE PUSH1 0x20 ADD PUSH1 0x9 DUP3 ADD SLOAD DUP2 MSTORE PUSH1 0x20 ADD PUSH1 0xA DUP3 ADD SLOAD DUP2 MSTORE PUSH1 0x20 ADD PUSH1 0xB DUP3 ADD SLOAD DUP2 MSTORE PUSH1 0x20 ADD PUSH1 0xC DUP3 ADD SLOAD DUP2 MSTORE PUSH1 0x20 ADD PUSH1 0xD DUP3 ADD SLOAD DUP2 MSTORE POP POP SWAP1 POP SWAP2 SWAP1 POP JUMP JUMPDEST PUSH2 0x21E7 PUSH2 0x25DB JUMP JUMPDEST PUSH1 0x0 PUSH20 0xFFFFFFFFFFFFFFFFFFFFFFFFFFFFFFFFFFFFFFFF AND DUP2 PUSH20 0xFFFFFFFFFFFFFFFFFFFFFFFFFFFFFFFFFFFFFFFF AND SUB PUSH2 0x2256 JUMPI PUSH1 0x40 MLOAD PUSH32 0x8C379A000000000000000000000000000000000000000000000000000000000 DUP2 MSTORE PUSH1 0x4 ADD PUSH2 0x224D SWAP1 PUSH2 0x464C JUMP JUMPDEST PUSH1 0x40 MLOAD DUP1 SWAP2 SUB SWAP1 REVERT JUMPDEST PUSH2 0x225F DUP2 PUSH2 0x2659 JUMP JUMPDEST POP JUMP JUMPDEST PUSH2 0x226A PUSH2 0x25DB JUMP JUMPDEST PUSH1 0x0 PUSH20 0xFFFFFFFFFFFFFFFFFFFFFFFFFFFFFFFFFFFFFFFF AND DUP2 PUSH20 0xFFFFFFFFFFFFFFFFFFFFFFFFFFFFFFFFFFFFFFFF AND SUB PUSH2 0x22D9 JUMPI PUSH1 0x40 MLOAD PUSH32 0x8C379A000000000000000000000000000000000000000000000000000000000 DUP2 MSTORE PUSH1 0x4 ADD PUSH2 0x22D0 SWAP1 PUSH2 0x46DE JUMP JUMPDEST PUSH1 0x40 MLOAD DUP1 SWAP2 SUB SWAP1 REVERT JUMPDEST PUSH1 0x1 PUSH1 0x14 SWAP1 SLOAD SWAP1 PUSH2 0x100 EXP SWAP1 DIV PUSH1 0xFF AND PUSH2 0x2328 JUMPI PUSH1 0x40 MLOAD PUSH32 0x8C379A000000000000000000000000000000000000000000000000000000000 DUP2 MSTORE PUSH1 0x4 ADD PUSH2 0x231F SWAP1 PUSH2 0x4770 JUMP JUMPDEST PUSH1 0x40 MLOAD DUP1 SWAP2 SUB SWAP1 REVERT JUMPDEST DUP1 PUSH1 0x1 PUSH1 0x0 PUSH2 0x100 EXP DUP2 SLOAD DUP2 PUSH20 0xFFFFFFFFFFFFFFFFFFFFFFFFFFFFFFFFFFFFFFFF MUL NOT AND SWAP1 DUP4 PUSH20 0xFFFFFFFFFFFFFFFFFFFFFFFFFFFFFFFFFFFFFFFF AND MUL OR SWAP1 SSTORE POP POP JUMP JUMPDEST PUSH1 0x0 DUP1 PUSH20 0xFFFFFFFFFFFFFFFFFFFFFFFFFFFFFFFFFFFFFFFF AND PUSH1 0x1 PUSH1 0x0 SWAP1 SLOAD SWAP1 PUSH2 0x100 EXP SWAP1 DIV PUSH20 0xFFFFFFFFFFFFFFFFFFFFFFFFFFFFFFFFFFFFFFFF AND PUSH20 0xFFFFFFFFFFFFFFFFFFFFFFFFFFFFFFFFFFFFFFFF AND SUB PUSH2 0x23FE JUMPI PUSH1 0x40 MLOAD PUSH32 0x8C379A000000000000000000000000000000000000000000000000000000000 DUP2 MSTORE PUSH1 0x4 ADD PUSH2 0x23F5 SWAP1 PUSH2 0x46DE JUMP JUMPDEST PUSH1 0x40 MLOAD DUP1 SWAP2 SUB SWAP1 REVERT JUMPDEST PUSH1 0x1 PUSH1 0x0 SWAP1 SLOAD SWAP1 PUSH2 0x100 EXP SWAP1 DIV PUSH20 0xFFFFFFFFFFFFFFFFFFFFFFFFFFFFFFFFFFFFFFFF AND PUSH20 0xFFFFFFFFFFFFFFFFFFFFFFFFFFFFFFFFFFFFFFFF AND PUSH2 0x243F PUSH2 0x2D75 JUMP JUMPDEST PUSH20 0xFFFFFFFFFFFFFFFFFFFFFFFFFFFFFFFFFFFFFFFF AND EQ PUSH2 0x2495 JUMPI PUSH1 0x40 MLOAD PUSH32 0x8C379A000000000000000000000000000000000000000000000000000000000 DUP2 MSTORE PUSH1 0x4 ADD PUSH2 0x248C SWAP1 PUSH2 0x4802 JUMP JUMPDEST PUSH1 0x40 MLOAD DUP1 SWAP2 SUB SWAP1 REVERT JUMPDEST PUSH1 0x1 SWAP1 POP SWAP1 JUMP JUMPDEST DUP1 PUSH1 0x5 DUP4 PUSH1 0x40 MLOAD PUSH2 0x24AD SWAP2 SWAP1 PUSH2 0x3F57 JUMP JUMPDEST SWAP1 DUP2 MSTORE PUSH1 0x20 ADD PUSH1 0x40 MLOAD DUP1 SWAP2 SUB SWAP1 KECCAK256 PUSH1 0x0 ADD PUSH1 0x0 PUSH2 0x100 EXP DUP2 SLOAD DUP2 PUSH1 0xFF MUL NOT AND SWAP1 DUP4 PUSH1 0xA DUP2 GT ISZERO PUSH2 0x24E0 JUMPI PUSH2 0x24DF PUSH2 0x35E5 JUMP JUMPDEST JUMPDEST MUL OR SWAP1 SSTORE POP PUSH32 0x10CA3D89184491F5D8DE422BD36534ABE6EB4B4AA1429A261BDB5FF1DD9AC386 DUP3 DUP3 PUSH1 0x40 MLOAD PUSH2 0x2516 SWAP3 SWAP2 SWAP1 PUSH2 0x486A JUMP JUMPDEST PUSH1 0x40 MLOAD DUP1 SWAP2 SUB SWAP1 LOG1 POP POP JUMP JUMPDEST PUSH1 0x0 PUSH1 0x5 DUP3 PUSH1 0x40 MLOAD PUSH2 0x2534 SWAP2 SWAP1 PUSH2 0x3F57 JUMP JUMPDEST SWAP1 DUP2 MSTORE PUSH1 0x20 ADD PUSH1 0x40 MLOAD DUP1 SWAP2 SUB SWAP1 KECCAK256 PUSH1 0x1 ADD SLOAD EQ ISZERO DUP1 ISZERO PUSH2 0x2576 JUMPI POP PUSH1 0x0 PUSH1 0x5 DUP3 PUSH1 0x40 MLOAD PUSH2 0x2561 SWAP2 SWAP1 PUSH2 0x3F57 JUMP JUMPDEST SWAP1 DUP2 MSTORE PUSH1 0x20 ADD PUSH1 0x40 MLOAD DUP1 SWAP2 SUB SWAP1 KECCAK256 PUSH1 0x2 ADD SLOAD EQ ISZERO JUMPDEST ISZERO PUSH2 0x25B1 JUMPI TIMESTAMP PUSH1 0x5 DUP3 PUSH1 0x40 MLOAD PUSH2 0x258C SWAP2 SWAP1 PUSH2 0x3F57 JUMP JUMPDEST SWAP1 DUP2 MSTORE PUSH1 0x20 ADD PUSH1 0x40 MLOAD DUP1 SWAP2 SUB SWAP1 KECCAK256 PUSH1 0x4 ADD DUP2 SWAP1 SSTORE POP PUSH2 0x25AC DUP2 PUSH1 0x1 PUSH2 0x249C JUMP JUMPDEST PUSH2 0x25D8 JUMP JUMPDEST TIMESTAMP PUSH1 0x5 DUP3 PUSH1 0x40 MLOAD PUSH2 0x25C2 SWAP2 SWAP1 PUSH2 0x3F57 JUMP JUMPDEST SWAP1 DUP2 MSTORE PUSH1 0x20 ADD PUSH1 0x40 MLOAD DUP1 SWAP2 SUB SWAP1 KECCAK256 PUSH1 0x3 ADD DUP2 SWAP1 SSTORE POP JUMPDEST POP JUMP JUMPDEST PUSH2 0x25E3 PUSH2 0x2D75 JUMP JUMPDEST PUSH20 0xFFFFFFFFFFFFFFFFFFFFFFFFFFFFFFFFFFFFFFFF AND PUSH2 0x2601 PUSH2 0x1282 JUMP JUMPDEST PUSH20 0xFFFFFFFFFFFFFFFFFFFFFFFFFFFFFFFFFFFFFFFF AND EQ PUSH2 0x2657 JUMPI PUSH1 0x40 MLOAD PUSH32 0x8C379A000000000000000000000000000000000000000000000000000000000 DUP2 MSTORE PUSH1 0x4 ADD PUSH2 0x264E SWAP1 PUSH2 0x48E6 JUMP JUMPDEST PUSH1 0x40 MLOAD DUP1 SWAP2 SUB SWAP1 REVERT JUMPDEST JUMP JUMPDEST PUSH1 0x0 DUP1 PUSH1 0x0 SWAP1 SLOAD SWAP1 PUSH2 0x100 EXP SWAP1 DIV PUSH20 0xFFFFFFFFFFFFFFFFFFFFFFFFFFFFFFFFFFFFFFFF AND SWAP1 POP DUP2 PUSH1 0x0 DUP1 PUSH2 0x100 EXP DUP2 SLOAD DUP2 PUSH20 0xFFFFFFFFFFFFFFFFFFFFFFFFFFFFFFFFFFFFFFFF MUL NOT AND SWAP1 DUP4 PUSH20 0xFFFFFFFFFFFFFFFFFFFFFFFFFFFFFFFFFFFFFFFF AND MUL OR SWAP1 SSTORE POP DUP2 PUSH20 0xFFFFFFFFFFFFFFFFFFFFFFFFFFFFFFFFFFFFFFFF AND DUP2 PUSH20 0xFFFFFFFFFFFFFFFFFFFFFFFFFFFFFFFFFFFFFFFF AND PUSH32 0x8BE0079C531659141344CD1FD0A4F28419497F9722A3DAAFE3B4186F6B6457E0 PUSH1 0x40 MLOAD PUSH1 0x40 MLOAD DUP1 SWAP2 SUB SWAP1 LOG3 POP POP JUMP JUMPDEST PUSH1 0x0 DUP1 DUP3 PUSH20 0xFFFFFFFFFFFFFFFFFFFFFFFFFFFFFFFFFFFFFFFF AND EXTCODESIZE GT SWAP1 POP SWAP2 SWAP1 POP JUMP JUMPDEST PUSH1 0x0 PUSH20 0xFFFFFFFFFFFFFFFFFFFFFFFFFFFFFFFFFFFFFFFF AND DUP2 PUSH1 0x40 ADD MLOAD PUSH20 0xFFFFFFFFFFFFFFFFFFFFFFFFFFFFFFFFFFFFFFFF AND SUB PUSH2 0x27B3 JUMPI PUSH1 0x40 MLOAD PUSH32 0x8C379A000000000000000000000000000000000000000000000000000000000 DUP2 MSTORE PUSH1 0x4 ADD PUSH2 0x27AA SWAP1 PUSH2 0x4952 JUMP JUMPDEST PUSH1 0x40 MLOAD DUP1 SWAP2 SUB SWAP1 REVERT JUMPDEST PUSH1 0x0 PUSH20 0xFFFFFFFFFFFFFFFFFFFFFFFFFFFFFFFFFFFFFFFF AND DUP2 PUSH1 0x20 ADD MLOAD PUSH20 0xFFFFFFFFFFFFFFFFFFFFFFFFFFFFFFFFFFFFFFFF AND SUB PUSH2 0x2826 JUMPI PUSH1 0x40 MLOAD PUSH32 0x8C379A000000000000000000000000000000000000000000000000000000000 DUP2 MSTORE PUSH1 0x4 ADD PUSH2 0x281D SWAP1 PUSH2 0x49BE JUMP JUMPDEST PUSH1 0x40 MLOAD DUP1 SWAP2 SUB SWAP1 REVERT JUMPDEST PUSH1 0x0 PUSH20 0xFFFFFFFFFFFFFFFFFFFFFFFFFFFFFFFFFFFFFFFF AND DUP2 PUSH1 0x0 ADD MLOAD PUSH20 0xFFFFFFFFFFFFFFFFFFFFFFFFFFFFFFFFFFFFFFFF AND SUB PUSH2 0x2899 JUMPI PUSH1 0x40 MLOAD PUSH32 0x8C379A000000000000000000000000000000000000000000000000000000000 DUP2 MSTORE PUSH1 0x4 ADD PUSH2 0x2890 SWAP1 PUSH2 0x4A2A JUMP JUMPDEST PUSH1 0x40 MLOAD DUP1 SWAP2 SUB SWAP1 REVERT JUMPDEST PUSH1 0x0 DUP2 PUSH1 0x60 ADD MLOAD MLOAD GT PUSH2 0x28E1 JUMPI PUSH1 0x40 MLOAD PUSH32 0x8C379A000000000000000000000000000000000000000000000000000000000 DUP2 MSTORE PUSH1 0x4 ADD PUSH2 0x28D8 SWAP1 PUSH2 0x4A96 JUMP JUMPDEST PUSH1 0x40 MLOAD DUP1 SWAP2 SUB SWAP1 REVERT JUMPDEST POP JUMP JUMPDEST PUSH1 0x0 DUP2 PUSH1 0x0 ADD MLOAD PUSH1 0x20 ADD MLOAD EQ PUSH2 0x292F JUMPI PUSH1 0x40 MLOAD PUSH32 0x8C379A000000000000000000000000000000000000000000000000000000000 DUP2 MSTORE PUSH1 0x4 ADD PUSH2 0x2926 SWAP1 PUSH2 0x4B02 JUMP JUMPDEST PUSH1 0x40 MLOAD DUP1 SWAP2 SUB SWAP1 REVERT JUMPDEST PUSH1 0x0 DUP2 PUSH1 0x60 ADD MLOAD PUSH1 0x20 ADD MLOAD EQ PUSH2 0x297A JUMPI PUSH1 0x40 MLOAD PUSH32 0x8C379A000000000000000000000000000000000000000000000000000000000 DUP2 MSTORE PUSH1 0x4 ADD PUSH2 0x2971 SWAP1 PUSH2 0x4B6E JUMP JUMPDEST PUSH1 0x40 MLOAD DUP1 SWAP2 SUB SWAP1 REVERT JUMPDEST POP JUMP JUMPDEST DUP1 PUSH1 0x40 ADD MLOAD PUSH20 0xFFFFFFFFFFFFFFFFFFFFFFFFFFFFFFFFFFFFFFFF AND DUP3 PUSH1 0x40 ADD MLOAD PUSH20 0xFFFFFFFFFFFFFFFFFFFFFFFFFFFFFFFFFFFFFFFF AND EQ PUSH2 0x29F3 JUMPI PUSH1 0x40 MLOAD PUSH32 0x8C379A000000000000000000000000000000000000000000000000000000000 DUP2 MSTORE PUSH1 0x4 ADD PUSH2 0x29EA SWAP1 PUSH2 0x4BDA JUMP JUMPDEST PUSH1 0x40 MLOAD DUP1 SWAP2 SUB SWAP1 REVERT JUMPDEST DUP1 PUSH1 0x20 ADD MLOAD PUSH20 0xFFFFFFFFFFFFFFFFFFFFFFFFFFFFFFFFFFFFFFFF AND DUP3 PUSH1 0x20 ADD MLOAD PUSH20 0xFFFFFFFFFFFFFFFFFFFFFFFFFFFFFFFFFFFFFFFF AND EQ PUSH2 0x2A69 JUMPI PUSH1 0x40 MLOAD PUSH32 0x8C379A000000000000000000000000000000000000000000000000000000000 DUP2 MSTORE PUSH1 0x4 ADD PUSH2 0x2A60 SWAP1 PUSH2 0x4C46 JUMP JUMPDEST PUSH1 0x40 MLOAD DUP1 SWAP2 SUB SWAP1 REVERT JUMPDEST DUP1 PUSH1 0x0 ADD MLOAD PUSH20 0xFFFFFFFFFFFFFFFFFFFFFFFFFFFFFFFFFFFFFFFF AND DUP3 PUSH1 0x0 ADD MLOAD PUSH20 0xFFFFFFFFFFFFFFFFFFFFFFFFFFFFFFFFFFFFFFFF AND EQ PUSH2 0x2ADF JUMPI PUSH1 0x40 MLOAD PUSH32 0x8C379A000000000000000000000000000000000000000000000000000000000 DUP2 MSTORE PUSH1 0x4 ADD PUSH2 0x2AD6 SWAP1 PUSH2 0x4CB2 JUMP JUMPDEST PUSH1 0x40 MLOAD DUP1 SWAP2 SUB SWAP1 REVERT JUMPDEST DUP1 PUSH1 0x60 ADD MLOAD MLOAD DUP3 PUSH1 0x60 ADD MLOAD MLOAD EQ PUSH2 0x2B2B JUMPI PUSH1 0x40 MLOAD PUSH32 0x8C379A000000000000000000000000000000000000000000000000000000000 DUP2 MSTORE PUSH1 0x4 ADD PUSH2 0x2B22 SWAP1 PUSH2 0x4D1E JUMP JUMPDEST PUSH1 0x40 MLOAD DUP1 SWAP2 SUB SWAP1 REVERT JUMPDEST PUSH1 0x0 JUMPDEST DUP3 PUSH1 0x60 ADD MLOAD MLOAD DUP2 LT ISZERO PUSH2 0x2BF8 JUMPI DUP2 PUSH1 0x60 ADD MLOAD DUP2 DUP2 MLOAD DUP2 LT PUSH2 0x2B52 JUMPI PUSH2 0x2B51 PUSH2 0x4D3E JUMP JUMPDEST JUMPDEST PUSH1 0x20 MUL PUSH1 0x20 ADD ADD MLOAD PUSH20 0xFFFFFFFFFFFFFFFFFFFFFFFFFFFFFFFFFFFFFFFF AND DUP4 PUSH1 0x60 ADD MLOAD DUP3 DUP2 MLOAD DUP2 LT PUSH2 0x2B87 JUMPI PUSH2 0x2B86 PUSH2 0x4D3E JUMP JUMPDEST JUMPDEST PUSH1 0x20 MUL PUSH1 0x20 ADD ADD MLOAD PUSH20 0xFFFFFFFFFFFFFFFFFFFFFFFFFFFFFFFFFFFFFFFF AND EQ PUSH2 0x2BE5 JUMPI PUSH1 0x40 MLOAD PUSH32 0x8C379A000000000000000000000000000000000000000000000000000000000 DUP2 MSTORE PUSH1 0x4 ADD PUSH2 0x2BDC SWAP1 PUSH2 0x4DB9 JUMP JUMPDEST PUSH1 0x40 MLOAD DUP1 SWAP2 SUB SWAP1 REVERT JUMPDEST DUP1 DUP1 PUSH2 0x2BF0 SWAP1 PUSH2 0x4DD9 JUMP JUMPDEST SWAP2 POP POP PUSH2 0x2B2E JUMP JUMPDEST POP POP POP JUMP JUMPDEST PUSH2 0x2C0F DUP3 PUSH1 0x0 ADD MLOAD DUP3 PUSH1 0x0 ADD MLOAD PUSH2 0x2D7D JUMP JUMPDEST PUSH2 0x2C21 DUP3 PUSH1 0x20 ADD MLOAD DUP3 PUSH1 0x20 ADD MLOAD PUSH2 0x2D7D JUMP JUMPDEST PUSH2 0x2C33 DUP3 PUSH1 0x40 ADD MLOAD DUP3 PUSH1 0x40 ADD MLOAD PUSH2 0x2D7D JUMP JUMPDEST PUSH2 0x2C45 DUP3 PUSH1 0x60 ADD MLOAD DUP3 PUSH1 0x60 ADD MLOAD PUSH2 0x2D7D JUMP JUMPDEST POP POP JUMP JUMPDEST DUP1 PUSH1 0x0 ADD MLOAD DUP3 PUSH1 0x0 ADD MLOAD EQ PUSH2 0x2C93 JUMPI PUSH1 0x40 MLOAD PUSH32 0x8C379A000000000000000000000000000000000000000000000000000000000 DUP2 MSTORE PUSH1 0x4 ADD PUSH2 0x2C8A SWAP1 PUSH2 0x4E6D JUMP JUMPDEST PUSH1 0x40 MLOAD DUP1 SWAP2 SUB SWAP1 REVERT JUMPDEST DUP1 PUSH1 0x20 ADD MLOAD DUP3 PUSH1 0x20 ADD MLOAD EQ PUSH2 0x2CDD JUMPI PUSH1 0x40 MLOAD PUSH32 0x8C379A000000000000000000000000000000000000000000000000000000000 DUP2 MSTORE PUSH1 0x4 ADD PUSH2 0x2CD4 SWAP1 PUSH2 0x4ED9 JUMP JUMPDEST PUSH1 0x40 MLOAD DUP1 SWAP2 SUB SWAP1 REVERT JUMPDEST DUP1 PUSH1 0x40 ADD MLOAD DUP3 PUSH1 0x40 ADD MLOAD EQ PUSH2 0x2D27 JUMPI PUSH1 0x40 MLOAD PUSH32 0x8C379A000000000000000000000000000000000000000000000000000000000 DUP2 MSTORE PUSH1 0x4 ADD PUSH2 0x2D1E SWAP1 PUSH2 0x4F45 JUMP JUMPDEST PUSH1 0x40 MLOAD DUP1 SWAP2 SUB SWAP1 REVERT JUMPDEST DUP1 PUSH1 0x60 ADD MLOAD DUP3 PUSH1 0x60 ADD MLOAD EQ PUSH2 0x2D71 JUMPI PUSH1 0x40 MLOAD PUSH32 0x8C379A000000000000000000000000000000000000000000000000000000000 DUP2 MSTORE PUSH1 0x4 ADD PUSH2 0x2D68 SWAP1 PUSH2 0x4FB1 JUMP JUMPDEST PUSH1 0x40 MLOAD DUP1 SWAP2 SUB SWAP1 REVERT JUMPDEST POP POP JUMP JUMPDEST PUSH1 0x0 CALLER SWAP1 POP SWAP1 JUMP JUMPDEST DUP1 PUSH1 0x0 ADD MLOAD DUP3 PUSH1 0x0 ADD MLOAD EQ PUSH2 0x2DC7 JUMPI PUSH1 0x40 MLOAD PUSH32 0x8C379A000000000000000000000000000000000000000000000000000000000 DUP2 MSTORE PUSH1 0x4 ADD PUSH2 0x2DBE SWAP1 PUSH2 0x501D JUMP JUMPDEST PUSH1 0x40 MLOAD DUP1 SWAP2 SUB SWAP1 REVERT JUMPDEST DUP1 PUSH1 0x20 ADD MLOAD DUP3 PUSH1 0x20 ADD MLOAD EQ PUSH2 0x2E11 JUMPI PUSH1 0x40 MLOAD PUSH32 0x8C379A000000000000000000000000000000000000000000000000000000000 DUP2 MSTORE PUSH1 0x4 ADD PUSH2 0x2E08 SWAP1 PUSH2 0x5089 JUMP JUMPDEST PUSH1 0x40 MLOAD DUP1 SWAP2 SUB SWAP1 REVERT JUMPDEST POP POP JUMP JUMPDEST PUSH1 0x40 MLOAD DUP1 PUSH1 0x80 ADD PUSH1 0x40 MSTORE DUP1 PUSH1 0x60 DUP2 MSTORE PUSH1 0x20 ADD PUSH1 0x60 DUP2 MSTORE PUSH1 0x20 ADD PUSH1 0x60 DUP2 MSTORE PUSH1 0x20 ADD PUSH1 0x0 DUP2 MSTORE POP SWAP1 JUMP JUMPDEST PUSH1 0x40 MLOAD DUP1 PUSH2 0x1C0 ADD PUSH1 0x40 MSTORE DUP1 PUSH1 0x0 PUSH1 0xA DUP2 GT ISZERO PUSH2 0x2E5D JUMPI PUSH2 0x2E5C PUSH2 0x35E5 JUMP JUMPDEST JUMPDEST DUP2 MSTORE PUSH1 0x20 ADD PUSH1 0x0 DUP2 MSTORE PUSH1 0x20 ADD PUSH1 0x0 DUP2 MSTORE PUSH1 0x20 ADD PUSH1 0x0 DUP2 MSTORE PUSH1 0x20 ADD PUSH1 0x0 DUP2 MSTORE PUSH1 0x20 ADD PUSH1 0x0 DUP2 MSTORE PUSH1 0x20 ADD PUSH1 0x0 DUP2 MSTORE PUSH1 0x20 ADD PUSH1 0x0 DUP2 MSTORE PUSH1 0x20 ADD PUSH1 0x0 DUP2 MSTORE PUSH1 0x20 ADD PUSH1 0x0 DUP2 MSTORE PUSH1 0x20 ADD PUSH1 0x0 DUP2 MSTORE PUSH1 0x20 ADD PUSH1 0x0 DUP2 MSTORE PUSH1 0x20 ADD PUSH1 0x0 DUP2 MSTORE PUSH1 0x20 ADD PUSH1 0x0 DUP2 MSTORE POP SWAP1 JUMP JUMPDEST PUSH1 0x40 MLOAD DUP1 PUSH1 0x80 ADD PUSH1 0x40 MSTORE DUP1 PUSH1 0x60 DUP2 MSTORE PUSH1 0x20 ADD PUSH2 0x2ED8 PUSH2 0x2F82 JUMP JUMPDEST DUP2 MSTORE PUSH1 0x20 ADD PUSH2 0x2EE5 PUSH2 0x2FEC JUMP JUMPDEST DUP2 MSTORE PUSH1 0x20 ADD PUSH2 0x2EF2 PUSH2 0x302C JUMP JUMPDEST DUP2 MSTORE POP SWAP1 JUMP JUMPDEST DUP3 DUP1 SLOAD DUP3 DUP3 SSTORE SWAP1 PUSH1 0x0 MSTORE PUSH1 0x20 PUSH1 0x0 KECCAK256 SWAP1 DUP2 ADD SWAP3 DUP3 ISZERO PUSH2 0x2F71 JUMPI SWAP2 PUSH1 0x20 MUL DUP3 ADD JUMPDEST DUP3 DUP2 GT ISZERO PUSH2 0x2F70 JUMPI DUP3 MLOAD DUP3 PUSH1 0x0 PUSH2 0x100 EXP DUP2 SLOAD DUP2 PUSH20 0xFFFFFFFFFFFFFFFFFFFFFFFFFFFFFFFFFFFFFFFF MUL NOT AND SWAP1 DUP4 PUSH20 0xFFFFFFFFFFFFFFFFFFFFFFFFFFFFFFFFFFFFFFFF AND MUL OR SWAP1 SSTORE POP SWAP2 PUSH1 0x20 ADD SWAP2 SWAP1 PUSH1 0x1 ADD SWAP1 PUSH2 0x2F18 JUMP JUMPDEST JUMPDEST POP SWAP1 POP PUSH2 0x2F7E SWAP2 SWAP1 PUSH2 0x3054 JUMP JUMPDEST POP SWAP1 JUMP JUMPDEST PUSH1 0x40 MLOAD DUP1 PUSH1 0x80 ADD PUSH1 0x40 MSTORE DUP1 PUSH1 0x0 PUSH20 0xFFFFFFFFFFFFFFFFFFFFFFFFFFFFFFFFFFFFFFFF AND DUP2 MSTORE PUSH1 0x20 ADD PUSH1 0x0 PUSH20 0xFFFFFFFFFFFFFFFFFFFFFFFFFFFFFFFFFFFFFFFF AND DUP2 MSTORE PUSH1 0x20 ADD PUSH1 0x0 PUSH20 0xFFFFFFFFFFFFFFFFFFFFFFFFFFFFFFFFFFFFFFFF AND DUP2 MSTORE PUSH1 0x20 ADD PUSH1 0x60 DUP2 MSTORE POP SWAP1 JUMP JUMPDEST PUSH1 0x40 MLOAD DUP1 PUSH1 0x80 ADD PUSH1 0x40 MSTORE DUP1 PUSH2 0x2FFF PUSH2 0x3071 JUMP JUMPDEST DUP2 MSTORE PUSH1 0x20 ADD PUSH2 0x300C PUSH2 0x3071 JUMP JUMPDEST DUP2 MSTORE PUSH1 0x20 ADD PUSH2 0x3019 PUSH2 0x3071 JUMP JUMPDEST DUP2 MSTORE PUSH1 0x20 ADD PUSH2 0x3026 PUSH2 0x3071 JUMP JUMPDEST DUP2 MSTORE POP SWAP1 JUMP JUMPDEST PUSH1 0x40 MLOAD DUP1 PUSH1 0x80 ADD PUSH1 0x40 MSTORE DUP1 PUSH1 0x0 DUP2 MSTORE PUSH1 0x20 ADD PUSH1 0x0 DUP2 MSTORE PUSH1 0x20 ADD PUSH1 0x0 DUP2 MSTORE PUSH1 0x20 ADD PUSH1 0x0 DUP2 MSTORE POP SWAP1 JUMP JUMPDEST JUMPDEST DUP1 DUP3 GT ISZERO PUSH2 0x306D JUMPI PUSH1 0x0 DUP2 PUSH1 0x0 SWAP1 SSTORE POP PUSH1 0x1 ADD PUSH2 0x3055 JUMP JUMPDEST POP SWAP1 JUMP JUMPDEST PUSH1 0x40 MLOAD DUP1 PUSH1 0x40 ADD PUSH1 0x40 MSTORE DUP1 PUSH1 0x0 DUP2 MSTORE PUSH1 0x20 ADD PUSH1 0x0 DUP2 MSTORE POP SWAP1 JUMP JUMPDEST PUSH1 0x0 PUSH1 0x40 MLOAD SWAP1 POP SWAP1 JUMP JUMPDEST PUSH1 0x0 DUP1 REVERT JUMPDEST PUSH1 0x0 DUP1 REVERT JUMPDEST PUSH1 0x0 PUSH20 0xFFFFFFFFFFFFFFFFFFFFFFFFFFFFFFFFFFFFFFFF DUP3 AND SWAP1 POP SWAP2 SWAP1 POP JUMP JUMPDEST PUSH1 0x0 PUSH2 0x30CA DUP3 PUSH2 0x309F JUMP JUMPDEST SWAP1 POP SWAP2 SWAP1 POP JUMP JUMPDEST PUSH2 0x30DA DUP2 PUSH2 0x30BF JUMP JUMPDEST DUP2 EQ PUSH2 0x30E5 JUMPI PUSH1 0x0 DUP1 REVERT JUMPDEST POP JUMP JUMPDEST PUSH1 0x0 DUP2 CALLDATALOAD SWAP1 POP PUSH2 0x30F7 DUP2 PUSH2 0x30D1 JUMP JUMPDEST SWAP3 SWAP2 POP POP JUMP JUMPDEST PUSH1 0x0 PUSH1 0x20 DUP3 DUP5 SUB SLT ISZERO PUSH2 0x3113 JUMPI PUSH2 0x3112 PUSH2 0x3095 JUMP JUMPDEST JUMPDEST PUSH1 0x0 PUSH2 0x3121 DUP5 DUP3 DUP6 ADD PUSH2 0x30E8 JUMP JUMPDEST SWAP2 POP POP SWAP3 SWAP2 POP POP JUMP JUMPDEST PUSH1 0x0 DUP2 MLOAD SWAP1 POP SWAP2 SWAP1 POP JUMP JUMPDEST PUSH1 0x0 DUP3 DUP3 MSTORE PUSH1 0x20 DUP3 ADD SWAP1 POP SWAP3 SWAP2 POP POP JUMP JUMPDEST PUSH1 0x0 DUP2 SWAP1 POP PUSH1 0x20 DUP3 ADD SWAP1 POP SWAP2 SWAP1 POP JUMP JUMPDEST PUSH1 0x0 DUP2 MLOAD SWAP1 POP SWAP2 SWAP1 POP JUMP JUMPDEST PUSH1 0x0 DUP3 DUP3 MSTORE PUSH1 0x20 DUP3 ADD SWAP1 POP SWAP3 SWAP2 POP POP JUMP JUMPDEST PUSH1 0x0 JUMPDEST DUP4 DUP2 LT ISZERO PUSH2 0x3190 JUMPI DUP1 DUP3 ADD MLOAD DUP2 DUP5 ADD MSTORE PUSH1 0x20 DUP2 ADD SWAP1 POP PUSH2 0x3175 JUMP JUMPDEST PUSH1 0x0 DUP5 DUP5 ADD MSTORE POP POP POP POP JUMP JUMPDEST PUSH1 0x0 PUSH1 0x1F NOT PUSH1 0x1F DUP4 ADD AND SWAP1 POP SWAP2 SWAP1 POP JUMP JUMPDEST PUSH1 0x0 PUSH2 0x31B8 DUP3 PUSH2 0x3156 JUMP JUMPDEST PUSH2 0x31C2 DUP2 DUP6 PUSH2 0x3161 JUMP JUMPDEST SWAP4 POP PUSH2 0x31D2 DUP2 DUP6 PUSH1 0x20 DUP7 ADD PUSH2 0x3172 JUMP JUMPDEST PUSH2 0x31DB DUP2 PUSH2 0x319C JUMP JUMPDEST DUP5 ADD SWAP2 POP POP SWAP3 SWAP2 POP POP JUMP JUMPDEST PUSH1 0x0 PUSH2 0x31F2 DUP4 DUP4 PUSH2 0x31AD JUMP JUMPDEST SWAP1 POP SWAP3 SWAP2 POP POP JUMP JUMPDEST PUSH1 0x0 PUSH1 0x20 DUP3 ADD SWAP1 POP SWAP2 SWAP1 POP JUMP JUMPDEST PUSH1 0x0 PUSH2 0x3212 DUP3 PUSH2 0x312A JUMP JUMPDEST PUSH2 0x321C DUP2 DUP6 PUSH2 0x3135 JUMP JUMPDEST SWAP4 POP DUP4 PUSH1 0x20 DUP3 MUL DUP6 ADD PUSH2 0x322E DUP6 PUSH2 0x3146 JUMP JUMPDEST DUP1 PUSH1 0x0 JUMPDEST DUP6 DUP2 LT ISZERO PUSH2 0x326A JUMPI DUP5 DUP5 SUB DUP10 MSTORE DUP2 MLOAD PUSH2 0x324B DUP6 DUP3 PUSH2 0x31E6 JUMP JUMPDEST SWAP5 POP PUSH2 0x3256 DUP4 PUSH2 0x31FA JUMP JUMPDEST SWAP3 POP PUSH1 0x20 DUP11 ADD SWAP10 POP POP PUSH1 0x1 DUP2 ADD SWAP1 POP PUSH2 0x3232 JUMP JUMPDEST POP DUP3 SWAP8 POP DUP8 SWAP6 POP POP POP POP POP POP SWAP3 SWAP2 POP POP JUMP JUMPDEST PUSH1 0x0 PUSH1 0x20 DUP3 ADD SWAP1 POP DUP2 DUP2 SUB PUSH1 0x0 DUP4 ADD MSTORE PUSH2 0x3296 DUP2 DUP5 PUSH2 0x3207 JUMP JUMPDEST SWAP1 POP SWAP3 SWAP2 POP POP JUMP JUMPDEST PUSH1 0x0 DUP1 REVERT JUMPDEST PUSH1 0x0 DUP1 REVERT JUMPDEST PUSH32 0x4E487B7100000000000000000000000000000000000000000000000000000000 PUSH1 0x0 MSTORE PUSH1 0x41 PUSH1 0x4 MSTORE PUSH1 0x24 PUSH1 0x0 REVERT JUMPDEST PUSH2 0x32E0 DUP3 PUSH2 0x319C JUMP JUMPDEST DUP2 ADD DUP2 DUP2 LT PUSH8 0xFFFFFFFFFFFFFFFF DUP3 GT OR ISZERO PUSH2 0x32FF JUMPI PUSH2 0x32FE PUSH2 0x32A8 JUMP JUMPDEST JUMPDEST DUP1 PUSH1 0x40 MSTORE POP POP POP JUMP JUMPDEST PUSH1 0x0 PUSH2 0x3312 PUSH2 0x308B JUMP JUMPDEST SWAP1 POP PUSH2 0x331E DUP3 DUP3 PUSH2 0x32D7 JUMP JUMPDEST SWAP2 SWAP1 POP JUMP JUMPDEST PUSH1 0x0 PUSH8 0xFFFFFFFFFFFFFFFF DUP3 GT ISZERO PUSH2 0x333E JUMPI PUSH2 0x333D PUSH2 0x32A8 JUMP JUMPDEST JUMPDEST PUSH2 0x3347 DUP3 PUSH2 0x319C JUMP JUMPDEST SWAP1 POP PUSH1 0x20 DUP2 ADD SWAP1 POP SWAP2 SWAP1 POP JUMP JUMPDEST DUP3 DUP2 DUP4 CALLDATACOPY PUSH1 0x0 DUP4 DUP4 ADD MSTORE POP POP POP JUMP JUMPDEST PUSH1 0x0 PUSH2 0x3376 PUSH2 0x3371 DUP5 PUSH2 0x3323 JUMP JUMPDEST PUSH2 0x3308 JUMP JUMPDEST SWAP1 POP DUP3 DUP2 MSTORE PUSH1 0x20 DUP2 ADD DUP5 DUP5 DUP5 ADD GT ISZERO PUSH2 0x3392 JUMPI PUSH2 0x3391 PUSH2 0x32A3 JUMP JUMPDEST JUMPDEST PUSH2 0x339D DUP5 DUP3 DUP6 PUSH2 0x3354 JUMP JUMPDEST POP SWAP4 SWAP3 POP POP POP JUMP JUMPDEST PUSH1 0x0 DUP3 PUSH1 0x1F DUP4 ADD SLT PUSH2 0x33BA JUMPI PUSH2 0x33B9 PUSH2 0x329E JUMP JUMPDEST JUMPDEST DUP2 CALLDATALOAD PUSH2 0x33CA DUP5 DUP3 PUSH1 0x20 DUP7 ADD PUSH2 0x3363 JUMP JUMPDEST SWAP2 POP POP SWAP3 SWAP2 POP POP JUMP JUMPDEST PUSH1 0x0 PUSH1 0x20 DUP3 DUP5 SUB SLT ISZERO PUSH2 0x33E9 JUMPI PUSH2 0x33E8 PUSH2 0x3095 JUMP JUMPDEST JUMPDEST PUSH1 0x0 DUP3 ADD CALLDATALOAD PUSH8 0xFFFFFFFFFFFFFFFF DUP2 GT ISZERO PUSH2 0x3407 JUMPI PUSH2 0x3406 PUSH2 0x309A JUMP JUMPDEST JUMPDEST PUSH2 0x3413 DUP5 DUP3 DUP6 ADD PUSH2 0x33A5 JUMP JUMPDEST SWAP2 POP POP SWAP3 SWAP2 POP POP JUMP JUMPDEST PUSH1 0x0 DUP2 ISZERO ISZERO SWAP1 POP SWAP2 SWAP1 POP JUMP JUMPDEST PUSH2 0x3431 DUP2 PUSH2 0x341C JUMP JUMPDEST DUP3 MSTORE POP POP JUMP JUMPDEST PUSH1 0x0 PUSH1 0x20 DUP3 ADD SWAP1 POP PUSH2 0x344C PUSH1 0x0 DUP4 ADD DUP5 PUSH2 0x3428 JUMP JUMPDEST SWAP3 SWAP2 POP POP JUMP JUMPDEST PUSH1 0x0 DUP2 SWAP1 POP SWAP2 SWAP1 POP JUMP JUMPDEST PUSH2 0x3465 DUP2 PUSH2 0x3452 JUMP JUMPDEST DUP2 EQ PUSH2 0x3470 JUMPI PUSH1 0x0 DUP1 REVERT JUMPDEST POP JUMP JUMPDEST PUSH1 0x0 DUP2 CALLDATALOAD SWAP1 POP PUSH2 0x3482 DUP2 PUSH2 0x345C JUMP JUMPDEST SWAP3 SWAP2 POP POP JUMP JUMPDEST PUSH1 0x0 DUP1 PUSH1 0x0 DUP1 PUSH1 0x80 DUP6 DUP8 SUB SLT ISZERO PUSH2 0x34A2 JUMPI PUSH2 0x34A1 PUSH2 0x3095 JUMP JUMPDEST JUMPDEST PUSH1 0x0 DUP6 ADD CALLDATALOAD PUSH8 0xFFFFFFFFFFFFFFFF DUP2 GT ISZERO PUSH2 0x34C0 JUMPI PUSH2 0x34BF PUSH2 0x309A JUMP JUMPDEST JUMPDEST PUSH2 0x34CC DUP8 DUP3 DUP9 ADD PUSH2 0x33A5 JUMP JUMPDEST SWAP5 POP POP PUSH1 0x20 DUP6 ADD CALLDATALOAD PUSH8 0xFFFFFFFFFFFFFFFF DUP2 GT ISZERO PUSH2 0x34ED JUMPI PUSH2 0x34EC PUSH2 0x309A JUMP JUMPDEST JUMPDEST PUSH2 0x34F9 DUP8 DUP3 DUP9 ADD PUSH2 0x33A5 JUMP JUMPDEST SWAP4 POP POP PUSH1 0x40 DUP6 ADD CALLDATALOAD PUSH8 0xFFFFFFFFFFFFFFFF DUP2 GT ISZERO PUSH2 0x351A JUMPI PUSH2 0x3519 PUSH2 0x309A JUMP JUMPDEST JUMPDEST PUSH2 0x3526 DUP8 DUP3 DUP9 ADD PUSH2 0x33A5 JUMP JUMPDEST SWAP3 POP POP PUSH1 0x60 PUSH2 0x3537 DUP8 DUP3 DUP9 ADD PUSH2 0x3473 JUMP JUMPDEST SWAP2 POP POP SWAP3 SWAP6 SWAP2 SWAP5 POP SWAP3 POP JUMP JUMPDEST PUSH2 0x354C DUP2 PUSH2 0x3452 JUMP JUMPDEST DUP3 MSTORE POP POP JUMP JUMPDEST PUSH1 0x0 PUSH1 0x80 DUP4 ADD PUSH1 0x0 DUP4 ADD MLOAD DUP5 DUP3 SUB PUSH1 0x0 DUP7 ADD MSTORE PUSH2 0x356F DUP3 DUP3 PUSH2 0x31AD JUMP JUMPDEST SWAP2 POP POP PUSH1 0x20 DUP4 ADD MLOAD DUP5 DUP3 SUB PUSH1 0x20 DUP7 ADD MSTORE PUSH2 0x3589 DUP3 DUP3 PUSH2 0x31AD JUMP JUMPDEST SWAP2 POP POP PUSH1 0x40 DUP4 ADD MLOAD DUP5 DUP3 SUB PUSH1 0x40 DUP7 ADD MSTORE PUSH2 0x35A3 DUP3 DUP3 PUSH2 0x31AD JUMP JUMPDEST SWAP2 POP POP PUSH1 0x60 DUP4 ADD MLOAD PUSH2 0x35B8 PUSH1 0x60 DUP7 ADD DUP3 PUSH2 0x3543 JUMP JUMPDEST POP DUP1 SWAP2 POP POP SWAP3 SWAP2 POP POP JUMP JUMPDEST PUSH1 0x0 PUSH1 0x20 DUP3 ADD SWAP1 POP DUP2 DUP2 SUB PUSH1 0x0 DUP4 ADD MSTORE PUSH2 0x35DD DUP2 DUP5 PUSH2 0x3552 JUMP JUMPDEST SWAP1 POP SWAP3 SWAP2 POP POP JUMP JUMPDEST PUSH32 0x4E487B7100000000000000000000000000000000000000000000000000000000 PUSH1 0x0 MSTORE PUSH1 0x21 PUSH1 0x4 MSTORE PUSH1 0x24 PUSH1 0x0 REVERT JUMPDEST PUSH1 0xB DUP2 LT PUSH2 0x3625 JUMPI PUSH2 0x3624 PUSH2 0x35E5 JUMP JUMPDEST JUMPDEST POP JUMP JUMPDEST PUSH1 0x0 DUP2 SWAP1 POP PUSH2 0x3636 DUP3 PUSH2 0x3614 JUMP JUMPDEST SWAP2 SWAP1 POP JUMP JUMPDEST PUSH1 0x0 PUSH2 0x3646 DUP3 PUSH2 0x3628 JUMP JUMPDEST SWAP1 POP SWAP2 SWAP1 POP JUMP JUMPDEST PUSH2 0x3656 DUP2 PUSH2 0x363B JUMP JUMPDEST DUP3 MSTORE POP POP JUMP JUMPDEST PUSH2 0x1C0 DUP3 ADD PUSH1 0x0 DUP3 ADD MLOAD PUSH2 0x3673 PUSH1 0x0 DUP6 ADD DUP3 PUSH2 0x364D JUMP JUMPDEST POP PUSH1 0x20 DUP3 ADD MLOAD PUSH2 0x3686 PUSH1 0x20 DUP6 ADD DUP3 PUSH2 0x3543 JUMP JUMPDEST POP PUSH1 0x40 DUP3 ADD MLOAD PUSH2 0x3699 PUSH1 0x40 DUP6 ADD DUP3 PUSH2 0x3543 JUMP JUMPDEST POP PUSH1 0x60 DUP3 ADD MLOAD PUSH2 0x36AC PUSH1 0x60 DUP6 ADD DUP3 PUSH2 0x3543 JUMP JUMPDEST POP PUSH1 0x80 DUP3 ADD MLOAD PUSH2 0x36BF PUSH1 0x80 DUP6 ADD DUP3 PUSH2 0x3543 JUMP JUMPDEST POP PUSH1 0xA0 DUP3 ADD MLOAD PUSH2 0x36D2 PUSH1 0xA0 DUP6 ADD DUP3 PUSH2 0x3543 JUMP JUMPDEST POP PUSH1 0xC0 DUP3 ADD MLOAD PUSH2 0x36E5 PUSH1 0xC0 DUP6 ADD DUP3 PUSH2 0x3543 JUMP JUMPDEST POP PUSH1 0xE0 DUP3 ADD MLOAD PUSH2 0x36F8 PUSH1 0xE0 DUP6 ADD DUP3 PUSH2 0x3543 JUMP JUMPDEST POP PUSH2 0x100 DUP3 ADD MLOAD PUSH2 0x370D PUSH2 0x100 DUP6 ADD DUP3 PUSH2 0x3543 JUMP JUMPDEST POP PUSH2 0x120 DUP3 ADD MLOAD PUSH2 0x3722 PUSH2 0x120 DUP6 ADD DUP3 PUSH2 0x3543 JUMP JUMPDEST POP PUSH2 0x140 DUP3 ADD MLOAD PUSH2 0x3737 PUSH2 0x140 DUP6 ADD DUP3 PUSH2 0x3543 JUMP JUMPDEST POP PUSH2 0x160 DUP3 ADD MLOAD PUSH2 0x374C PUSH2 0x160 DUP6 ADD DUP3 PUSH2 0x3543 JUMP JUMPDEST POP PUSH2 0x180 DUP3 ADD MLOAD PUSH2 0x3761 PUSH2 0x180 DUP6 ADD DUP3 PUSH2 0x3543 JUMP JUMPDEST POP PUSH2 0x1A0 DUP3 ADD MLOAD PUSH2 0x3776 PUSH2 0x1A0 DUP6 ADD DUP3 PUSH2 0x3543 JUMP JUMPDEST POP POP POP POP JUMP JUMPDEST PUSH1 0x0 PUSH2 0x1C0 DUP3 ADD SWAP1 POP PUSH2 0x3792 PUSH1 0x0 DUP4 ADD DUP5 PUSH2 0x365C JUMP JUMPDEST SWAP3 SWAP2 POP POP JUMP JUMPDEST PUSH2 0x37A1 DUP2 PUSH2 0x3452 JUMP JUMPDEST DUP3 MSTORE POP POP JUMP JUMPDEST PUSH1 0x0 PUSH1 0x20 DUP3 ADD SWAP1 POP PUSH2 0x37BC PUSH1 0x0 DUP4 ADD DUP5 PUSH2 0x3798 JUMP JUMPDEST SWAP3 SWAP2 POP POP JUMP JUMPDEST PUSH2 0x37CB DUP2 PUSH2 0x30BF JUMP JUMPDEST DUP3 MSTORE POP POP JUMP JUMPDEST PUSH1 0x0 PUSH1 0x20 DUP3 ADD SWAP1 POP PUSH2 0x37E6 PUSH1 0x0 DUP4 ADD DUP5 PUSH2 0x37C2 JUMP JUMPDEST SWAP3 SWAP2 POP POP JUMP JUMPDEST PUSH1 0x0 DUP1 REVERT JUMPDEST PUSH1 0x0 DUP1 REVERT JUMPDEST PUSH1 0x0 PUSH8 0xFFFFFFFFFFFFFFFF DUP3 GT ISZERO PUSH2 0x3811 JUMPI PUSH2 0x3810 PUSH2 0x32A8 JUMP JUMPDEST JUMPDEST PUSH1 0x20 DUP3 MUL SWAP1 POP PUSH1 0x20 DUP2 ADD SWAP1 POP SWAP2 SWAP1 POP JUMP JUMPDEST PUSH1 0x0 DUP1 REVERT JUMPDEST PUSH1 0x0 PUSH2 0x383A PUSH2 0x3835 DUP5 PUSH2 0x37F6 JUMP JUMPDEST PUSH2 0x3308 JUMP JUMPDEST SWAP1 POP DUP1 DUP4 DUP3 MSTORE PUSH1 0x20 DUP3 ADD SWAP1 POP PUSH1 0x20 DUP5 MUL DUP4 ADD DUP6 DUP2 GT ISZERO PUSH2 0x385D JUMPI PUSH2 0x385C PUSH2 0x3822 JUMP JUMPDEST JUMPDEST DUP4 JUMPDEST DUP2 DUP2 LT ISZERO PUSH2 0x3886 JUMPI DUP1 PUSH2 0x3872 DUP9 DUP3 PUSH2 0x30E8 JUMP JUMPDEST DUP5 MSTORE PUSH1 0x20 DUP5 ADD SWAP4 POP POP PUSH1 0x20 DUP2 ADD SWAP1 POP PUSH2 0x385F JUMP JUMPDEST POP POP POP SWAP4 SWAP3 POP POP POP JUMP JUMPDEST PUSH1 0x0 DUP3 PUSH1 0x1F DUP4 ADD SLT PUSH2 0x38A5 JUMPI PUSH2 0x38A4 PUSH2 0x329E JUMP JUMPDEST JUMPDEST DUP2 CALLDATALOAD PUSH2 0x38B5 DUP5 DUP3 PUSH1 0x20 DUP7 ADD PUSH2 0x3827 JUMP JUMPDEST SWAP2 POP POP SWAP3 SWAP2 POP POP JUMP JUMPDEST PUSH1 0x0 PUSH1 0x80 DUP3 DUP5 SUB SLT ISZERO PUSH2 0x38D4 JUMPI PUSH2 0x38D3 PUSH2 0x37EC JUMP JUMPDEST JUMPDEST PUSH2 0x38DE PUSH1 0x80 PUSH2 0x3308 JUMP JUMPDEST SWAP1 POP PUSH1 0x0 PUSH2 0x38EE DUP5 DUP3 DUP6 ADD PUSH2 0x30E8 JUMP JUMPDEST PUSH1 0x0 DUP4 ADD MSTORE POP PUSH1 0x20 PUSH2 0x3902 DUP5 DUP3 DUP6 ADD PUSH2 0x30E8 JUMP JUMPDEST PUSH1 0x20 DUP4 ADD MSTORE POP PUSH1 0x40 PUSH2 0x3916 DUP5 DUP3 DUP6 ADD PUSH2 0x30E8 JUMP JUMPDEST PUSH1 0x40 DUP4 ADD MSTORE POP PUSH1 0x60 DUP3 ADD CALLDATALOAD PUSH8 0xFFFFFFFFFFFFFFFF DUP2 GT ISZERO PUSH2 0x393A JUMPI PUSH2 0x3939 PUSH2 0x37F1 JUMP JUMPDEST JUMPDEST PUSH2 0x3946 DUP5 DUP3 DUP6 ADD PUSH2 0x3890 JUMP JUMPDEST PUSH1 0x60 DUP4 ADD MSTORE POP SWAP3 SWAP2 POP POP JUMP JUMPDEST PUSH1 0x0 PUSH1 0x40 DUP3 DUP5 SUB SLT ISZERO PUSH2 0x3968 JUMPI PUSH2 0x3967 PUSH2 0x37EC JUMP JUMPDEST JUMPDEST PUSH2 0x3972 PUSH1 0x40 PUSH2 0x3308 JUMP JUMPDEST SWAP1 POP PUSH1 0x0 PUSH2 0x3982 DUP5 DUP3 DUP6 ADD PUSH2 0x3473 JUMP JUMPDEST PUSH1 0x0 DUP4 ADD MSTORE POP PUSH1 0x20 PUSH2 0x3996 DUP5 DUP3 DUP6 ADD PUSH2 0x3473 JUMP JUMPDEST PUSH1 0x20 DUP4 ADD MSTORE POP SWAP3 SWAP2 POP POP JUMP JUMPDEST PUSH1 0x0 PUSH2 0x100 DUP3 DUP5 SUB SLT ISZERO PUSH2 0x39B9 JUMPI PUSH2 0x39B8 PUSH2 0x37EC JUMP JUMPDEST JUMPDEST PUSH2 0x39C3 PUSH1 0x80 PUSH2 0x3308 JUMP JUMPDEST SWAP1 POP PUSH1 0x0 PUSH2 0x39D3 DUP5 DUP3 DUP6 ADD PUSH2 0x3952 JUMP JUMPDEST PUSH1 0x0 DUP4 ADD MSTORE POP PUSH1 0x40 PUSH2 0x39E7 DUP5 DUP3 DUP6 ADD PUSH2 0x3952 JUMP JUMPDEST PUSH1 0x20 DUP4 ADD MSTORE POP PUSH1 0x80 PUSH2 0x39FB DUP5 DUP3 DUP6 ADD PUSH2 0x3952 JUMP JUMPDEST PUSH1 0x40 DUP4 ADD MSTORE POP PUSH1 0xC0 PUSH2 0x3A0F DUP5 DUP3 DUP6 ADD PUSH2 0x3952 JUMP JUMPDEST PUSH1 0x60 DUP4 ADD MSTORE POP SWAP3 SWAP2 POP POP JUMP JUMPDEST PUSH1 0x0 PUSH1 0x80 DUP3 DUP5 SUB SLT ISZERO PUSH2 0x3A31 JUMPI PUSH2 0x3A30 PUSH2 0x37EC JUMP JUMPDEST JUMPDEST PUSH2 0x3A3B PUSH1 0x80 PUSH2 0x3308 JUMP JUMPDEST SWAP1 POP PUSH1 0x0 PUSH2 0x3A4B DUP5 DUP3 DUP6 ADD PUSH2 0x3473 JUMP JUMPDEST PUSH1 0x0 DUP4 ADD MSTORE POP PUSH1 0x20 PUSH2 0x3A5F DUP5 DUP3 DUP6 ADD PUSH2 0x3473 JUMP JUMPDEST PUSH1 0x20 DUP4 ADD MSTORE POP PUSH1 0x40 PUSH2 0x3A73 DUP5 DUP3 DUP6 ADD PUSH2 0x3473 JUMP JUMPDEST PUSH1 0x40 DUP4 ADD MSTORE POP PUSH1 0x60 PUSH2 0x3A87 DUP5 DUP3 DUP6 ADD PUSH2 0x3473 JUMP JUMPDEST PUSH1 0x60 DUP4 ADD MSTORE POP SWAP3 SWAP2 POP POP JUMP JUMPDEST PUSH1 0x0 DUP1 PUSH1 0x0 DUP1 PUSH2 0x1C0 DUP6 DUP8 SUB SLT ISZERO PUSH2 0x3AAE JUMPI PUSH2 0x3AAD PUSH2 0x3095 JUMP JUMPDEST JUMPDEST PUSH1 0x0 DUP6 ADD CALLDATALOAD PUSH8 0xFFFFFFFFFFFFFFFF DUP2 GT ISZERO PUSH2 0x3ACC JUMPI PUSH2 0x3ACB PUSH2 0x309A JUMP JUMPDEST JUMPDEST PUSH2 0x3AD8 DUP8 DUP3 DUP9 ADD PUSH2 0x33A5 JUMP JUMPDEST SWAP5 POP POP PUSH1 0x20 DUP6 ADD CALLDATALOAD PUSH8 0xFFFFFFFFFFFFFFFF DUP2 GT ISZERO PUSH2 0x3AF9 JUMPI PUSH2 0x3AF8 PUSH2 0x309A JUMP JUMPDEST JUMPDEST PUSH2 0x3B05 DUP8 DUP3 DUP9 ADD PUSH2 0x38BE JUMP JUMPDEST SWAP4 POP POP PUSH1 0x40 PUSH2 0x3B16 DUP8 DUP3 DUP9 ADD PUSH2 0x39A2 JUMP JUMPDEST SWAP3 POP POP PUSH2 0x140 PUSH2 0x3B28 DUP8 DUP3 DUP9 ADD PUSH2 0x3A1B JUMP JUMPDEST SWAP2 POP POP SWAP3 SWAP6 SWAP2 SWAP5 POP SWAP3 POP JUMP JUMPDEST PUSH2 0x3B3D DUP2 PUSH2 0x30BF JUMP JUMPDEST DUP3 MSTORE POP POP JUMP JUMPDEST PUSH1 0x0 DUP2 MLOAD SWAP1 POP SWAP2 SWAP1 POP JUMP JUMPDEST PUSH1 0x0 DUP3 DUP3 MSTORE PUSH1 0x20 DUP3 ADD SWAP1 POP SWAP3 SWAP2 POP POP JUMP JUMPDEST PUSH1 0x0 DUP2 SWAP1 POP PUSH1 0x20 DUP3 ADD SWAP1 POP SWAP2 SWAP1 POP JUMP JUMPDEST PUSH1 0x0 PUSH2 0x3B7B DUP4 DUP4 PUSH2 0x3B34 JUMP JUMPDEST PUSH1 0x20 DUP4 ADD SWAP1 POP SWAP3 SWAP2 POP POP JUMP JUMPDEST PUSH1 0x0 PUSH1 0x20 DUP3 ADD SWAP1 POP SWAP2 SWAP1 POP JUMP JUMPDEST PUSH1 0x0 PUSH2 0x3B9F DUP3 PUSH2 0x3B43 JUMP JUMPDEST PUSH2 0x3BA9 DUP2 DUP6 PUSH2 0x3B4E JUMP JUMPDEST SWAP4 POP PUSH2 0x3BB4 DUP4 PUSH2 0x3B5F JUMP JUMPDEST DUP1 PUSH1 0x0 JUMPDEST DUP4 DUP2 LT ISZERO PUSH2 0x3BE5 JUMPI DUP2 MLOAD PUSH2 0x3BCC DUP9 DUP3 PUSH2 0x3B6F JUMP JUMPDEST SWAP8 POP PUSH2 0x3BD7 DUP4 PUSH2 0x3B87 JUMP JUMPDEST SWAP3 POP POP PUSH1 0x1 DUP2 ADD SWAP1 POP PUSH2 0x3BB8 JUMP JUMPDEST POP DUP6 SWAP4 POP POP POP POP SWAP3 SWAP2 POP POP JUMP JUMPDEST PUSH1 0x0 PUSH1 0x80 DUP4 ADD PUSH1 0x0 DUP4 ADD MLOAD PUSH2 0x3C0A PUSH1 0x0 DUP7 ADD DUP3 PUSH2 0x3B34 JUMP JUMPDEST POP PUSH1 0x20 DUP4 ADD MLOAD PUSH2 0x3C1D PUSH1 0x20 DUP7 ADD DUP3 PUSH2 0x3B34 JUMP JUMPDEST POP PUSH1 0x40 DUP4 ADD MLOAD PUSH2 0x3C30 PUSH1 0x40 DUP7 ADD DUP3 PUSH2 0x3B34 JUMP JUMPDEST POP PUSH1 0x60 DUP4 ADD MLOAD DUP5 DUP3 SUB PUSH1 0x60 DUP7 ADD MSTORE PUSH2 0x3C48 DUP3 DUP3 PUSH2 0x3B94 JUMP JUMPDEST SWAP2 POP POP DUP1 SWAP2 POP POP SWAP3 SWAP2 POP POP JUMP JUMPDEST PUSH1 0x40 DUP3 ADD PUSH1 0x0 DUP3 ADD MLOAD PUSH2 0x3C6B PUSH1 0x0 DUP6 ADD DUP3 PUSH2 0x3543 JUMP JUMPDEST POP PUSH1 0x20 DUP3 ADD MLOAD PUSH2 0x3C7E PUSH1 0x20 DUP6 ADD DUP3 PUSH2 0x3543 JUMP JUMPDEST POP POP POP POP JUMP JUMPDEST PUSH2 0x100 DUP3 ADD PUSH1 0x0 DUP3 ADD MLOAD PUSH2 0x3C9B PUSH1 0x0 DUP6 ADD DUP3 PUSH2 0x3C55 JUMP JUMPDEST POP PUSH1 0x20 DUP3 ADD MLOAD PUSH2 0x3CAE PUSH1 0x40 DUP6 ADD DUP3 PUSH2 0x3C55 JUMP JUMPDEST POP PUSH1 0x40 DUP3 ADD MLOAD PUSH2 0x3CC1 PUSH1 0x80 DUP6 ADD DUP3 PUSH2 0x3C55 JUMP JUMPDEST POP PUSH1 0x60 DUP3 ADD MLOAD PUSH2 0x3CD4 PUSH1 0xC0 DUP6 ADD DUP3 PUSH2 0x3C55 JUMP JUMPDEST POP POP POP POP JUMP JUMPDEST PUSH1 0x80 DUP3 ADD PUSH1 0x0 DUP3 ADD MLOAD PUSH2 0x3CF0 PUSH1 0x0 DUP6 ADD DUP3 PUSH2 0x3543 JUMP JUMPDEST POP PUSH1 0x20 DUP3 ADD MLOAD PUSH2 0x3D03 PUSH1 0x20 DUP6 ADD DUP3 PUSH2 0x3543 JUMP JUMPDEST POP PUSH1 0x40 DUP3 ADD MLOAD PUSH2 0x3D16 PUSH1 0x40 DUP6 ADD DUP3 PUSH2 0x3543 JUMP JUMPDEST POP PUSH1 0x60 DUP3 ADD MLOAD PUSH2 0x3D29 PUSH1 0x60 DUP6 ADD DUP3 PUSH2 0x3543 JUMP JUMPDEST POP POP POP POP JUMP JUMPDEST PUSH1 0x0 PUSH2 0x1C0 DUP4 ADD PUSH1 0x0 DUP4 ADD MLOAD DUP5 DUP3 SUB PUSH1 0x0 DUP7 ADD MSTORE PUSH2 0x3D4D DUP3 DUP3 PUSH2 0x31AD JUMP JUMPDEST SWAP2 POP POP PUSH1 0x20 DUP4 ADD MLOAD DUP5 DUP3 SUB PUSH1 0x20 DUP7 ADD MSTORE PUSH2 0x3D67 DUP3 DUP3 PUSH2 0x3BF2 JUMP JUMPDEST SWAP2 POP POP PUSH1 0x40 DUP4 ADD MLOAD PUSH2 0x3D7C PUSH1 0x40 DUP7 ADD DUP3 PUSH2 0x3C84 JUMP JUMPDEST POP PUSH1 0x60 DUP4 ADD MLOAD PUSH2 0x3D90 PUSH2 0x140 DUP7 ADD DUP3 PUSH2 0x3CDA JUMP JUMPDEST POP DUP1 SWAP2 POP POP SWAP3 SWAP2 POP POP JUMP JUMPDEST PUSH1 0x0 PUSH1 0x20 DUP3 ADD SWAP1 POP DUP2 DUP2 SUB PUSH1 0x0 DUP4 ADD MSTORE PUSH2 0x3DB5 DUP2 DUP5 PUSH2 0x3D2F JUMP JUMPDEST SWAP1 POP SWAP3 SWAP2 POP POP JUMP JUMPDEST PUSH1 0xB DUP2 LT PUSH2 0x3DCA JUMPI PUSH1 0x0 DUP1 REVERT JUMPDEST POP JUMP JUMPDEST PUSH1 0x0 DUP2 CALLDATALOAD SWAP1 POP PUSH2 0x3DDC DUP2 PUSH2 0x3DBD JUMP JUMPDEST SWAP3 SWAP2 POP POP JUMP JUMPDEST PUSH1 0x0 DUP1 PUSH1 0x40 DUP4 DUP6 SUB SLT ISZERO PUSH2 0x3DF9 JUMPI PUSH2 0x3DF8 PUSH2 0x3095 JUMP JUMPDEST JUMPDEST PUSH1 0x0 DUP4 ADD CALLDATALOAD PUSH8 0xFFFFFFFFFFFFFFFF DUP2 GT ISZERO PUSH2 0x3E17 JUMPI PUSH2 0x3E16 PUSH2 0x309A JUMP JUMPDEST JUMPDEST PUSH2 0x3E23 DUP6 DUP3 DUP7 ADD PUSH2 0x33A5 JUMP JUMPDEST SWAP3 POP POP PUSH1 0x20 PUSH2 0x3E34 DUP6 DUP3 DUP7 ADD PUSH2 0x3DCD JUMP JUMPDEST SWAP2 POP POP SWAP3 POP SWAP3 SWAP1 POP JUMP JUMPDEST PUSH32 0x4E487B7100000000000000000000000000000000000000000000000000000000 PUSH1 0x0 MSTORE PUSH1 0x22 PUSH1 0x4 MSTORE PUSH1 0x24 PUSH1 0x0 REVERT JUMPDEST PUSH1 0x0 PUSH1 0x2 DUP3 DIV SWAP1 POP PUSH1 0x1 DUP3 AND DUP1 PUSH2 0x3E85 JUMPI PUSH1 0x7F DUP3 AND SWAP2 POP JUMPDEST PUSH1 0x20 DUP3 LT DUP2 SUB PUSH2 0x3E98 JUMPI PUSH2 0x3E97 PUSH2 0x3E3E JUMP JUMPDEST JUMPDEST POP SWAP2 SWAP1 POP JUMP JUMPDEST PUSH1 0x0 DUP3 DUP3 MSTORE PUSH1 0x20 DUP3 ADD SWAP1 POP SWAP3 SWAP2 POP POP JUMP JUMPDEST PUSH32 0x526573756C74735375626D697474656400000000000000000000000000000000 PUSH1 0x0 DUP3 ADD MSTORE POP JUMP JUMPDEST PUSH1 0x0 PUSH2 0x3EE5 PUSH1 0x10 DUP4 PUSH2 0x3E9E JUMP JUMPDEST SWAP2 POP PUSH2 0x3EF0 DUP3 PUSH2 0x3EAF JUMP JUMPDEST PUSH1 0x20 DUP3 ADD SWAP1 POP SWAP2 SWAP1 POP JUMP JUMPDEST PUSH1 0x0 PUSH1 0x20 DUP3 ADD SWAP1 POP DUP2 DUP2 SUB PUSH1 0x0 DUP4 ADD MSTORE PUSH2 0x3F14 DUP2 PUSH2 0x3ED8 JUMP JUMPDEST SWAP1 POP SWAP2 SWAP1 POP JUMP JUMPDEST PUSH1 0x0 DUP2 SWAP1 POP SWAP3 SWAP2 POP POP JUMP JUMPDEST PUSH1 0x0 PUSH2 0x3F31 DUP3 PUSH2 0x3156 JUMP JUMPDEST PUSH2 0x3F3B DUP2 DUP6 PUSH2 0x3F1B JUMP JUMPDEST SWAP4 POP PUSH2 0x3F4B DUP2 DUP6 PUSH1 0x20 DUP7 ADD PUSH2 0x3172 JUMP JUMPDEST DUP1 DUP5 ADD SWAP2 POP POP SWAP3 SWAP2 POP POP JUMP JUMPDEST PUSH1 0x0 PUSH2 0x3F63 DUP3 DUP5 PUSH2 0x3F26 JUMP JUMPDEST SWAP2 POP DUP2 SWAP1 POP SWAP3 SWAP2 POP POP JUMP JUMPDEST PUSH32 0x4465616C41677265656400000000000000000000000000000000000000000000 PUSH1 0x0 DUP3 ADD MSTORE POP JUMP JUMPDEST PUSH1 0x0 PUSH2 0x3FA4 PUSH1 0xA DUP4 PUSH2 0x3E9E JUMP JUMPDEST SWAP2 POP PUSH2 0x3FAF DUP3 PUSH2 0x3F6E JUMP JUMPDEST PUSH1 0x20 DUP3 ADD SWAP1 POP SWAP2 SWAP1 POP JUMP JUMPDEST PUSH1 0x0 PUSH1 0x20 DUP3 ADD SWAP1 POP DUP2 DUP2 SUB PUSH1 0x0 DUP4 ADD MSTORE PUSH2 0x3FD3 DUP2 PUSH2 0x3F97 JUMP JUMPDEST SWAP1 POP SWAP2 SWAP1 POP JUMP JUMPDEST PUSH1 0x0 DUP2 SWAP1 POP DUP2 PUSH1 0x0 MSTORE PUSH1 0x20 PUSH1 0x0 KECCAK256 SWAP1 POP SWAP2 SWAP1 POP JUMP JUMPDEST PUSH1 0x0 PUSH1 0x20 PUSH1 0x1F DUP4 ADD DIV SWAP1 POP SWAP2 SWAP1 POP JUMP JUMPDEST PUSH1 0x0 DUP3 DUP3 SHL SWAP1 POP SWAP3 SWAP2 POP POP JUMP JUMPDEST PUSH1 0x0 PUSH1 0x8 DUP4 MUL PUSH2 0x403C PUSH32 0xFFFFFFFFFFFFFFFFFFFFFFFFFFFFFFFFFFFFFFFFFFFFFFFFFFFFFFFFFFFFFFFF DUP3 PUSH2 0x3FFF JUMP JUMPDEST PUSH2 0x4046 DUP7 DUP4 PUSH2 0x3FFF JUMP JUMPDEST SWAP6 POP DUP1 NOT DUP5 AND SWAP4 POP DUP1 DUP7 AND DUP5 OR SWAP3 POP POP POP SWAP4 SWAP3 POP POP POP JUMP JUMPDEST PUSH1 0x0 DUP2 SWAP1 POP SWAP2 SWAP1 POP JUMP JUMPDEST PUSH1 0x0 PUSH2 0x4083 PUSH2 0x407E PUSH2 0x4079 DUP5 PUSH2 0x3452 JUMP JUMPDEST PUSH2 0x405E JUMP JUMPDEST PUSH2 0x3452 JUMP JUMPDEST SWAP1 POP SWAP2 SWAP1 POP JUMP JUMPDEST PUSH1 0x0 DUP2 SWAP1 POP SWAP2 SWAP1 POP JUMP JUMPDEST PUSH2 0x409D DUP4 PUSH2 0x4068 JUMP JUMPDEST PUSH2 0x40B1 PUSH2 0x40A9 DUP3 PUSH2 0x408A JUMP JUMPDEST DUP5 DUP5 SLOAD PUSH2 0x400C JUMP JUMPDEST DUP3 SSTORE POP POP POP POP JUMP JUMPDEST PUSH1 0x0 SWAP1 JUMP JUMPDEST PUSH2 0x40C6 PUSH2 0x40B9 JUMP JUMPDEST PUSH2 0x40D1 DUP2 DUP5 DUP5 PUSH2 0x4094 JUMP JUMPDEST POP POP POP JUMP JUMPDEST JUMPDEST DUP2 DUP2 LT ISZERO PUSH2 0x40F5 JUMPI PUSH2 0x40EA PUSH1 0x0 DUP3 PUSH2 0x40BE JUMP JUMPDEST PUSH1 0x1 DUP2 ADD SWAP1 POP PUSH2 0x40D7 JUMP JUMPDEST POP POP JUMP JUMPDEST PUSH1 0x1F DUP3 GT ISZERO PUSH2 0x413A JUMPI PUSH2 0x410B DUP2 PUSH2 0x3FDA JUMP JUMPDEST PUSH2 0x4114 DUP5 PUSH2 0x3FEF JUMP JUMPDEST DUP2 ADD PUSH1 0x20 DUP6 LT ISZERO PUSH2 0x4123 JUMPI DUP2 SWAP1 POP JUMPDEST PUSH2 0x4137 PUSH2 0x412F DUP6 PUSH2 0x3FEF JUMP JUMPDEST DUP4 ADD DUP3 PUSH2 0x40D6 JUMP JUMPDEST POP POP JUMPDEST POP POP POP JUMP JUMPDEST PUSH1 0x0 DUP3 DUP3 SHR SWAP1 POP SWAP3 SWAP2 POP POP JUMP JUMPDEST PUSH1 0x0 PUSH2 0x415D PUSH1 0x0 NOT DUP5 PUSH1 0x8 MUL PUSH2 0x413F JUMP JUMPDEST NOT DUP1 DUP4 AND SWAP2 POP POP SWAP3 SWAP2 POP POP JUMP JUMPDEST PUSH1 0x0 PUSH2 0x4176 DUP4 DUP4 PUSH2 0x414C JUMP JUMPDEST SWAP2 POP DUP3 PUSH1 0x2 MUL DUP3 OR SWAP1 POP SWAP3 SWAP2 POP POP JUMP JUMPDEST PUSH2 0x418F DUP3 PUSH2 0x3156 JUMP JUMPDEST PUSH8 0xFFFFFFFFFFFFFFFF DUP2 GT ISZERO PUSH2 0x41A8 JUMPI PUSH2 0x41A7 PUSH2 0x32A8 JUMP JUMPDEST JUMPDEST PUSH2 0x41B2 DUP3 SLOAD PUSH2 0x3E6D JUMP JUMPDEST PUSH2 0x41BD DUP3 DUP3 DUP6 PUSH2 0x40F9 JUMP JUMPDEST PUSH1 0x0 PUSH1 0x20 SWAP1 POP PUSH1 0x1F DUP4 GT PUSH1 0x1 DUP2 EQ PUSH2 0x41F0 JUMPI PUSH1 0x0 DUP5 ISZERO PUSH2 0x41DE JUMPI DUP3 DUP8 ADD MLOAD SWAP1 POP JUMPDEST PUSH2 0x41E8 DUP6 DUP3 PUSH2 0x416A JUMP JUMPDEST DUP7 SSTORE POP PUSH2 0x4250 JUMP JUMPDEST PUSH1 0x1F NOT DUP5 AND PUSH2 0x41FE DUP7 PUSH2 0x3FDA JUMP JUMPDEST PUSH1 0x0 JUMPDEST DUP3 DUP2 LT ISZERO PUSH2 0x4226 JUMPI DUP5 DUP10 ADD MLOAD DUP3 SSTORE PUSH1 0x1 DUP3 ADD SWAP2 POP PUSH1 0x20 DUP6 ADD SWAP5 POP PUSH1 0x20 DUP2 ADD SWAP1 POP PUSH2 0x4201 JUMP JUMPDEST DUP7 DUP4 LT ISZERO PUSH2 0x4243 JUMPI DUP5 DUP10 ADD MLOAD PUSH2 0x423F PUSH1 0x1F DUP10 AND DUP3 PUSH2 0x414C JUMP JUMPDEST DUP4 SSTORE POP JUMPDEST PUSH1 0x1 PUSH1 0x2 DUP9 MUL ADD DUP9 SSTORE POP POP POP JUMPDEST POP POP POP POP POP POP JUMP JUMPDEST PUSH32 0x4465616C20646F6573206E6F7420657869737400000000000000000000000000 PUSH1 0x0 DUP3 ADD MSTORE POP JUMP JUMPDEST PUSH1 0x0 PUSH2 0x428E PUSH1 0x13 DUP4 PUSH2 0x3E9E JUMP JUMPDEST SWAP2 POP PUSH2 0x4299 DUP3 PUSH2 0x4258 JUMP JUMPDEST PUSH1 0x20 DUP3 ADD SWAP1 POP SWAP2 SWAP1 POP JUMP JUMPDEST PUSH1 0x0 PUSH1 0x20 DUP3 ADD SWAP1 POP DUP2 DUP2 SUB PUSH1 0x0 DUP4 ADD MSTORE PUSH2 0x42BD DUP2 PUSH2 0x4281 JUMP JUMPDEST SWAP1 POP SWAP2 SWAP1 POP JUMP JUMPDEST PUSH32 0x4A432068617320616C7265616479206167726565640000000000000000000000 PUSH1 0x0 DUP3 ADD MSTORE POP JUMP JUMPDEST PUSH1 0x0 PUSH2 0x42FA PUSH1 0x15 DUP4 PUSH2 0x3E9E JUMP JUMPDEST SWAP2 POP PUSH2 0x4305 DUP3 PUSH2 0x42C4 JUMP JUMPDEST PUSH1 0x20 DUP3 ADD SWAP1 POP SWAP2 SWAP1 POP JUMP JUMPDEST PUSH1 0x0 PUSH1 0x20 DUP3 ADD SWAP1 POP DUP2 DUP2 SUB PUSH1 0x0 DUP4 ADD MSTORE PUSH2 0x4329 DUP2 PUSH2 0x42ED JUMP JUMPDEST SWAP1 POP SWAP2 SWAP1 POP JUMP JUMPDEST PUSH32 0x4E487B7100000000000000000000000000000000000000000000000000000000 PUSH1 0x0 MSTORE PUSH1 0x11 PUSH1 0x4 MSTORE PUSH1 0x24 PUSH1 0x0 REVERT JUMPDEST PUSH1 0x0 PUSH2 0x436A DUP3 PUSH2 0x3452 JUMP JUMPDEST SWAP2 POP PUSH2 0x4375 DUP4 PUSH2 0x3452 JUMP JUMPDEST SWAP3 POP DUP3 DUP3 MUL PUSH2 0x4383 DUP2 PUSH2 0x3452 JUMP JUMPDEST SWAP2 POP DUP3 DUP3 DIV DUP5 EQ DUP4 ISZERO OR PUSH2 0x439A JUMPI PUSH2 0x4399 PUSH2 0x4330 JUMP JUMPDEST JUMPDEST POP SWAP3 SWAP2 POP POP JUMP JUMPDEST PUSH32 0x4465616C4E65676F74696174696E670000000000000000000000000000000000 PUSH1 0x0 DUP3 ADD MSTORE POP JUMP JUMPDEST PUSH1 0x0 PUSH2 0x43D7 PUSH1 0xF DUP4 PUSH2 0x3E9E JUMP JUMPDEST SWAP2 POP PUSH2 0x43E2 DUP3 PUSH2 0x43A1 JUMP JUMPDEST PUSH1 0x20 DUP3 ADD SWAP1 POP SWAP2 SWAP1 POP JUMP JUMPDEST PUSH1 0x0 PUSH1 0x20 DUP3 ADD SWAP1 POP DUP2 DUP2 SUB PUSH1 0x0 DUP4 ADD MSTORE PUSH2 0x4406 DUP2 PUSH2 0x43CA JUMP JUMPDEST SWAP1 POP SWAP2 SWAP1 POP JUMP JUMPDEST PUSH32 0x526573756C7473436865636B6564000000000000000000000000000000000000 PUSH1 0x0 DUP3 ADD MSTORE POP JUMP JUMPDEST PUSH1 0x0 PUSH2 0x4443 PUSH1 0xE DUP4 PUSH2 0x3E9E JUMP JUMPDEST SWAP2 POP PUSH2 0x444E DUP3 PUSH2 0x440D JUMP JUMPDEST PUSH1 0x20 DUP3 ADD SWAP1 POP SWAP2 SWAP1 POP JUMP JUMPDEST PUSH1 0x0 PUSH1 0x20 DUP3 ADD SWAP1 POP DUP2 DUP2 SUB PUSH1 0x0 DUP4 ADD MSTORE PUSH2 0x4472 DUP2 PUSH2 0x4436 JUMP JUMPDEST SWAP1 POP SWAP2 SWAP1 POP JUMP JUMPDEST PUSH32 0x496E697469616C697A61626C653A20636F6E747261637420697320616C726561 PUSH1 0x0 DUP3 ADD MSTORE PUSH32 0x647920696E697469616C697A6564000000000000000000000000000000000000 PUSH1 0x20 DUP3 ADD MSTORE POP JUMP JUMPDEST PUSH1 0x0 PUSH2 0x44D5 PUSH1 0x2E DUP4 PUSH2 0x3E9E JUMP JUMPDEST SWAP2 POP PUSH2 0x44E0 DUP3 PUSH2 0x4479 JUMP JUMPDEST PUSH1 0x40 DUP3 ADD SWAP1 POP SWAP2 SWAP1 POP JUMP JUMPDEST PUSH1 0x0 PUSH1 0x20 DUP3 ADD SWAP1 POP DUP2 DUP2 SUB PUSH1 0x0 DUP4 ADD MSTORE PUSH2 0x4504 DUP2 PUSH2 0x44C8 JUMP JUMPDEST SWAP1 POP SWAP2 SWAP1 POP JUMP JUMPDEST PUSH1 0x0 DUP2 SWAP1 POP SWAP2 SWAP1 POP JUMP JUMPDEST PUSH1 0x0 PUSH1 0xFF DUP3 AND SWAP1 POP SWAP2 SWAP1 POP JUMP JUMPDEST PUSH1 0x0 PUSH2 0x453D PUSH2 0x4538 PUSH2 0x4533 DUP5 PUSH2 0x450B JUMP JUMPDEST PUSH2 0x405E JUMP JUMPDEST PUSH2 0x4515 JUMP JUMPDEST SWAP1 POP SWAP2 SWAP1 POP JUMP JUMPDEST PUSH2 0x454D DUP2 PUSH2 0x4522 JUMP JUMPDEST DUP3 MSTORE POP POP JUMP JUMPDEST PUSH1 0x0 PUSH1 0x20 DUP3 ADD SWAP1 POP PUSH2 0x4568 PUSH1 0x0 DUP4 ADD DUP5 PUSH2 0x4544 JUMP JUMPDEST SWAP3 SWAP2 POP POP JUMP JUMPDEST PUSH32 0x52502068617320616C7265616479206167726565640000000000000000000000 PUSH1 0x0 DUP3 ADD MSTORE POP JUMP JUMPDEST PUSH1 0x0 PUSH2 0x45A4 PUSH1 0x15 DUP4 PUSH2 0x3E9E JUMP JUMPDEST SWAP2 POP PUSH2 0x45AF DUP3 PUSH2 0x456E JUMP JUMPDEST PUSH1 0x20 DUP3 ADD SWAP1 POP SWAP2 SWAP1 POP JUMP JUMPDEST PUSH1 0x0 PUSH1 0x20 DUP3 ADD SWAP1 POP DUP2 DUP2 SUB PUSH1 0x0 DUP4 ADD MSTORE PUSH2 0x45D3 DUP2 PUSH2 0x4597 JUMP JUMPDEST SWAP1 POP SWAP2 SWAP1 POP JUMP JUMPDEST PUSH32 0x4F776E61626C653A206E6577206F776E657220697320746865207A65726F2061 PUSH1 0x0 DUP3 ADD MSTORE PUSH32 0x6464726573730000000000000000000000000000000000000000000000000000 PUSH1 0x20 DUP3 ADD MSTORE POP JUMP JUMPDEST PUSH1 0x0 PUSH2 0x4636 PUSH1 0x26 DUP4 PUSH2 0x3E9E JUMP JUMPDEST SWAP2 POP PUSH2 0x4641 DUP3 PUSH2 0x45DA JUMP JUMPDEST PUSH1 0x40 DUP3 ADD SWAP1 POP SWAP2 SWAP1 POP JUMP JUMPDEST PUSH1 0x0 PUSH1 0x20 DUP3 ADD SWAP1 POP DUP2 DUP2 SUB PUSH1 0x0 DUP4 ADD MSTORE PUSH2 0x4665 DUP2 PUSH2 0x4629 JUMP JUMPDEST SWAP1 POP SWAP2 SWAP1 POP JUMP JUMPDEST PUSH32 0x436F6E74726F6C6C65724F776E61626C653A20436F6E74726F6C6C6572206164 PUSH1 0x0 DUP3 ADD MSTORE PUSH32 0x6472657373206D75737420626520646566696E65640000000000000000000000 PUSH1 0x20 DUP3 ADD MSTORE POP JUMP JUMPDEST PUSH1 0x0 PUSH2 0x46C8 PUSH1 0x35 DUP4 PUSH2 0x3E9E JUMP JUMPDEST SWAP2 POP PUSH2 0x46D3 DUP3 PUSH2 0x466C JUMP JUMPDEST PUSH1 0x40 DUP3 ADD SWAP1 POP SWAP2 SWAP1 POP JUMP JUMPDEST PUSH1 0x0 PUSH1 0x20 DUP3 ADD SWAP1 POP DUP2 DUP2 SUB PUSH1 0x0 DUP4 ADD MSTORE PUSH2 0x46F7 DUP2 PUSH2 0x46BB JUMP JUMPDEST SWAP1 POP SWAP2 SWAP1 POP JUMP JUMPDEST PUSH32 0x436F6E74726F6C6C65724F776E61626C653A2063616E4368616E6765436F6E74 PUSH1 0x0 DUP3 ADD MSTORE PUSH32 0x726F6C6C6572416464726573732069732064697361626C656400000000000000 PUSH1 0x20 DUP3 ADD MSTORE POP JUMP JUMPDEST PUSH1 0x0 PUSH2 0x475A PUSH1 0x39 DUP4 PUSH2 0x3E9E JUMP JUMPDEST SWAP2 POP PUSH2 0x4765 DUP3 PUSH2 0x46FE JUMP JUMPDEST PUSH1 0x40 DUP3 ADD SWAP1 POP SWAP2 SWAP1 POP JUMP JUMPDEST PUSH1 0x0 PUSH1 0x20 DUP3 ADD SWAP1 POP DUP2 DUP2 SUB PUSH1 0x0 DUP4 ADD MSTORE PUSH2 0x4789 DUP2 PUSH2 0x474D JUMP JUMPDEST SWAP1 POP SWAP2 SWAP1 POP JUMP JUMPDEST PUSH32 0x436F6E74726F6C6C65724F776E61626C653A204F6E6C792074686520636F6E74 PUSH1 0x0 DUP3 ADD MSTORE PUSH32 0x726F6C6C65722063616E2063616C6C2074686973206D6574686F640000000000 PUSH1 0x20 DUP3 ADD MSTORE POP JUMP JUMPDEST PUSH1 0x0 PUSH2 0x47EC PUSH1 0x3B DUP4 PUSH2 0x3E9E JUMP JUMPDEST SWAP2 POP PUSH2 0x47F7 DUP3 PUSH2 0x4790 JUMP JUMPDEST PUSH1 0x40 DUP3 ADD SWAP1 POP SWAP2 SWAP1 POP JUMP JUMPDEST PUSH1 0x0 PUSH1 0x20 DUP3 ADD SWAP1 POP DUP2 DUP2 SUB PUSH1 0x0 DUP4 ADD MSTORE PUSH2 0x481B DUP2 PUSH2 0x47DF JUMP JUMPDEST SWAP1 POP SWAP2 SWAP1 POP JUMP JUMPDEST PUSH1 0x0 PUSH2 0x482D DUP3 PUSH2 0x3156 JUMP JUMPDEST PUSH2 0x4837 DUP2 DUP6 PUSH2 0x3E9E JUMP JUMPDEST SWAP4 POP PUSH2 0x4847 DUP2 DUP6 PUSH1 0x20 DUP7 ADD PUSH2 0x3172 JUMP JUMPDEST PUSH2 0x4850 DUP2 PUSH2 0x319C JUMP JUMPDEST DUP5 ADD SWAP2 POP POP SWAP3 SWAP2 POP POP JUMP JUMPDEST PUSH2 0x4864 DUP2 PUSH2 0x363B JUMP JUMPDEST DUP3 MSTORE POP POP JUMP JUMPDEST PUSH1 0x0 PUSH1 0x40 DUP3 ADD SWAP1 POP DUP2 DUP2 SUB PUSH1 0x0 DUP4 ADD MSTORE PUSH2 0x4884 DUP2 DUP6 PUSH2 0x4822 JUMP JUMPDEST SWAP1 POP PUSH2 0x4893 PUSH1 0x20 DUP4 ADD DUP5 PUSH2 0x485B JUMP JUMPDEST SWAP4 SWAP3 POP POP POP JUMP JUMPDEST PUSH32 0x4F776E61626C653A2063616C6C6572206973206E6F7420746865206F776E6572 PUSH1 0x0 DUP3 ADD MSTORE POP JUMP JUMPDEST PUSH1 0x0 PUSH2 0x48D0 PUSH1 0x20 DUP4 PUSH2 0x3E9E JUMP JUMPDEST SWAP2 POP PUSH2 0x48DB DUP3 PUSH2 0x489A JUMP JUMPDEST PUSH1 0x20 DUP3 ADD SWAP1 POP SWAP2 SWAP1 POP JUMP JUMPDEST PUSH1 0x0 PUSH1 0x20 DUP3 ADD SWAP1 POP DUP2 DUP2 SUB PUSH1 0x0 DUP4 ADD MSTORE PUSH2 0x48FF DUP2 PUSH2 0x48C3 JUMP JUMPDEST SWAP1 POP SWAP2 SWAP1 POP JUMP JUMPDEST PUSH32 0x5250206D697373696E6700000000000000000000000000000000000000000000 PUSH1 0x0 DUP3 ADD MSTORE POP JUMP JUMPDEST PUSH1 0x0 PUSH2 0x493C PUSH1 0xA DUP4 PUSH2 0x3E9E JUMP JUMPDEST SWAP2 POP PUSH2 0x4947 DUP3 PUSH2 0x4906 JUMP JUMPDEST PUSH1 0x20 DUP3 ADD SWAP1 POP SWAP2 SWAP1 POP JUMP JUMPDEST PUSH1 0x0 PUSH1 0x20 DUP3 ADD SWAP1 POP DUP2 DUP2 SUB PUSH1 0x0 DUP4 ADD MSTORE PUSH2 0x496B DUP2 PUSH2 0x492F JUMP JUMPDEST SWAP1 POP SWAP2 SWAP1 POP JUMP JUMPDEST PUSH32 0x4A43206D697373696E6700000000000000000000000000000000000000000000 PUSH1 0x0 DUP3 ADD MSTORE POP JUMP JUMPDEST PUSH1 0x0 PUSH2 0x49A8 PUSH1 0xA DUP4 PUSH2 0x3E9E JUMP JUMPDEST SWAP2 POP PUSH2 0x49B3 DUP3 PUSH2 0x4972 JUMP JUMPDEST PUSH1 0x20 DUP3 ADD SWAP1 POP SWAP2 SWAP1 POP JUMP JUMPDEST PUSH1 0x0 PUSH1 0x20 DUP3 ADD SWAP1 POP DUP2 DUP2 SUB PUSH1 0x0 DUP4 ADD MSTORE PUSH2 0x49D7 DUP2 PUSH2 0x499B JUMP JUMPDEST SWAP1 POP SWAP2 SWAP1 POP JUMP JUMPDEST PUSH32 0x536F6C766572206D697373696E67000000000000000000000000000000000000 PUSH1 0x0 DUP3 ADD MSTORE POP JUMP JUMPDEST PUSH1 0x0 PUSH2 0x4A14 PUSH1 0xE DUP4 PUSH2 0x3E9E JUMP JUMPDEST SWAP2 POP PUSH2 0x4A1F DUP3 PUSH2 0x49DE JUMP JUMPDEST PUSH1 0x20 DUP3 ADD SWAP1 POP SWAP2 SWAP1 POP JUMP JUMPDEST PUSH1 0x0 PUSH1 0x20 DUP3 ADD SWAP1 POP DUP2 DUP2 SUB PUSH1 0x0 DUP4 ADD MSTORE PUSH2 0x4A43 DUP2 PUSH2 0x4A07 JUMP JUMPDEST SWAP1 POP SWAP2 SWAP1 POP JUMP JUMPDEST PUSH32 0x4D65646961746F7273203C3D2030000000000000000000000000000000000000 PUSH1 0x0 DUP3 ADD MSTORE POP JUMP JUMPDEST PUSH1 0x0 PUSH2 0x4A80 PUSH1 0xE DUP4 PUSH2 0x3E9E JUMP JUMPDEST SWAP2 POP PUSH2 0x4A8B DUP3 PUSH2 0x4A4A JUMP JUMPDEST PUSH1 0x20 DUP3 ADD SWAP1 POP SWAP2 SWAP1 POP JUMP JUMPDEST PUSH1 0x0 PUSH1 0x20 DUP3 ADD SWAP1 POP DUP2 DUP2 SUB PUSH1 0x0 DUP4 ADD MSTORE PUSH2 0x4AAF DUP2 PUSH2 0x4A73 JUMP JUMPDEST SWAP1 POP SWAP2 SWAP1 POP JUMP JUMPDEST PUSH32 0x4167726565206465706F736974206D7573742062652030000000000000000000 PUSH1 0x0 DUP3 ADD MSTORE POP JUMP JUMPDEST PUSH1 0x0 PUSH2 0x4AEC PUSH1 0x17 DUP4 PUSH2 0x3E9E JUMP JUMPDEST SWAP2 POP PUSH2 0x4AF7 DUP3 PUSH2 0x4AB6 JUMP JUMPDEST PUSH1 0x20 DUP3 ADD SWAP1 POP SWAP2 SWAP1 POP JUMP JUMPDEST PUSH1 0x0 PUSH1 0x20 DUP3 ADD SWAP1 POP DUP2 DUP2 SUB PUSH1 0x0 DUP4 ADD MSTORE PUSH2 0x4B1B DUP2 PUSH2 0x4ADF JUMP JUMPDEST SWAP1 POP SWAP2 SWAP1 POP JUMP JUMPDEST PUSH32 0x4D656469617465206465706F736974206D757374206265203000000000000000 PUSH1 0x0 DUP3 ADD MSTORE POP JUMP JUMPDEST PUSH1 0x0 PUSH2 0x4B58 PUSH1 0x19 DUP4 PUSH2 0x3E9E JUMP JUMPDEST SWAP2 POP PUSH2 0x4B63 DUP3 PUSH2 0x4B22 JUMP JUMPDEST PUSH1 0x20 DUP3 ADD SWAP1 POP SWAP2 SWAP1 POP JUMP JUMPDEST PUSH1 0x0 PUSH1 0x20 DUP3 ADD SWAP1 POP DUP2 DUP2 SUB PUSH1 0x0 DUP4 ADD MSTORE PUSH2 0x4B87 DUP2 PUSH2 0x4B4B JUMP JUMPDEST SWAP1 POP SWAP2 SWAP1 POP JUMP JUMPDEST PUSH32 0x5250000000000000000000000000000000000000000000000000000000000000 PUSH1 0x0 DUP3 ADD MSTORE POP JUMP JUMPDEST PUSH1 0x0 PUSH2 0x4BC4 PUSH1 0x2 DUP4 PUSH2 0x3E9E JUMP JUMPDEST SWAP2 POP PUSH2 0x4BCF DUP3 PUSH2 0x4B8E JUMP JUMPDEST PUSH1 0x20 DUP3 ADD SWAP1 POP SWAP2 SWAP1 POP JUMP JUMPDEST PUSH1 0x0 PUSH1 0x20 DUP3 ADD SWAP1 POP DUP2 DUP2 SUB PUSH1 0x0 DUP4 ADD MSTORE PUSH2 0x4BF3 DUP2 PUSH2 0x4BB7 JUMP JUMPDEST SWAP1 POP SWAP2 SWAP1 POP JUMP JUMPDEST PUSH32 0x4A43000000000000000000000000000000000000000000000000000000000000 PUSH1 0x0 DUP3 ADD MSTORE POP JUMP JUMPDEST PUSH1 0x0 PUSH2 0x4C30 PUSH1 0x2 DUP4 PUSH2 0x3E9E JUMP JUMPDEST SWAP2 POP PUSH2 0x4C3B DUP3 PUSH2 0x4BFA JUMP JUMPDEST PUSH1 0x20 DUP3 ADD SWAP1 POP SWAP2 SWAP1 POP JUMP JUMPDEST PUSH1 0x0 PUSH1 0x20 DUP3 ADD SWAP1 POP DUP2 DUP2 SUB PUSH1 0x0 DUP4 ADD MSTORE PUSH2 0x4C5F DUP2 PUSH2 0x4C23 JUMP JUMPDEST SWAP1 POP SWAP2 SWAP1 POP JUMP JUMPDEST PUSH32 0x536F6C7665720000000000000000000000000000000000000000000000000000 PUSH1 0x0 DUP3 ADD MSTORE POP JUMP JUMPDEST PUSH1 0x0 PUSH2 0x4C9C PUSH1 0x6 DUP4 PUSH2 0x3E9E JUMP JUMPDEST SWAP2 POP PUSH2 0x4CA7 DUP3 PUSH2 0x4C66 JUMP JUMPDEST PUSH1 0x20 DUP3 ADD SWAP1 POP SWAP2 SWAP1 POP JUMP JUMPDEST PUSH1 0x0 PUSH1 0x20 DUP3 ADD SWAP1 POP DUP2 DUP2 SUB PUSH1 0x0 DUP4 ADD MSTORE PUSH2 0x4CCB DUP2 PUSH2 0x4C8F JUMP JUMPDEST SWAP1 POP SWAP2 SWAP1 POP JUMP JUMPDEST PUSH32 0x4D65646961746F72730000000000000000000000000000000000000000000000 PUSH1 0x0 DUP3 ADD MSTORE POP JUMP JUMPDEST PUSH1 0x0 PUSH2 0x4D08 PUSH1 0x9 DUP4 PUSH2 0x3E9E JUMP JUMPDEST SWAP2 POP PUSH2 0x4D13 DUP3 PUSH2 0x4CD2 JUMP JUMPDEST PUSH1 0x20 DUP3 ADD SWAP1 POP SWAP2 SWAP1 POP JUMP JUMPDEST PUSH1 0x0 PUSH1 0x20 DUP3 ADD SWAP1 POP DUP2 DUP2 SUB PUSH1 0x0 DUP4 ADD MSTORE PUSH2 0x4D37 DUP2 PUSH2 0x4CFB JUMP JUMPDEST SWAP1 POP SWAP2 SWAP1 POP JUMP JUMPDEST PUSH32 0x4E487B7100000000000000000000000000000000000000000000000000000000 PUSH1 0x0 MSTORE PUSH1 0x32 PUSH1 0x4 MSTORE PUSH1 0x24 PUSH1 0x0 REVERT JUMPDEST PUSH32 0x4D65646961746F72000000000000000000000000000000000000000000000000 PUSH1 0x0 DUP3 ADD MSTORE POP JUMP JUMPDEST PUSH1 0x0 PUSH2 0x4DA3 PUSH1 0x8 DUP4 PUSH2 0x3E9E JUMP JUMPDEST SWAP2 POP PUSH2 0x4DAE DUP3 PUSH2 0x4D6D JUMP JUMPDEST PUSH1 0x20 DUP3 ADD SWAP1 POP SWAP2 SWAP1 POP JUMP JUMPDEST PUSH1 0x0 PUSH1 0x20 DUP3 ADD SWAP1 POP DUP2 DUP2 SUB PUSH1 0x0 DUP4 ADD MSTORE PUSH2 0x4DD2 DUP2 PUSH2 0x4D96 JUMP JUMPDEST SWAP1 POP SWAP2 SWAP1 POP JUMP JUMPDEST PUSH1 0x0 PUSH2 0x4DE4 DUP3 PUSH2 0x3452 JUMP JUMPDEST SWAP2 POP PUSH32 0xFFFFFFFFFFFFFFFFFFFFFFFFFFFFFFFFFFFFFFFFFFFFFFFFFFFFFFFFFFFFFFFF DUP3 SUB PUSH2 0x4E16 JUMPI PUSH2 0x4E15 PUSH2 0x4330 JUMP JUMPDEST JUMPDEST PUSH1 0x1 DUP3 ADD SWAP1 POP SWAP2 SWAP1 POP JUMP JUMPDEST PUSH32 0x5072696365000000000000000000000000000000000000000000000000000000 PUSH1 0x0 DUP3 ADD MSTORE POP JUMP JUMPDEST PUSH1 0x0 PUSH2 0x4E57 PUSH1 0x5 DUP4 PUSH2 0x3E9E JUMP JUMPDEST SWAP2 POP PUSH2 0x4E62 DUP3 PUSH2 0x4E21 JUMP JUMPDEST PUSH1 0x20 DUP3 ADD SWAP1 POP SWAP2 SWAP1 POP JUMP JUMPDEST PUSH1 0x0 PUSH1 0x20 DUP3 ADD SWAP1 POP DUP2 DUP2 SUB PUSH1 0x0 DUP4 ADD MSTORE PUSH2 0x4E86 DUP2 PUSH2 0x4E4A JUMP JUMPDEST SWAP1 POP SWAP2 SWAP1 POP JUMP JUMPDEST PUSH32 0x5061796D656E7400000000000000000000000000000000000000000000000000 PUSH1 0x0 DUP3 ADD MSTORE POP JUMP JUMPDEST PUSH1 0x0 PUSH2 0x4EC3 PUSH1 0x7 DUP4 PUSH2 0x3E9E JUMP JUMPDEST SWAP2 POP PUSH2 0x4ECE DUP3 PUSH2 0x4E8D JUMP JUMPDEST PUSH1 0x20 DUP3 ADD SWAP1 POP SWAP2 SWAP1 POP JUMP JUMPDEST PUSH1 0x0 PUSH1 0x20 DUP3 ADD SWAP1 POP DUP2 DUP2 SUB PUSH1 0x0 DUP4 ADD MSTORE PUSH2 0x4EF2 DUP2 PUSH2 0x4EB6 JUMP JUMPDEST SWAP1 POP SWAP2 SWAP1 POP JUMP JUMPDEST PUSH32 0x526573756C747300000000000000000000000000000000000000000000000000 PUSH1 0x0 DUP3 ADD MSTORE POP JUMP JUMPDEST PUSH1 0x0 PUSH2 0x4F2F PUSH1 0x7 DUP4 PUSH2 0x3E9E JUMP JUMPDEST SWAP2 POP PUSH2 0x4F3A DUP3 PUSH2 0x4EF9 JUMP JUMPDEST PUSH1 0x20 DUP3 ADD SWAP1 POP SWAP2 SWAP1 POP JUMP JUMPDEST PUSH1 0x0 PUSH1 0x20 DUP3 ADD SWAP1 POP DUP2 DUP2 SUB PUSH1 0x0 DUP4 ADD MSTORE PUSH2 0x4F5E DUP2 PUSH2 0x4F22 JUMP JUMPDEST SWAP1 POP SWAP2 SWAP1 POP JUMP JUMPDEST PUSH32 0x4D6564696174696F6E0000000000000000000000000000000000000000000000 PUSH1 0x0 DUP3 ADD MSTORE POP JUMP JUMPDEST PUSH1 0x0 PUSH2 0x4F9B PUSH1 0x9 DUP4 PUSH2 0x3E9E JUMP JUMPDEST SWAP2 POP PUSH2 0x4FA6 DUP3 PUSH2 0x4F65 JUMP JUMPDEST PUSH1 0x20 DUP3 ADD SWAP1 POP SWAP2 SWAP1 POP JUMP JUMPDEST PUSH1 0x0 PUSH1 0x20 DUP3 ADD SWAP1 POP DUP2 DUP2 SUB PUSH1 0x0 DUP4 ADD MSTORE PUSH2 0x4FCA DUP2 PUSH2 0x4F8E JUMP JUMPDEST SWAP1 POP SWAP2 SWAP1 POP JUMP JUMPDEST PUSH32 0x54696D656F757400000000000000000000000000000000000000000000000000 PUSH1 0x0 DUP3 ADD MSTORE POP JUMP JUMPDEST PUSH1 0x0 PUSH2 0x5007 PUSH1 0x7 DUP4 PUSH2 0x3E9E JUMP JUMPDEST SWAP2 POP PUSH2 0x5012 DUP3 PUSH2 0x4FD1 JUMP JUMPDEST PUSH1 0x20 DUP3 ADD SWAP1 POP SWAP2 SWAP1 POP JUMP JUMPDEST PUSH1 0x0 PUSH1 0x20 DUP3 ADD SWAP1 POP DUP2 DUP2 SUB PUSH1 0x0 DUP4 ADD MSTORE PUSH2 0x5036 DUP2 PUSH2 0x4FFA JUMP JUMPDEST SWAP1 POP SWAP2 SWAP1 POP JUMP JUMPDEST PUSH32 0x436F6C6C61746572616C00000000000000000000000000000000000000000000 PUSH1 0x0 DUP3 ADD MSTORE POP JUMP JUMPDEST PUSH1 0x0 PUSH2 0x5073 PUSH1 0xA DUP4 PUSH2 0x3E9E JUMP JUMPDEST SWAP2 POP PUSH2 0x507E DUP3 PUSH2 0x503D JUMP JUMPDEST PUSH1 0x20 DUP3 ADD SWAP1 POP SWAP2 SWAP1 POP JUMP JUMPDEST PUSH1 0x0 PUSH1 0x20 DUP3 ADD SWAP1 POP DUP2 DUP2 SUB PUSH1 0x0 DUP4 ADD MSTORE PUSH2 0x50A2 DUP2 PUSH2 0x5066 JUMP JUMPDEST SWAP1 POP SWAP2 SWAP1 POP JUMP INVALID LOG2 PUSH5 0x6970667358 0x22 SLT KECCAK256 PUSH11 0x56F96D96948C3037B5DB6F PUSH11 0x792BEA07BD6E9BE4697D33 0xAB PUSH26 0x8A20F9CBAB3A64736F6C63430008150033000000000000000000 "},"gasEstimates":{"creation":{"codeDepositCost":"4140600","executionCost":"infinite","totalCost":"infinite"},"external":{"acceptResult(string)":"infinite","addResult(string,string,string,uint256)":"infinite","agreeJobCreator(string)":"infinite","agreeResourceProvider(string)":"infinite","checkResult(string)":"infinite","disableChangeControllerAddress()":"26770","ensureDeal(string,(address,address,address,address[]),((uint256,uint256),(uint256,uint256),(uint256,uint256),(uint256,uint256)),(uint256,uint256,uint256,uint256))":"infinite","getAgreement(string)":"infinite","getControllerAddress()":"2633","getDeal(string)":"infinite","getDealsForParty(address)":"infinite","getJobCost(string)":"infinite","getResult(string)":"infinite","getResultsCollateral(string)":"infinite","hasDeal(string)":"infinite","initialize()":"83916","isState(string,uint8)":"infinite","mediationAcceptResult(string)":"infinite","mediationRejectResult(string)":"infinite","owner()":"2612","renounceOwnership()":"30488","setControllerAddress(address)":"29334","timeoutAgree(string)":"infinite","timeoutJudgeResult(string)":"infinite","timeoutMediateResult(string)":"infinite","timeoutSubmitResult(string)":"infinite","transferOwnership(address)":"30832"},"internal":{"_changeAgreementState(string memory,enum SharedStructs.AgreementState)":"infinite","_maybeAgreeDeal(string memory)":"infinite","checkDealMembers(struct SharedStructs.DealMembers memory)":"infinite","checkTimeouts(struct SharedStructs.DealTimeouts memory)":"infinite","compareDealMembers(struct SharedStructs.DealMembers memory,struct SharedStructs.DealMembers memory)":"infinite","compareDealPricing(struct SharedStructs.DealPricing memory,struct SharedStructs.DealPricing memory)":"infinite","compareDealTimeout(struct SharedStructs.DealTimeout memory,struct SharedStructs.DealTimeout memory)":"infinite","compareDealTimeouts(struct SharedStructs.DealTimeouts memory,struct SharedStructs.DealTimeouts memory)":"infinite"}},"methodIdentifiers":{"acceptResult(string)":"297f9e55","addResult(string,string,string,uint256)":"3955548e","agreeJobCreator(string)":"3c4135da","agreeResourceProvider(string)":"ec95b967","checkResult(string)":"46834d1e","disableChangeControllerAddress()":"a4702958","ensureDeal(string,(address,address,address,address[]),((uint256,uint256),(uint256,uint256),(uint256,uint256),(uint256,uint256)),(uint256,uint256,uint256,uint256))":"a6370b0e","getAgreement(string)":"cdd82d1d","getControllerAddress()":"c57380a2","getDeal(string)":"e7079180","getDealsForParty(address)":"11d5af33","getJobCost(string)":"73db5c6a","getResult(string)":"498cc70d","getResultsCollateral(string)":"8224ce5f","hasDeal(string)":"2244ad2b","initialize()":"8129fc1c","isState(string,uint8)":"b050e74b","mediationAcceptResult(string)":"824518aa","mediationRejectResult(string)":"80ffdfe0","owner()":"8da5cb5b","renounceOwnership()":"715018a6","setControllerAddress(address)":"f3d3d448","timeoutAgree(string)":"795f9abf","timeoutJudgeResult(string)":"e850be37","timeoutMediateResult(string)":"e7b957d1","timeoutSubmitResult(string)":"511a9f68","transferOwnership(address)":"f2fde38b"}},"storageLayout":{"storage":[{"astId":506,"contract":"contracts/HiveStorage.sol:HiveStorage","label":"_owner","offset":0,"slot":"0","type":"t_address"},{"astId":648,"contract":"contracts/HiveStorage.sol:HiveStorage","label":"controllerAddress","offset":0,"slot":"1","type":"t_address"},{"astId":651,"contract":"contracts/HiveStorage.sol:HiveStorage","label":"canChangeControllerAddress","offset":20,"slot":"1","type":"t_bool"},{"astId":6,"contract":"contracts/HiveStorage.sol:HiveStorage","label":"_initialized","offset":21,"slot":"1","type":"t_uint8"},{"astId":9,"contract":"contracts/HiveStorage.sol:HiveStorage","label":"_initializing","offset":22,"slot":"1","type":"t_bool"},{"astId":741,"contract":"contracts/HiveStorage.sol:HiveStorage","label":"controllerAddress","offset":0,"slot":"2","type":"t_address"},{"astId":744,"contract":"contracts/HiveStorage.sol:HiveStorage","label":"canChangeControllerAddress","offset":20,"slot":"2","type":"t_bool"},{"astId":749,"contract":"contracts/HiveStorage.sol:HiveStorage","label":"deals","offset":0,"slot":"3","type":"t_mapping(t_string_memory_ptr,t_struct(Deal)1865_storage)"},{"astId":754,"contract":"contracts/HiveStorage.sol:HiveStorage","label":"dealsForParty","offset":0,"slot":"4","type":"t_mapping(t_address,t_array(t_string_storage)dyn_storage)"},{"astId":759,"contract":"contracts/HiveStorage.sol:HiveStorage","label":"agreements","offset":0,"slot":"5","type":"t_mapping(t_string_memory_ptr,t_struct(Agreement)1904_storage)"},{"astId":764,"contract":"contracts/HiveStorage.sol:HiveStorage","label":"results","offset":0,"slot":"6","type":"t_mapping(t_string_memory_ptr,t_struct(Result)1874_storage)"},{"astId":769,"contract":"contracts/HiveStorage.sol:HiveStorage","label":"mediations","offset":0,"slot":"7","type":"t_mapping(t_string_memory_ptr,t_struct(Result)1874_storage)"}],"types":{"t_address":{"encoding":"inplace","label":"address","numberOfBytes":"20"},"t_array(t_address)dyn_storage":{"base":"t_address","encoding":"dynamic_array","label":"address[]","numberOfBytes":"32"},"t_array(t_string_storage)dyn_storage":{"base":"t_string_storage","encoding":"dynamic_array","label":"string[]","numberOfBytes":"32"},"t_bool":{"encoding":"inplace","label":"bool","numberOfBytes":"1"},"t_enum(AgreementState)1805":{"encoding":"inplace","label":"enum SharedStructs.AgreementState","numberOfBytes":"1"},"t_mapping(t_address,t_array(t_string_storage)dyn_storage)":{"encoding":"mapping","key":"t_address","label":"mapping(address => string[])","numberOfBytes":"32","value":"t_array(t_string_storage)dyn_storage"},"t_mapping(t_string_memory_ptr,t_struct(Agreement)1904_storage)":{"encoding":"mapping","key":"t_string_memory_ptr","label":"mapping(string => struct SharedStructs.Agreement)","numberOfBytes":"32","value":"t_struct(Agreement)1904_storage"},"t_mapping(t_string_memory_ptr,t_struct(Deal)1865_storage)":{"encoding":"mapping","key":"t_string_memory_ptr","label":"mapping(string => struct SharedStructs.Deal)","numberOfBytes":"32","value":"t_struct(Deal)1865_storage"},"t_mapping(t_string_memory_ptr,t_struct(Result)1874_storage)":{"encoding":"mapping","key":"t_string_memory_ptr","label":"mapping(string => struct SharedStructs.Result)","numberOfBytes":"32","value":"t_struct(Result)1874_storage"},"t_string_memory_ptr":{"encoding":"bytes","label":"string","numberOfBytes":"32"},"t_string_storage":{"encoding":"bytes","label":"string","numberOfBytes":"32"},"t_struct(Agreement)1904_storage":{"encoding":"inplace","label":"struct SharedStructs.Agreement","members":[{"astId":1877,"contract":"contracts/HiveStorage.sol:HiveStorage","label":"state","offset":0,"slot":"0","type":"t_enum(AgreementState)1805"},{"astId":1879,"contract":"contracts/HiveStorage.sol:HiveStorage","label":"resourceProviderAgreedAt","offset":0,"slot":"1","type":"t_uint256"},{"astId":1881,"contract":"contracts/HiveStorage.sol:HiveStorage","label":"jobCreatorAgreedAt","offset":0,"slot":"2","type":"t_uint256"},{"astId":1883,"contract":"contracts/HiveStorage.sol:HiveStorage","label":"dealCreatedAt","offset":0,"slot":"3","type":"t_uint256"},{"astId":1885,"contract":"contracts/HiveStorage.sol:HiveStorage","label":"dealAgreedAt","offset":0,"slot":"4","type":"t_uint256"},{"astId":1887,"contract":"contracts/HiveStorage.sol:HiveStorage","label":"resultsSubmittedAt","offset":0,"slot":"5","type":"t_uint256"},{"astId":1889,"contract":"contracts/HiveStorage.sol:HiveStorage","label":"resultsAcceptedAt","offset":0,"slot":"6","type":"t_uint256"},{"astId":1891,"contract":"contracts/HiveStorage.sol:HiveStorage","label":"resultsCheckedAt","offset":0,"slot":"7","type":"t_uint256"},{"astId":1893,"contract":"contracts/HiveStorage.sol:HiveStorage","label":"mediationAcceptedAt","offset":0,"slot":"8","type":"t_uint256"},{"astId":1895,"contract":"contracts/HiveStorage.sol:HiveStorage","label":"mediationRejectedAt","offset":0,"slot":"9","type":"t_uint256"},{"astId":1897,"contract":"contracts/HiveStorage.sol:HiveStorage","label":"timeoutAgreeAt","offset":0,"slot":"10","type":"t_uint256"},{"astId":1899,"contract":"contracts/HiveStorage.sol:HiveStorage","label":"timeoutSubmitResultsAt","offset":0,"slot":"11","type":"t_uint256"},{"astId":1901,"contract":"contracts/HiveStorage.sol:HiveStorage","label":"timeoutJudgeResultsAt","offset":0,"slot":"12","type":"t_uint256"},{"astId":1903,"contract":"contracts/HiveStorage.sol:HiveStorage","label":"timeoutMediateResultsAt","offset":0,"slot":"13","type":"t_uint256"}],"numberOfBytes":"448"},"t_struct(Deal)1865_storage":{"encoding":"inplace","label":"struct SharedStructs.Deal","members":[{"astId":1855,"contract":"contracts/HiveStorage.sol:HiveStorage","label":"dealId","offset":0,"slot":"0","type":"t_string_storage"},{"astId":1858,"contract":"contracts/HiveStorage.sol:HiveStorage","label":"members","offset":0,"slot":"1","type":"t_struct(DealMembers)1826_storage"},{"astId":1861,"contract":"contracts/HiveStorage.sol:HiveStorage","label":"timeouts","offset":0,"slot":"5","type":"t_struct(DealTimeouts)1844_storage"},{"astId":1864,"contract":"contracts/HiveStorage.sol:HiveStorage","label":"pricing","offset":0,"slot":"13","type":"t_struct(DealPricing)1853_storage"}],"numberOfBytes":"544"},"t_struct(DealMembers)1826_storage":{"encoding":"inplace","label":"struct SharedStructs.DealMembers","members":[{"astId":1818,"contract":"contracts/HiveStorage.sol:HiveStorage","label":"solver","offset":0,"slot":"0","type":"t_address"},{"astId":1820,"contract":"contracts/HiveStorage.sol:HiveStorage","label":"jobCreator","offset":0,"slot":"1","type":"t_address"},{"astId":1822,"contract":"contracts/HiveStorage.sol:HiveStorage","label":"resourceProvider","offset":0,"slot":"2","type":"t_address"},{"astId":1825,"contract":"contracts/HiveStorage.sol:HiveStorage","label":"mediators","offset":0,"slot":"3","type":"t_array(t_address)dyn_storage"}],"numberOfBytes":"128"},"t_struct(DealPricing)1853_storage":{"encoding":"inplace","label":"struct SharedStructs.DealPricing","members":[{"astId":1846,"contract":"contracts/HiveStorage.sol:HiveStorage","label":"instructionPrice","offset":0,"slot":"0","type":"t_uint256"},{"astId":1848,"contract":"contracts/HiveStorage.sol:HiveStorage","label":"paymentCollateral","offset":0,"slot":"1","type":"t_uint256"},{"astId":1850,"contract":"contracts/HiveStorage.sol:HiveStorage","label":"resultsCollateralMultiple","offset":0,"slot":"2","type":"t_uint256"},{"astId":1852,"contract":"contracts/HiveStorage.sol:HiveStorage","label":"mediationFee","offset":0,"slot":"3","type":"t_uint256"}],"numberOfBytes":"128"},"t_struct(DealTimeout)1831_storage":{"encoding":"inplace","label":"struct SharedStructs.DealTimeout","members":[{"astId":1828,"contract":"contracts/HiveStorage.sol:HiveStorage","label":"timeout","offset":0,"slot":"0","type":"t_uint256"},{"astId":1830,"contract":"contracts/HiveStorage.sol:HiveStorage","label":"collateral","offset":0,"slot":"1","type":"t_uint256"}],"numberOfBytes":"64"},"t_struct(DealTimeouts)1844_storage":{"encoding":"inplace","label":"struct SharedStructs.DealTimeouts","members":[{"astId":1834,"contract":"contracts/HiveStorage.sol:HiveStorage","label":"agree","offset":0,"slot":"0","type":"t_struct(DealTimeout)1831_storage"},{"astId":1837,"contract":"contracts/HiveStorage.sol:HiveStorage","label":"submitResults","offset":0,"slot":"2","type":"t_struct(DealTimeout)1831_storage"},{"astId":1840,"contract":"contracts/HiveStorage.sol:HiveStorage","label":"judgeResults","offset":0,"slot":"4","type":"t_struct(DealTimeout)1831_storage"},{"astId":1843,"contract":"contracts/HiveStorage.sol:HiveStorage","label":"mediateResults","offset":0,"slot":"6","type":"t_struct(DealTimeout)1831_storage"}],"numberOfBytes":"256"},"t_struct(Result)1874_storage":{"encoding":"inplace","label":"struct SharedStructs.Result","members":[{"astId":1867,"contract":"contracts/HiveStorage.sol:HiveStorage","label":"dealId","offset":0,"slot":"0","type":"t_string_storage"},{"astId":1869,"contract":"contracts/HiveStorage.sol:HiveStorage","label":"resultsId","offset":0,"slot":"1","type":"t_string_storage"},{"astId":1871,"contract":"contracts/HiveStorage.sol:HiveStorage","label":"dataId","offset":0,"slot":"2","type":"t_string_storage"},{"astId":1873,"contract":"contracts/HiveStorage.sol:HiveStorage","label":"instructionCount","offset":0,"slot":"3","type":"t_uint256"}],"numberOfBytes":"128"},"t_uint256":{"encoding":"inplace","label":"uint256","numberOfBytes":"32"},"t_uint8":{"encoding":"inplace","label":"uint8","numberOfBytes":"1"}}},"userdoc":{"kind":"user","methods":{"acceptResult(string)":{"notice":"Judge Results"},"getAgreement(string)":{"notice":"Agreements"},"getDeal(string)":{"notice":"Deals"},"getJobCost(string)":{"notice":"Costings"},"getResult(string)":{"notice":"Post Results"},"hasDeal(string)":{"notice":"Checkers"},"initialize()":{"notice":"Init"},"mediationAcceptResult(string)":{"notice":"Mediati:"},"timeoutAgree(string)":{"notice":"Timeouts"}},"version":1}}}}