{"contracts/HiveStorageTestable.sol":{"HiveStorageTestable":{"abi":[{"anonymous":false,"inputs":[{"indexed":false,"internalType":"string","name":"dealId","type":"string"},{"indexed":false,"internalType":"enum SharedStructs.AgreementState","name":"state","type":"uint8"}],"name":"DealStateChange","type":"event"},{"anonymous":false,"inputs":[{"indexed":false,"internalType":"uint8","name":"version","type":"uint8"}],"name":"Initialized","type":"event"},{"anonymous":false,"inputs":[{"indexed":true,"internalType":"address","name":"previousOwner","type":"address"},{"indexed":true,"internalType":"address","name":"newOwner","type":"address"}],"name":"OwnershipTransferred","type":"event"},{"inputs":[{"internalType":"string","name":"dealId","type":"string"}],"name":"acceptResult","outputs":[],"stateMutability":"nonpayable","type":"function"},{"inputs":[{"internalType":"string","name":"dealId","type":"string"},{"internalType":"string","name":"resultsId","type":"string"},{"internalType":"string","name":"dataId","type":"string"},{"internalType":"uint256","name":"instructionCount","type":"uint256"}],"name":"addResult","outputs":[{"components":[{"internalType":"string","name":"dealId","type":"string"},{"internalType":"string","name":"resultsId","type":"string"},{"internalType":"string","name":"dataId","type":"string"},{"internalType":"uint256","name":"instructionCount","type":"uint256"}],"internalType":"struct SharedStructs.Result","name":"","type":"tuple"}],"stateMutability":"nonpayable","type":"function"},{"inputs":[{"internalType":"string","name":"dealId","type":"string"}],"name":"agreeJobCreator","outputs":[{"components":[{"internalType":"enum SharedStructs.AgreementState","name":"state","type":"uint8"},{"internalType":"uint256","name":"resourceProviderAgreedAt","type":"uint256"},{"internalType":"uint256","name":"jobCreatorAgreedAt","type":"uint256"},{"internalType":"uint256","name":"dealCreatedAt","type":"uint256"},{"internalType":"uint256","name":"dealAgreedAt","type":"uint256"},{"internalType":"uint256","name":"resultsSubmittedAt","type":"uint256"},{"internalType":"uint256","name":"resultsAcceptedAt","type":"uint256"},{"internalType":"uint256","name":"resultsCheckedAt","type":"uint256"},{"internalType":"uint256","name":"mediationAcceptedAt","type":"uint256"},{"internalType":"uint256","name":"mediationRejectedAt","type":"uint256"},{"internalType":"uint256","name":"timeoutAgreeAt","type":"uint256"},{"internalType":"uint256","name":"timeoutSubmitResultsAt","type":"uint256"},{"internalType":"uint256","name":"timeoutJudgeResultsAt","type":"uint256"},{"internalType":"uint256","name":"timeoutMediateResultsAt","type":"uint256"}],"internalType":"struct SharedStructs.Agreement","name":"","type":"tuple"}],"stateMutability":"nonpayable","type":"function"},{"inputs":[{"internalType":"string","name":"dealId","type":"string"}],"name":"agreeResourceProvider","outputs":[{"components":[{"internalType":"enum SharedStructs.AgreementState","name":"state","type":"uint8"},{"internalType":"uint256","name":"resourceProviderAgreedAt","type":"uint256"},{"internalType":"uint256","name":"jobCreatorAgreedAt","type":"uint256"},{"internalType":"uint256","name":"dealCreatedAt","type":"uint256"},{"internalType":"uint256","name":"dealAgreedAt","type":"uint256"},{"internalType":"uint256","name":"resultsSubmittedAt","type":"uint256"},{"internalType":"uint256","name":"resultsAcceptedAt","type":"uint256"},{"internalType":"uint256","name":"resultsCheckedAt","type":"uint256"},{"internalType":"uint256","name":"mediationAcceptedAt","type":"uint256"},{"internalType":"uint256","name":"mediationRejectedAt","type":"uint256"},{"internalType":"uint256","name":"timeoutAgreeAt","type":"uint256"},{"internalType":"uint256","name":"timeoutSubmitResultsAt","type":"uint256"},{"internalType":"uint256","name":"timeoutJudgeResultsAt","type":"uint256"},{"internalType":"uint256","name":"timeoutMediateResultsAt","type":"uint256"}],"internalType":"struct SharedStructs.Agreement","name":"","type":"tuple"}],"stateMutability":"nonpayable","type":"function"},{"inputs":[{"internalType":"string","name":"dealId","type":"string"}],"name":"checkResult","outputs":[],"stateMutability":"nonpayable","type":"function"},{"inputs":[],"name":"disableChangeControllerAddress","outputs":[],"stateMutability":"nonpayable","type":"function"},{"inputs":[{"internalType":"string","name":"dealId","type":"string"},{"components":[{"internalType":"address","name":"solver","type":"address"},{"internalType":"address","name":"jobCreator","type":"address"},{"internalType":"address","name":"resourceProvider","type":"address"},{"internalType":"address[]","name":"mediators","type":"address[]"}],"internalType":"struct SharedStructs.DealMembers","name":"members","type":"tuple"},{"components":[{"components":[{"internalType":"uint256","name":"timeout","type":"uint256"},{"internalType":"uint256","name":"collateral","type":"uint256"}],"internalType":"struct SharedStructs.DealTimeout","name":"agree","type":"tuple"},{"components":[{"internalType":"uint256","name":"timeout","type":"uint256"},{"internalType":"uint256","name":"collateral","type":"uint256"}],"internalType":"struct SharedStructs.DealTimeout","name":"submitResults","type":"tuple"},{"components":[{"internalType":"uint256","name":"timeout","type":"uint256"},{"internalType":"uint256","name":"collateral","type":"uint256"}],"internalType":"struct SharedStructs.DealTimeout","name":"judgeResults","type":"tuple"},{"components":[{"internalType":"uint256","name":"timeout","type":"uint256"},{"internalType":"uint256","name":"collateral","type":"uint256"}],"internalType":"struct SharedStructs.DealTimeout","name":"mediateResults","type":"tuple"}],"internalType":"struct SharedStructs.DealTimeouts","name":"timeouts","type":"tuple"},{"components":[{"internalType":"uint256","name":"instructionPrice","type":"uint256"},{"internalType":"uint256","name":"paymentCollateral","type":"uint256"},{"internalType":"uint256","name":"resultsCollateralMultiple","type":"uint256"},{"internalType":"uint256","name":"mediationFee","type":"uint256"}],"internalType":"struct SharedStructs.DealPricing","name":"pricing","type":"tuple"}],"name":"ensureDeal","outputs":[{"components":[{"internalType":"string","name":"dealId","type":"string"},{"components":[{"internalType":"address","name":"solver","type":"address"},{"internalType":"address","name":"jobCreator","type":"address"},{"internalType":"address","name":"resourceProvider","type":"address"},{"internalType":"address[]","name":"mediators","type":"address[]"}],"internalType":"struct SharedStructs.DealMembers","name":"members","type":"tuple"},{"components":[{"components":[{"internalType":"uint256","name":"timeout","type":"uint256"},{"internalType":"uint256","name":"collateral","type":"uint256"}],"internalType":"struct SharedStructs.DealTimeout","name":"agree","type":"tuple"},{"components":[{"internalType":"uint256","name":"timeout","type":"uint256"},{"internalType":"uint256","name":"collateral","type":"uint256"}],"internalType":"struct SharedStructs.DealTimeout","name":"submitResults","type":"tuple"},{"components":[{"internalType":"uint256","name":"timeout","type":"uint256"},{"internalType":"uint256","name":"collateral","type":"uint256"}],"internalType":"struct SharedStructs.DealTimeout","name":"judgeResults","type":"tuple"},{"components":[{"internalType":"uint256","name":"timeout","type":"uint256"},{"internalType":"uint256","name":"collateral","type":"uint256"}],"internalType":"struct SharedStructs.DealTimeout","name":"mediateResults","type":"tuple"}],"internalType":"struct SharedStructs.DealTimeouts","name":"timeouts","type":"tuple"},{"components":[{"internalType":"uint256","name":"instructionPrice","type":"uint256"},{"internalType":"uint256","name":"paymentCollateral","type":"uint256"},{"internalType":"uint256","name":"resultsCollateralMultiple","type":"uint256"},{"internalType":"uint256","name":"mediationFee","type":"uint256"}],"internalType":"struct SharedStructs.DealPricing","name":"pricing","type":"tuple"}],"internalType":"struct SharedStructs.Deal","name":"","type":"tuple"}],"stateMutability":"nonpayable","type":"function"},{"inputs":[{"internalType":"string","name":"dealId","type":"string"}],"name":"getAgreement","outputs":[{"components":[{"internalType":"enum SharedStructs.AgreementState","name":"state","type":"uint8"},{"internalType":"uint256","name":"resourceProviderAgreedAt","type":"uint256"},{"internalType":"uint256","name":"jobCreatorAgreedAt","type":"uint256"},{"internalType":"uint256","name":"dealCreatedAt","type":"uint256"},{"internalType":"uint256","name":"dealAgreedAt","type":"uint256"},{"internalType":"uint256","name":"resultsSubmittedAt","type":"uint256"},{"internalType":"uint256","name":"resultsAcceptedAt","type":"uint256"},{"internalType":"uint256","name":"resultsCheckedAt","type":"uint256"},{"internalType":"uint256","name":"mediationAcceptedAt","type":"uint256"},{"internalType":"uint256","name":"mediationRejectedAt","type":"uint256"},{"internalType":"uint256","name":"timeoutAgreeAt","type":"uint256"},{"internalType":"uint256","name":"timeoutSubmitResultsAt","type":"uint256"},{"internalType":"uint256","name":"timeoutJudgeResultsAt","type":"uint256"},{"internalType":"uint256","name":"timeoutMediateResultsAt","type":"uint256"}],"internalType":"struct SharedStructs.Agreement","name":"","type":"tuple"}],"stateMutability":"view","type":"function"},{"inputs":[],"name":"getControllerAddress","outputs":[{"internalType":"address","name":"","type":"address"}],"stateMutability":"view","type":"function"},{"inputs":[{"internalType":"string","name":"dealId","type":"string"}],"name":"getDeal","outputs":[{"components":[{"internalType":"string","name":"dealId","type":"string"},{"components":[{"internalType":"address","name":"solver","type":"address"},{"internalType":"address","name":"jobCreator","type":"address"},{"internalType":"address","name":"resourceProvider","type":"address"},{"internalType":"address[]","name":"mediators","type":"address[]"}],"internalType":"struct SharedStructs.DealMembers","name":"members","type":"tuple"},{"components":[{"components":[{"internalType":"uint256","name":"timeout","type":"uint256"},{"internalType":"uint256","name":"collateral","type":"uint256"}],"internalType":"struct SharedStructs.DealTimeout","name":"agree","type":"tuple"},{"components":[{"internalType":"uint256","name":"timeout","type":"uint256"},{"internalType":"uint256","name":"collateral","type":"uint256"}],"internalType":"struct SharedStructs.DealTimeout","name":"submitResults","type":"tuple"},{"components":[{"internalType":"uint256","name":"timeout","type":"uint256"},{"internalType":"uint256","name":"collateral","type":"uint256"}],"internalType":"struct SharedStructs.DealTimeout","name":"judgeResults","type":"tuple"},{"components":[{"internalType":"uint256","name":"timeout","type":"uint256"},{"internalType":"uint256","name":"collateral","type":"uint256"}],"internalType":"struct SharedStructs.DealTimeout","name":"mediateResults","type":"tuple"}],"internalType":"struct SharedStructs.DealTimeouts","name":"timeouts","type":"tuple"},{"components":[{"internalType":"uint256","name":"instructionPrice","type":"uint256"},{"internalType":"uint256","name":"paymentCollateral","type":"uint256"},{"internalType":"uint256","name":"resultsCollateralMultiple","type":"uint256"},{"internalType":"uint256","name":"mediationFee","type":"uint256"}],"internalType":"struct SharedStructs.DealPricing","name":"pricing","type":"tuple"}],"internalType":"struct SharedStructs.Deal","name":"","type":"tuple"}],"stateMutability":"view","type":"function"},{"inputs":[{"internalType":"address","name":"party","type":"address"}],"name":"getDealsForParty","outputs":[{"internalType":"string[]","name":"","type":"string[]"}],"stateMutability":"view","type":"function"},{"inputs":[{"internalType":"string","name":"dealId","type":"string"}],"name":"getJobCost","outputs":[{"internalType":"uint256","name":"","type":"uint256"}],"stateMutability":"view","type":"function"},{"inputs":[{"internalType":"string","name":"dealId","type":"string"}],"name":"getResult","outputs":[{"components":[{"internalType":"string","name":"dealId","type":"string"},{"internalType":"string","name":"resultsId","type":"string"},{"internalType":"string","name":"dataId","type":"string"},{"internalType":"uint256","name":"instructionCount","type":"uint256"}],"internalType":"struct SharedStructs.Result","name":"","type":"tuple"}],"stateMutability":"view","type":"function"},{"inputs":[{"internalType":"string","name":"dealId","type":"string"}],"name":"getResultsCollateral","outputs":[{"internalType":"uint256","name":"","type":"uint256"}],"stateMutability":"view","type":"function"},{"inputs":[{"internalType":"string","name":"dealId","type":"string"}],"name":"hasDeal","outputs":[{"internalType":"bool","name":"","type":"bool"}],"stateMutability":"view","type":"function"},{"inputs":[],"name":"initialize","outputs":[],"stateMutability":"nonpayable","type":"function"},{"inputs":[{"internalType":"string","name":"dealId","type":"string"},{"internalType":"enum SharedStructs.AgreementState","name":"state","type":"uint8"}],"name":"isState","outputs":[{"internalType":"bool","name":"","type":"bool"}],"stateMutability":"view","type":"function"},{"inputs":[{"internalType":"string","name":"dealId","type":"string"}],"name":"mediationAcceptResult","outputs":[],"stateMutability":"nonpayable","type":"function"},{"inputs":[{"internalType":"string","name":"dealId","type":"string"}],"name":"mediationRejectResult","outputs":[],"stateMutability":"nonpayable","type":"function"},{"inputs":[],"name":"owner","outputs":[{"internalType":"address","name":"","type":"address"}],"stateMutability":"view","type":"function"},{"inputs":[],"name":"renounceOwnership","outputs":[],"stateMutability":"nonpayable","type":"function"},{"inputs":[{"internalType":"address","name":"_controllerAddress","type":"address"}],"name":"setControllerAddress","outputs":[],"stateMutability":"nonpayable","type":"function"},{"inputs":[{"internalType":"string","name":"dealId","type":"string"}],"name":"timeoutAgree","outputs":[],"stateMutability":"nonpayable","type":"function"},{"inputs":[{"internalType":"string","name":"dealId","type":"string"}],"name":"timeoutJudgeResult","outputs":[],"stateMutability":"nonpayable","type":"function"},{"inputs":[{"internalType":"string","name":"dealId","type":"string"}],"name":"timeoutMediateResult","outputs":[],"stateMutability":"nonpayable","type":"function"},{"inputs":[{"internalType":"string","name":"dealId","type":"string"}],"name":"timeoutSubmitResult","outputs":[],"stateMutability":"nonpayable","type":"function"},{"inputs":[{"internalType":"address","name":"newOwner","type":"address"}],"name":"transferOwnership","outputs":[],"stateMutability":"nonpayable","type":"function"}],"devdoc":{"events":{"Initialized(uint8)":{"details":"Triggered when the contract has been initialized or reinitialized."}},"kind":"dev","methods":{"owner()":{"details":"Returns the address of the current owner."},"renounceOwnership()":{"details":"Leaves the contract without owner. It will not be possible to call `onlyOwner` functions. Can only be called by the current owner. NOTE: Renouncing ownership will leave the contract without an owner, thereby disabling any functionality that is only available to the owner."},"transferOwnership(address)":{"details":"Transfers ownership of the contract to a new account (`newOwner`). Can only be called by the current owner."}},"version":1},"evm":{"bytecode":{"linkReferences":{},"object":"608060405260018060146101000a81548160ff0219169083151502179055506001600260146101000a81548160ff0219169083151502179055503480156200004657600080fd5b50620000676200005b6200006d60201b60201c565b6200007560201b60201c565b62000139565b600033905090565b60008060009054906101000a900473ffffffffffffffffffffffffffffffffffffffff169050816000806101000a81548173ffffffffffffffffffffffffffffffffffffffff021916908373ffffffffffffffffffffffffffffffffffffffff1602179055508173ffffffffffffffffffffffffffffffffffffffff168173ffffffffffffffffffffffffffffffffffffffff167f8be0079c531659141344cd1fd0a4f28419497f9722a3daafe3b4186f6b6457e060405160405180910390a35050565b614f2680620001496000396000f3fe608060405234801561001057600080fd5b50600436106101a95760003560e01c80638224ce5f116100f9578063cdd82d1d11610097578063e850be3711610071578063e850be37146104dc578063ec95b967146104f8578063f2fde38b14610528578063f3d3d44814610544576101a9565b8063cdd82d1d14610460578063e707918014610490578063e7b957d1146104c0576101a9565b8063a4702958116100d3578063a4702958146103d8578063a6370b0e146103e2578063b050e74b14610412578063c57380a214610442576101a9565b80638224ce5f1461036e578063824518aa1461039e5780638da5cb5b146103ba576101a9565b8063498cc70d1161016657806373db5c6a1161014057806373db5c6a146102fc578063795f9abf1461032c57806380ffdfe0146103485780638129fc1c14610364576101a9565b8063498cc70d146102a6578063511a9f68146102d6578063715018a6146102f2576101a9565b806311d5af33146101ae5780632244ad2b146101de578063297f9e551461020e5780633955548e1461022a5780633c4135da1461025a57806346834d1e1461028a575b600080fd5b6101c860048036038101906101c39190612fd6565b610560565b6040516101d59190613155565b60405180910390f35b6101f860048036038101906101f391906132ac565b610678565b6040516102059190613310565b60405180910390f35b610228600480360381019061022391906132ac565b610691565b005b610244600480360381019061023f9190613361565b610718565b604051610251919061349c565b60405180910390f35b610274600480360381019061026f91906132ac565b610a25565b6040516102819190613655565b60405180910390f35b6102a4600480360381019061029f91906132ac565b610bff565b005b6102c060048036038101906102bb91906132ac565b610c86565b6040516102cd919061349c565b60405180910390f35b6102f060048036038101906102eb91906132ac565b610e7e565b005b6102fa610f05565b005b610316600480360381019061031191906132ac565b610f19565b6040516103239190613680565b60405180910390f35b610346600480360381019061034191906132ac565b610f73565b005b610362600480360381019061035d91906132ac565b610ffa565b005b61036c611081565b005b610388600480360381019061038391906132ac565b6111ba565b6040516103959190613680565b60405180910390f35b6103b860048036038101906103b391906132ac565b6111fb565b005b6103c2611282565b6040516103cf91906136aa565b60405180910390f35b6103e06112ab565b005b6103fc60048036038101906103f7919061396c565b6112d0565b6040516104099190613c74565b60405180910390f35b61042c60048036038101906104279190613cbb565b6119dd565b6040516104399190613310565b60405180910390f35b61044a611a79565b60405161045791906136aa565b60405180910390f35b61047a600480360381019061047591906132ac565b611aa3565b6040516104879190613655565b60405180910390f35b6104aa60048036038101906104a591906132ac565b611b99565b6040516104b79190613c74565b60405180910390f35b6104da60048036038101906104d591906132ac565b611ef7565b005b6104f660048036038101906104f191906132ac565b611f7e565b005b610512600480360381019061050d91906132ac565b612005565b60405161051f9190613655565b60405180910390f35b610542600480360381019061053d9190612fd6565b6121df565b005b61055e60048036038101906105599190612fd6565b612262565b005b6060600460008373ffffffffffffffffffffffffffffffffffffffff1673ffffffffffffffffffffffffffffffffffffffff168152602001908152602001600020805480602002602001604051908101604052809291908181526020016000905b8282101561066d5783829060005260206000200180546105e090613d46565b80601f016020809104026020016040519081016040528092919081815260200182805461060c90613d46565b80156106595780601f1061062e57610100808354040283529160200191610659565b820191906000526020600020905b81548152906001019060200180831161063c57829003601f168201915b5050505050815260200190600101906105c1565b505050509050919050565b60008061068483611b99565b6000015151119050919050565b61069961236c565b506106a58160026119dd565b6106e4576040517f08c379a00000000000000000000000000000000000000000000000000000000081526004016106db90613dd4565b60405180910390fd5b426005826040516106f59190613e30565b908152602001604051809103902060060181905550610715816003612375565b50565b610720612cee565b61072861236c565b506107348560016119dd565b610773576040517f08c379a000000000000000000000000000000000000000000000000000000000815260040161076a90613e93565b60405180910390fd5b426005866040516107849190613e30565b9081526020016040518091039020600501819055506107a4856002612375565b6040518060800160405280868152602001858152602001848152602001838152506006866040516107d59190613e30565b908152602001604051809103902060008201518160000190816107f8919061405f565b50602082015181600101908161080e919061405f565b506040820151816002019081610824919061405f565b50606082015181600301559050506006856040516108429190613e30565b908152602001604051809103902060405180608001604052908160008201805461086b90613d46565b80601f016020809104026020016040519081016040528092919081815260200182805461089790613d46565b80156108e45780601f106108b9576101008083540402835291602001916108e4565b820191906000526020600020905b8154815290600101906020018083116108c757829003601f168201915b505050505081526020016001820180546108fd90613d46565b80601f016020809104026020016040519081016040528092919081815260200182805461092990613d46565b80156109765780601f1061094b57610100808354040283529160200191610976565b820191906000526020600020905b81548152906001019060200180831161095957829003601f168201915b5050505050815260200160028201805461098f90613d46565b80601f01602080910402602001604051908101604052809291908181526020018280546109bb90613d46565b8015610a085780601f106109dd57610100808354040283529160200191610a08565b820191906000526020600020905b8154815290600101906020018083116109eb57829003601f168201915b505050505081526020016003820154815250509050949350505050565b610a2d612d16565b610a3561236c565b50610a3f82610678565b610a7e576040517f08c379a0000000000000000000000000000000000000000000000000000000008152600401610a759061417d565b60405180910390fd5b6000600583604051610a909190613e30565b90815260200160405180910390206002015414610ae2576040517f08c379a0000000000000000000000000000000000000000000000000000000008152600401610ad9906141e9565b60405180910390fd5b42600583604051610af39190613e30565b908152602001604051809103902060020181905550610b11826123fb565b600582604051610b219190613e30565b9081526020016040518091039020604051806101c00160405290816000820160009054906101000a900460ff16600a811115610b6057610b5f6134be565b5b600a811115610b7257610b716134be565b5b8152602001600182015481526020016002820154815260200160038201548152602001600482015481526020016005820154815260200160068201548152602001600782015481526020016008820154815260200160098201548152602001600a8201548152602001600b8201548152602001600c8201548152602001600d820154815250509050919050565b610c0761236c565b50610c138160026119dd565b610c52576040517f08c379a0000000000000000000000000000000000000000000000000000000008152600401610c4990613dd4565b60405180910390fd5b42600582604051610c639190613e30565b908152602001604051809103902060070181905550610c83816004612375565b50565b610c8e612cee565b600682604051610c9e9190613e30565b9081526020016040518091039020604051806080016040529081600082018054610cc790613d46565b80601f0160208091040260200160405190810160405280929190818152602001828054610cf390613d46565b8015610d405780601f10610d1557610100808354040283529160200191610d40565b820191906000526020600020905b815481529060010190602001808311610d2357829003601f168201915b50505050508152602001600182018054610d5990613d46565b80601f0160208091040260200160405190810160405280929190818152602001828054610d8590613d46565b8015610dd25780601f10610da757610100808354040283529160200191610dd2565b820191906000526020600020905b815481529060010190602001808311610db557829003601f168201915b50505050508152602001600282018054610deb90613d46565b80601f0160208091040260200160405190810160405280929190818152602001828054610e1790613d46565b8015610e645780601f10610e3957610100808354040283529160200191610e64565b820191906000526020600020905b815481529060010190602001808311610e4757829003601f168201915b505050505081526020016003820154815250509050919050565b610e8661236c565b50610e928160016119dd565b610ed1576040517f08c379a0000000000000000000000000000000000000000000000000000000008152600401610ec890613e93565b60405180910390fd5b42600582604051610ee29190613e30565b9081526020016040518091039020600b0181905550610f02816008612375565b50565b610f0d6124b4565b610f176000612532565b565b6000600682604051610f2b9190613e30565b908152602001604051809103902060030154600383604051610f4d9190613e30565b9081526020016040518091039020600d0160000154610f6c9190614238565b9050919050565b610f7b61236c565b50610f878160006119dd565b610fc6576040517f08c379a0000000000000000000000000000000000000000000000000000000008152600401610fbd906142c6565b60405180910390fd5b42600582604051610fd79190613e30565b9081526020016040518091039020600a0181905550610ff7816007612375565b50565b61100261236c565b5061100e8160046119dd565b61104d576040517f08c379a000000000000000000000000000000000000000000000000000000000815260040161104490614332565b60405180910390fd5b4260058260405161105e9190613e30565b90815260200160405180910390206009018190555061107e816006612375565b50565b6000600160169054906101000a900460ff161590508080156110b4575060018060159054906101000a900460ff1660ff16105b806110e257506110c3306125f6565b1580156110e1575060018060159054906101000a900460ff1660ff16145b5b611121576040517f08c379a0000000000000000000000000000000000000000000000000000000008152600401611118906143c4565b60405180910390fd5b60018060156101000a81548160ff021916908360ff160217905550801561115d5760018060166101000a81548160ff0219169083151502179055505b80156111b7576000600160166101000a81548160ff0219169083151502179055507f7f26b83ff96e1f2b6a682f133852f6798a09c465da95921460cefb384740249860016040516111ae919061442c565b60405180910390a15b50565b60006111c582610f19565b6003836040516111d59190613e30565b9081526020016040518091039020600d01600201546111f49190614238565b9050919050565b61120361236c565b5061120f8160046119dd565b61124e576040517f08c379a000000000000000000000000000000000000000000000000000000000815260040161124590614332565b60405180910390fd5b4260058260405161125f9190613e30565b90815260200160405180910390206008018190555061127f816005612375565b50565b60008060009054906101000a900473ffffffffffffffffffffffffffffffffffffffff16905090565b6112b36124b4565b6000600160146101000a81548160ff021916908315150217905550565b6112d8612d97565b6112e061236c565b506112ec8560006119dd565b61132b576040517f08c379a0000000000000000000000000000000000000000000000000000000008152600401611322906142c6565b60405180910390fd5b61133484612619565b61133d836127bd565b61134685610678565b1561138857600061135686611b99565b9050611366816020015186612856565b611374816040015185612ad6565b611382816060015184612b22565b50611684565b6040518060800160405280868152602001858152602001848152602001838152506003866040516113b99190613e30565b908152602001604051809103902060008201518160000190816113dc919061405f565b5060208201518160010160008201518160000160006101000a81548173ffffffffffffffffffffffffffffffffffffffff021916908373ffffffffffffffffffffffffffffffffffffffff16021790555060208201518160010160006101000a81548173ffffffffffffffffffffffffffffffffffffffff021916908373ffffffffffffffffffffffffffffffffffffffff16021790555060408201518160020160006101000a81548173ffffffffffffffffffffffffffffffffffffffff021916908373ffffffffffffffffffffffffffffffffffffffff16021790555060608201518160030190805190602001906114d7929190612dd1565b505050604082015181600501600082015181600001600082015181600001556020820151816001015550506020820151816002016000820151816000015560208201518160010155505060408201518160040160008201518160000155602082015181600101555050606082015181600601600082015181600001556020820151816001015550505050606082015181600d0160008201518160000155602082015181600101556040820151816002015560608201518160030155505090505060046000856040015173ffffffffffffffffffffffffffffffffffffffff1673ffffffffffffffffffffffffffffffffffffffff1681526020019081526020016000208590806001815401808255809150506001900390600052602060002001600090919091909150908161160c919061405f565b5060046000856020015173ffffffffffffffffffffffffffffffffffffffff1673ffffffffffffffffffffffffffffffffffffffff16815260200190815260200160002085908060018154018082558091505060019003906000526020600020016000909190919091509081611682919061405f565b505b6003856040516116949190613e30565b90815260200160405180910390206040518060800160405290816000820180546116bd90613d46565b80601f01602080910402602001604051908101604052809291908181526020018280546116e990613d46565b80156117365780601f1061170b57610100808354040283529160200191611736565b820191906000526020600020905b81548152906001019060200180831161171957829003601f168201915b50505050508152602001600182016040518060800160405290816000820160009054906101000a900473ffffffffffffffffffffffffffffffffffffffff1673ffffffffffffffffffffffffffffffffffffffff1673ffffffffffffffffffffffffffffffffffffffff1681526020016001820160009054906101000a900473ffffffffffffffffffffffffffffffffffffffff1673ffffffffffffffffffffffffffffffffffffffff1673ffffffffffffffffffffffffffffffffffffffff1681526020016002820160009054906101000a900473ffffffffffffffffffffffffffffffffffffffff1673ffffffffffffffffffffffffffffffffffffffff1673ffffffffffffffffffffffffffffffffffffffff168152602001600382018054806020026020016040519081016040528092919081815260200182805480156118d657602002820191906000526020600020905b8160009054906101000a900473ffffffffffffffffffffffffffffffffffffffff1673ffffffffffffffffffffffffffffffffffffffff168152602001906001019080831161188c575b5050505050815250508152602001600582016040518060800160405290816000820160405180604001604052908160008201548152602001600182015481525050815260200160028201604051806040016040529081600082015481526020016001820154815250508152602001600482016040518060400160405290816000820154815260200160018201548152505081526020016006820160405180604001604052908160008201548152602001600182015481525050815250508152602001600d8201604051806080016040529081600082015481526020016001820154815260200160028201548152602001600382015481525050815250509050949350505050565b60006119e883610678565b611a1b576000600a811115611a00576119ff6134be565b5b82600a811115611a1357611a126134be565b5b149050611a73565b81600a811115611a2e57611a2d6134be565b5b600584604051611a3e9190613e30565b908152602001604051809103902060000160009054906101000a900460ff16600a811115611a6f57611a6e6134be565b5b1490505b92915050565b6000600160009054906101000a900473ffffffffffffffffffffffffffffffffffffffff16905090565b611aab612d16565b600582604051611abb9190613e30565b9081526020016040518091039020604051806101c00160405290816000820160009054906101000a900460ff16600a811115611afa57611af96134be565b5b600a811115611b0c57611b0b6134be565b5b8152602001600182015481526020016002820154815260200160038201548152602001600482015481526020016005820154815260200160068201548152602001600782015481526020016008820154815260200160098201548152602001600a8201548152602001600b8201548152602001600c8201548152602001600d820154815250509050919050565b611ba1612d97565b600382604051611bb19190613e30565b9081526020016040518091039020604051806080016040529081600082018054611bda90613d46565b80601f0160208091040260200160405190810160405280929190818152602001828054611c0690613d46565b8015611c535780601f10611c2857610100808354040283529160200191611c53565b820191906000526020600020905b815481529060010190602001808311611c3657829003601f168201915b50505050508152602001600182016040518060800160405290816000820160009054906101000a900473ffffffffffffffffffffffffffffffffffffffff1673ffffffffffffffffffffffffffffffffffffffff1673ffffffffffffffffffffffffffffffffffffffff1681526020016001820160009054906101000a900473ffffffffffffffffffffffffffffffffffffffff1673ffffffffffffffffffffffffffffffffffffffff1673ffffffffffffffffffffffffffffffffffffffff1681526020016002820160009054906101000a900473ffffffffffffffffffffffffffffffffffffffff1673ffffffffffffffffffffffffffffffffffffffff1673ffffffffffffffffffffffffffffffffffffffff16815260200160038201805480602002602001604051908101604052809291908181526020018280548015611df357602002820191906000526020600020905b8160009054906101000a900473ffffffffffffffffffffffffffffffffffffffff1673ffffffffffffffffffffffffffffffffffffffff1681526020019060010190808311611da9575b5050505050815250508152602001600582016040518060800160405290816000820160405180604001604052908160008201548152602001600182015481525050815260200160028201604051806040016040529081600082015481526020016001820154815250508152602001600482016040518060400160405290816000820154815260200160018201548152505081526020016006820160405180604001604052908160008201548152602001600182015481525050815250508152602001600d8201604051806080016040529081600082015481526020016001820154815260200160028201548152602001600382015481525050815250509050919050565b611eff61236c565b50611f0b8160046119dd565b611f4a576040517f08c379a0000000000000000000000000000000000000000000000000000000008152600401611f4190614332565b60405180910390fd5b42600582604051611f5b9190613e30565b9081526020016040518091039020600d0181905550611f7b81600a612375565b50565b611f8661236c565b50611f928160026119dd565b611fd1576040517f08c379a0000000000000000000000000000000000000000000000000000000008152600401611fc890613dd4565b60405180910390fd5b42600582604051611fe29190613e30565b9081526020016040518091039020600c0181905550612002816009612375565b50565b61200d612d16565b61201561236c565b5061201f82610678565b61205e576040517f08c379a00000000000000000000000000000000000000000000000000000000081526004016120559061417d565b60405180910390fd5b60006005836040516120709190613e30565b908152602001604051809103902060010154146120c2576040517f08c379a00000000000000000000000000000000000000000000000000000000081526004016120b990614493565b60405180910390fd5b426005836040516120d39190613e30565b9081526020016040518091039020600101819055506120f1826123fb565b6005826040516121019190613e30565b9081526020016040518091039020604051806101c00160405290816000820160009054906101000a900460ff16600a8111156121405761213f6134be565b5b600a811115612152576121516134be565b5b8152602001600182015481526020016002820154815260200160038201548152602001600482015481526020016005820154815260200160068201548152602001600782015481526020016008820154815260200160098201548152602001600a8201548152602001600b8201548152602001600c8201548152602001600d820154815250509050919050565b6121e76124b4565b600073ffffffffffffffffffffffffffffffffffffffff168173ffffffffffffffffffffffffffffffffffffffff1603612256576040517f08c379a000000000000000000000000000000000000000000000000000000000815260040161224d90614525565b60405180910390fd5b61225f81612532565b50565b61226a6124b4565b600073ffffffffffffffffffffffffffffffffffffffff168173ffffffffffffffffffffffffffffffffffffffff16036122d9576040517f08c379a00000000000000000000000000000000000000000000000000000000081526004016122d0906145b7565b60405180910390fd5b600160149054906101000a900460ff16612328576040517f08c379a000000000000000000000000000000000000000000000000000000000815260040161231f90614649565b60405180910390fd5b80600160006101000a81548173ffffffffffffffffffffffffffffffffffffffff021916908373ffffffffffffffffffffffffffffffffffffffff16021790555050565b60006001905090565b806005836040516123869190613e30565b908152602001604051809103902060000160006101000a81548160ff0219169083600a8111156123b9576123b86134be565b5b02179055507f10ca3d89184491f5d8de422bd36534abe6eb4b4aa1429a261bdb5ff1dd9ac38682826040516123ef9291906146b1565b60405180910390a15050565b600060058260405161240d9190613e30565b9081526020016040518091039020600101541415801561244f5750600060058260405161243a9190613e30565b90815260200160405180910390206002015414155b1561248a57426005826040516124659190613e30565b908152602001604051809103902060040181905550612485816001612375565b6124b1565b4260058260405161249b9190613e30565b9081526020016040518091039020600301819055505b50565b6124bc612c4e565b73ffffffffffffffffffffffffffffffffffffffff166124da611282565b73ffffffffffffffffffffffffffffffffffffffff1614612530576040517f08c379a00000000000000000000000000000000000000000000000000000000081526004016125279061472d565b60405180910390fd5b565b60008060009054906101000a900473ffffffffffffffffffffffffffffffffffffffff169050816000806101000a81548173ffffffffffffffffffffffffffffffffffffffff021916908373ffffffffffffffffffffffffffffffffffffffff1602179055508173ffffffffffffffffffffffffffffffffffffffff168173ffffffffffffffffffffffffffffffffffffffff167f8be0079c531659141344cd1fd0a4f28419497f9722a3daafe3b4186f6b6457e060405160405180910390a35050565b6000808273ffffffffffffffffffffffffffffffffffffffff163b119050919050565b600073ffffffffffffffffffffffffffffffffffffffff16816040015173ffffffffffffffffffffffffffffffffffffffff160361268c576040517f08c379a000000000000000000000000000000000000000000000000000000000815260040161268390614799565b60405180910390fd5b600073ffffffffffffffffffffffffffffffffffffffff16816020015173ffffffffffffffffffffffffffffffffffffffff16036126ff576040517f08c379a00000000000000000000000000000000000000000000000000000000081526004016126f690614805565b60405180910390fd5b600073ffffffffffffffffffffffffffffffffffffffff16816000015173ffffffffffffffffffffffffffffffffffffffff1603612772576040517f08c379a000000000000000000000000000000000000000000000000000000000815260040161276990614871565b60405180910390fd5b6000816060015151116127ba576040517f08c379a00000000000000000000000000000000000000000000000000000000081526004016127b1906148dd565b60405180910390fd5b50565b600081600001516020015114612808576040517f08c379a00000000000000000000000000000000000000000000000000000000081526004016127ff90614949565b60405180910390fd5b600081606001516020015114612853576040517f08c379a000000000000000000000000000000000000000000000000000000000815260040161284a906149b5565b60405180910390fd5b50565b806040015173ffffffffffffffffffffffffffffffffffffffff16826040015173ffffffffffffffffffffffffffffffffffffffff16146128cc576040517f08c379a00000000000000000000000000000000000000000000000000000000081526004016128c390614a21565b60405180910390fd5b806020015173ffffffffffffffffffffffffffffffffffffffff16826020015173ffffffffffffffffffffffffffffffffffffffff1614612942576040517f08c379a000000000000000000000000000000000000000000000000000000000815260040161293990614a8d565b60405180910390fd5b806000015173ffffffffffffffffffffffffffffffffffffffff16826000015173ffffffffffffffffffffffffffffffffffffffff16146129b8576040517f08c379a00000000000000000000000000000000000000000000000000000000081526004016129af90614af9565b60405180910390fd5b80606001515182606001515114612a04576040517f08c379a00000000000000000000000000000000000000000000000000000000081526004016129fb90614b65565b60405180910390fd5b60005b826060015151811015612ad15781606001518181518110612a2b57612a2a614b85565b5b602002602001015173ffffffffffffffffffffffffffffffffffffffff1683606001518281518110612a6057612a5f614b85565b5b602002602001015173ffffffffffffffffffffffffffffffffffffffff1614612abe576040517f08c379a0000000000000000000000000000000000000000000000000000000008152600401612ab590614c00565b60405180910390fd5b8080612ac990614c20565b915050612a07565b505050565b612ae882600001518260000151612c56565b612afa82602001518260200151612c56565b612b0c82604001518260400151612c56565b612b1e82606001518260600151612c56565b5050565b8060000151826000015114612b6c576040517f08c379a0000000000000000000000000000000000000000000000000000000008152600401612b6390614cb4565b60405180910390fd5b8060200151826020015114612bb6576040517f08c379a0000000000000000000000000000000000000000000000000000000008152600401612bad90614d20565b60405180910390fd5b8060400151826040015114612c00576040517f08c379a0000000000000000000000000000000000000000000000000000000008152600401612bf790614d8c565b60405180910390fd5b8060600151826060015114612c4a576040517f08c379a0000000000000000000000000000000000000000000000000000000008152600401612c4190614df8565b60405180910390fd5b5050565b600033905090565b8060000151826000015114612ca0576040517f08c379a0000000000000000000000000000000000000000000000000000000008152600401612c9790614e64565b60405180910390fd5b8060200151826020015114612cea576040517f08c379a0000000000000000000000000000000000000000000000000000000008152600401612ce190614ed0565b60405180910390fd5b5050565b6040518060800160405280606081526020016060815260200160608152602001600081525090565b604051806101c001604052806000600a811115612d3657612d356134be565b5b8152602001600081526020016000815260200160008152602001600081526020016000815260200160008152602001600081526020016000815260200160008152602001600081526020016000815260200160008152602001600081525090565b604051806080016040528060608152602001612db1612e5b565b8152602001612dbe612ec5565b8152602001612dcb612f05565b81525090565b828054828255906000526020600020908101928215612e4a579160200282015b82811115612e495782518260006101000a81548173ffffffffffffffffffffffffffffffffffffffff021916908373ffffffffffffffffffffffffffffffffffffffff16021790555091602001919060010190612df1565b5b509050612e579190612f2d565b5090565b6040518060800160405280600073ffffffffffffffffffffffffffffffffffffffff168152602001600073ffffffffffffffffffffffffffffffffffffffff168152602001600073ffffffffffffffffffffffffffffffffffffffff168152602001606081525090565b6040518060800160405280612ed8612f4a565b8152602001612ee5612f4a565b8152602001612ef2612f4a565b8152602001612eff612f4a565b81525090565b6040518060800160405280600081526020016000815260200160008152602001600081525090565b5b80821115612f46576000816000905550600101612f2e565b5090565b604051806040016040528060008152602001600081525090565b6000604051905090565b600080fd5b600080fd5b600073ffffffffffffffffffffffffffffffffffffffff82169050919050565b6000612fa382612f78565b9050919050565b612fb381612f98565b8114612fbe57600080fd5b50565b600081359050612fd081612faa565b92915050565b600060208284031215612fec57612feb612f6e565b5b6000612ffa84828501612fc1565b91505092915050565b600081519050919050565b600082825260208201905092915050565b6000819050602082019050919050565b600081519050919050565b600082825260208201905092915050565b60005b8381101561306957808201518184015260208101905061304e565b60008484015250505050565b6000601f19601f8301169050919050565b60006130918261302f565b61309b818561303a565b93506130ab81856020860161304b565b6130b481613075565b840191505092915050565b60006130cb8383613086565b905092915050565b6000602082019050919050565b60006130eb82613003565b6130f5818561300e565b9350836020820285016131078561301f565b8060005b85811015613143578484038952815161312485826130bf565b945061312f836130d3565b925060208a0199505060018101905061310b565b50829750879550505050505092915050565b6000602082019050818103600083015261316f81846130e0565b905092915050565b600080fd5b600080fd5b7f4e487b7100000000000000000000000000000000000000000000000000000000600052604160045260246000fd5b6131b982613075565b810181811067ffffffffffffffff821117156131d8576131d7613181565b5b80604052505050565b60006131eb612f64565b90506131f782826131b0565b919050565b600067ffffffffffffffff82111561321757613216613181565b5b61322082613075565b9050602081019050919050565b82818337600083830152505050565b600061324f61324a846131fc565b6131e1565b90508281526020810184848401111561326b5761326a61317c565b5b61327684828561322d565b509392505050565b600082601f83011261329357613292613177565b5b81356132a384826020860161323c565b91505092915050565b6000602082840312156132c2576132c1612f6e565b5b600082013567ffffffffffffffff8111156132e0576132df612f73565b5b6132ec8482850161327e565b91505092915050565b60008115159050919050565b61330a816132f5565b82525050565b60006020820190506133256000830184613301565b92915050565b6000819050919050565b61333e8161332b565b811461334957600080fd5b50565b60008135905061335b81613335565b92915050565b6000806000806080858703121561337b5761337a612f6e565b5b600085013567ffffffffffffffff81111561339957613398612f73565b5b6133a58782880161327e565b945050602085013567ffffffffffffffff8111156133c6576133c5612f73565b5b6133d28782880161327e565b935050604085013567ffffffffffffffff8111156133f3576133f2612f73565b5b6133ff8782880161327e565b92505060606134108782880161334c565b91505092959194509250565b6134258161332b565b82525050565b600060808301600083015184820360008601526134488282613086565b915050602083015184820360208601526134628282613086565b9150506040830151848203604086015261347c8282613086565b9150506060830151613491606086018261341c565b508091505092915050565b600060208201905081810360008301526134b6818461342b565b905092915050565b7f4e487b7100000000000000000000000000000000000000000000000000000000600052602160045260246000fd5b600b81106134fe576134fd6134be565b5b50565b600081905061350f826134ed565b919050565b600061351f82613501565b9050919050565b61352f81613514565b82525050565b6101c08201600082015161354c6000850182613526565b50602082015161355f602085018261341c565b506040820151613572604085018261341c565b506060820151613585606085018261341c565b506080820151613598608085018261341c565b5060a08201516135ab60a085018261341c565b5060c08201516135be60c085018261341c565b5060e08201516135d160e085018261341c565b506101008201516135e661010085018261341c565b506101208201516135fb61012085018261341c565b5061014082015161361061014085018261341c565b5061016082015161362561016085018261341c565b5061018082015161363a61018085018261341c565b506101a082015161364f6101a085018261341c565b50505050565b60006101c08201905061366b6000830184613535565b92915050565b61367a8161332b565b82525050565b60006020820190506136956000830184613671565b92915050565b6136a481612f98565b82525050565b60006020820190506136bf600083018461369b565b92915050565b600080fd5b600080fd5b600067ffffffffffffffff8211156136ea576136e9613181565b5b602082029050602081019050919050565b600080fd5b600061371361370e846136cf565b6131e1565b90508083825260208201905060208402830185811115613736576137356136fb565b5b835b8181101561375f578061374b8882612fc1565b845260208401935050602081019050613738565b5050509392505050565b600082601f83011261377e5761377d613177565b5b813561378e848260208601613700565b91505092915050565b6000608082840312156137ad576137ac6136c5565b5b6137b760806131e1565b905060006137c784828501612fc1565b60008301525060206137db84828501612fc1565b60208301525060406137ef84828501612fc1565b604083015250606082013567ffffffffffffffff811115613813576138126136ca565b5b61381f84828501613769565b60608301525092915050565b600060408284031215613841576138406136c5565b5b61384b60406131e1565b9050600061385b8482850161334c565b600083015250602061386f8482850161334c565b60208301525092915050565b60006101008284031215613892576138916136c5565b5b61389c60806131e1565b905060006138ac8482850161382b565b60008301525060406138c08482850161382b565b60208301525060806138d48482850161382b565b60408301525060c06138e88482850161382b565b60608301525092915050565b60006080828403121561390a576139096136c5565b5b61391460806131e1565b905060006139248482850161334c565b60008301525060206139388482850161334c565b602083015250604061394c8482850161334c565b60408301525060606139608482850161334c565b60608301525092915050565b6000806000806101c0858703121561398757613986612f6e565b5b600085013567ffffffffffffffff8111156139a5576139a4612f73565b5b6139b18782880161327e565b945050602085013567ffffffffffffffff8111156139d2576139d1612f73565b5b6139de87828801613797565b93505060406139ef8782880161387b565b925050610140613a01878288016138f4565b91505092959194509250565b613a1681612f98565b82525050565b600081519050919050565b600082825260208201905092915050565b6000819050602082019050919050565b6000613a548383613a0d565b60208301905092915050565b6000602082019050919050565b6000613a7882613a1c565b613a828185613a27565b9350613a8d83613a38565b8060005b83811015613abe578151613aa58882613a48565b9750613ab083613a60565b925050600181019050613a91565b5085935050505092915050565b6000608083016000830151613ae36000860182613a0d565b506020830151613af66020860182613a0d565b506040830151613b096040860182613a0d565b5060608301518482036060860152613b218282613a6d565b9150508091505092915050565b604082016000820151613b44600085018261341c565b506020820151613b57602085018261341c565b50505050565b61010082016000820151613b746000850182613b2e565b506020820151613b876040850182613b2e565b506040820151613b9a6080850182613b2e565b506060820151613bad60c0850182613b2e565b50505050565b608082016000820151613bc9600085018261341c565b506020820151613bdc602085018261341c565b506040820151613bef604085018261341c565b506060820151613c02606085018261341c565b50505050565b60006101c0830160008301518482036000860152613c268282613086565b91505060208301518482036020860152613c408282613acb565b9150506040830151613c556040860182613b5d565b506060830151613c69610140860182613bb3565b508091505092915050565b60006020820190508181036000830152613c8e8184613c08565b905092915050565b600b8110613ca357600080fd5b50565b600081359050613cb581613c96565b92915050565b60008060408385031215613cd257613cd1612f6e565b5b600083013567ffffffffffffffff811115613cf057613cef612f73565b5b613cfc8582860161327e565b9250506020613d0d85828601613ca6565b9150509250929050565b7f4e487b7100000000000000000000000000000000000000000000000000000000600052602260045260246000fd5b60006002820490506001821680613d5e57607f821691505b602082108103613d7157613d70613d17565b5b50919050565b600082825260208201905092915050565b7f526573756c74735375626d697474656400000000000000000000000000000000600082015250565b6000613dbe601083613d77565b9150613dc982613d88565b602082019050919050565b60006020820190508181036000830152613ded81613db1565b9050919050565b600081905092915050565b6000613e0a8261302f565b613e148185613df4565b9350613e2481856020860161304b565b80840191505092915050565b6000613e3c8284613dff565b915081905092915050565b7f4465616c41677265656400000000000000000000000000000000000000000000600082015250565b6000613e7d600a83613d77565b9150613e8882613e47565b602082019050919050565b60006020820190508181036000830152613eac81613e70565b9050919050565b60008190508160005260206000209050919050565b60006020601f8301049050919050565b600082821b905092915050565b600060088302613f157fffffffffffffffffffffffffffffffffffffffffffffffffffffffffffffffff82613ed8565b613f1f8683613ed8565b95508019841693508086168417925050509392505050565b6000819050919050565b6000613f5c613f57613f528461332b565b613f37565b61332b565b9050919050565b6000819050919050565b613f7683613f41565b613f8a613f8282613f63565b848454613ee5565b825550505050565b600090565b613f9f613f92565b613faa818484613f6d565b505050565b5b81811015613fce57613fc3600082613f97565b600181019050613fb0565b5050565b601f82111561401357613fe481613eb3565b613fed84613ec8565b81016020851015613ffc578190505b61401061400885613ec8565b830182613faf565b50505b505050565b600082821c905092915050565b600061403660001984600802614018565b1980831691505092915050565b600061404f8383614025565b9150826002028217905092915050565b6140688261302f565b67ffffffffffffffff81111561408157614080613181565b5b61408b8254613d46565b614096828285613fd2565b600060209050601f8311600181146140c957600084156140b7578287015190505b6140c18582614043565b865550614129565b601f1984166140d786613eb3565b60005b828110156140ff578489015182556001820191506020850194506020810190506140da565b8683101561411c5784890151614118601f891682614025565b8355505b6001600288020188555050505b505050505050565b7f4465616c20646f6573206e6f7420657869737400000000000000000000000000600082015250565b6000614167601383613d77565b915061417282614131565b602082019050919050565b600060208201905081810360008301526141968161415a565b9050919050565b7f4a432068617320616c7265616479206167726565640000000000000000000000600082015250565b60006141d3601583613d77565b91506141de8261419d565b602082019050919050565b60006020820190508181036000830152614202816141c6565b9050919050565b7f4e487b7100000000000000000000000000000000000000000000000000000000600052601160045260246000fd5b60006142438261332b565b915061424e8361332b565b925082820261425c8161332b565b9150828204841483151761427357614272614209565b5b5092915050565b7f4465616c4e65676f74696174696e670000000000000000000000000000000000600082015250565b60006142b0600f83613d77565b91506142bb8261427a565b602082019050919050565b600060208201905081810360008301526142df816142a3565b9050919050565b7f526573756c7473436865636b6564000000000000000000000000000000000000600082015250565b600061431c600e83613d77565b9150614327826142e6565b602082019050919050565b6000602082019050818103600083015261434b8161430f565b9050919050565b7f496e697469616c697a61626c653a20636f6e747261637420697320616c72656160008201527f647920696e697469616c697a6564000000000000000000000000000000000000602082015250565b60006143ae602e83613d77565b91506143b982614352565b604082019050919050565b600060208201905081810360008301526143dd816143a1565b9050919050565b6000819050919050565b600060ff82169050919050565b600061441661441161440c846143e4565b613f37565b6143ee565b9050919050565b614426816143fb565b82525050565b6000602082019050614441600083018461441d565b92915050565b7f52502068617320616c7265616479206167726565640000000000000000000000600082015250565b600061447d601583613d77565b915061448882614447565b602082019050919050565b600060208201905081810360008301526144ac81614470565b9050919050565b7f4f776e61626c653a206e6577206f776e657220697320746865207a65726f206160008201527f6464726573730000000000000000000000000000000000000000000000000000602082015250565b600061450f602683613d77565b915061451a826144b3565b604082019050919050565b6000602082019050818103600083015261453e81614502565b9050919050565b7f436f6e74726f6c6c65724f776e61626c653a20436f6e74726f6c6c657220616460008201527f6472657373206d75737420626520646566696e65640000000000000000000000602082015250565b60006145a1603583613d77565b91506145ac82614545565b604082019050919050565b600060208201905081810360008301526145d081614594565b9050919050565b7f436f6e74726f6c6c65724f776e61626c653a2063616e4368616e6765436f6e7460008201527f726f6c6c6572416464726573732069732064697361626c656400000000000000602082015250565b6000614633603983613d77565b915061463e826145d7565b604082019050919050565b6000602082019050818103600083015261466281614626565b9050919050565b60006146748261302f565b61467e8185613d77565b935061468e81856020860161304b565b61469781613075565b840191505092915050565b6146ab81613514565b82525050565b600060408201905081810360008301526146cb8185614669565b90506146da60208301846146a2565b9392505050565b7f4f776e61626c653a2063616c6c6572206973206e6f7420746865206f776e6572600082015250565b6000614717602083613d77565b9150614722826146e1565b602082019050919050565b600060208201905081810360008301526147468161470a565b9050919050565b7f5250206d697373696e6700000000000000000000000000000000000000000000600082015250565b6000614783600a83613d77565b915061478e8261474d565b602082019050919050565b600060208201905081810360008301526147b281614776565b9050919050565b7f4a43206d697373696e6700000000000000000000000000000000000000000000600082015250565b60006147ef600a83613d77565b91506147fa826147b9565b602082019050919050565b6000602082019050818103600083015261481e816147e2565b9050919050565b7f536f6c766572206d697373696e67000000000000000000000000000000000000600082015250565b600061485b600e83613d77565b915061486682614825565b602082019050919050565b6000602082019050818103600083015261488a8161484e565b9050919050565b7f4d65646961746f7273203c3d2030000000000000000000000000000000000000600082015250565b60006148c7600e83613d77565b91506148d282614891565b602082019050919050565b600060208201905081810360008301526148f6816148ba565b9050919050565b7f4167726565206465706f736974206d7573742062652030000000000000000000600082015250565b6000614933601783613d77565b915061493e826148fd565b602082019050919050565b6000602082019050818103600083015261496281614926565b9050919050565b7f4d656469617465206465706f736974206d757374206265203000000000000000600082015250565b600061499f601983613d77565b91506149aa82614969565b602082019050919050565b600060208201905081810360008301526149ce81614992565b9050919050565b7f5250000000000000000000000000000000000000000000000000000000000000600082015250565b6000614a0b600283613d77565b9150614a16826149d5565b602082019050919050565b60006020820190508181036000830152614a3a816149fe565b9050919050565b7f4a43000000000000000000000000000000000000000000000000000000000000600082015250565b6000614a77600283613d77565b9150614a8282614a41565b602082019050919050565b60006020820190508181036000830152614aa681614a6a565b9050919050565b7f536f6c7665720000000000000000000000000000000000000000000000000000600082015250565b6000614ae3600683613d77565b9150614aee82614aad565b602082019050919050565b60006020820190508181036000830152614b1281614ad6565b9050919050565b7f4d65646961746f72730000000000000000000000000000000000000000000000600082015250565b6000614b4f600983613d77565b9150614b5a82614b19565b602082019050919050565b60006020820190508181036000830152614b7e81614b42565b9050919050565b7f4e487b7100000000000000000000000000000000000000000000000000000000600052603260045260246000fd5b7f4d65646961746f72000000000000000000000000000000000000000000000000600082015250565b6000614bea600883613d77565b9150614bf582614bb4565b602082019050919050565b60006020820190508181036000830152614c1981614bdd565b9050919050565b6000614c2b8261332b565b91507fffffffffffffffffffffffffffffffffffffffffffffffffffffffffffffffff8203614c5d57614c5c614209565b5b600182019050919050565b7f5072696365000000000000000000000000000000000000000000000000000000600082015250565b6000614c9e600583613d77565b9150614ca982614c68565b602082019050919050565b60006020820190508181036000830152614ccd81614c91565b9050919050565b7f5061796d656e7400000000000000000000000000000000000000000000000000600082015250565b6000614d0a600783613d77565b9150614d1582614cd4565b602082019050919050565b60006020820190508181036000830152614d3981614cfd565b9050919050565b7f526573756c747300000000000000000000000000000000000000000000000000600082015250565b6000614d76600783613d77565b9150614d8182614d40565b602082019050919050565b60006020820190508181036000830152614da581614d69565b9050919050565b7f4d6564696174696f6e0000000000000000000000000000000000000000000000600082015250565b6000614de2600983613d77565b9150614ded82614dac565b602082019050919050565b60006020820190508181036000830152614e1181614dd5565b9050919050565b7f54696d656f757400000000000000000000000000000000000000000000000000600082015250565b6000614e4e600783613d77565b9150614e5982614e18565b602082019050919050565b60006020820190508181036000830152614e7d81614e41565b9050919050565b7f436f6c6c61746572616c00000000000000000000000000000000000000000000600082015250565b6000614eba600a83613d77565b9150614ec582614e84565b602082019050919050565b60006020820190508181036000830152614ee981614ead565b905091905056fea26469706673582212202fb1ad7ba118fdc8ec7006f1eb2a22bc62a2e0b13822be1bb398faa1b711af7b64736f6c63430008150033","opcodes":"PUSH1 0x80 PUSH1 0x40 MSTORE PUSH1 0x1 DUP1 PUSH1 0x14 PUSH2 0x100 EXP DUP2 SLOAD DUP2 PUSH1 0xFF MUL NOT AND SWAP1 DUP4 ISZERO ISZERO MUL OR SWAP1 SSTORE POP PUSH1 0x1 PUSH1 0x2 PUSH1 0x14 PUSH2 0x100 EXP DUP2 SLOAD DUP2 PUSH1 0xFF MUL NOT AND SWAP1 DUP4 ISZERO ISZERO MUL OR SWAP1 SSTORE POP CALLVALUE DUP1 ISZERO PUSH3 0x46 JUMPI PUSH1 0x0 DUP1 REVERT JUMPDEST POP PUSH3 0x67 PUSH3 0x5B PUSH3 0x6D PUSH1 0x20 SHL PUSH1 0x20 SHR JUMP JUMPDEST PUSH3 0x75 PUSH1 0x20 SHL PUSH1 0x20 SHR JUMP JUMPDEST PUSH3 0x139 JUMP JUMPDEST PUSH1 0x0 CALLER SWAP1 POP SWAP1 JUMP JUMPDEST PUSH1 0x0 DUP1 PUSH1 0x0 SWAP1 SLOAD SWAP1 PUSH2 0x100 EXP SWAP1 DIV PUSH20 0xFFFFFFFFFFFFFFFFFFFFFFFFFFFFFFFFFFFFFFFF AND SWAP1 POP DUP2 PUSH1 0x0 DUP1 PUSH2 0x100 EXP DUP2 SLOAD DUP2 PUSH20 0xFFFFFFFFFFFFFFFFFFFFFFFFFFFFFFFFFFFFFFFF MUL NOT AND SWAP1 DUP4 PUSH20 0xFFFFFFFFFFFFFFFFFFFFFFFFFFFFFFFFFFFFFFFF AND MUL OR SWAP1 SSTORE POP DUP2 PUSH20 0xFFFFFFFFFFFFFFFFFFFFFFFFFFFFFFFFFFFFFFFF AND DUP2 PUSH20 0xFFFFFFFFFFFFFFFFFFFFFFFFFFFFFFFFFFFFFFFF AND PUSH32 0x8BE0079C531659141344CD1FD0A4F28419497F9722A3DAAFE3B4186F6B6457E0 PUSH1 0x40 MLOAD PUSH1 0x40 MLOAD DUP1 SWAP2 SUB SWAP1 LOG3 POP POP JUMP JUMPDEST PUSH2 0x4F26 DUP1 PUSH3 0x149 PUSH1 0x0 CODECOPY PUSH1 0x0 RETURN INVALID PUSH1 0x80 PUSH1 0x40 MSTORE CALLVALUE DUP1 ISZERO PUSH2 0x10 JUMPI PUSH1 0x0 DUP1 REVERT JUMPDEST POP PUSH1 0x4 CALLDATASIZE LT PUSH2 0x1A9 JUMPI PUSH1 0x0 CALLDATALOAD PUSH1 0xE0 SHR DUP1 PUSH4 0x8224CE5F GT PUSH2 0xF9 JUMPI DUP1 PUSH4 0xCDD82D1D GT PUSH2 0x97 JUMPI DUP1 PUSH4 0xE850BE37 GT PUSH2 0x71 JUMPI DUP1 PUSH4 0xE850BE37 EQ PUSH2 0x4DC JUMPI DUP1 PUSH4 0xEC95B967 EQ PUSH2 0x4F8 JUMPI DUP1 PUSH4 0xF2FDE38B EQ PUSH2 0x528 JUMPI DUP1 PUSH4 0xF3D3D448 EQ PUSH2 0x544 JUMPI PUSH2 0x1A9 JUMP JUMPDEST DUP1 PUSH4 0xCDD82D1D EQ PUSH2 0x460 JUMPI DUP1 PUSH4 0xE7079180 EQ PUSH2 0x490 JUMPI DUP1 PUSH4 0xE7B957D1 EQ PUSH2 0x4C0 JUMPI PUSH2 0x1A9 JUMP JUMPDEST DUP1 PUSH4 0xA4702958 GT PUSH2 0xD3 JUMPI DUP1 PUSH4 0xA4702958 EQ PUSH2 0x3D8 JUMPI DUP1 PUSH4 0xA6370B0E EQ PUSH2 0x3E2 JUMPI DUP1 PUSH4 0xB050E74B EQ PUSH2 0x412 JUMPI DUP1 PUSH4 0xC57380A2 EQ PUSH2 0x442 JUMPI PUSH2 0x1A9 JUMP JUMPDEST DUP1 PUSH4 0x8224CE5F EQ PUSH2 0x36E JUMPI DUP1 PUSH4 0x824518AA EQ PUSH2 0x39E JUMPI DUP1 PUSH4 0x8DA5CB5B EQ PUSH2 0x3BA JUMPI PUSH2 0x1A9 JUMP JUMPDEST DUP1 PUSH4 0x498CC70D GT PUSH2 0x166 JUMPI DUP1 PUSH4 0x73DB5C6A GT PUSH2 0x140 JUMPI DUP1 PUSH4 0x73DB5C6A EQ PUSH2 0x2FC JUMPI DUP1 PUSH4 0x795F9ABF EQ PUSH2 0x32C JUMPI DUP1 PUSH4 0x80FFDFE0 EQ PUSH2 0x348 JUMPI DUP1 PUSH4 0x8129FC1C EQ PUSH2 0x364 JUMPI PUSH2 0x1A9 JUMP JUMPDEST DUP1 PUSH4 0x498CC70D EQ PUSH2 0x2A6 JUMPI DUP1 PUSH4 0x511A9F68 EQ PUSH2 0x2D6 JUMPI DUP1 PUSH4 0x715018A6 EQ PUSH2 0x2F2 JUMPI PUSH2 0x1A9 JUMP JUMPDEST DUP1 PUSH4 0x11D5AF33 EQ PUSH2 0x1AE JUMPI DUP1 PUSH4 0x2244AD2B EQ PUSH2 0x1DE JUMPI DUP1 PUSH4 0x297F9E55 EQ PUSH2 0x20E JUMPI DUP1 PUSH4 0x3955548E EQ PUSH2 0x22A JUMPI DUP1 PUSH4 0x3C4135DA EQ PUSH2 0x25A JUMPI DUP1 PUSH4 0x46834D1E EQ PUSH2 0x28A JUMPI JUMPDEST PUSH1 0x0 DUP1 REVERT JUMPDEST PUSH2 0x1C8 PUSH1 0x4 DUP1 CALLDATASIZE SUB DUP2 ADD SWAP1 PUSH2 0x1C3 SWAP2 SWAP1 PUSH2 0x2FD6 JUMP JUMPDEST PUSH2 0x560 JUMP JUMPDEST PUSH1 0x40 MLOAD PUSH2 0x1D5 SWAP2 SWAP1 PUSH2 0x3155 JUMP JUMPDEST PUSH1 0x40 MLOAD DUP1 SWAP2 SUB SWAP1 RETURN JUMPDEST PUSH2 0x1F8 PUSH1 0x4 DUP1 CALLDATASIZE SUB DUP2 ADD SWAP1 PUSH2 0x1F3 SWAP2 SWAP1 PUSH2 0x32AC JUMP JUMPDEST PUSH2 0x678 JUMP JUMPDEST PUSH1 0x40 MLOAD PUSH2 0x205 SWAP2 SWAP1 PUSH2 0x3310 JUMP JUMPDEST PUSH1 0x40 MLOAD DUP1 SWAP2 SUB SWAP1 RETURN JUMPDEST PUSH2 0x228 PUSH1 0x4 DUP1 CALLDATASIZE SUB DUP2 ADD SWAP1 PUSH2 0x223 SWAP2 SWAP1 PUSH2 0x32AC JUMP JUMPDEST PUSH2 0x691 JUMP JUMPDEST STOP JUMPDEST PUSH2 0x244 PUSH1 0x4 DUP1 CALLDATASIZE SUB DUP2 ADD SWAP1 PUSH2 0x23F SWAP2 SWAP1 PUSH2 0x3361 JUMP JUMPDEST PUSH2 0x718 JUMP JUMPDEST PUSH1 0x40 MLOAD PUSH2 0x251 SWAP2 SWAP1 PUSH2 0x349C JUMP JUMPDEST PUSH1 0x40 MLOAD DUP1 SWAP2 SUB SWAP1 RETURN JUMPDEST PUSH2 0x274 PUSH1 0x4 DUP1 CALLDATASIZE SUB DUP2 ADD SWAP1 PUSH2 0x26F SWAP2 SWAP1 PUSH2 0x32AC JUMP JUMPDEST PUSH2 0xA25 JUMP JUMPDEST PUSH1 0x40 MLOAD PUSH2 0x281 SWAP2 SWAP1 PUSH2 0x3655 JUMP JUMPDEST PUSH1 0x40 MLOAD DUP1 SWAP2 SUB SWAP1 RETURN JUMPDEST PUSH2 0x2A4 PUSH1 0x4 DUP1 CALLDATASIZE SUB DUP2 ADD SWAP1 PUSH2 0x29F SWAP2 SWAP1 PUSH2 0x32AC JUMP JUMPDEST PUSH2 0xBFF JUMP JUMPDEST STOP JUMPDEST PUSH2 0x2C0 PUSH1 0x4 DUP1 CALLDATASIZE SUB DUP2 ADD SWAP1 PUSH2 0x2BB SWAP2 SWAP1 PUSH2 0x32AC JUMP JUMPDEST PUSH2 0xC86 JUMP JUMPDEST PUSH1 0x40 MLOAD PUSH2 0x2CD SWAP2 SWAP1 PUSH2 0x349C JUMP JUMPDEST PUSH1 0x40 MLOAD DUP1 SWAP2 SUB SWAP1 RETURN JUMPDEST PUSH2 0x2F0 PUSH1 0x4 DUP1 CALLDATASIZE SUB DUP2 ADD SWAP1 PUSH2 0x2EB SWAP2 SWAP1 PUSH2 0x32AC JUMP JUMPDEST PUSH2 0xE7E JUMP JUMPDEST STOP JUMPDEST PUSH2 0x2FA PUSH2 0xF05 JUMP JUMPDEST STOP JUMPDEST PUSH2 0x316 PUSH1 0x4 DUP1 CALLDATASIZE SUB DUP2 ADD SWAP1 PUSH2 0x311 SWAP2 SWAP1 PUSH2 0x32AC JUMP JUMPDEST PUSH2 0xF19 JUMP JUMPDEST PUSH1 0x40 MLOAD PUSH2 0x323 SWAP2 SWAP1 PUSH2 0x3680 JUMP JUMPDEST PUSH1 0x40 MLOAD DUP1 SWAP2 SUB SWAP1 RETURN JUMPDEST PUSH2 0x346 PUSH1 0x4 DUP1 CALLDATASIZE SUB DUP2 ADD SWAP1 PUSH2 0x341 SWAP2 SWAP1 PUSH2 0x32AC JUMP JUMPDEST PUSH2 0xF73 JUMP JUMPDEST STOP JUMPDEST PUSH2 0x362 PUSH1 0x4 DUP1 CALLDATASIZE SUB DUP2 ADD SWAP1 PUSH2 0x35D SWAP2 SWAP1 PUSH2 0x32AC JUMP JUMPDEST PUSH2 0xFFA JUMP JUMPDEST STOP JUMPDEST PUSH2 0x36C PUSH2 0x1081 JUMP JUMPDEST STOP JUMPDEST PUSH2 0x388 PUSH1 0x4 DUP1 CALLDATASIZE SUB DUP2 ADD SWAP1 PUSH2 0x383 SWAP2 SWAP1 PUSH2 0x32AC JUMP JUMPDEST PUSH2 0x11BA JUMP JUMPDEST PUSH1 0x40 MLOAD PUSH2 0x395 SWAP2 SWAP1 PUSH2 0x3680 JUMP JUMPDEST PUSH1 0x40 MLOAD DUP1 SWAP2 SUB SWAP1 RETURN JUMPDEST PUSH2 0x3B8 PUSH1 0x4 DUP1 CALLDATASIZE SUB DUP2 ADD SWAP1 PUSH2 0x3B3 SWAP2 SWAP1 PUSH2 0x32AC JUMP JUMPDEST PUSH2 0x11FB JUMP JUMPDEST STOP JUMPDEST PUSH2 0x3C2 PUSH2 0x1282 JUMP JUMPDEST PUSH1 0x40 MLOAD PUSH2 0x3CF SWAP2 SWAP1 PUSH2 0x36AA JUMP JUMPDEST PUSH1 0x40 MLOAD DUP1 SWAP2 SUB SWAP1 RETURN JUMPDEST PUSH2 0x3E0 PUSH2 0x12AB JUMP JUMPDEST STOP JUMPDEST PUSH2 0x3FC PUSH1 0x4 DUP1 CALLDATASIZE SUB DUP2 ADD SWAP1 PUSH2 0x3F7 SWAP2 SWAP1 PUSH2 0x396C JUMP JUMPDEST PUSH2 0x12D0 JUMP JUMPDEST PUSH1 0x40 MLOAD PUSH2 0x409 SWAP2 SWAP1 PUSH2 0x3C74 JUMP JUMPDEST PUSH1 0x40 MLOAD DUP1 SWAP2 SUB SWAP1 RETURN JUMPDEST PUSH2 0x42C PUSH1 0x4 DUP1 CALLDATASIZE SUB DUP2 ADD SWAP1 PUSH2 0x427 SWAP2 SWAP1 PUSH2 0x3CBB JUMP JUMPDEST PUSH2 0x19DD JUMP JUMPDEST PUSH1 0x40 MLOAD PUSH2 0x439 SWAP2 SWAP1 PUSH2 0x3310 JUMP JUMPDEST PUSH1 0x40 MLOAD DUP1 SWAP2 SUB SWAP1 RETURN JUMPDEST PUSH2 0x44A PUSH2 0x1A79 JUMP JUMPDEST PUSH1 0x40 MLOAD PUSH2 0x457 SWAP2 SWAP1 PUSH2 0x36AA JUMP JUMPDEST PUSH1 0x40 MLOAD DUP1 SWAP2 SUB SWAP1 RETURN JUMPDEST PUSH2 0x47A PUSH1 0x4 DUP1 CALLDATASIZE SUB DUP2 ADD SWAP1 PUSH2 0x475 SWAP2 SWAP1 PUSH2 0x32AC JUMP JUMPDEST PUSH2 0x1AA3 JUMP JUMPDEST PUSH1 0x40 MLOAD PUSH2 0x487 SWAP2 SWAP1 PUSH2 0x3655 JUMP JUMPDEST PUSH1 0x40 MLOAD DUP1 SWAP2 SUB SWAP1 RETURN JUMPDEST PUSH2 0x4AA PUSH1 0x4 DUP1 CALLDATASIZE SUB DUP2 ADD SWAP1 PUSH2 0x4A5 SWAP2 SWAP1 PUSH2 0x32AC JUMP JUMPDEST PUSH2 0x1B99 JUMP JUMPDEST PUSH1 0x40 MLOAD PUSH2 0x4B7 SWAP2 SWAP1 PUSH2 0x3C74 JUMP JUMPDEST PUSH1 0x40 MLOAD DUP1 SWAP2 SUB SWAP1 RETURN JUMPDEST PUSH2 0x4DA PUSH1 0x4 DUP1 CALLDATASIZE SUB DUP2 ADD SWAP1 PUSH2 0x4D5 SWAP2 SWAP1 PUSH2 0x32AC JUMP JUMPDEST PUSH2 0x1EF7 JUMP JUMPDEST STOP JUMPDEST PUSH2 0x4F6 PUSH1 0x4 DUP1 CALLDATASIZE SUB DUP2 ADD SWAP1 PUSH2 0x4F1 SWAP2 SWAP1 PUSH2 0x32AC JUMP JUMPDEST PUSH2 0x1F7E JUMP JUMPDEST STOP JUMPDEST PUSH2 0x512 PUSH1 0x4 DUP1 CALLDATASIZE SUB DUP2 ADD SWAP1 PUSH2 0x50D SWAP2 SWAP1 PUSH2 0x32AC JUMP JUMPDEST PUSH2 0x2005 JUMP JUMPDEST PUSH1 0x40 MLOAD PUSH2 0x51F SWAP2 SWAP1 PUSH2 0x3655 JUMP JUMPDEST PUSH1 0x40 MLOAD DUP1 SWAP2 SUB SWAP1 RETURN JUMPDEST PUSH2 0x542 PUSH1 0x4 DUP1 CALLDATASIZE SUB DUP2 ADD SWAP1 PUSH2 0x53D SWAP2 SWAP1 PUSH2 0x2FD6 JUMP JUMPDEST PUSH2 0x21DF JUMP JUMPDEST STOP JUMPDEST PUSH2 0x55E PUSH1 0x4 DUP1 CALLDATASIZE SUB DUP2 ADD SWAP1 PUSH2 0x559 SWAP2 SWAP1 PUSH2 0x2FD6 JUMP JUMPDEST PUSH2 0x2262 JUMP JUMPDEST STOP JUMPDEST PUSH1 0x60 PUSH1 0x4 PUSH1 0x0 DUP4 PUSH20 0xFFFFFFFFFFFFFFFFFFFFFFFFFFFFFFFFFFFFFFFF AND PUSH20 0xFFFFFFFFFFFFFFFFFFFFFFFFFFFFFFFFFFFFFFFF AND DUP2 MSTORE PUSH1 0x20 ADD SWAP1 DUP2 MSTORE PUSH1 0x20 ADD PUSH1 0x0 KECCAK256 DUP1 SLOAD DUP1 PUSH1 0x20 MUL PUSH1 0x20 ADD PUSH1 0x40 MLOAD SWAP1 DUP2 ADD PUSH1 0x40 MSTORE DUP1 SWAP3 SWAP2 SWAP1 DUP2 DUP2 MSTORE PUSH1 0x20 ADD PUSH1 0x0 SWAP1 JUMPDEST DUP3 DUP3 LT ISZERO PUSH2 0x66D JUMPI DUP4 DUP3 SWAP1 PUSH1 0x0 MSTORE PUSH1 0x20 PUSH1 0x0 KECCAK256 ADD DUP1 SLOAD PUSH2 0x5E0 SWAP1 PUSH2 0x3D46 JUMP JUMPDEST DUP1 PUSH1 0x1F ADD PUSH1 0x20 DUP1 SWAP2 DIV MUL PUSH1 0x20 ADD PUSH1 0x40 MLOAD SWAP1 DUP2 ADD PUSH1 0x40 MSTORE DUP1 SWAP3 SWAP2 SWAP1 DUP2 DUP2 MSTORE PUSH1 0x20 ADD DUP3 DUP1 SLOAD PUSH2 0x60C SWAP1 PUSH2 0x3D46 JUMP JUMPDEST DUP1 ISZERO PUSH2 0x659 JUMPI DUP1 PUSH1 0x1F LT PUSH2 0x62E JUMPI PUSH2 0x100 DUP1 DUP4 SLOAD DIV MUL DUP4 MSTORE SWAP2 PUSH1 0x20 ADD SWAP2 PUSH2 0x659 JUMP JUMPDEST DUP3 ADD SWAP2 SWAP1 PUSH1 0x0 MSTORE PUSH1 0x20 PUSH1 0x0 KECCAK256 SWAP1 JUMPDEST DUP2 SLOAD DUP2 MSTORE SWAP1 PUSH1 0x1 ADD SWAP1 PUSH1 0x20 ADD DUP1 DUP4 GT PUSH2 0x63C JUMPI DUP3 SWAP1 SUB PUSH1 0x1F AND DUP3 ADD SWAP2 JUMPDEST POP POP POP POP POP DUP2 MSTORE PUSH1 0x20 ADD SWAP1 PUSH1 0x1 ADD SWAP1 PUSH2 0x5C1 JUMP JUMPDEST POP POP POP POP SWAP1 POP SWAP2 SWAP1 POP JUMP JUMPDEST PUSH1 0x0 DUP1 PUSH2 0x684 DUP4 PUSH2 0x1B99 JUMP JUMPDEST PUSH1 0x0 ADD MLOAD MLOAD GT SWAP1 POP SWAP2 SWAP1 POP JUMP JUMPDEST PUSH2 0x699 PUSH2 0x236C JUMP JUMPDEST POP PUSH2 0x6A5 DUP2 PUSH1 0x2 PUSH2 0x19DD JUMP JUMPDEST PUSH2 0x6E4 JUMPI PUSH1 0x40 MLOAD PUSH32 0x8C379A000000000000000000000000000000000000000000000000000000000 DUP2 MSTORE PUSH1 0x4 ADD PUSH2 0x6DB SWAP1 PUSH2 0x3DD4 JUMP JUMPDEST PUSH1 0x40 MLOAD DUP1 SWAP2 SUB SWAP1 REVERT JUMPDEST TIMESTAMP PUSH1 0x5 DUP3 PUSH1 0x40 MLOAD PUSH2 0x6F5 SWAP2 SWAP1 PUSH2 0x3E30 JUMP JUMPDEST SWAP1 DUP2 MSTORE PUSH1 0x20 ADD PUSH1 0x40 MLOAD DUP1 SWAP2 SUB SWAP1 KECCAK256 PUSH1 0x6 ADD DUP2 SWAP1 SSTORE POP PUSH2 0x715 DUP2 PUSH1 0x3 PUSH2 0x2375 JUMP JUMPDEST POP JUMP JUMPDEST PUSH2 0x720 PUSH2 0x2CEE JUMP JUMPDEST PUSH2 0x728 PUSH2 0x236C JUMP JUMPDEST POP PUSH2 0x734 DUP6 PUSH1 0x1 PUSH2 0x19DD JUMP JUMPDEST PUSH2 0x773 JUMPI PUSH1 0x40 MLOAD PUSH32 0x8C379A000000000000000000000000000000000000000000000000000000000 DUP2 MSTORE PUSH1 0x4 ADD PUSH2 0x76A SWAP1 PUSH2 0x3E93 JUMP JUMPDEST PUSH1 0x40 MLOAD DUP1 SWAP2 SUB SWAP1 REVERT JUMPDEST TIMESTAMP PUSH1 0x5 DUP7 PUSH1 0x40 MLOAD PUSH2 0x784 SWAP2 SWAP1 PUSH2 0x3E30 JUMP JUMPDEST SWAP1 DUP2 MSTORE PUSH1 0x20 ADD PUSH1 0x40 MLOAD DUP1 SWAP2 SUB SWAP1 KECCAK256 PUSH1 0x5 ADD DUP2 SWAP1 SSTORE POP PUSH2 0x7A4 DUP6 PUSH1 0x2 PUSH2 0x2375 JUMP JUMPDEST PUSH1 0x40 MLOAD DUP1 PUSH1 0x80 ADD PUSH1 0x40 MSTORE DUP1 DUP7 DUP2 MSTORE PUSH1 0x20 ADD DUP6 DUP2 MSTORE PUSH1 0x20 ADD DUP5 DUP2 MSTORE PUSH1 0x20 ADD DUP4 DUP2 MSTORE POP PUSH1 0x6 DUP7 PUSH1 0x40 MLOAD PUSH2 0x7D5 SWAP2 SWAP1 PUSH2 0x3E30 JUMP JUMPDEST SWAP1 DUP2 MSTORE PUSH1 0x20 ADD PUSH1 0x40 MLOAD DUP1 SWAP2 SUB SWAP1 KECCAK256 PUSH1 0x0 DUP3 ADD MLOAD DUP2 PUSH1 0x0 ADD SWAP1 DUP2 PUSH2 0x7F8 SWAP2 SWAP1 PUSH2 0x405F JUMP JUMPDEST POP PUSH1 0x20 DUP3 ADD MLOAD DUP2 PUSH1 0x1 ADD SWAP1 DUP2 PUSH2 0x80E SWAP2 SWAP1 PUSH2 0x405F JUMP JUMPDEST POP PUSH1 0x40 DUP3 ADD MLOAD DUP2 PUSH1 0x2 ADD SWAP1 DUP2 PUSH2 0x824 SWAP2 SWAP1 PUSH2 0x405F JUMP JUMPDEST POP PUSH1 0x60 DUP3 ADD MLOAD DUP2 PUSH1 0x3 ADD SSTORE SWAP1 POP POP PUSH1 0x6 DUP6 PUSH1 0x40 MLOAD PUSH2 0x842 SWAP2 SWAP1 PUSH2 0x3E30 JUMP JUMPDEST SWAP1 DUP2 MSTORE PUSH1 0x20 ADD PUSH1 0x40 MLOAD DUP1 SWAP2 SUB SWAP1 KECCAK256 PUSH1 0x40 MLOAD DUP1 PUSH1 0x80 ADD PUSH1 0x40 MSTORE SWAP1 DUP2 PUSH1 0x0 DUP3 ADD DUP1 SLOAD PUSH2 0x86B SWAP1 PUSH2 0x3D46 JUMP JUMPDEST DUP1 PUSH1 0x1F ADD PUSH1 0x20 DUP1 SWAP2 DIV MUL PUSH1 0x20 ADD PUSH1 0x40 MLOAD SWAP1 DUP2 ADD PUSH1 0x40 MSTORE DUP1 SWAP3 SWAP2 SWAP1 DUP2 DUP2 MSTORE PUSH1 0x20 ADD DUP3 DUP1 SLOAD PUSH2 0x897 SWAP1 PUSH2 0x3D46 JUMP JUMPDEST DUP1 ISZERO PUSH2 0x8E4 JUMPI DUP1 PUSH1 0x1F LT PUSH2 0x8B9 JUMPI PUSH2 0x100 DUP1 DUP4 SLOAD DIV MUL DUP4 MSTORE SWAP2 PUSH1 0x20 ADD SWAP2 PUSH2 0x8E4 JUMP JUMPDEST DUP3 ADD SWAP2 SWAP1 PUSH1 0x0 MSTORE PUSH1 0x20 PUSH1 0x0 KECCAK256 SWAP1 JUMPDEST DUP2 SLOAD DUP2 MSTORE SWAP1 PUSH1 0x1 ADD SWAP1 PUSH1 0x20 ADD DUP1 DUP4 GT PUSH2 0x8C7 JUMPI DUP3 SWAP1 SUB PUSH1 0x1F AND DUP3 ADD SWAP2 JUMPDEST POP POP POP POP POP DUP2 MSTORE PUSH1 0x20 ADD PUSH1 0x1 DUP3 ADD DUP1 SLOAD PUSH2 0x8FD SWAP1 PUSH2 0x3D46 JUMP JUMPDEST DUP1 PUSH1 0x1F ADD PUSH1 0x20 DUP1 SWAP2 DIV MUL PUSH1 0x20 ADD PUSH1 0x40 MLOAD SWAP1 DUP2 ADD PUSH1 0x40 MSTORE DUP1 SWAP3 SWAP2 SWAP1 DUP2 DUP2 MSTORE PUSH1 0x20 ADD DUP3 DUP1 SLOAD PUSH2 0x929 SWAP1 PUSH2 0x3D46 JUMP JUMPDEST DUP1 ISZERO PUSH2 0x976 JUMPI DUP1 PUSH1 0x1F LT PUSH2 0x94B JUMPI PUSH2 0x100 DUP1 DUP4 SLOAD DIV MUL DUP4 MSTORE SWAP2 PUSH1 0x20 ADD SWAP2 PUSH2 0x976 JUMP JUMPDEST DUP3 ADD SWAP2 SWAP1 PUSH1 0x0 MSTORE PUSH1 0x20 PUSH1 0x0 KECCAK256 SWAP1 JUMPDEST DUP2 SLOAD DUP2 MSTORE SWAP1 PUSH1 0x1 ADD SWAP1 PUSH1 0x20 ADD DUP1 DUP4 GT PUSH2 0x959 JUMPI DUP3 SWAP1 SUB PUSH1 0x1F AND DUP3 ADD SWAP2 JUMPDEST POP POP POP POP POP DUP2 MSTORE PUSH1 0x20 ADD PUSH1 0x2 DUP3 ADD DUP1 SLOAD PUSH2 0x98F SWAP1 PUSH2 0x3D46 JUMP JUMPDEST DUP1 PUSH1 0x1F ADD PUSH1 0x20 DUP1 SWAP2 DIV MUL PUSH1 0x20 ADD PUSH1 0x40 MLOAD SWAP1 DUP2 ADD PUSH1 0x40 MSTORE DUP1 SWAP3 SWAP2 SWAP1 DUP2 DUP2 MSTORE PUSH1 0x20 ADD DUP3 DUP1 SLOAD PUSH2 0x9BB SWAP1 PUSH2 0x3D46 JUMP JUMPDEST DUP1 ISZERO PUSH2 0xA08 JUMPI DUP1 PUSH1 0x1F LT PUSH2 0x9DD JUMPI PUSH2 0x100 DUP1 DUP4 SLOAD DIV MUL DUP4 MSTORE SWAP2 PUSH1 0x20 ADD SWAP2 PUSH2 0xA08 JUMP JUMPDEST DUP3 ADD SWAP2 SWAP1 PUSH1 0x0 MSTORE PUSH1 0x20 PUSH1 0x0 KECCAK256 SWAP1 JUMPDEST DUP2 SLOAD DUP2 MSTORE SWAP1 PUSH1 0x1 ADD SWAP1 PUSH1 0x20 ADD DUP1 DUP4 GT PUSH2 0x9EB JUMPI DUP3 SWAP1 SUB PUSH1 0x1F AND DUP3 ADD SWAP2 JUMPDEST POP POP POP POP POP DUP2 MSTORE PUSH1 0x20 ADD PUSH1 0x3 DUP3 ADD SLOAD DUP2 MSTORE POP POP SWAP1 POP SWAP5 SWAP4 POP POP POP POP JUMP JUMPDEST PUSH2 0xA2D PUSH2 0x2D16 JUMP JUMPDEST PUSH2 0xA35 PUSH2 0x236C JUMP JUMPDEST POP PUSH2 0xA3F DUP3 PUSH2 0x678 JUMP JUMPDEST PUSH2 0xA7E JUMPI PUSH1 0x40 MLOAD PUSH32 0x8C379A000000000000000000000000000000000000000000000000000000000 DUP2 MSTORE PUSH1 0x4 ADD PUSH2 0xA75 SWAP1 PUSH2 0x417D JUMP JUMPDEST PUSH1 0x40 MLOAD DUP1 SWAP2 SUB SWAP1 REVERT JUMPDEST PUSH1 0x0 PUSH1 0x5 DUP4 PUSH1 0x40 MLOAD PUSH2 0xA90 SWAP2 SWAP1 PUSH2 0x3E30 JUMP JUMPDEST SWAP1 DUP2 MSTORE PUSH1 0x20 ADD PUSH1 0x40 MLOAD DUP1 SWAP2 SUB SWAP1 KECCAK256 PUSH1 0x2 ADD SLOAD EQ PUSH2 0xAE2 JUMPI PUSH1 0x40 MLOAD PUSH32 0x8C379A000000000000000000000000000000000000000000000000000000000 DUP2 MSTORE PUSH1 0x4 ADD PUSH2 0xAD9 SWAP1 PUSH2 0x41E9 JUMP JUMPDEST PUSH1 0x40 MLOAD DUP1 SWAP2 SUB SWAP1 REVERT JUMPDEST TIMESTAMP PUSH1 0x5 DUP4 PUSH1 0x40 MLOAD PUSH2 0xAF3 SWAP2 SWAP1 PUSH2 0x3E30 JUMP JUMPDEST SWAP1 DUP2 MSTORE PUSH1 0x20 ADD PUSH1 0x40 MLOAD DUP1 SWAP2 SUB SWAP1 KECCAK256 PUSH1 0x2 ADD DUP2 SWAP1 SSTORE POP PUSH2 0xB11 DUP3 PUSH2 0x23FB JUMP JUMPDEST PUSH1 0x5 DUP3 PUSH1 0x40 MLOAD PUSH2 0xB21 SWAP2 SWAP1 PUSH2 0x3E30 JUMP JUMPDEST SWAP1 DUP2 MSTORE PUSH1 0x20 ADD PUSH1 0x40 MLOAD DUP1 SWAP2 SUB SWAP1 KECCAK256 PUSH1 0x40 MLOAD DUP1 PUSH2 0x1C0 ADD PUSH1 0x40 MSTORE SWAP1 DUP2 PUSH1 0x0 DUP3 ADD PUSH1 0x0 SWAP1 SLOAD SWAP1 PUSH2 0x100 EXP SWAP1 DIV PUSH1 0xFF AND PUSH1 0xA DUP2 GT ISZERO PUSH2 0xB60 JUMPI PUSH2 0xB5F PUSH2 0x34BE JUMP JUMPDEST JUMPDEST PUSH1 0xA DUP2 GT ISZERO PUSH2 0xB72 JUMPI PUSH2 0xB71 PUSH2 0x34BE JUMP JUMPDEST JUMPDEST DUP2 MSTORE PUSH1 0x20 ADD PUSH1 0x1 DUP3 ADD SLOAD DUP2 MSTORE PUSH1 0x20 ADD PUSH1 0x2 DUP3 ADD SLOAD DUP2 MSTORE PUSH1 0x20 ADD PUSH1 0x3 DUP3 ADD SLOAD DUP2 MSTORE PUSH1 0x20 ADD PUSH1 0x4 DUP3 ADD SLOAD DUP2 MSTORE PUSH1 0x20 ADD PUSH1 0x5 DUP3 ADD SLOAD DUP2 MSTORE PUSH1 0x20 ADD PUSH1 0x6 DUP3 ADD SLOAD DUP2 MSTORE PUSH1 0x20 ADD PUSH1 0x7 DUP3 ADD SLOAD DUP2 MSTORE PUSH1 0x20 ADD PUSH1 0x8 DUP3 ADD SLOAD DUP2 MSTORE PUSH1 0x20 ADD PUSH1 0x9 DUP3 ADD SLOAD DUP2 MSTORE PUSH1 0x20 ADD PUSH1 0xA DUP3 ADD SLOAD DUP2 MSTORE PUSH1 0x20 ADD PUSH1 0xB DUP3 ADD SLOAD DUP2 MSTORE PUSH1 0x20 ADD PUSH1 0xC DUP3 ADD SLOAD DUP2 MSTORE PUSH1 0x20 ADD PUSH1 0xD DUP3 ADD SLOAD DUP2 MSTORE POP POP SWAP1 POP SWAP2 SWAP1 POP JUMP JUMPDEST PUSH2 0xC07 PUSH2 0x236C JUMP JUMPDEST POP PUSH2 0xC13 DUP2 PUSH1 0x2 PUSH2 0x19DD JUMP JUMPDEST PUSH2 0xC52 JUMPI PUSH1 0x40 MLOAD PUSH32 0x8C379A000000000000000000000000000000000000000000000000000000000 DUP2 MSTORE PUSH1 0x4 ADD PUSH2 0xC49 SWAP1 PUSH2 0x3DD4 JUMP JUMPDEST PUSH1 0x40 MLOAD DUP1 SWAP2 SUB SWAP1 REVERT JUMPDEST TIMESTAMP PUSH1 0x5 DUP3 PUSH1 0x40 MLOAD PUSH2 0xC63 SWAP2 SWAP1 PUSH2 0x3E30 JUMP JUMPDEST SWAP1 DUP2 MSTORE PUSH1 0x20 ADD PUSH1 0x40 MLOAD DUP1 SWAP2 SUB SWAP1 KECCAK256 PUSH1 0x7 ADD DUP2 SWAP1 SSTORE POP PUSH2 0xC83 DUP2 PUSH1 0x4 PUSH2 0x2375 JUMP JUMPDEST POP JUMP JUMPDEST PUSH2 0xC8E PUSH2 0x2CEE JUMP JUMPDEST PUSH1 0x6 DUP3 PUSH1 0x40 MLOAD PUSH2 0xC9E SWAP2 SWAP1 PUSH2 0x3E30 JUMP JUMPDEST SWAP1 DUP2 MSTORE PUSH1 0x20 ADD PUSH1 0x40 MLOAD DUP1 SWAP2 SUB SWAP1 KECCAK256 PUSH1 0x40 MLOAD DUP1 PUSH1 0x80 ADD PUSH1 0x40 MSTORE SWAP1 DUP2 PUSH1 0x0 DUP3 ADD DUP1 SLOAD PUSH2 0xCC7 SWAP1 PUSH2 0x3D46 JUMP JUMPDEST DUP1 PUSH1 0x1F ADD PUSH1 0x20 DUP1 SWAP2 DIV MUL PUSH1 0x20 ADD PUSH1 0x40 MLOAD SWAP1 DUP2 ADD PUSH1 0x40 MSTORE DUP1 SWAP3 SWAP2 SWAP1 DUP2 DUP2 MSTORE PUSH1 0x20 ADD DUP3 DUP1 SLOAD PUSH2 0xCF3 SWAP1 PUSH2 0x3D46 JUMP JUMPDEST DUP1 ISZERO PUSH2 0xD40 JUMPI DUP1 PUSH1 0x1F LT PUSH2 0xD15 JUMPI PUSH2 0x100 DUP1 DUP4 SLOAD DIV MUL DUP4 MSTORE SWAP2 PUSH1 0x20 ADD SWAP2 PUSH2 0xD40 JUMP JUMPDEST DUP3 ADD SWAP2 SWAP1 PUSH1 0x0 MSTORE PUSH1 0x20 PUSH1 0x0 KECCAK256 SWAP1 JUMPDEST DUP2 SLOAD DUP2 MSTORE SWAP1 PUSH1 0x1 ADD SWAP1 PUSH1 0x20 ADD DUP1 DUP4 GT PUSH2 0xD23 JUMPI DUP3 SWAP1 SUB PUSH1 0x1F AND DUP3 ADD SWAP2 JUMPDEST POP POP POP POP POP DUP2 MSTORE PUSH1 0x20 ADD PUSH1 0x1 DUP3 ADD DUP1 SLOAD PUSH2 0xD59 SWAP1 PUSH2 0x3D46 JUMP JUMPDEST DUP1 PUSH1 0x1F ADD PUSH1 0x20 DUP1 SWAP2 DIV MUL PUSH1 0x20 ADD PUSH1 0x40 MLOAD SWAP1 DUP2 ADD PUSH1 0x40 MSTORE DUP1 SWAP3 SWAP2 SWAP1 DUP2 DUP2 MSTORE PUSH1 0x20 ADD DUP3 DUP1 SLOAD PUSH2 0xD85 SWAP1 PUSH2 0x3D46 JUMP JUMPDEST DUP1 ISZERO PUSH2 0xDD2 JUMPI DUP1 PUSH1 0x1F LT PUSH2 0xDA7 JUMPI PUSH2 0x100 DUP1 DUP4 SLOAD DIV MUL DUP4 MSTORE SWAP2 PUSH1 0x20 ADD SWAP2 PUSH2 0xDD2 JUMP JUMPDEST DUP3 ADD SWAP2 SWAP1 PUSH1 0x0 MSTORE PUSH1 0x20 PUSH1 0x0 KECCAK256 SWAP1 JUMPDEST DUP2 SLOAD DUP2 MSTORE SWAP1 PUSH1 0x1 ADD SWAP1 PUSH1 0x20 ADD DUP1 DUP4 GT PUSH2 0xDB5 JUMPI DUP3 SWAP1 SUB PUSH1 0x1F AND DUP3 ADD SWAP2 JUMPDEST POP POP POP POP POP DUP2 MSTORE PUSH1 0x20 ADD PUSH1 0x2 DUP3 ADD DUP1 SLOAD PUSH2 0xDEB SWAP1 PUSH2 0x3D46 JUMP JUMPDEST DUP1 PUSH1 0x1F ADD PUSH1 0x20 DUP1 SWAP2 DIV MUL PUSH1 0x20 ADD PUSH1 0x40 MLOAD SWAP1 DUP2 ADD PUSH1 0x40 MSTORE DUP1 SWAP3 SWAP2 SWAP1 DUP2 DUP2 MSTORE PUSH1 0x20 ADD DUP3 DUP1 SLOAD PUSH2 0xE17 SWAP1 PUSH2 0x3D46 JUMP JUMPDEST DUP1 ISZERO PUSH2 0xE64 JUMPI DUP1 PUSH1 0x1F LT PUSH2 0xE39 JUMPI PUSH2 0x100 DUP1 DUP4 SLOAD DIV MUL DUP4 MSTORE SWAP2 PUSH1 0x20 ADD SWAP2 PUSH2 0xE64 JUMP JUMPDEST DUP3 ADD SWAP2 SWAP1 PUSH1 0x0 MSTORE PUSH1 0x20 PUSH1 0x0 KECCAK256 SWAP1 JUMPDEST DUP2 SLOAD DUP2 MSTORE SWAP1 PUSH1 0x1 ADD SWAP1 PUSH1 0x20 ADD DUP1 DUP4 GT PUSH2 0xE47 JUMPI DUP3 SWAP1 SUB PUSH1 0x1F AND DUP3 ADD SWAP2 JUMPDEST POP POP POP POP POP DUP2 MSTORE PUSH1 0x20 ADD PUSH1 0x3 DUP3 ADD SLOAD DUP2 MSTORE POP POP SWAP1 POP SWAP2 SWAP1 POP JUMP JUMPDEST PUSH2 0xE86 PUSH2 0x236C JUMP JUMPDEST POP PUSH2 0xE92 DUP2 PUSH1 0x1 PUSH2 0x19DD JUMP JUMPDEST PUSH2 0xED1 JUMPI PUSH1 0x40 MLOAD PUSH32 0x8C379A000000000000000000000000000000000000000000000000000000000 DUP2 MSTORE PUSH1 0x4 ADD PUSH2 0xEC8 SWAP1 PUSH2 0x3E93 JUMP JUMPDEST PUSH1 0x40 MLOAD DUP1 SWAP2 SUB SWAP1 REVERT JUMPDEST TIMESTAMP PUSH1 0x5 DUP3 PUSH1 0x40 MLOAD PUSH2 0xEE2 SWAP2 SWAP1 PUSH2 0x3E30 JUMP JUMPDEST SWAP1 DUP2 MSTORE PUSH1 0x20 ADD PUSH1 0x40 MLOAD DUP1 SWAP2 SUB SWAP1 KECCAK256 PUSH1 0xB ADD DUP2 SWAP1 SSTORE POP PUSH2 0xF02 DUP2 PUSH1 0x8 PUSH2 0x2375 JUMP JUMPDEST POP JUMP JUMPDEST PUSH2 0xF0D PUSH2 0x24B4 JUMP JUMPDEST PUSH2 0xF17 PUSH1 0x0 PUSH2 0x2532 JUMP JUMPDEST JUMP JUMPDEST PUSH1 0x0 PUSH1 0x6 DUP3 PUSH1 0x40 MLOAD PUSH2 0xF2B SWAP2 SWAP1 PUSH2 0x3E30 JUMP JUMPDEST SWAP1 DUP2 MSTORE PUSH1 0x20 ADD PUSH1 0x40 MLOAD DUP1 SWAP2 SUB SWAP1 KECCAK256 PUSH1 0x3 ADD SLOAD PUSH1 0x3 DUP4 PUSH1 0x40 MLOAD PUSH2 0xF4D SWAP2 SWAP1 PUSH2 0x3E30 JUMP JUMPDEST SWAP1 DUP2 MSTORE PUSH1 0x20 ADD PUSH1 0x40 MLOAD DUP1 SWAP2 SUB SWAP1 KECCAK256 PUSH1 0xD ADD PUSH1 0x0 ADD SLOAD PUSH2 0xF6C SWAP2 SWAP1 PUSH2 0x4238 JUMP JUMPDEST SWAP1 POP SWAP2 SWAP1 POP JUMP JUMPDEST PUSH2 0xF7B PUSH2 0x236C JUMP JUMPDEST POP PUSH2 0xF87 DUP2 PUSH1 0x0 PUSH2 0x19DD JUMP JUMPDEST PUSH2 0xFC6 JUMPI PUSH1 0x40 MLOAD PUSH32 0x8C379A000000000000000000000000000000000000000000000000000000000 DUP2 MSTORE PUSH1 0x4 ADD PUSH2 0xFBD SWAP1 PUSH2 0x42C6 JUMP JUMPDEST PUSH1 0x40 MLOAD DUP1 SWAP2 SUB SWAP1 REVERT JUMPDEST TIMESTAMP PUSH1 0x5 DUP3 PUSH1 0x40 MLOAD PUSH2 0xFD7 SWAP2 SWAP1 PUSH2 0x3E30 JUMP JUMPDEST SWAP1 DUP2 MSTORE PUSH1 0x20 ADD PUSH1 0x40 MLOAD DUP1 SWAP2 SUB SWAP1 KECCAK256 PUSH1 0xA ADD DUP2 SWAP1 SSTORE POP PUSH2 0xFF7 DUP2 PUSH1 0x7 PUSH2 0x2375 JUMP JUMPDEST POP JUMP JUMPDEST PUSH2 0x1002 PUSH2 0x236C JUMP JUMPDEST POP PUSH2 0x100E DUP2 PUSH1 0x4 PUSH2 0x19DD JUMP JUMPDEST PUSH2 0x104D JUMPI PUSH1 0x40 MLOAD PUSH32 0x8C379A000000000000000000000000000000000000000000000000000000000 DUP2 MSTORE PUSH1 0x4 ADD PUSH2 0x1044 SWAP1 PUSH2 0x4332 JUMP JUMPDEST PUSH1 0x40 MLOAD DUP1 SWAP2 SUB SWAP1 REVERT JUMPDEST TIMESTAMP PUSH1 0x5 DUP3 PUSH1 0x40 MLOAD PUSH2 0x105E SWAP2 SWAP1 PUSH2 0x3E30 JUMP JUMPDEST SWAP1 DUP2 MSTORE PUSH1 0x20 ADD PUSH1 0x40 MLOAD DUP1 SWAP2 SUB SWAP1 KECCAK256 PUSH1 0x9 ADD DUP2 SWAP1 SSTORE POP PUSH2 0x107E DUP2 PUSH1 0x6 PUSH2 0x2375 JUMP JUMPDEST POP JUMP JUMPDEST PUSH1 0x0 PUSH1 0x1 PUSH1 0x16 SWAP1 SLOAD SWAP1 PUSH2 0x100 EXP SWAP1 DIV PUSH1 0xFF AND ISZERO SWAP1 POP DUP1 DUP1 ISZERO PUSH2 0x10B4 JUMPI POP PUSH1 0x1 DUP1 PUSH1 0x15 SWAP1 SLOAD SWAP1 PUSH2 0x100 EXP SWAP1 DIV PUSH1 0xFF AND PUSH1 0xFF AND LT JUMPDEST DUP1 PUSH2 0x10E2 JUMPI POP PUSH2 0x10C3 ADDRESS PUSH2 0x25F6 JUMP JUMPDEST ISZERO DUP1 ISZERO PUSH2 0x10E1 JUMPI POP PUSH1 0x1 DUP1 PUSH1 0x15 SWAP1 SLOAD SWAP1 PUSH2 0x100 EXP SWAP1 DIV PUSH1 0xFF AND PUSH1 0xFF AND EQ JUMPDEST JUMPDEST PUSH2 0x1121 JUMPI PUSH1 0x40 MLOAD PUSH32 0x8C379A000000000000000000000000000000000000000000000000000000000 DUP2 MSTORE PUSH1 0x4 ADD PUSH2 0x1118 SWAP1 PUSH2 0x43C4 JUMP JUMPDEST PUSH1 0x40 MLOAD DUP1 SWAP2 SUB SWAP1 REVERT JUMPDEST PUSH1 0x1 DUP1 PUSH1 0x15 PUSH2 0x100 EXP DUP2 SLOAD DUP2 PUSH1 0xFF MUL NOT AND SWAP1 DUP4 PUSH1 0xFF AND MUL OR SWAP1 SSTORE POP DUP1 ISZERO PUSH2 0x115D JUMPI PUSH1 0x1 DUP1 PUSH1 0x16 PUSH2 0x100 EXP DUP2 SLOAD DUP2 PUSH1 0xFF MUL NOT AND SWAP1 DUP4 ISZERO ISZERO MUL OR SWAP1 SSTORE POP JUMPDEST DUP1 ISZERO PUSH2 0x11B7 JUMPI PUSH1 0x0 PUSH1 0x1 PUSH1 0x16 PUSH2 0x100 EXP DUP2 SLOAD DUP2 PUSH1 0xFF MUL NOT AND SWAP1 DUP4 ISZERO ISZERO MUL OR SWAP1 SSTORE POP PUSH32 0x7F26B83FF96E1F2B6A682F133852F6798A09C465DA95921460CEFB3847402498 PUSH1 0x1 PUSH1 0x40 MLOAD PUSH2 0x11AE SWAP2 SWAP1 PUSH2 0x442C JUMP JUMPDEST PUSH1 0x40 MLOAD DUP1 SWAP2 SUB SWAP1 LOG1 JUMPDEST POP JUMP JUMPDEST PUSH1 0x0 PUSH2 0x11C5 DUP3 PUSH2 0xF19 JUMP JUMPDEST PUSH1 0x3 DUP4 PUSH1 0x40 MLOAD PUSH2 0x11D5 SWAP2 SWAP1 PUSH2 0x3E30 JUMP JUMPDEST SWAP1 DUP2 MSTORE PUSH1 0x20 ADD PUSH1 0x40 MLOAD DUP1 SWAP2 SUB SWAP1 KECCAK256 PUSH1 0xD ADD PUSH1 0x2 ADD SLOAD PUSH2 0x11F4 SWAP2 SWAP1 PUSH2 0x4238 JUMP JUMPDEST SWAP1 POP SWAP2 SWAP1 POP JUMP JUMPDEST PUSH2 0x1203 PUSH2 0x236C JUMP JUMPDEST POP PUSH2 0x120F DUP2 PUSH1 0x4 PUSH2 0x19DD JUMP JUMPDEST PUSH2 0x124E JUMPI PUSH1 0x40 MLOAD PUSH32 0x8C379A000000000000000000000000000000000000000000000000000000000 DUP2 MSTORE PUSH1 0x4 ADD PUSH2 0x1245 SWAP1 PUSH2 0x4332 JUMP JUMPDEST PUSH1 0x40 MLOAD DUP1 SWAP2 SUB SWAP1 REVERT JUMPDEST TIMESTAMP PUSH1 0x5 DUP3 PUSH1 0x40 MLOAD PUSH2 0x125F SWAP2 SWAP1 PUSH2 0x3E30 JUMP JUMPDEST SWAP1 DUP2 MSTORE PUSH1 0x20 ADD PUSH1 0x40 MLOAD DUP1 SWAP2 SUB SWAP1 KECCAK256 PUSH1 0x8 ADD DUP2 SWAP1 SSTORE POP PUSH2 0x127F DUP2 PUSH1 0x5 PUSH2 0x2375 JUMP JUMPDEST POP JUMP JUMPDEST PUSH1 0x0 DUP1 PUSH1 0x0 SWAP1 SLOAD SWAP1 PUSH2 0x100 EXP SWAP1 DIV PUSH20 0xFFFFFFFFFFFFFFFFFFFFFFFFFFFFFFFFFFFFFFFF AND SWAP1 POP SWAP1 JUMP JUMPDEST PUSH2 0x12B3 PUSH2 0x24B4 JUMP JUMPDEST PUSH1 0x0 PUSH1 0x1 PUSH1 0x14 PUSH2 0x100 EXP DUP2 SLOAD DUP2 PUSH1 0xFF MUL NOT AND SWAP1 DUP4 ISZERO ISZERO MUL OR SWAP1 SSTORE POP JUMP JUMPDEST PUSH2 0x12D8 PUSH2 0x2D97 JUMP JUMPDEST PUSH2 0x12E0 PUSH2 0x236C JUMP JUMPDEST POP PUSH2 0x12EC DUP6 PUSH1 0x0 PUSH2 0x19DD JUMP JUMPDEST PUSH2 0x132B JUMPI PUSH1 0x40 MLOAD PUSH32 0x8C379A000000000000000000000000000000000000000000000000000000000 DUP2 MSTORE PUSH1 0x4 ADD PUSH2 0x1322 SWAP1 PUSH2 0x42C6 JUMP JUMPDEST PUSH1 0x40 MLOAD DUP1 SWAP2 SUB SWAP1 REVERT JUMPDEST PUSH2 0x1334 DUP5 PUSH2 0x2619 JUMP JUMPDEST PUSH2 0x133D DUP4 PUSH2 0x27BD JUMP JUMPDEST PUSH2 0x1346 DUP6 PUSH2 0x678 JUMP JUMPDEST ISZERO PUSH2 0x1388 JUMPI PUSH1 0x0 PUSH2 0x1356 DUP7 PUSH2 0x1B99 JUMP JUMPDEST SWAP1 POP PUSH2 0x1366 DUP2 PUSH1 0x20 ADD MLOAD DUP7 PUSH2 0x2856 JUMP JUMPDEST PUSH2 0x1374 DUP2 PUSH1 0x40 ADD MLOAD DUP6 PUSH2 0x2AD6 JUMP JUMPDEST PUSH2 0x1382 DUP2 PUSH1 0x60 ADD MLOAD DUP5 PUSH2 0x2B22 JUMP JUMPDEST POP PUSH2 0x1684 JUMP JUMPDEST PUSH1 0x40 MLOAD DUP1 PUSH1 0x80 ADD PUSH1 0x40 MSTORE DUP1 DUP7 DUP2 MSTORE PUSH1 0x20 ADD DUP6 DUP2 MSTORE PUSH1 0x20 ADD DUP5 DUP2 MSTORE PUSH1 0x20 ADD DUP4 DUP2 MSTORE POP PUSH1 0x3 DUP7 PUSH1 0x40 MLOAD PUSH2 0x13B9 SWAP2 SWAP1 PUSH2 0x3E30 JUMP JUMPDEST SWAP1 DUP2 MSTORE PUSH1 0x20 ADD PUSH1 0x40 MLOAD DUP1 SWAP2 SUB SWAP1 KECCAK256 PUSH1 0x0 DUP3 ADD MLOAD DUP2 PUSH1 0x0 ADD SWAP1 DUP2 PUSH2 0x13DC SWAP2 SWAP1 PUSH2 0x405F JUMP JUMPDEST POP PUSH1 0x20 DUP3 ADD MLOAD DUP2 PUSH1 0x1 ADD PUSH1 0x0 DUP3 ADD MLOAD DUP2 PUSH1 0x0 ADD PUSH1 0x0 PUSH2 0x100 EXP DUP2 SLOAD DUP2 PUSH20 0xFFFFFFFFFFFFFFFFFFFFFFFFFFFFFFFFFFFFFFFF MUL NOT AND SWAP1 DUP4 PUSH20 0xFFFFFFFFFFFFFFFFFFFFFFFFFFFFFFFFFFFFFFFF AND MUL OR SWAP1 SSTORE POP PUSH1 0x20 DUP3 ADD MLOAD DUP2 PUSH1 0x1 ADD PUSH1 0x0 PUSH2 0x100 EXP DUP2 SLOAD DUP2 PUSH20 0xFFFFFFFFFFFFFFFFFFFFFFFFFFFFFFFFFFFFFFFF MUL NOT AND SWAP1 DUP4 PUSH20 0xFFFFFFFFFFFFFFFFFFFFFFFFFFFFFFFFFFFFFFFF AND MUL OR SWAP1 SSTORE POP PUSH1 0x40 DUP3 ADD MLOAD DUP2 PUSH1 0x2 ADD PUSH1 0x0 PUSH2 0x100 EXP DUP2 SLOAD DUP2 PUSH20 0xFFFFFFFFFFFFFFFFFFFFFFFFFFFFFFFFFFFFFFFF MUL NOT AND SWAP1 DUP4 PUSH20 0xFFFFFFFFFFFFFFFFFFFFFFFFFFFFFFFFFFFFFFFF AND MUL OR SWAP1 SSTORE POP PUSH1 0x60 DUP3 ADD MLOAD DUP2 PUSH1 0x3 ADD SWAP1 DUP1 MLOAD SWAP1 PUSH1 0x20 ADD SWAP1 PUSH2 0x14D7 SWAP3 SWAP2 SWAP1 PUSH2 0x2DD1 JUMP JUMPDEST POP POP POP PUSH1 0x40 DUP3 ADD MLOAD DUP2 PUSH1 0x5 ADD PUSH1 0x0 DUP3 ADD MLOAD DUP2 PUSH1 0x0 ADD PUSH1 0x0 DUP3 ADD MLOAD DUP2 PUSH1 0x0 ADD SSTORE PUSH1 0x20 DUP3 ADD MLOAD DUP2 PUSH1 0x1 ADD SSTORE POP POP PUSH1 0x20 DUP3 ADD MLOAD DUP2 PUSH1 0x2 ADD PUSH1 0x0 DUP3 ADD MLOAD DUP2 PUSH1 0x0 ADD SSTORE PUSH1 0x20 DUP3 ADD MLOAD DUP2 PUSH1 0x1 ADD SSTORE POP POP PUSH1 0x40 DUP3 ADD MLOAD DUP2 PUSH1 0x4 ADD PUSH1 0x0 DUP3 ADD MLOAD DUP2 PUSH1 0x0 ADD SSTORE PUSH1 0x20 DUP3 ADD MLOAD DUP2 PUSH1 0x1 ADD SSTORE POP POP PUSH1 0x60 DUP3 ADD MLOAD DUP2 PUSH1 0x6 ADD PUSH1 0x0 DUP3 ADD MLOAD DUP2 PUSH1 0x0 ADD SSTORE PUSH1 0x20 DUP3 ADD MLOAD DUP2 PUSH1 0x1 ADD SSTORE POP POP POP POP PUSH1 0x60 DUP3 ADD MLOAD DUP2 PUSH1 0xD ADD PUSH1 0x0 DUP3 ADD MLOAD DUP2 PUSH1 0x0 ADD SSTORE PUSH1 0x20 DUP3 ADD MLOAD DUP2 PUSH1 0x1 ADD SSTORE PUSH1 0x40 DUP3 ADD MLOAD DUP2 PUSH1 0x2 ADD SSTORE PUSH1 0x60 DUP3 ADD MLOAD DUP2 PUSH1 0x3 ADD SSTORE POP POP SWAP1 POP POP PUSH1 0x4 PUSH1 0x0 DUP6 PUSH1 0x40 ADD MLOAD PUSH20 0xFFFFFFFFFFFFFFFFFFFFFFFFFFFFFFFFFFFFFFFF AND PUSH20 0xFFFFFFFFFFFFFFFFFFFFFFFFFFFFFFFFFFFFFFFF AND DUP2 MSTORE PUSH1 0x20 ADD SWAP1 DUP2 MSTORE PUSH1 0x20 ADD PUSH1 0x0 KECCAK256 DUP6 SWAP1 DUP1 PUSH1 0x1 DUP2 SLOAD ADD DUP1 DUP3 SSTORE DUP1 SWAP2 POP POP PUSH1 0x1 SWAP1 SUB SWAP1 PUSH1 0x0 MSTORE PUSH1 0x20 PUSH1 0x0 KECCAK256 ADD PUSH1 0x0 SWAP1 SWAP2 SWAP1 SWAP2 SWAP1 SWAP2 POP SWAP1 DUP2 PUSH2 0x160C SWAP2 SWAP1 PUSH2 0x405F JUMP JUMPDEST POP PUSH1 0x4 PUSH1 0x0 DUP6 PUSH1 0x20 ADD MLOAD PUSH20 0xFFFFFFFFFFFFFFFFFFFFFFFFFFFFFFFFFFFFFFFF AND PUSH20 0xFFFFFFFFFFFFFFFFFFFFFFFFFFFFFFFFFFFFFFFF AND DUP2 MSTORE PUSH1 0x20 ADD SWAP1 DUP2 MSTORE PUSH1 0x20 ADD PUSH1 0x0 KECCAK256 DUP6 SWAP1 DUP1 PUSH1 0x1 DUP2 SLOAD ADD DUP1 DUP3 SSTORE DUP1 SWAP2 POP POP PUSH1 0x1 SWAP1 SUB SWAP1 PUSH1 0x0 MSTORE PUSH1 0x20 PUSH1 0x0 KECCAK256 ADD PUSH1 0x0 SWAP1 SWAP2 SWAP1 SWAP2 SWAP1 SWAP2 POP SWAP1 DUP2 PUSH2 0x1682 SWAP2 SWAP1 PUSH2 0x405F JUMP JUMPDEST POP JUMPDEST PUSH1 0x3 DUP6 PUSH1 0x40 MLOAD PUSH2 0x1694 SWAP2 SWAP1 PUSH2 0x3E30 JUMP JUMPDEST SWAP1 DUP2 MSTORE PUSH1 0x20 ADD PUSH1 0x40 MLOAD DUP1 SWAP2 SUB SWAP1 KECCAK256 PUSH1 0x40 MLOAD DUP1 PUSH1 0x80 ADD PUSH1 0x40 MSTORE SWAP1 DUP2 PUSH1 0x0 DUP3 ADD DUP1 SLOAD PUSH2 0x16BD SWAP1 PUSH2 0x3D46 JUMP JUMPDEST DUP1 PUSH1 0x1F ADD PUSH1 0x20 DUP1 SWAP2 DIV MUL PUSH1 0x20 ADD PUSH1 0x40 MLOAD SWAP1 DUP2 ADD PUSH1 0x40 MSTORE DUP1 SWAP3 SWAP2 SWAP1 DUP2 DUP2 MSTORE PUSH1 0x20 ADD DUP3 DUP1 SLOAD PUSH2 0x16E9 SWAP1 PUSH2 0x3D46 JUMP JUMPDEST DUP1 ISZERO PUSH2 0x1736 JUMPI DUP1 PUSH1 0x1F LT PUSH2 0x170B JUMPI PUSH2 0x100 DUP1 DUP4 SLOAD DIV MUL DUP4 MSTORE SWAP2 PUSH1 0x20 ADD SWAP2 PUSH2 0x1736 JUMP JUMPDEST DUP3 ADD SWAP2 SWAP1 PUSH1 0x0 MSTORE PUSH1 0x20 PUSH1 0x0 KECCAK256 SWAP1 JUMPDEST DUP2 SLOAD DUP2 MSTORE SWAP1 PUSH1 0x1 ADD SWAP1 PUSH1 0x20 ADD DUP1 DUP4 GT PUSH2 0x1719 JUMPI DUP3 SWAP1 SUB PUSH1 0x1F AND DUP3 ADD SWAP2 JUMPDEST POP POP POP POP POP DUP2 MSTORE PUSH1 0x20 ADD PUSH1 0x1 DUP3 ADD PUSH1 0x40 MLOAD DUP1 PUSH1 0x80 ADD PUSH1 0x40 MSTORE SWAP1 DUP2 PUSH1 0x0 DUP3 ADD PUSH1 0x0 SWAP1 SLOAD SWAP1 PUSH2 0x100 EXP SWAP1 DIV PUSH20 0xFFFFFFFFFFFFFFFFFFFFFFFFFFFFFFFFFFFFFFFF AND PUSH20 0xFFFFFFFFFFFFFFFFFFFFFFFFFFFFFFFFFFFFFFFF AND PUSH20 0xFFFFFFFFFFFFFFFFFFFFFFFFFFFFFFFFFFFFFFFF AND DUP2 MSTORE PUSH1 0x20 ADD PUSH1 0x1 DUP3 ADD PUSH1 0x0 SWAP1 SLOAD SWAP1 PUSH2 0x100 EXP SWAP1 DIV PUSH20 0xFFFFFFFFFFFFFFFFFFFFFFFFFFFFFFFFFFFFFFFF AND PUSH20 0xFFFFFFFFFFFFFFFFFFFFFFFFFFFFFFFFFFFFFFFF AND PUSH20 0xFFFFFFFFFFFFFFFFFFFFFFFFFFFFFFFFFFFFFFFF AND DUP2 MSTORE PUSH1 0x20 ADD PUSH1 0x2 DUP3 ADD PUSH1 0x0 SWAP1 SLOAD SWAP1 PUSH2 0x100 EXP SWAP1 DIV PUSH20 0xFFFFFFFFFFFFFFFFFFFFFFFFFFFFFFFFFFFFFFFF AND PUSH20 0xFFFFFFFFFFFFFFFFFFFFFFFFFFFFFFFFFFFFFFFF AND PUSH20 0xFFFFFFFFFFFFFFFFFFFFFFFFFFFFFFFFFFFFFFFF AND DUP2 MSTORE PUSH1 0x20 ADD PUSH1 0x3 DUP3 ADD DUP1 SLOAD DUP1 PUSH1 0x20 MUL PUSH1 0x20 ADD PUSH1 0x40 MLOAD SWAP1 DUP2 ADD PUSH1 0x40 MSTORE DUP1 SWAP3 SWAP2 SWAP1 DUP2 DUP2 MSTORE PUSH1 0x20 ADD DUP3 DUP1 SLOAD DUP1 ISZERO PUSH2 0x18D6 JUMPI PUSH1 0x20 MUL DUP3 ADD SWAP2 SWAP1 PUSH1 0x0 MSTORE PUSH1 0x20 PUSH1 0x0 KECCAK256 SWAP1 JUMPDEST DUP2 PUSH1 0x0 SWAP1 SLOAD SWAP1 PUSH2 0x100 EXP SWAP1 DIV PUSH20 0xFFFFFFFFFFFFFFFFFFFFFFFFFFFFFFFFFFFFFFFF AND PUSH20 0xFFFFFFFFFFFFFFFFFFFFFFFFFFFFFFFFFFFFFFFF AND DUP2 MSTORE PUSH1 0x20 ADD SWAP1 PUSH1 0x1 ADD SWAP1 DUP1 DUP4 GT PUSH2 0x188C JUMPI JUMPDEST POP POP POP POP POP DUP2 MSTORE POP POP DUP2 MSTORE PUSH1 0x20 ADD PUSH1 0x5 DUP3 ADD PUSH1 0x40 MLOAD DUP1 PUSH1 0x80 ADD PUSH1 0x40 MSTORE SWAP1 DUP2 PUSH1 0x0 DUP3 ADD PUSH1 0x40 MLOAD DUP1 PUSH1 0x40 ADD PUSH1 0x40 MSTORE SWAP1 DUP2 PUSH1 0x0 DUP3 ADD SLOAD DUP2 MSTORE PUSH1 0x20 ADD PUSH1 0x1 DUP3 ADD SLOAD DUP2 MSTORE POP POP DUP2 MSTORE PUSH1 0x20 ADD PUSH1 0x2 DUP3 ADD PUSH1 0x40 MLOAD DUP1 PUSH1 0x40 ADD PUSH1 0x40 MSTORE SWAP1 DUP2 PUSH1 0x0 DUP3 ADD SLOAD DUP2 MSTORE PUSH1 0x20 ADD PUSH1 0x1 DUP3 ADD SLOAD DUP2 MSTORE POP POP DUP2 MSTORE PUSH1 0x20 ADD PUSH1 0x4 DUP3 ADD PUSH1 0x40 MLOAD DUP1 PUSH1 0x40 ADD PUSH1 0x40 MSTORE SWAP1 DUP2 PUSH1 0x0 DUP3 ADD SLOAD DUP2 MSTORE PUSH1 0x20 ADD PUSH1 0x1 DUP3 ADD SLOAD DUP2 MSTORE POP POP DUP2 MSTORE PUSH1 0x20 ADD PUSH1 0x6 DUP3 ADD PUSH1 0x40 MLOAD DUP1 PUSH1 0x40 ADD PUSH1 0x40 MSTORE SWAP1 DUP2 PUSH1 0x0 DUP3 ADD SLOAD DUP2 MSTORE PUSH1 0x20 ADD PUSH1 0x1 DUP3 ADD SLOAD DUP2 MSTORE POP POP DUP2 MSTORE POP POP DUP2 MSTORE PUSH1 0x20 ADD PUSH1 0xD DUP3 ADD PUSH1 0x40 MLOAD DUP1 PUSH1 0x80 ADD PUSH1 0x40 MSTORE SWAP1 DUP2 PUSH1 0x0 DUP3 ADD SLOAD DUP2 MSTORE PUSH1 0x20 ADD PUSH1 0x1 DUP3 ADD SLOAD DUP2 MSTORE PUSH1 0x20 ADD PUSH1 0x2 DUP3 ADD SLOAD DUP2 MSTORE PUSH1 0x20 ADD PUSH1 0x3 DUP3 ADD SLOAD DUP2 MSTORE POP POP DUP2 MSTORE POP POP SWAP1 POP SWAP5 SWAP4 POP POP POP POP JUMP JUMPDEST PUSH1 0x0 PUSH2 0x19E8 DUP4 PUSH2 0x678 JUMP JUMPDEST PUSH2 0x1A1B JUMPI PUSH1 0x0 PUSH1 0xA DUP2 GT ISZERO PUSH2 0x1A00 JUMPI PUSH2 0x19FF PUSH2 0x34BE JUMP JUMPDEST JUMPDEST DUP3 PUSH1 0xA DUP2 GT ISZERO PUSH2 0x1A13 JUMPI PUSH2 0x1A12 PUSH2 0x34BE JUMP JUMPDEST JUMPDEST EQ SWAP1 POP PUSH2 0x1A73 JUMP JUMPDEST DUP2 PUSH1 0xA DUP2 GT ISZERO PUSH2 0x1A2E JUMPI PUSH2 0x1A2D PUSH2 0x34BE JUMP JUMPDEST JUMPDEST PUSH1 0x5 DUP5 PUSH1 0x40 MLOAD PUSH2 0x1A3E SWAP2 SWAP1 PUSH2 0x3E30 JUMP JUMPDEST SWAP1 DUP2 MSTORE PUSH1 0x20 ADD PUSH1 0x40 MLOAD DUP1 SWAP2 SUB SWAP1 KECCAK256 PUSH1 0x0 ADD PUSH1 0x0 SWAP1 SLOAD SWAP1 PUSH2 0x100 EXP SWAP1 DIV PUSH1 0xFF AND PUSH1 0xA DUP2 GT ISZERO PUSH2 0x1A6F JUMPI PUSH2 0x1A6E PUSH2 0x34BE JUMP JUMPDEST JUMPDEST EQ SWAP1 POP JUMPDEST SWAP3 SWAP2 POP POP JUMP JUMPDEST PUSH1 0x0 PUSH1 0x1 PUSH1 0x0 SWAP1 SLOAD SWAP1 PUSH2 0x100 EXP SWAP1 DIV PUSH20 0xFFFFFFFFFFFFFFFFFFFFFFFFFFFFFFFFFFFFFFFF AND SWAP1 POP SWAP1 JUMP JUMPDEST PUSH2 0x1AAB PUSH2 0x2D16 JUMP JUMPDEST PUSH1 0x5 DUP3 PUSH1 0x40 MLOAD PUSH2 0x1ABB SWAP2 SWAP1 PUSH2 0x3E30 JUMP JUMPDEST SWAP1 DUP2 MSTORE PUSH1 0x20 ADD PUSH1 0x40 MLOAD DUP1 SWAP2 SUB SWAP1 KECCAK256 PUSH1 0x40 MLOAD DUP1 PUSH2 0x1C0 ADD PUSH1 0x40 MSTORE SWAP1 DUP2 PUSH1 0x0 DUP3 ADD PUSH1 0x0 SWAP1 SLOAD SWAP1 PUSH2 0x100 EXP SWAP1 DIV PUSH1 0xFF AND PUSH1 0xA DUP2 GT ISZERO PUSH2 0x1AFA JUMPI PUSH2 0x1AF9 PUSH2 0x34BE JUMP JUMPDEST JUMPDEST PUSH1 0xA DUP2 GT ISZERO PUSH2 0x1B0C JUMPI PUSH2 0x1B0B PUSH2 0x34BE JUMP JUMPDEST JUMPDEST DUP2 MSTORE PUSH1 0x20 ADD PUSH1 0x1 DUP3 ADD SLOAD DUP2 MSTORE PUSH1 0x20 ADD PUSH1 0x2 DUP3 ADD SLOAD DUP2 MSTORE PUSH1 0x20 ADD PUSH1 0x3 DUP3 ADD SLOAD DUP2 MSTORE PUSH1 0x20 ADD PUSH1 0x4 DUP3 ADD SLOAD DUP2 MSTORE PUSH1 0x20 ADD PUSH1 0x5 DUP3 ADD SLOAD DUP2 MSTORE PUSH1 0x20 ADD PUSH1 0x6 DUP3 ADD SLOAD DUP2 MSTORE PUSH1 0x20 ADD PUSH1 0x7 DUP3 ADD SLOAD DUP2 MSTORE PUSH1 0x20 ADD PUSH1 0x8 DUP3 ADD SLOAD DUP2 MSTORE PUSH1 0x20 ADD PUSH1 0x9 DUP3 ADD SLOAD DUP2 MSTORE PUSH1 0x20 ADD PUSH1 0xA DUP3 ADD SLOAD DUP2 MSTORE PUSH1 0x20 ADD PUSH1 0xB DUP3 ADD SLOAD DUP2 MSTORE PUSH1 0x20 ADD PUSH1 0xC DUP3 ADD SLOAD DUP2 MSTORE PUSH1 0x20 ADD PUSH1 0xD DUP3 ADD SLOAD DUP2 MSTORE POP POP SWAP1 POP SWAP2 SWAP1 POP JUMP JUMPDEST PUSH2 0x1BA1 PUSH2 0x2D97 JUMP JUMPDEST PUSH1 0x3 DUP3 PUSH1 0x40 MLOAD PUSH2 0x1BB1 SWAP2 SWAP1 PUSH2 0x3E30 JUMP JUMPDEST SWAP1 DUP2 MSTORE PUSH1 0x20 ADD PUSH1 0x40 MLOAD DUP1 SWAP2 SUB SWAP1 KECCAK256 PUSH1 0x40 MLOAD DUP1 PUSH1 0x80 ADD PUSH1 0x40 MSTORE SWAP1 DUP2 PUSH1 0x0 DUP3 ADD DUP1 SLOAD PUSH2 0x1BDA SWAP1 PUSH2 0x3D46 JUMP JUMPDEST DUP1 PUSH1 0x1F ADD PUSH1 0x20 DUP1 SWAP2 DIV MUL PUSH1 0x20 ADD PUSH1 0x40 MLOAD SWAP1 DUP2 ADD PUSH1 0x40 MSTORE DUP1 SWAP3 SWAP2 SWAP1 DUP2 DUP2 MSTORE PUSH1 0x20 ADD DUP3 DUP1 SLOAD PUSH2 0x1C06 SWAP1 PUSH2 0x3D46 JUMP JUMPDEST DUP1 ISZERO PUSH2 0x1C53 JUMPI DUP1 PUSH1 0x1F LT PUSH2 0x1C28 JUMPI PUSH2 0x100 DUP1 DUP4 SLOAD DIV MUL DUP4 MSTORE SWAP2 PUSH1 0x20 ADD SWAP2 PUSH2 0x1C53 JUMP JUMPDEST DUP3 ADD SWAP2 SWAP1 PUSH1 0x0 MSTORE PUSH1 0x20 PUSH1 0x0 KECCAK256 SWAP1 JUMPDEST DUP2 SLOAD DUP2 MSTORE SWAP1 PUSH1 0x1 ADD SWAP1 PUSH1 0x20 ADD DUP1 DUP4 GT PUSH2 0x1C36 JUMPI DUP3 SWAP1 SUB PUSH1 0x1F AND DUP3 ADD SWAP2 JUMPDEST POP POP POP POP POP DUP2 MSTORE PUSH1 0x20 ADD PUSH1 0x1 DUP3 ADD PUSH1 0x40 MLOAD DUP1 PUSH1 0x80 ADD PUSH1 0x40 MSTORE SWAP1 DUP2 PUSH1 0x0 DUP3 ADD PUSH1 0x0 SWAP1 SLOAD SWAP1 PUSH2 0x100 EXP SWAP1 DIV PUSH20 0xFFFFFFFFFFFFFFFFFFFFFFFFFFFFFFFFFFFFFFFF AND PUSH20 0xFFFFFFFFFFFFFFFFFFFFFFFFFFFFFFFFFFFFFFFF AND PUSH20 0xFFFFFFFFFFFFFFFFFFFFFFFFFFFFFFFFFFFFFFFF AND DUP2 MSTORE PUSH1 0x20 ADD PUSH1 0x1 DUP3 ADD PUSH1 0x0 SWAP1 SLOAD SWAP1 PUSH2 0x100 EXP SWAP1 DIV PUSH20 0xFFFFFFFFFFFFFFFFFFFFFFFFFFFFFFFFFFFFFFFF AND PUSH20 0xFFFFFFFFFFFFFFFFFFFFFFFFFFFFFFFFFFFFFFFF AND PUSH20 0xFFFFFFFFFFFFFFFFFFFFFFFFFFFFFFFFFFFFFFFF AND DUP2 MSTORE PUSH1 0x20 ADD PUSH1 0x2 DUP3 ADD PUSH1 0x0 SWAP1 SLOAD SWAP1 PUSH2 0x100 EXP SWAP1 DIV PUSH20 0xFFFFFFFFFFFFFFFFFFFFFFFFFFFFFFFFFFFFFFFF AND PUSH20 0xFFFFFFFFFFFFFFFFFFFFFFFFFFFFFFFFFFFFFFFF AND PUSH20 0xFFFFFFFFFFFFFFFFFFFFFFFFFFFFFFFFFFFFFFFF AND DUP2 MSTORE PUSH1 0x20 ADD PUSH1 0x3 DUP3 ADD DUP1 SLOAD DUP1 PUSH1 0x20 MUL PUSH1 0x20 ADD PUSH1 0x40 MLOAD SWAP1 DUP2 ADD PUSH1 0x40 MSTORE DUP1 SWAP3 SWAP2 SWAP1 DUP2 DUP2 MSTORE PUSH1 0x20 ADD DUP3 DUP1 SLOAD DUP1 ISZERO PUSH2 0x1DF3 JUMPI PUSH1 0x20 MUL DUP3 ADD SWAP2 SWAP1 PUSH1 0x0 MSTORE PUSH1 0x20 PUSH1 0x0 KECCAK256 SWAP1 JUMPDEST DUP2 PUSH1 0x0 SWAP1 SLOAD SWAP1 PUSH2 0x100 EXP SWAP1 DIV PUSH20 0xFFFFFFFFFFFFFFFFFFFFFFFFFFFFFFFFFFFFFFFF AND PUSH20 0xFFFFFFFFFFFFFFFFFFFFFFFFFFFFFFFFFFFFFFFF AND DUP2 MSTORE PUSH1 0x20 ADD SWAP1 PUSH1 0x1 ADD SWAP1 DUP1 DUP4 GT PUSH2 0x1DA9 JUMPI JUMPDEST POP POP POP POP POP DUP2 MSTORE POP POP DUP2 MSTORE PUSH1 0x20 ADD PUSH1 0x5 DUP3 ADD PUSH1 0x40 MLOAD DUP1 PUSH1 0x80 ADD PUSH1 0x40 MSTORE SWAP1 DUP2 PUSH1 0x0 DUP3 ADD PUSH1 0x40 MLOAD DUP1 PUSH1 0x40 ADD PUSH1 0x40 MSTORE SWAP1 DUP2 PUSH1 0x0 DUP3 ADD SLOAD DUP2 MSTORE PUSH1 0x20 ADD PUSH1 0x1 DUP3 ADD SLOAD DUP2 MSTORE POP POP DUP2 MSTORE PUSH1 0x20 ADD PUSH1 0x2 DUP3 ADD PUSH1 0x40 MLOAD DUP1 PUSH1 0x40 ADD PUSH1 0x40 MSTORE SWAP1 DUP2 PUSH1 0x0 DUP3 ADD SLOAD DUP2 MSTORE PUSH1 0x20 ADD PUSH1 0x1 DUP3 ADD SLOAD DUP2 MSTORE POP POP DUP2 MSTORE PUSH1 0x20 ADD PUSH1 0x4 DUP3 ADD PUSH1 0x40 MLOAD DUP1 PUSH1 0x40 ADD PUSH1 0x40 MSTORE SWAP1 DUP2 PUSH1 0x0 DUP3 ADD SLOAD DUP2 MSTORE PUSH1 0x20 ADD PUSH1 0x1 DUP3 ADD SLOAD DUP2 MSTORE POP POP DUP2 MSTORE PUSH1 0x20 ADD PUSH1 0x6 DUP3 ADD PUSH1 0x40 MLOAD DUP1 PUSH1 0x40 ADD PUSH1 0x40 MSTORE SWAP1 DUP2 PUSH1 0x0 DUP3 ADD SLOAD DUP2 MSTORE PUSH1 0x20 ADD PUSH1 0x1 DUP3 ADD SLOAD DUP2 MSTORE POP POP DUP2 MSTORE POP POP DUP2 MSTORE PUSH1 0x20 ADD PUSH1 0xD DUP3 ADD PUSH1 0x40 MLOAD DUP1 PUSH1 0x80 ADD PUSH1 0x40 MSTORE SWAP1 DUP2 PUSH1 0x0 DUP3 ADD SLOAD DUP2 MSTORE PUSH1 0x20 ADD PUSH1 0x1 DUP3 ADD SLOAD DUP2 MSTORE PUSH1 0x20 ADD PUSH1 0x2 DUP3 ADD SLOAD DUP2 MSTORE PUSH1 0x20 ADD PUSH1 0x3 DUP3 ADD SLOAD DUP2 MSTORE POP POP DUP2 MSTORE POP POP SWAP1 POP SWAP2 SWAP1 POP JUMP JUMPDEST PUSH2 0x1EFF PUSH2 0x236C JUMP JUMPDEST POP PUSH2 0x1F0B DUP2 PUSH1 0x4 PUSH2 0x19DD JUMP JUMPDEST PUSH2 0x1F4A JUMPI PUSH1 0x40 MLOAD PUSH32 0x8C379A000000000000000000000000000000000000000000000000000000000 DUP2 MSTORE PUSH1 0x4 ADD PUSH2 0x1F41 SWAP1 PUSH2 0x4332 JUMP JUMPDEST PUSH1 0x40 MLOAD DUP1 SWAP2 SUB SWAP1 REVERT JUMPDEST TIMESTAMP PUSH1 0x5 DUP3 PUSH1 0x40 MLOAD PUSH2 0x1F5B SWAP2 SWAP1 PUSH2 0x3E30 JUMP JUMPDEST SWAP1 DUP2 MSTORE PUSH1 0x20 ADD PUSH1 0x40 MLOAD DUP1 SWAP2 SUB SWAP1 KECCAK256 PUSH1 0xD ADD DUP2 SWAP1 SSTORE POP PUSH2 0x1F7B DUP2 PUSH1 0xA PUSH2 0x2375 JUMP JUMPDEST POP JUMP JUMPDEST PUSH2 0x1F86 PUSH2 0x236C JUMP JUMPDEST POP PUSH2 0x1F92 DUP2 PUSH1 0x2 PUSH2 0x19DD JUMP JUMPDEST PUSH2 0x1FD1 JUMPI PUSH1 0x40 MLOAD PUSH32 0x8C379A000000000000000000000000000000000000000000000000000000000 DUP2 MSTORE PUSH1 0x4 ADD PUSH2 0x1FC8 SWAP1 PUSH2 0x3DD4 JUMP JUMPDEST PUSH1 0x40 MLOAD DUP1 SWAP2 SUB SWAP1 REVERT JUMPDEST TIMESTAMP PUSH1 0x5 DUP3 PUSH1 0x40 MLOAD PUSH2 0x1FE2 SWAP2 SWAP1 PUSH2 0x3E30 JUMP JUMPDEST SWAP1 DUP2 MSTORE PUSH1 0x20 ADD PUSH1 0x40 MLOAD DUP1 SWAP2 SUB SWAP1 KECCAK256 PUSH1 0xC ADD DUP2 SWAP1 SSTORE POP PUSH2 0x2002 DUP2 PUSH1 0x9 PUSH2 0x2375 JUMP JUMPDEST POP JUMP JUMPDEST PUSH2 0x200D PUSH2 0x2D16 JUMP JUMPDEST PUSH2 0x2015 PUSH2 0x236C JUMP JUMPDEST POP PUSH2 0x201F DUP3 PUSH2 0x678 JUMP JUMPDEST PUSH2 0x205E JUMPI PUSH1 0x40 MLOAD PUSH32 0x8C379A000000000000000000000000000000000000000000000000000000000 DUP2 MSTORE PUSH1 0x4 ADD PUSH2 0x2055 SWAP1 PUSH2 0x417D JUMP JUMPDEST PUSH1 0x40 MLOAD DUP1 SWAP2 SUB SWAP1 REVERT JUMPDEST PUSH1 0x0 PUSH1 0x5 DUP4 PUSH1 0x40 MLOAD PUSH2 0x2070 SWAP2 SWAP1 PUSH2 0x3E30 JUMP JUMPDEST SWAP1 DUP2 MSTORE PUSH1 0x20 ADD PUSH1 0x40 MLOAD DUP1 SWAP2 SUB SWAP1 KECCAK256 PUSH1 0x1 ADD SLOAD EQ PUSH2 0x20C2 JUMPI PUSH1 0x40 MLOAD PUSH32 0x8C379A000000000000000000000000000000000000000000000000000000000 DUP2 MSTORE PUSH1 0x4 ADD PUSH2 0x20B9 SWAP1 PUSH2 0x4493 JUMP JUMPDEST PUSH1 0x40 MLOAD DUP1 SWAP2 SUB SWAP1 REVERT JUMPDEST TIMESTAMP PUSH1 0x5 DUP4 PUSH1 0x40 MLOAD PUSH2 0x20D3 SWAP2 SWAP1 PUSH2 0x3E30 JUMP JUMPDEST SWAP1 DUP2 MSTORE PUSH1 0x20 ADD PUSH1 0x40 MLOAD DUP1 SWAP2 SUB SWAP1 KECCAK256 PUSH1 0x1 ADD DUP2 SWAP1 SSTORE POP PUSH2 0x20F1 DUP3 PUSH2 0x23FB JUMP JUMPDEST PUSH1 0x5 DUP3 PUSH1 0x40 MLOAD PUSH2 0x2101 SWAP2 SWAP1 PUSH2 0x3E30 JUMP JUMPDEST SWAP1 DUP2 MSTORE PUSH1 0x20 ADD PUSH1 0x40 MLOAD DUP1 SWAP2 SUB SWAP1 KECCAK256 PUSH1 0x40 MLOAD DUP1 PUSH2 0x1C0 ADD PUSH1 0x40 MSTORE SWAP1 DUP2 PUSH1 0x0 DUP3 ADD PUSH1 0x0 SWAP1 SLOAD SWAP1 PUSH2 0x100 EXP SWAP1 DIV PUSH1 0xFF AND PUSH1 0xA DUP2 GT ISZERO PUSH2 0x2140 JUMPI PUSH2 0x213F PUSH2 0x34BE JUMP JUMPDEST JUMPDEST PUSH1 0xA DUP2 GT ISZERO PUSH2 0x2152 JUMPI PUSH2 0x2151 PUSH2 0x34BE JUMP JUMPDEST JUMPDEST DUP2 MSTORE PUSH1 0x20 ADD PUSH1 0x1 DUP3 ADD SLOAD DUP2 MSTORE PUSH1 0x20 ADD PUSH1 0x2 DUP3 ADD SLOAD DUP2 MSTORE PUSH1 0x20 ADD PUSH1 0x3 DUP3 ADD SLOAD DUP2 MSTORE PUSH1 0x20 ADD PUSH1 0x4 DUP3 ADD SLOAD DUP2 MSTORE PUSH1 0x20 ADD PUSH1 0x5 DUP3 ADD SLOAD DUP2 MSTORE PUSH1 0x20 ADD PUSH1 0x6 DUP3 ADD SLOAD DUP2 MSTORE PUSH1 0x20 ADD PUSH1 0x7 DUP3 ADD SLOAD DUP2 MSTORE PUSH1 0x20 ADD PUSH1 0x8 DUP3 ADD SLOAD DUP2 MSTORE PUSH1 0x20 ADD PUSH1 0x9 DUP3 ADD SLOAD DUP2 MSTORE PUSH1 0x20 ADD PUSH1 0xA DUP3 ADD SLOAD DUP2 MSTORE PUSH1 0x20 ADD PUSH1 0xB DUP3 ADD SLOAD DUP2 MSTORE PUSH1 0x20 ADD PUSH1 0xC DUP3 ADD SLOAD DUP2 MSTORE PUSH1 0x20 ADD PUSH1 0xD DUP3 ADD SLOAD DUP2 MSTORE POP POP SWAP1 POP SWAP2 SWAP1 POP JUMP JUMPDEST PUSH2 0x21E7 PUSH2 0x24B4 JUMP JUMPDEST PUSH1 0x0 PUSH20 0xFFFFFFFFFFFFFFFFFFFFFFFFFFFFFFFFFFFFFFFF AND DUP2 PUSH20 0xFFFFFFFFFFFFFFFFFFFFFFFFFFFFFFFFFFFFFFFF AND SUB PUSH2 0x2256 JUMPI PUSH1 0x40 MLOAD PUSH32 0x8C379A000000000000000000000000000000000000000000000000000000000 DUP2 MSTORE PUSH1 0x4 ADD PUSH2 0x224D SWAP1 PUSH2 0x4525 JUMP JUMPDEST PUSH1 0x40 MLOAD DUP1 SWAP2 SUB SWAP1 REVERT JUMPDEST PUSH2 0x225F DUP2 PUSH2 0x2532 JUMP JUMPDEST POP JUMP JUMPDEST PUSH2 0x226A PUSH2 0x24B4 JUMP JUMPDEST PUSH1 0x0 PUSH20 0xFFFFFFFFFFFFFFFFFFFFFFFFFFFFFFFFFFFFFFFF AND DUP2 PUSH20 0xFFFFFFFFFFFFFFFFFFFFFFFFFFFFFFFFFFFFFFFF AND SUB PUSH2 0x22D9 JUMPI PUSH1 0x40 MLOAD PUSH32 0x8C379A000000000000000000000000000000000000000000000000000000000 DUP2 MSTORE PUSH1 0x4 ADD PUSH2 0x22D0 SWAP1 PUSH2 0x45B7 JUMP JUMPDEST PUSH1 0x40 MLOAD DUP1 SWAP2 SUB SWAP1 REVERT JUMPDEST PUSH1 0x1 PUSH1 0x14 SWAP1 SLOAD SWAP1 PUSH2 0x100 EXP SWAP1 DIV PUSH1 0xFF AND PUSH2 0x2328 JUMPI PUSH1 0x40 MLOAD PUSH32 0x8C379A000000000000000000000000000000000000000000000000000000000 DUP2 MSTORE PUSH1 0x4 ADD PUSH2 0x231F SWAP1 PUSH2 0x4649 JUMP JUMPDEST PUSH1 0x40 MLOAD DUP1 SWAP2 SUB SWAP1 REVERT JUMPDEST DUP1 PUSH1 0x1 PUSH1 0x0 PUSH2 0x100 EXP DUP2 SLOAD DUP2 PUSH20 0xFFFFFFFFFFFFFFFFFFFFFFFFFFFFFFFFFFFFFFFF MUL NOT AND SWAP1 DUP4 PUSH20 0xFFFFFFFFFFFFFFFFFFFFFFFFFFFFFFFFFFFFFFFF AND MUL OR SWAP1 SSTORE POP POP JUMP JUMPDEST PUSH1 0x0 PUSH1 0x1 SWAP1 POP SWAP1 JUMP JUMPDEST DUP1 PUSH1 0x5 DUP4 PUSH1 0x40 MLOAD PUSH2 0x2386 SWAP2 SWAP1 PUSH2 0x3E30 JUMP JUMPDEST SWAP1 DUP2 MSTORE PUSH1 0x20 ADD PUSH1 0x40 MLOAD DUP1 SWAP2 SUB SWAP1 KECCAK256 PUSH1 0x0 ADD PUSH1 0x0 PUSH2 0x100 EXP DUP2 SLOAD DUP2 PUSH1 0xFF MUL NOT AND SWAP1 DUP4 PUSH1 0xA DUP2 GT ISZERO PUSH2 0x23B9 JUMPI PUSH2 0x23B8 PUSH2 0x34BE JUMP JUMPDEST JUMPDEST MUL OR SWAP1 SSTORE POP PUSH32 0x10CA3D89184491F5D8DE422BD36534ABE6EB4B4AA1429A261BDB5FF1DD9AC386 DUP3 DUP3 PUSH1 0x40 MLOAD PUSH2 0x23EF SWAP3 SWAP2 SWAP1 PUSH2 0x46B1 JUMP JUMPDEST PUSH1 0x40 MLOAD DUP1 SWAP2 SUB SWAP1 LOG1 POP POP JUMP JUMPDEST PUSH1 0x0 PUSH1 0x5 DUP3 PUSH1 0x40 MLOAD PUSH2 0x240D SWAP2 SWAP1 PUSH2 0x3E30 JUMP JUMPDEST SWAP1 DUP2 MSTORE PUSH1 0x20 ADD PUSH1 0x40 MLOAD DUP1 SWAP2 SUB SWAP1 KECCAK256 PUSH1 0x1 ADD SLOAD EQ ISZERO DUP1 ISZERO PUSH2 0x244F JUMPI POP PUSH1 0x0 PUSH1 0x5 DUP3 PUSH1 0x40 MLOAD PUSH2 0x243A SWAP2 SWAP1 PUSH2 0x3E30 JUMP JUMPDEST SWAP1 DUP2 MSTORE PUSH1 0x20 ADD PUSH1 0x40 MLOAD DUP1 SWAP2 SUB SWAP1 KECCAK256 PUSH1 0x2 ADD SLOAD EQ ISZERO JUMPDEST ISZERO PUSH2 0x248A JUMPI TIMESTAMP PUSH1 0x5 DUP3 PUSH1 0x40 MLOAD PUSH2 0x2465 SWAP2 SWAP1 PUSH2 0x3E30 JUMP JUMPDEST SWAP1 DUP2 MSTORE PUSH1 0x20 ADD PUSH1 0x40 MLOAD DUP1 SWAP2 SUB SWAP1 KECCAK256 PUSH1 0x4 ADD DUP2 SWAP1 SSTORE POP PUSH2 0x2485 DUP2 PUSH1 0x1 PUSH2 0x2375 JUMP JUMPDEST PUSH2 0x24B1 JUMP JUMPDEST TIMESTAMP PUSH1 0x5 DUP3 PUSH1 0x40 MLOAD PUSH2 0x249B SWAP2 SWAP1 PUSH2 0x3E30 JUMP JUMPDEST SWAP1 DUP2 MSTORE PUSH1 0x20 ADD PUSH1 0x40 MLOAD DUP1 SWAP2 SUB SWAP1 KECCAK256 PUSH1 0x3 ADD DUP2 SWAP1 SSTORE POP JUMPDEST POP JUMP JUMPDEST PUSH2 0x24BC PUSH2 0x2C4E JUMP JUMPDEST PUSH20 0xFFFFFFFFFFFFFFFFFFFFFFFFFFFFFFFFFFFFFFFF AND PUSH2 0x24DA PUSH2 0x1282 JUMP JUMPDEST PUSH20 0xFFFFFFFFFFFFFFFFFFFFFFFFFFFFFFFFFFFFFFFF AND EQ PUSH2 0x2530 JUMPI PUSH1 0x40 MLOAD PUSH32 0x8C379A000000000000000000000000000000000000000000000000000000000 DUP2 MSTORE PUSH1 0x4 ADD PUSH2 0x2527 SWAP1 PUSH2 0x472D JUMP JUMPDEST PUSH1 0x40 MLOAD DUP1 SWAP2 SUB SWAP1 REVERT JUMPDEST JUMP JUMPDEST PUSH1 0x0 DUP1 PUSH1 0x0 SWAP1 SLOAD SWAP1 PUSH2 0x100 EXP SWAP1 DIV PUSH20 0xFFFFFFFFFFFFFFFFFFFFFFFFFFFFFFFFFFFFFFFF AND SWAP1 POP DUP2 PUSH1 0x0 DUP1 PUSH2 0x100 EXP DUP2 SLOAD DUP2 PUSH20 0xFFFFFFFFFFFFFFFFFFFFFFFFFFFFFFFFFFFFFFFF MUL NOT AND SWAP1 DUP4 PUSH20 0xFFFFFFFFFFFFFFFFFFFFFFFFFFFFFFFFFFFFFFFF AND MUL OR SWAP1 SSTORE POP DUP2 PUSH20 0xFFFFFFFFFFFFFFFFFFFFFFFFFFFFFFFFFFFFFFFF AND DUP2 PUSH20 0xFFFFFFFFFFFFFFFFFFFFFFFFFFFFFFFFFFFFFFFF AND PUSH32 0x8BE0079C531659141344CD1FD0A4F28419497F9722A3DAAFE3B4186F6B6457E0 PUSH1 0x40 MLOAD PUSH1 0x40 MLOAD DUP1 SWAP2 SUB SWAP1 LOG3 POP POP JUMP JUMPDEST PUSH1 0x0 DUP1 DUP3 PUSH20 0xFFFFFFFFFFFFFFFFFFFFFFFFFFFFFFFFFFFFFFFF AND EXTCODESIZE GT SWAP1 POP SWAP2 SWAP1 POP JUMP JUMPDEST PUSH1 0x0 PUSH20 0xFFFFFFFFFFFFFFFFFFFFFFFFFFFFFFFFFFFFFFFF AND DUP2 PUSH1 0x40 ADD MLOAD PUSH20 0xFFFFFFFFFFFFFFFFFFFFFFFFFFFFFFFFFFFFFFFF AND SUB PUSH2 0x268C JUMPI PUSH1 0x40 MLOAD PUSH32 0x8C379A000000000000000000000000000000000000000000000000000000000 DUP2 MSTORE PUSH1 0x4 ADD PUSH2 0x2683 SWAP1 PUSH2 0x4799 JUMP JUMPDEST PUSH1 0x40 MLOAD DUP1 SWAP2 SUB SWAP1 REVERT JUMPDEST PUSH1 0x0 PUSH20 0xFFFFFFFFFFFFFFFFFFFFFFFFFFFFFFFFFFFFFFFF AND DUP2 PUSH1 0x20 ADD MLOAD PUSH20 0xFFFFFFFFFFFFFFFFFFFFFFFFFFFFFFFFFFFFFFFF AND SUB PUSH2 0x26FF JUMPI PUSH1 0x40 MLOAD PUSH32 0x8C379A000000000000000000000000000000000000000000000000000000000 DUP2 MSTORE PUSH1 0x4 ADD PUSH2 0x26F6 SWAP1 PUSH2 0x4805 JUMP JUMPDEST PUSH1 0x40 MLOAD DUP1 SWAP2 SUB SWAP1 REVERT JUMPDEST PUSH1 0x0 PUSH20 0xFFFFFFFFFFFFFFFFFFFFFFFFFFFFFFFFFFFFFFFF AND DUP2 PUSH1 0x0 ADD MLOAD PUSH20 0xFFFFFFFFFFFFFFFFFFFFFFFFFFFFFFFFFFFFFFFF AND SUB PUSH2 0x2772 JUMPI PUSH1 0x40 MLOAD PUSH32 0x8C379A000000000000000000000000000000000000000000000000000000000 DUP2 MSTORE PUSH1 0x4 ADD PUSH2 0x2769 SWAP1 PUSH2 0x4871 JUMP JUMPDEST PUSH1 0x40 MLOAD DUP1 SWAP2 SUB SWAP1 REVERT JUMPDEST PUSH1 0x0 DUP2 PUSH1 0x60 ADD MLOAD MLOAD GT PUSH2 0x27BA JUMPI PUSH1 0x40 MLOAD PUSH32 0x8C379A000000000000000000000000000000000000000000000000000000000 DUP2 MSTORE PUSH1 0x4 ADD PUSH2 0x27B1 SWAP1 PUSH2 0x48DD JUMP JUMPDEST PUSH1 0x40 MLOAD DUP1 SWAP2 SUB SWAP1 REVERT JUMPDEST POP JUMP JUMPDEST PUSH1 0x0 DUP2 PUSH1 0x0 ADD MLOAD PUSH1 0x20 ADD MLOAD EQ PUSH2 0x2808 JUMPI PUSH1 0x40 MLOAD PUSH32 0x8C379A000000000000000000000000000000000000000000000000000000000 DUP2 MSTORE PUSH1 0x4 ADD PUSH2 0x27FF SWAP1 PUSH2 0x4949 JUMP JUMPDEST PUSH1 0x40 MLOAD DUP1 SWAP2 SUB SWAP1 REVERT JUMPDEST PUSH1 0x0 DUP2 PUSH1 0x60 ADD MLOAD PUSH1 0x20 ADD MLOAD EQ PUSH2 0x2853 JUMPI PUSH1 0x40 MLOAD PUSH32 0x8C379A000000000000000000000000000000000000000000000000000000000 DUP2 MSTORE PUSH1 0x4 ADD PUSH2 0x284A SWAP1 PUSH2 0x49B5 JUMP JUMPDEST PUSH1 0x40 MLOAD DUP1 SWAP2 SUB SWAP1 REVERT JUMPDEST POP JUMP JUMPDEST DUP1 PUSH1 0x40 ADD MLOAD PUSH20 0xFFFFFFFFFFFFFFFFFFFFFFFFFFFFFFFFFFFFFFFF AND DUP3 PUSH1 0x40 ADD MLOAD PUSH20 0xFFFFFFFFFFFFFFFFFFFFFFFFFFFFFFFFFFFFFFFF AND EQ PUSH2 0x28CC JUMPI PUSH1 0x40 MLOAD PUSH32 0x8C379A000000000000000000000000000000000000000000000000000000000 DUP2 MSTORE PUSH1 0x4 ADD PUSH2 0x28C3 SWAP1 PUSH2 0x4A21 JUMP JUMPDEST PUSH1 0x40 MLOAD DUP1 SWAP2 SUB SWAP1 REVERT JUMPDEST DUP1 PUSH1 0x20 ADD MLOAD PUSH20 0xFFFFFFFFFFFFFFFFFFFFFFFFFFFFFFFFFFFFFFFF AND DUP3 PUSH1 0x20 ADD MLOAD PUSH20 0xFFFFFFFFFFFFFFFFFFFFFFFFFFFFFFFFFFFFFFFF AND EQ PUSH2 0x2942 JUMPI PUSH1 0x40 MLOAD PUSH32 0x8C379A000000000000000000000000000000000000000000000000000000000 DUP2 MSTORE PUSH1 0x4 ADD PUSH2 0x2939 SWAP1 PUSH2 0x4A8D JUMP JUMPDEST PUSH1 0x40 MLOAD DUP1 SWAP2 SUB SWAP1 REVERT JUMPDEST DUP1 PUSH1 0x0 ADD MLOAD PUSH20 0xFFFFFFFFFFFFFFFFFFFFFFFFFFFFFFFFFFFFFFFF AND DUP3 PUSH1 0x0 ADD MLOAD PUSH20 0xFFFFFFFFFFFFFFFFFFFFFFFFFFFFFFFFFFFFFFFF AND EQ PUSH2 0x29B8 JUMPI PUSH1 0x40 MLOAD PUSH32 0x8C379A000000000000000000000000000000000000000000000000000000000 DUP2 MSTORE PUSH1 0x4 ADD PUSH2 0x29AF SWAP1 PUSH2 0x4AF9 JUMP JUMPDEST PUSH1 0x40 MLOAD DUP1 SWAP2 SUB SWAP1 REVERT JUMPDEST DUP1 PUSH1 0x60 ADD MLOAD MLOAD DUP3 PUSH1 0x60 ADD MLOAD MLOAD EQ PUSH2 0x2A04 JUMPI PUSH1 0x40 MLOAD PUSH32 0x8C379A000000000000000000000000000000000000000000000000000000000 DUP2 MSTORE PUSH1 0x4 ADD PUSH2 0x29FB SWAP1 PUSH2 0x4B65 JUMP JUMPDEST PUSH1 0x40 MLOAD DUP1 SWAP2 SUB SWAP1 REVERT JUMPDEST PUSH1 0x0 JUMPDEST DUP3 PUSH1 0x60 ADD MLOAD MLOAD DUP2 LT ISZERO PUSH2 0x2AD1 JUMPI DUP2 PUSH1 0x60 ADD MLOAD DUP2 DUP2 MLOAD DUP2 LT PUSH2 0x2A2B JUMPI PUSH2 0x2A2A PUSH2 0x4B85 JUMP JUMPDEST JUMPDEST PUSH1 0x20 MUL PUSH1 0x20 ADD ADD MLOAD PUSH20 0xFFFFFFFFFFFFFFFFFFFFFFFFFFFFFFFFFFFFFFFF AND DUP4 PUSH1 0x60 ADD MLOAD DUP3 DUP2 MLOAD DUP2 LT PUSH2 0x2A60 JUMPI PUSH2 0x2A5F PUSH2 0x4B85 JUMP JUMPDEST JUMPDEST PUSH1 0x20 MUL PUSH1 0x20 ADD ADD MLOAD PUSH20 0xFFFFFFFFFFFFFFFFFFFFFFFFFFFFFFFFFFFFFFFF AND EQ PUSH2 0x2ABE JUMPI PUSH1 0x40 MLOAD PUSH32 0x8C379A000000000000000000000000000000000000000000000000000000000 DUP2 MSTORE PUSH1 0x4 ADD PUSH2 0x2AB5 SWAP1 PUSH2 0x4C00 JUMP JUMPDEST PUSH1 0x40 MLOAD DUP1 SWAP2 SUB SWAP1 REVERT JUMPDEST DUP1 DUP1 PUSH2 0x2AC9 SWAP1 PUSH2 0x4C20 JUMP JUMPDEST SWAP2 POP POP PUSH2 0x2A07 JUMP JUMPDEST POP POP POP JUMP JUMPDEST PUSH2 0x2AE8 DUP3 PUSH1 0x0 ADD MLOAD DUP3 PUSH1 0x0 ADD MLOAD PUSH2 0x2C56 JUMP JUMPDEST PUSH2 0x2AFA DUP3 PUSH1 0x20 ADD MLOAD DUP3 PUSH1 0x20 ADD MLOAD PUSH2 0x2C56 JUMP JUMPDEST PUSH2 0x2B0C DUP3 PUSH1 0x40 ADD MLOAD DUP3 PUSH1 0x40 ADD MLOAD PUSH2 0x2C56 JUMP JUMPDEST PUSH2 0x2B1E DUP3 PUSH1 0x60 ADD MLOAD DUP3 PUSH1 0x60 ADD MLOAD PUSH2 0x2C56 JUMP JUMPDEST POP POP JUMP JUMPDEST DUP1 PUSH1 0x0 ADD MLOAD DUP3 PUSH1 0x0 ADD MLOAD EQ PUSH2 0x2B6C JUMPI PUSH1 0x40 MLOAD PUSH32 0x8C379A000000000000000000000000000000000000000000000000000000000 DUP2 MSTORE PUSH1 0x4 ADD PUSH2 0x2B63 SWAP1 PUSH2 0x4CB4 JUMP JUMPDEST PUSH1 0x40 MLOAD DUP1 SWAP2 SUB SWAP1 REVERT JUMPDEST DUP1 PUSH1 0x20 ADD MLOAD DUP3 PUSH1 0x20 ADD MLOAD EQ PUSH2 0x2BB6 JUMPI PUSH1 0x40 MLOAD PUSH32 0x8C379A000000000000000000000000000000000000000000000000000000000 DUP2 MSTORE PUSH1 0x4 ADD PUSH2 0x2BAD SWAP1 PUSH2 0x4D20 JUMP JUMPDEST PUSH1 0x40 MLOAD DUP1 SWAP2 SUB SWAP1 REVERT JUMPDEST DUP1 PUSH1 0x40 ADD MLOAD DUP3 PUSH1 0x40 ADD MLOAD EQ PUSH2 0x2C00 JUMPI PUSH1 0x40 MLOAD PUSH32 0x8C379A000000000000000000000000000000000000000000000000000000000 DUP2 MSTORE PUSH1 0x4 ADD PUSH2 0x2BF7 SWAP1 PUSH2 0x4D8C JUMP JUMPDEST PUSH1 0x40 MLOAD DUP1 SWAP2 SUB SWAP1 REVERT JUMPDEST DUP1 PUSH1 0x60 ADD MLOAD DUP3 PUSH1 0x60 ADD MLOAD EQ PUSH2 0x2C4A JUMPI PUSH1 0x40 MLOAD PUSH32 0x8C379A000000000000000000000000000000000000000000000000000000000 DUP2 MSTORE PUSH1 0x4 ADD PUSH2 0x2C41 SWAP1 PUSH2 0x4DF8 JUMP JUMPDEST PUSH1 0x40 MLOAD DUP1 SWAP2 SUB SWAP1 REVERT JUMPDEST POP POP JUMP JUMPDEST PUSH1 0x0 CALLER SWAP1 POP SWAP1 JUMP JUMPDEST DUP1 PUSH1 0x0 ADD MLOAD DUP3 PUSH1 0x0 ADD MLOAD EQ PUSH2 0x2CA0 JUMPI PUSH1 0x40 MLOAD PUSH32 0x8C379A000000000000000000000000000000000000000000000000000000000 DUP2 MSTORE PUSH1 0x4 ADD PUSH2 0x2C97 SWAP1 PUSH2 0x4E64 JUMP JUMPDEST PUSH1 0x40 MLOAD DUP1 SWAP2 SUB SWAP1 REVERT JUMPDEST DUP1 PUSH1 0x20 ADD MLOAD DUP3 PUSH1 0x20 ADD MLOAD EQ PUSH2 0x2CEA JUMPI PUSH1 0x40 MLOAD PUSH32 0x8C379A000000000000000000000000000000000000000000000000000000000 DUP2 MSTORE PUSH1 0x4 ADD PUSH2 0x2CE1 SWAP1 PUSH2 0x4ED0 JUMP JUMPDEST PUSH1 0x40 MLOAD DUP1 SWAP2 SUB SWAP1 REVERT JUMPDEST POP POP JUMP JUMPDEST PUSH1 0x40 MLOAD DUP1 PUSH1 0x80 ADD PUSH1 0x40 MSTORE DUP1 PUSH1 0x60 DUP2 MSTORE PUSH1 0x20 ADD PUSH1 0x60 DUP2 MSTORE PUSH1 0x20 ADD PUSH1 0x60 DUP2 MSTORE PUSH1 0x20 ADD PUSH1 0x0 DUP2 MSTORE POP SWAP1 JUMP JUMPDEST PUSH1 0x40 MLOAD DUP1 PUSH2 0x1C0 ADD PUSH1 0x40 MSTORE DUP1 PUSH1 0x0 PUSH1 0xA DUP2 GT ISZERO PUSH2 0x2D36 JUMPI PUSH2 0x2D35 PUSH2 0x34BE JUMP JUMPDEST JUMPDEST DUP2 MSTORE PUSH1 0x20 ADD PUSH1 0x0 DUP2 MSTORE PUSH1 0x20 ADD PUSH1 0x0 DUP2 MSTORE PUSH1 0x20 ADD PUSH1 0x0 DUP2 MSTORE PUSH1 0x20 ADD PUSH1 0x0 DUP2 MSTORE PUSH1 0x20 ADD PUSH1 0x0 DUP2 MSTORE PUSH1 0x20 ADD PUSH1 0x0 DUP2 MSTORE PUSH1 0x20 ADD PUSH1 0x0 DUP2 MSTORE PUSH1 0x20 ADD PUSH1 0x0 DUP2 MSTORE PUSH1 0x20 ADD PUSH1 0x0 DUP2 MSTORE PUSH1 0x20 ADD PUSH1 0x0 DUP2 MSTORE PUSH1 0x20 ADD PUSH1 0x0 DUP2 MSTORE PUSH1 0x20 ADD PUSH1 0x0 DUP2 MSTORE PUSH1 0x20 ADD PUSH1 0x0 DUP2 MSTORE POP SWAP1 JUMP JUMPDEST PUSH1 0x40 MLOAD DUP1 PUSH1 0x80 ADD PUSH1 0x40 MSTORE DUP1 PUSH1 0x60 DUP2 MSTORE PUSH1 0x20 ADD PUSH2 0x2DB1 PUSH2 0x2E5B JUMP JUMPDEST DUP2 MSTORE PUSH1 0x20 ADD PUSH2 0x2DBE PUSH2 0x2EC5 JUMP JUMPDEST DUP2 MSTORE PUSH1 0x20 ADD PUSH2 0x2DCB PUSH2 0x2F05 JUMP JUMPDEST DUP2 MSTORE POP SWAP1 JUMP JUMPDEST DUP3 DUP1 SLOAD DUP3 DUP3 SSTORE SWAP1 PUSH1 0x0 MSTORE PUSH1 0x20 PUSH1 0x0 KECCAK256 SWAP1 DUP2 ADD SWAP3 DUP3 ISZERO PUSH2 0x2E4A JUMPI SWAP2 PUSH1 0x20 MUL DUP3 ADD JUMPDEST DUP3 DUP2 GT ISZERO PUSH2 0x2E49 JUMPI DUP3 MLOAD DUP3 PUSH1 0x0 PUSH2 0x100 EXP DUP2 SLOAD DUP2 PUSH20 0xFFFFFFFFFFFFFFFFFFFFFFFFFFFFFFFFFFFFFFFF MUL NOT AND SWAP1 DUP4 PUSH20 0xFFFFFFFFFFFFFFFFFFFFFFFFFFFFFFFFFFFFFFFF AND MUL OR SWAP1 SSTORE POP SWAP2 PUSH1 0x20 ADD SWAP2 SWAP1 PUSH1 0x1 ADD SWAP1 PUSH2 0x2DF1 JUMP JUMPDEST JUMPDEST POP SWAP1 POP PUSH2 0x2E57 SWAP2 SWAP1 PUSH2 0x2F2D JUMP JUMPDEST POP SWAP1 JUMP JUMPDEST PUSH1 0x40 MLOAD DUP1 PUSH1 0x80 ADD PUSH1 0x40 MSTORE DUP1 PUSH1 0x0 PUSH20 0xFFFFFFFFFFFFFFFFFFFFFFFFFFFFFFFFFFFFFFFF AND DUP2 MSTORE PUSH1 0x20 ADD PUSH1 0x0 PUSH20 0xFFFFFFFFFFFFFFFFFFFFFFFFFFFFFFFFFFFFFFFF AND DUP2 MSTORE PUSH1 0x20 ADD PUSH1 0x0 PUSH20 0xFFFFFFFFFFFFFFFFFFFFFFFFFFFFFFFFFFFFFFFF AND DUP2 MSTORE PUSH1 0x20 ADD PUSH1 0x60 DUP2 MSTORE POP SWAP1 JUMP JUMPDEST PUSH1 0x40 MLOAD DUP1 PUSH1 0x80 ADD PUSH1 0x40 MSTORE DUP1 PUSH2 0x2ED8 PUSH2 0x2F4A JUMP JUMPDEST DUP2 MSTORE PUSH1 0x20 ADD PUSH2 0x2EE5 PUSH2 0x2F4A JUMP JUMPDEST DUP2 MSTORE PUSH1 0x20 ADD PUSH2 0x2EF2 PUSH2 0x2F4A JUMP JUMPDEST DUP2 MSTORE PUSH1 0x20 ADD PUSH2 0x2EFF PUSH2 0x2F4A JUMP JUMPDEST DUP2 MSTORE POP SWAP1 JUMP JUMPDEST PUSH1 0x40 MLOAD DUP1 PUSH1 0x80 ADD PUSH1 0x40 MSTORE DUP1 PUSH1 0x0 DUP2 MSTORE PUSH1 0x20 ADD PUSH1 0x0 DUP2 MSTORE PUSH1 0x20 ADD PUSH1 0x0 DUP2 MSTORE PUSH1 0x20 ADD PUSH1 0x0 DUP2 MSTORE POP SWAP1 JUMP JUMPDEST JUMPDEST DUP1 DUP3 GT ISZERO PUSH2 0x2F46 JUMPI PUSH1 0x0 DUP2 PUSH1 0x0 SWAP1 SSTORE POP PUSH1 0x1 ADD PUSH2 0x2F2E JUMP JUMPDEST POP SWAP1 JUMP JUMPDEST PUSH1 0x40 MLOAD DUP1 PUSH1 0x40 ADD PUSH1 0x40 MSTORE DUP1 PUSH1 0x0 DUP2 MSTORE PUSH1 0x20 ADD PUSH1 0x0 DUP2 MSTORE POP SWAP1 JUMP JUMPDEST PUSH1 0x0 PUSH1 0x40 MLOAD SWAP1 POP SWAP1 JUMP JUMPDEST PUSH1 0x0 DUP1 REVERT JUMPDEST PUSH1 0x0 DUP1 REVERT JUMPDEST PUSH1 0x0 PUSH20 0xFFFFFFFFFFFFFFFFFFFFFFFFFFFFFFFFFFFFFFFF DUP3 AND SWAP1 POP SWAP2 SWAP1 POP JUMP JUMPDEST PUSH1 0x0 PUSH2 0x2FA3 DUP3 PUSH2 0x2F78 JUMP JUMPDEST SWAP1 POP SWAP2 SWAP1 POP JUMP JUMPDEST PUSH2 0x2FB3 DUP2 PUSH2 0x2F98 JUMP JUMPDEST DUP2 EQ PUSH2 0x2FBE JUMPI PUSH1 0x0 DUP1 REVERT JUMPDEST POP JUMP JUMPDEST PUSH1 0x0 DUP2 CALLDATALOAD SWAP1 POP PUSH2 0x2FD0 DUP2 PUSH2 0x2FAA JUMP JUMPDEST SWAP3 SWAP2 POP POP JUMP JUMPDEST PUSH1 0x0 PUSH1 0x20 DUP3 DUP5 SUB SLT ISZERO PUSH2 0x2FEC JUMPI PUSH2 0x2FEB PUSH2 0x2F6E JUMP JUMPDEST JUMPDEST PUSH1 0x0 PUSH2 0x2FFA DUP5 DUP3 DUP6 ADD PUSH2 0x2FC1 JUMP JUMPDEST SWAP2 POP POP SWAP3 SWAP2 POP POP JUMP JUMPDEST PUSH1 0x0 DUP2 MLOAD SWAP1 POP SWAP2 SWAP1 POP JUMP JUMPDEST PUSH1 0x0 DUP3 DUP3 MSTORE PUSH1 0x20 DUP3 ADD SWAP1 POP SWAP3 SWAP2 POP POP JUMP JUMPDEST PUSH1 0x0 DUP2 SWAP1 POP PUSH1 0x20 DUP3 ADD SWAP1 POP SWAP2 SWAP1 POP JUMP JUMPDEST PUSH1 0x0 DUP2 MLOAD SWAP1 POP SWAP2 SWAP1 POP JUMP JUMPDEST PUSH1 0x0 DUP3 DUP3 MSTORE PUSH1 0x20 DUP3 ADD SWAP1 POP SWAP3 SWAP2 POP POP JUMP JUMPDEST PUSH1 0x0 JUMPDEST DUP4 DUP2 LT ISZERO PUSH2 0x3069 JUMPI DUP1 DUP3 ADD MLOAD DUP2 DUP5 ADD MSTORE PUSH1 0x20 DUP2 ADD SWAP1 POP PUSH2 0x304E JUMP JUMPDEST PUSH1 0x0 DUP5 DUP5 ADD MSTORE POP POP POP POP JUMP JUMPDEST PUSH1 0x0 PUSH1 0x1F NOT PUSH1 0x1F DUP4 ADD AND SWAP1 POP SWAP2 SWAP1 POP JUMP JUMPDEST PUSH1 0x0 PUSH2 0x3091 DUP3 PUSH2 0x302F JUMP JUMPDEST PUSH2 0x309B DUP2 DUP6 PUSH2 0x303A JUMP JUMPDEST SWAP4 POP PUSH2 0x30AB DUP2 DUP6 PUSH1 0x20 DUP7 ADD PUSH2 0x304B JUMP JUMPDEST PUSH2 0x30B4 DUP2 PUSH2 0x3075 JUMP JUMPDEST DUP5 ADD SWAP2 POP POP SWAP3 SWAP2 POP POP JUMP JUMPDEST PUSH1 0x0 PUSH2 0x30CB DUP4 DUP4 PUSH2 0x3086 JUMP JUMPDEST SWAP1 POP SWAP3 SWAP2 POP POP JUMP JUMPDEST PUSH1 0x0 PUSH1 0x20 DUP3 ADD SWAP1 POP SWAP2 SWAP1 POP JUMP JUMPDEST PUSH1 0x0 PUSH2 0x30EB DUP3 PUSH2 0x3003 JUMP JUMPDEST PUSH2 0x30F5 DUP2 DUP6 PUSH2 0x300E JUMP JUMPDEST SWAP4 POP DUP4 PUSH1 0x20 DUP3 MUL DUP6 ADD PUSH2 0x3107 DUP6 PUSH2 0x301F JUMP JUMPDEST DUP1 PUSH1 0x0 JUMPDEST DUP6 DUP2 LT ISZERO PUSH2 0x3143 JUMPI DUP5 DUP5 SUB DUP10 MSTORE DUP2 MLOAD PUSH2 0x3124 DUP6 DUP3 PUSH2 0x30BF JUMP JUMPDEST SWAP5 POP PUSH2 0x312F DUP4 PUSH2 0x30D3 JUMP JUMPDEST SWAP3 POP PUSH1 0x20 DUP11 ADD SWAP10 POP POP PUSH1 0x1 DUP2 ADD SWAP1 POP PUSH2 0x310B JUMP JUMPDEST POP DUP3 SWAP8 POP DUP8 SWAP6 POP POP POP POP POP POP SWAP3 SWAP2 POP POP JUMP JUMPDEST PUSH1 0x0 PUSH1 0x20 DUP3 ADD SWAP1 POP DUP2 DUP2 SUB PUSH1 0x0 DUP4 ADD MSTORE PUSH2 0x316F DUP2 DUP5 PUSH2 0x30E0 JUMP JUMPDEST SWAP1 POP SWAP3 SWAP2 POP POP JUMP JUMPDEST PUSH1 0x0 DUP1 REVERT JUMPDEST PUSH1 0x0 DUP1 REVERT JUMPDEST PUSH32 0x4E487B7100000000000000000000000000000000000000000000000000000000 PUSH1 0x0 MSTORE PUSH1 0x41 PUSH1 0x4 MSTORE PUSH1 0x24 PUSH1 0x0 REVERT JUMPDEST PUSH2 0x31B9 DUP3 PUSH2 0x3075 JUMP JUMPDEST DUP2 ADD DUP2 DUP2 LT PUSH8 0xFFFFFFFFFFFFFFFF DUP3 GT OR ISZERO PUSH2 0x31D8 JUMPI PUSH2 0x31D7 PUSH2 0x3181 JUMP JUMPDEST JUMPDEST DUP1 PUSH1 0x40 MSTORE POP POP POP JUMP JUMPDEST PUSH1 0x0 PUSH2 0x31EB PUSH2 0x2F64 JUMP JUMPDEST SWAP1 POP PUSH2 0x31F7 DUP3 DUP3 PUSH2 0x31B0 JUMP JUMPDEST SWAP2 SWAP1 POP JUMP JUMPDEST PUSH1 0x0 PUSH8 0xFFFFFFFFFFFFFFFF DUP3 GT ISZERO PUSH2 0x3217 JUMPI PUSH2 0x3216 PUSH2 0x3181 JUMP JUMPDEST JUMPDEST PUSH2 0x3220 DUP3 PUSH2 0x3075 JUMP JUMPDEST SWAP1 POP PUSH1 0x20 DUP2 ADD SWAP1 POP SWAP2 SWAP1 POP JUMP JUMPDEST DUP3 DUP2 DUP4 CALLDATACOPY PUSH1 0x0 DUP4 DUP4 ADD MSTORE POP POP POP JUMP JUMPDEST PUSH1 0x0 PUSH2 0x324F PUSH2 0x324A DUP5 PUSH2 0x31FC JUMP JUMPDEST PUSH2 0x31E1 JUMP JUMPDEST SWAP1 POP DUP3 DUP2 MSTORE PUSH1 0x20 DUP2 ADD DUP5 DUP5 DUP5 ADD GT ISZERO PUSH2 0x326B JUMPI PUSH2 0x326A PUSH2 0x317C JUMP JUMPDEST JUMPDEST PUSH2 0x3276 DUP5 DUP3 DUP6 PUSH2 0x322D JUMP JUMPDEST POP SWAP4 SWAP3 POP POP POP JUMP JUMPDEST PUSH1 0x0 DUP3 PUSH1 0x1F DUP4 ADD SLT PUSH2 0x3293 JUMPI PUSH2 0x3292 PUSH2 0x3177 JUMP JUMPDEST JUMPDEST DUP2 CALLDATALOAD PUSH2 0x32A3 DUP5 DUP3 PUSH1 0x20 DUP7 ADD PUSH2 0x323C JUMP JUMPDEST SWAP2 POP POP SWAP3 SWAP2 POP POP JUMP JUMPDEST PUSH1 0x0 PUSH1 0x20 DUP3 DUP5 SUB SLT ISZERO PUSH2 0x32C2 JUMPI PUSH2 0x32C1 PUSH2 0x2F6E JUMP JUMPDEST JUMPDEST PUSH1 0x0 DUP3 ADD CALLDATALOAD PUSH8 0xFFFFFFFFFFFFFFFF DUP2 GT ISZERO PUSH2 0x32E0 JUMPI PUSH2 0x32DF PUSH2 0x2F73 JUMP JUMPDEST JUMPDEST PUSH2 0x32EC DUP5 DUP3 DUP6 ADD PUSH2 0x327E JUMP JUMPDEST SWAP2 POP POP SWAP3 SWAP2 POP POP JUMP JUMPDEST PUSH1 0x0 DUP2 ISZERO ISZERO SWAP1 POP SWAP2 SWAP1 POP JUMP JUMPDEST PUSH2 0x330A DUP2 PUSH2 0x32F5 JUMP JUMPDEST DUP3 MSTORE POP POP JUMP JUMPDEST PUSH1 0x0 PUSH1 0x20 DUP3 ADD SWAP1 POP PUSH2 0x3325 PUSH1 0x0 DUP4 ADD DUP5 PUSH2 0x3301 JUMP JUMPDEST SWAP3 SWAP2 POP POP JUMP JUMPDEST PUSH1 0x0 DUP2 SWAP1 POP SWAP2 SWAP1 POP JUMP JUMPDEST PUSH2 0x333E DUP2 PUSH2 0x332B JUMP JUMPDEST DUP2 EQ PUSH2 0x3349 JUMPI PUSH1 0x0 DUP1 REVERT JUMPDEST POP JUMP JUMPDEST PUSH1 0x0 DUP2 CALLDATALOAD SWAP1 POP PUSH2 0x335B DUP2 PUSH2 0x3335 JUMP JUMPDEST SWAP3 SWAP2 POP POP JUMP JUMPDEST PUSH1 0x0 DUP1 PUSH1 0x0 DUP1 PUSH1 0x80 DUP6 DUP8 SUB SLT ISZERO PUSH2 0x337B JUMPI PUSH2 0x337A PUSH2 0x2F6E JUMP JUMPDEST JUMPDEST PUSH1 0x0 DUP6 ADD CALLDATALOAD PUSH8 0xFFFFFFFFFFFFFFFF DUP2 GT ISZERO PUSH2 0x3399 JUMPI PUSH2 0x3398 PUSH2 0x2F73 JUMP JUMPDEST JUMPDEST PUSH2 0x33A5 DUP8 DUP3 DUP9 ADD PUSH2 0x327E JUMP JUMPDEST SWAP5 POP POP PUSH1 0x20 DUP6 ADD CALLDATALOAD PUSH8 0xFFFFFFFFFFFFFFFF DUP2 GT ISZERO PUSH2 0x33C6 JUMPI PUSH2 0x33C5 PUSH2 0x2F73 JUMP JUMPDEST JUMPDEST PUSH2 0x33D2 DUP8 DUP3 DUP9 ADD PUSH2 0x327E JUMP JUMPDEST SWAP4 POP POP PUSH1 0x40 DUP6 ADD CALLDATALOAD PUSH8 0xFFFFFFFFFFFFFFFF DUP2 GT ISZERO PUSH2 0x33F3 JUMPI PUSH2 0x33F2 PUSH2 0x2F73 JUMP JUMPDEST JUMPDEST PUSH2 0x33FF DUP8 DUP3 DUP9 ADD PUSH2 0x327E JUMP JUMPDEST SWAP3 POP POP PUSH1 0x60 PUSH2 0x3410 DUP8 DUP3 DUP9 ADD PUSH2 0x334C JUMP JUMPDEST SWAP2 POP POP SWAP3 SWAP6 SWAP2 SWAP5 POP SWAP3 POP JUMP JUMPDEST PUSH2 0x3425 DUP2 PUSH2 0x332B JUMP JUMPDEST DUP3 MSTORE POP POP JUMP JUMPDEST PUSH1 0x0 PUSH1 0x80 DUP4 ADD PUSH1 0x0 DUP4 ADD MLOAD DUP5 DUP3 SUB PUSH1 0x0 DUP7 ADD MSTORE PUSH2 0x3448 DUP3 DUP3 PUSH2 0x3086 JUMP JUMPDEST SWAP2 POP POP PUSH1 0x20 DUP4 ADD MLOAD DUP5 DUP3 SUB PUSH1 0x20 DUP7 ADD MSTORE PUSH2 0x3462 DUP3 DUP3 PUSH2 0x3086 JUMP JUMPDEST SWAP2 POP POP PUSH1 0x40 DUP4 ADD MLOAD DUP5 DUP3 SUB PUSH1 0x40 DUP7 ADD MSTORE PUSH2 0x347C DUP3 DUP3 PUSH2 0x3086 JUMP JUMPDEST SWAP2 POP POP PUSH1 0x60 DUP4 ADD MLOAD PUSH2 0x3491 PUSH1 0x60 DUP7 ADD DUP3 PUSH2 0x341C JUMP JUMPDEST POP DUP1 SWAP2 POP POP SWAP3 SWAP2 POP POP JUMP JUMPDEST PUSH1 0x0 PUSH1 0x20 DUP3 ADD SWAP1 POP DUP2 DUP2 SUB PUSH1 0x0 DUP4 ADD MSTORE PUSH2 0x34B6 DUP2 DUP5 PUSH2 0x342B JUMP JUMPDEST SWAP1 POP SWAP3 SWAP2 POP POP JUMP JUMPDEST PUSH32 0x4E487B7100000000000000000000000000000000000000000000000000000000 PUSH1 0x0 MSTORE PUSH1 0x21 PUSH1 0x4 MSTORE PUSH1 0x24 PUSH1 0x0 REVERT JUMPDEST PUSH1 0xB DUP2 LT PUSH2 0x34FE JUMPI PUSH2 0x34FD PUSH2 0x34BE JUMP JUMPDEST JUMPDEST POP JUMP JUMPDEST PUSH1 0x0 DUP2 SWAP1 POP PUSH2 0x350F DUP3 PUSH2 0x34ED JUMP JUMPDEST SWAP2 SWAP1 POP JUMP JUMPDEST PUSH1 0x0 PUSH2 0x351F DUP3 PUSH2 0x3501 JUMP JUMPDEST SWAP1 POP SWAP2 SWAP1 POP JUMP JUMPDEST PUSH2 0x352F DUP2 PUSH2 0x3514 JUMP JUMPDEST DUP3 MSTORE POP POP JUMP JUMPDEST PUSH2 0x1C0 DUP3 ADD PUSH1 0x0 DUP3 ADD MLOAD PUSH2 0x354C PUSH1 0x0 DUP6 ADD DUP3 PUSH2 0x3526 JUMP JUMPDEST POP PUSH1 0x20 DUP3 ADD MLOAD PUSH2 0x355F PUSH1 0x20 DUP6 ADD DUP3 PUSH2 0x341C JUMP JUMPDEST POP PUSH1 0x40 DUP3 ADD MLOAD PUSH2 0x3572 PUSH1 0x40 DUP6 ADD DUP3 PUSH2 0x341C JUMP JUMPDEST POP PUSH1 0x60 DUP3 ADD MLOAD PUSH2 0x3585 PUSH1 0x60 DUP6 ADD DUP3 PUSH2 0x341C JUMP JUMPDEST POP PUSH1 0x80 DUP3 ADD MLOAD PUSH2 0x3598 PUSH1 0x80 DUP6 ADD DUP3 PUSH2 0x341C JUMP JUMPDEST POP PUSH1 0xA0 DUP3 ADD MLOAD PUSH2 0x35AB PUSH1 0xA0 DUP6 ADD DUP3 PUSH2 0x341C JUMP JUMPDEST POP PUSH1 0xC0 DUP3 ADD MLOAD PUSH2 0x35BE PUSH1 0xC0 DUP6 ADD DUP3 PUSH2 0x341C JUMP JUMPDEST POP PUSH1 0xE0 DUP3 ADD MLOAD PUSH2 0x35D1 PUSH1 0xE0 DUP6 ADD DUP3 PUSH2 0x341C JUMP JUMPDEST POP PUSH2 0x100 DUP3 ADD MLOAD PUSH2 0x35E6 PUSH2 0x100 DUP6 ADD DUP3 PUSH2 0x341C JUMP JUMPDEST POP PUSH2 0x120 DUP3 ADD MLOAD PUSH2 0x35FB PUSH2 0x120 DUP6 ADD DUP3 PUSH2 0x341C JUMP JUMPDEST POP PUSH2 0x140 DUP3 ADD MLOAD PUSH2 0x3610 PUSH2 0x140 DUP6 ADD DUP3 PUSH2 0x341C JUMP JUMPDEST POP PUSH2 0x160 DUP3 ADD MLOAD PUSH2 0x3625 PUSH2 0x160 DUP6 ADD DUP3 PUSH2 0x341C JUMP JUMPDEST POP PUSH2 0x180 DUP3 ADD MLOAD PUSH2 0x363A PUSH2 0x180 DUP6 ADD DUP3 PUSH2 0x341C JUMP JUMPDEST POP PUSH2 0x1A0 DUP3 ADD MLOAD PUSH2 0x364F PUSH2 0x1A0 DUP6 ADD DUP3 PUSH2 0x341C JUMP JUMPDEST POP POP POP POP JUMP JUMPDEST PUSH1 0x0 PUSH2 0x1C0 DUP3 ADD SWAP1 POP PUSH2 0x366B PUSH1 0x0 DUP4 ADD DUP5 PUSH2 0x3535 JUMP JUMPDEST SWAP3 SWAP2 POP POP JUMP JUMPDEST PUSH2 0x367A DUP2 PUSH2 0x332B JUMP JUMPDEST DUP3 MSTORE POP POP JUMP JUMPDEST PUSH1 0x0 PUSH1 0x20 DUP3 ADD SWAP1 POP PUSH2 0x3695 PUSH1 0x0 DUP4 ADD DUP5 PUSH2 0x3671 JUMP JUMPDEST SWAP3 SWAP2 POP POP JUMP JUMPDEST PUSH2 0x36A4 DUP2 PUSH2 0x2F98 JUMP JUMPDEST DUP3 MSTORE POP POP JUMP JUMPDEST PUSH1 0x0 PUSH1 0x20 DUP3 ADD SWAP1 POP PUSH2 0x36BF PUSH1 0x0 DUP4 ADD DUP5 PUSH2 0x369B JUMP JUMPDEST SWAP3 SWAP2 POP POP JUMP JUMPDEST PUSH1 0x0 DUP1 REVERT JUMPDEST PUSH1 0x0 DUP1 REVERT JUMPDEST PUSH1 0x0 PUSH8 0xFFFFFFFFFFFFFFFF DUP3 GT ISZERO PUSH2 0x36EA JUMPI PUSH2 0x36E9 PUSH2 0x3181 JUMP JUMPDEST JUMPDEST PUSH1 0x20 DUP3 MUL SWAP1 POP PUSH1 0x20 DUP2 ADD SWAP1 POP SWAP2 SWAP1 POP JUMP JUMPDEST PUSH1 0x0 DUP1 REVERT JUMPDEST PUSH1 0x0 PUSH2 0x3713 PUSH2 0x370E DUP5 PUSH2 0x36CF JUMP JUMPDEST PUSH2 0x31E1 JUMP JUMPDEST SWAP1 POP DUP1 DUP4 DUP3 MSTORE PUSH1 0x20 DUP3 ADD SWAP1 POP PUSH1 0x20 DUP5 MUL DUP4 ADD DUP6 DUP2 GT ISZERO PUSH2 0x3736 JUMPI PUSH2 0x3735 PUSH2 0x36FB JUMP JUMPDEST JUMPDEST DUP4 JUMPDEST DUP2 DUP2 LT ISZERO PUSH2 0x375F JUMPI DUP1 PUSH2 0x374B DUP9 DUP3 PUSH2 0x2FC1 JUMP JUMPDEST DUP5 MSTORE PUSH1 0x20 DUP5 ADD SWAP4 POP POP PUSH1 0x20 DUP2 ADD SWAP1 POP PUSH2 0x3738 JUMP JUMPDEST POP POP POP SWAP4 SWAP3 POP POP POP JUMP JUMPDEST PUSH1 0x0 DUP3 PUSH1 0x1F DUP4 ADD SLT PUSH2 0x377E JUMPI PUSH2 0x377D PUSH2 0x3177 JUMP JUMPDEST JUMPDEST DUP2 CALLDATALOAD PUSH2 0x378E DUP5 DUP3 PUSH1 0x20 DUP7 ADD PUSH2 0x3700 JUMP JUMPDEST SWAP2 POP POP SWAP3 SWAP2 POP POP JUMP JUMPDEST PUSH1 0x0 PUSH1 0x80 DUP3 DUP5 SUB SLT ISZERO PUSH2 0x37AD JUMPI PUSH2 0x37AC PUSH2 0x36C5 JUMP JUMPDEST JUMPDEST PUSH2 0x37B7 PUSH1 0x80 PUSH2 0x31E1 JUMP JUMPDEST SWAP1 POP PUSH1 0x0 PUSH2 0x37C7 DUP5 DUP3 DUP6 ADD PUSH2 0x2FC1 JUMP JUMPDEST PUSH1 0x0 DUP4 ADD MSTORE POP PUSH1 0x20 PUSH2 0x37DB DUP5 DUP3 DUP6 ADD PUSH2 0x2FC1 JUMP JUMPDEST PUSH1 0x20 DUP4 ADD MSTORE POP PUSH1 0x40 PUSH2 0x37EF DUP5 DUP3 DUP6 ADD PUSH2 0x2FC1 JUMP JUMPDEST PUSH1 0x40 DUP4 ADD MSTORE POP PUSH1 0x60 DUP3 ADD CALLDATALOAD PUSH8 0xFFFFFFFFFFFFFFFF DUP2 GT ISZERO PUSH2 0x3813 JUMPI PUSH2 0x3812 PUSH2 0x36CA JUMP JUMPDEST JUMPDEST PUSH2 0x381F DUP5 DUP3 DUP6 ADD PUSH2 0x3769 JUMP JUMPDEST PUSH1 0x60 DUP4 ADD MSTORE POP SWAP3 SWAP2 POP POP JUMP JUMPDEST PUSH1 0x0 PUSH1 0x40 DUP3 DUP5 SUB SLT ISZERO PUSH2 0x3841 JUMPI PUSH2 0x3840 PUSH2 0x36C5 JUMP JUMPDEST JUMPDEST PUSH2 0x384B PUSH1 0x40 PUSH2 0x31E1 JUMP JUMPDEST SWAP1 POP PUSH1 0x0 PUSH2 0x385B DUP5 DUP3 DUP6 ADD PUSH2 0x334C JUMP JUMPDEST PUSH1 0x0 DUP4 ADD MSTORE POP PUSH1 0x20 PUSH2 0x386F DUP5 DUP3 DUP6 ADD PUSH2 0x334C JUMP JUMPDEST PUSH1 0x20 DUP4 ADD MSTORE POP SWAP3 SWAP2 POP POP JUMP JUMPDEST PUSH1 0x0 PUSH2 0x100 DUP3 DUP5 SUB SLT ISZERO PUSH2 0x3892 JUMPI PUSH2 0x3891 PUSH2 0x36C5 JUMP JUMPDEST JUMPDEST PUSH2 0x389C PUSH1 0x80 PUSH2 0x31E1 JUMP JUMPDEST SWAP1 POP PUSH1 0x0 PUSH2 0x38AC DUP5 DUP3 DUP6 ADD PUSH2 0x382B JUMP JUMPDEST PUSH1 0x0 DUP4 ADD MSTORE POP PUSH1 0x40 PUSH2 0x38C0 DUP5 DUP3 DUP6 ADD PUSH2 0x382B JUMP JUMPDEST PUSH1 0x20 DUP4 ADD MSTORE POP PUSH1 0x80 PUSH2 0x38D4 DUP5 DUP3 DUP6 ADD PUSH2 0x382B JUMP JUMPDEST PUSH1 0x40 DUP4 ADD MSTORE POP PUSH1 0xC0 PUSH2 0x38E8 DUP5 DUP3 DUP6 ADD PUSH2 0x382B JUMP JUMPDEST PUSH1 0x60 DUP4 ADD MSTORE POP SWAP3 SWAP2 POP POP JUMP JUMPDEST PUSH1 0x0 PUSH1 0x80 DUP3 DUP5 SUB SLT ISZERO PUSH2 0x390A JUMPI PUSH2 0x3909 PUSH2 0x36C5 JUMP JUMPDEST JUMPDEST PUSH2 0x3914 PUSH1 0x80 PUSH2 0x31E1 JUMP JUMPDEST SWAP1 POP PUSH1 0x0 PUSH2 0x3924 DUP5 DUP3 DUP6 ADD PUSH2 0x334C JUMP JUMPDEST PUSH1 0x0 DUP4 ADD MSTORE POP PUSH1 0x20 PUSH2 0x3938 DUP5 DUP3 DUP6 ADD PUSH2 0x334C JUMP JUMPDEST PUSH1 0x20 DUP4 ADD MSTORE POP PUSH1 0x40 PUSH2 0x394C DUP5 DUP3 DUP6 ADD PUSH2 0x334C JUMP JUMPDEST PUSH1 0x40 DUP4 ADD MSTORE POP PUSH1 0x60 PUSH2 0x3960 DUP5 DUP3 DUP6 ADD PUSH2 0x334C JUMP JUMPDEST PUSH1 0x60 DUP4 ADD MSTORE POP SWAP3 SWAP2 POP POP JUMP JUMPDEST PUSH1 0x0 DUP1 PUSH1 0x0 DUP1 PUSH2 0x1C0 DUP6 DUP8 SUB SLT ISZERO PUSH2 0x3987 JUMPI PUSH2 0x3986 PUSH2 0x2F6E JUMP JUMPDEST JUMPDEST PUSH1 0x0 DUP6 ADD CALLDATALOAD PUSH8 0xFFFFFFFFFFFFFFFF DUP2 GT ISZERO PUSH2 0x39A5 JUMPI PUSH2 0x39A4 PUSH2 0x2F73 JUMP JUMPDEST JUMPDEST PUSH2 0x39B1 DUP8 DUP3 DUP9 ADD PUSH2 0x327E JUMP JUMPDEST SWAP5 POP POP PUSH1 0x20 DUP6 ADD CALLDATALOAD PUSH8 0xFFFFFFFFFFFFFFFF DUP2 GT ISZERO PUSH2 0x39D2 JUMPI PUSH2 0x39D1 PUSH2 0x2F73 JUMP JUMPDEST JUMPDEST PUSH2 0x39DE DUP8 DUP3 DUP9 ADD PUSH2 0x3797 JUMP JUMPDEST SWAP4 POP POP PUSH1 0x40 PUSH2 0x39EF DUP8 DUP3 DUP9 ADD PUSH2 0x387B JUMP JUMPDEST SWAP3 POP POP PUSH2 0x140 PUSH2 0x3A01 DUP8 DUP3 DUP9 ADD PUSH2 0x38F4 JUMP JUMPDEST SWAP2 POP POP SWAP3 SWAP6 SWAP2 SWAP5 POP SWAP3 POP JUMP JUMPDEST PUSH2 0x3A16 DUP2 PUSH2 0x2F98 JUMP JUMPDEST DUP3 MSTORE POP POP JUMP JUMPDEST PUSH1 0x0 DUP2 MLOAD SWAP1 POP SWAP2 SWAP1 POP JUMP JUMPDEST PUSH1 0x0 DUP3 DUP3 MSTORE PUSH1 0x20 DUP3 ADD SWAP1 POP SWAP3 SWAP2 POP POP JUMP JUMPDEST PUSH1 0x0 DUP2 SWAP1 POP PUSH1 0x20 DUP3 ADD SWAP1 POP SWAP2 SWAP1 POP JUMP JUMPDEST PUSH1 0x0 PUSH2 0x3A54 DUP4 DUP4 PUSH2 0x3A0D JUMP JUMPDEST PUSH1 0x20 DUP4 ADD SWAP1 POP SWAP3 SWAP2 POP POP JUMP JUMPDEST PUSH1 0x0 PUSH1 0x20 DUP3 ADD SWAP1 POP SWAP2 SWAP1 POP JUMP JUMPDEST PUSH1 0x0 PUSH2 0x3A78 DUP3 PUSH2 0x3A1C JUMP JUMPDEST PUSH2 0x3A82 DUP2 DUP6 PUSH2 0x3A27 JUMP JUMPDEST SWAP4 POP PUSH2 0x3A8D DUP4 PUSH2 0x3A38 JUMP JUMPDEST DUP1 PUSH1 0x0 JUMPDEST DUP4 DUP2 LT ISZERO PUSH2 0x3ABE JUMPI DUP2 MLOAD PUSH2 0x3AA5 DUP9 DUP3 PUSH2 0x3A48 JUMP JUMPDEST SWAP8 POP PUSH2 0x3AB0 DUP4 PUSH2 0x3A60 JUMP JUMPDEST SWAP3 POP POP PUSH1 0x1 DUP2 ADD SWAP1 POP PUSH2 0x3A91 JUMP JUMPDEST POP DUP6 SWAP4 POP POP POP POP SWAP3 SWAP2 POP POP JUMP JUMPDEST PUSH1 0x0 PUSH1 0x80 DUP4 ADD PUSH1 0x0 DUP4 ADD MLOAD PUSH2 0x3AE3 PUSH1 0x0 DUP7 ADD DUP3 PUSH2 0x3A0D JUMP JUMPDEST POP PUSH1 0x20 DUP4 ADD MLOAD PUSH2 0x3AF6 PUSH1 0x20 DUP7 ADD DUP3 PUSH2 0x3A0D JUMP JUMPDEST POP PUSH1 0x40 DUP4 ADD MLOAD PUSH2 0x3B09 PUSH1 0x40 DUP7 ADD DUP3 PUSH2 0x3A0D JUMP JUMPDEST POP PUSH1 0x60 DUP4 ADD MLOAD DUP5 DUP3 SUB PUSH1 0x60 DUP7 ADD MSTORE PUSH2 0x3B21 DUP3 DUP3 PUSH2 0x3A6D JUMP JUMPDEST SWAP2 POP POP DUP1 SWAP2 POP POP SWAP3 SWAP2 POP POP JUMP JUMPDEST PUSH1 0x40 DUP3 ADD PUSH1 0x0 DUP3 ADD MLOAD PUSH2 0x3B44 PUSH1 0x0 DUP6 ADD DUP3 PUSH2 0x341C JUMP JUMPDEST POP PUSH1 0x20 DUP3 ADD MLOAD PUSH2 0x3B57 PUSH1 0x20 DUP6 ADD DUP3 PUSH2 0x341C JUMP JUMPDEST POP POP POP POP JUMP JUMPDEST PUSH2 0x100 DUP3 ADD PUSH1 0x0 DUP3 ADD MLOAD PUSH2 0x3B74 PUSH1 0x0 DUP6 ADD DUP3 PUSH2 0x3B2E JUMP JUMPDEST POP PUSH1 0x20 DUP3 ADD MLOAD PUSH2 0x3B87 PUSH1 0x40 DUP6 ADD DUP3 PUSH2 0x3B2E JUMP JUMPDEST POP PUSH1 0x40 DUP3 ADD MLOAD PUSH2 0x3B9A PUSH1 0x80 DUP6 ADD DUP3 PUSH2 0x3B2E JUMP JUMPDEST POP PUSH1 0x60 DUP3 ADD MLOAD PUSH2 0x3BAD PUSH1 0xC0 DUP6 ADD DUP3 PUSH2 0x3B2E JUMP JUMPDEST POP POP POP POP JUMP JUMPDEST PUSH1 0x80 DUP3 ADD PUSH1 0x0 DUP3 ADD MLOAD PUSH2 0x3BC9 PUSH1 0x0 DUP6 ADD DUP3 PUSH2 0x341C JUMP JUMPDEST POP PUSH1 0x20 DUP3 ADD MLOAD PUSH2 0x3BDC PUSH1 0x20 DUP6 ADD DUP3 PUSH2 0x341C JUMP JUMPDEST POP PUSH1 0x40 DUP3 ADD MLOAD PUSH2 0x3BEF PUSH1 0x40 DUP6 ADD DUP3 PUSH2 0x341C JUMP JUMPDEST POP PUSH1 0x60 DUP3 ADD MLOAD PUSH2 0x3C02 PUSH1 0x60 DUP6 ADD DUP3 PUSH2 0x341C JUMP JUMPDEST POP POP POP POP JUMP JUMPDEST PUSH1 0x0 PUSH2 0x1C0 DUP4 ADD PUSH1 0x0 DUP4 ADD MLOAD DUP5 DUP3 SUB PUSH1 0x0 DUP7 ADD MSTORE PUSH2 0x3C26 DUP3 DUP3 PUSH2 0x3086 JUMP JUMPDEST SWAP2 POP POP PUSH1 0x20 DUP4 ADD MLOAD DUP5 DUP3 SUB PUSH1 0x20 DUP7 ADD MSTORE PUSH2 0x3C40 DUP3 DUP3 PUSH2 0x3ACB JUMP JUMPDEST SWAP2 POP POP PUSH1 0x40 DUP4 ADD MLOAD PUSH2 0x3C55 PUSH1 0x40 DUP7 ADD DUP3 PUSH2 0x3B5D JUMP JUMPDEST POP PUSH1 0x60 DUP4 ADD MLOAD PUSH2 0x3C69 PUSH2 0x140 DUP7 ADD DUP3 PUSH2 0x3BB3 JUMP JUMPDEST POP DUP1 SWAP2 POP POP SWAP3 SWAP2 POP POP JUMP JUMPDEST PUSH1 0x0 PUSH1 0x20 DUP3 ADD SWAP1 POP DUP2 DUP2 SUB PUSH1 0x0 DUP4 ADD MSTORE PUSH2 0x3C8E DUP2 DUP5 PUSH2 0x3C08 JUMP JUMPDEST SWAP1 POP SWAP3 SWAP2 POP POP JUMP JUMPDEST PUSH1 0xB DUP2 LT PUSH2 0x3CA3 JUMPI PUSH1 0x0 DUP1 REVERT JUMPDEST POP JUMP JUMPDEST PUSH1 0x0 DUP2 CALLDATALOAD SWAP1 POP PUSH2 0x3CB5 DUP2 PUSH2 0x3C96 JUMP JUMPDEST SWAP3 SWAP2 POP POP JUMP JUMPDEST PUSH1 0x0 DUP1 PUSH1 0x40 DUP4 DUP6 SUB SLT ISZERO PUSH2 0x3CD2 JUMPI PUSH2 0x3CD1 PUSH2 0x2F6E JUMP JUMPDEST JUMPDEST PUSH1 0x0 DUP4 ADD CALLDATALOAD PUSH8 0xFFFFFFFFFFFFFFFF DUP2 GT ISZERO PUSH2 0x3CF0 JUMPI PUSH2 0x3CEF PUSH2 0x2F73 JUMP JUMPDEST JUMPDEST PUSH2 0x3CFC DUP6 DUP3 DUP7 ADD PUSH2 0x327E JUMP JUMPDEST SWAP3 POP POP PUSH1 0x20 PUSH2 0x3D0D DUP6 DUP3 DUP7 ADD PUSH2 0x3CA6 JUMP JUMPDEST SWAP2 POP POP SWAP3 POP SWAP3 SWAP1 POP JUMP JUMPDEST PUSH32 0x4E487B7100000000000000000000000000000000000000000000000000000000 PUSH1 0x0 MSTORE PUSH1 0x22 PUSH1 0x4 MSTORE PUSH1 0x24 PUSH1 0x0 REVERT JUMPDEST PUSH1 0x0 PUSH1 0x2 DUP3 DIV SWAP1 POP PUSH1 0x1 DUP3 AND DUP1 PUSH2 0x3D5E JUMPI PUSH1 0x7F DUP3 AND SWAP2 POP JUMPDEST PUSH1 0x20 DUP3 LT DUP2 SUB PUSH2 0x3D71 JUMPI PUSH2 0x3D70 PUSH2 0x3D17 JUMP JUMPDEST JUMPDEST POP SWAP2 SWAP1 POP JUMP JUMPDEST PUSH1 0x0 DUP3 DUP3 MSTORE PUSH1 0x20 DUP3 ADD SWAP1 POP SWAP3 SWAP2 POP POP JUMP JUMPDEST PUSH32 0x526573756C74735375626D697474656400000000000000000000000000000000 PUSH1 0x0 DUP3 ADD MSTORE POP JUMP JUMPDEST PUSH1 0x0 PUSH2 0x3DBE PUSH1 0x10 DUP4 PUSH2 0x3D77 JUMP JUMPDEST SWAP2 POP PUSH2 0x3DC9 DUP3 PUSH2 0x3D88 JUMP JUMPDEST PUSH1 0x20 DUP3 ADD SWAP1 POP SWAP2 SWAP1 POP JUMP JUMPDEST PUSH1 0x0 PUSH1 0x20 DUP3 ADD SWAP1 POP DUP2 DUP2 SUB PUSH1 0x0 DUP4 ADD MSTORE PUSH2 0x3DED DUP2 PUSH2 0x3DB1 JUMP JUMPDEST SWAP1 POP SWAP2 SWAP1 POP JUMP JUMPDEST PUSH1 0x0 DUP2 SWAP1 POP SWAP3 SWAP2 POP POP JUMP JUMPDEST PUSH1 0x0 PUSH2 0x3E0A DUP3 PUSH2 0x302F JUMP JUMPDEST PUSH2 0x3E14 DUP2 DUP6 PUSH2 0x3DF4 JUMP JUMPDEST SWAP4 POP PUSH2 0x3E24 DUP2 DUP6 PUSH1 0x20 DUP7 ADD PUSH2 0x304B JUMP JUMPDEST DUP1 DUP5 ADD SWAP2 POP POP SWAP3 SWAP2 POP POP JUMP JUMPDEST PUSH1 0x0 PUSH2 0x3E3C DUP3 DUP5 PUSH2 0x3DFF JUMP JUMPDEST SWAP2 POP DUP2 SWAP1 POP SWAP3 SWAP2 POP POP JUMP JUMPDEST PUSH32 0x4465616C41677265656400000000000000000000000000000000000000000000 PUSH1 0x0 DUP3 ADD MSTORE POP JUMP JUMPDEST PUSH1 0x0 PUSH2 0x3E7D PUSH1 0xA DUP4 PUSH2 0x3D77 JUMP JUMPDEST SWAP2 POP PUSH2 0x3E88 DUP3 PUSH2 0x3E47 JUMP JUMPDEST PUSH1 0x20 DUP3 ADD SWAP1 POP SWAP2 SWAP1 POP JUMP JUMPDEST PUSH1 0x0 PUSH1 0x20 DUP3 ADD SWAP1 POP DUP2 DUP2 SUB PUSH1 0x0 DUP4 ADD MSTORE PUSH2 0x3EAC DUP2 PUSH2 0x3E70 JUMP JUMPDEST SWAP1 POP SWAP2 SWAP1 POP JUMP JUMPDEST PUSH1 0x0 DUP2 SWAP1 POP DUP2 PUSH1 0x0 MSTORE PUSH1 0x20 PUSH1 0x0 KECCAK256 SWAP1 POP SWAP2 SWAP1 POP JUMP JUMPDEST PUSH1 0x0 PUSH1 0x20 PUSH1 0x1F DUP4 ADD DIV SWAP1 POP SWAP2 SWAP1 POP JUMP JUMPDEST PUSH1 0x0 DUP3 DUP3 SHL SWAP1 POP SWAP3 SWAP2 POP POP JUMP JUMPDEST PUSH1 0x0 PUSH1 0x8 DUP4 MUL PUSH2 0x3F15 PUSH32 0xFFFFFFFFFFFFFFFFFFFFFFFFFFFFFFFFFFFFFFFFFFFFFFFFFFFFFFFFFFFFFFFF DUP3 PUSH2 0x3ED8 JUMP JUMPDEST PUSH2 0x3F1F DUP7 DUP4 PUSH2 0x3ED8 JUMP JUMPDEST SWAP6 POP DUP1 NOT DUP5 AND SWAP4 POP DUP1 DUP7 AND DUP5 OR SWAP3 POP POP POP SWAP4 SWAP3 POP POP POP JUMP JUMPDEST PUSH1 0x0 DUP2 SWAP1 POP SWAP2 SWAP1 POP JUMP JUMPDEST PUSH1 0x0 PUSH2 0x3F5C PUSH2 0x3F57 PUSH2 0x3F52 DUP5 PUSH2 0x332B JUMP JUMPDEST PUSH2 0x3F37 JUMP JUMPDEST PUSH2 0x332B JUMP JUMPDEST SWAP1 POP SWAP2 SWAP1 POP JUMP JUMPDEST PUSH1 0x0 DUP2 SWAP1 POP SWAP2 SWAP1 POP JUMP JUMPDEST PUSH2 0x3F76 DUP4 PUSH2 0x3F41 JUMP JUMPDEST PUSH2 0x3F8A PUSH2 0x3F82 DUP3 PUSH2 0x3F63 JUMP JUMPDEST DUP5 DUP5 SLOAD PUSH2 0x3EE5 JUMP JUMPDEST DUP3 SSTORE POP POP POP POP JUMP JUMPDEST PUSH1 0x0 SWAP1 JUMP JUMPDEST PUSH2 0x3F9F PUSH2 0x3F92 JUMP JUMPDEST PUSH2 0x3FAA DUP2 DUP5 DUP5 PUSH2 0x3F6D JUMP JUMPDEST POP POP POP JUMP JUMPDEST JUMPDEST DUP2 DUP2 LT ISZERO PUSH2 0x3FCE JUMPI PUSH2 0x3FC3 PUSH1 0x0 DUP3 PUSH2 0x3F97 JUMP JUMPDEST PUSH1 0x1 DUP2 ADD SWAP1 POP PUSH2 0x3FB0 JUMP JUMPDEST POP POP JUMP JUMPDEST PUSH1 0x1F DUP3 GT ISZERO PUSH2 0x4013 JUMPI PUSH2 0x3FE4 DUP2 PUSH2 0x3EB3 JUMP JUMPDEST PUSH2 0x3FED DUP5 PUSH2 0x3EC8 JUMP JUMPDEST DUP2 ADD PUSH1 0x20 DUP6 LT ISZERO PUSH2 0x3FFC JUMPI DUP2 SWAP1 POP JUMPDEST PUSH2 0x4010 PUSH2 0x4008 DUP6 PUSH2 0x3EC8 JUMP JUMPDEST DUP4 ADD DUP3 PUSH2 0x3FAF JUMP JUMPDEST POP POP JUMPDEST POP POP POP JUMP JUMPDEST PUSH1 0x0 DUP3 DUP3 SHR SWAP1 POP SWAP3 SWAP2 POP POP JUMP JUMPDEST PUSH1 0x0 PUSH2 0x4036 PUSH1 0x0 NOT DUP5 PUSH1 0x8 MUL PUSH2 0x4018 JUMP JUMPDEST NOT DUP1 DUP4 AND SWAP2 POP POP SWAP3 SWAP2 POP POP JUMP JUMPDEST PUSH1 0x0 PUSH2 0x404F DUP4 DUP4 PUSH2 0x4025 JUMP JUMPDEST SWAP2 POP DUP3 PUSH1 0x2 MUL DUP3 OR SWAP1 POP SWAP3 SWAP2 POP POP JUMP JUMPDEST PUSH2 0x4068 DUP3 PUSH2 0x302F JUMP JUMPDEST PUSH8 0xFFFFFFFFFFFFFFFF DUP2 GT ISZERO PUSH2 0x4081 JUMPI PUSH2 0x4080 PUSH2 0x3181 JUMP JUMPDEST JUMPDEST PUSH2 0x408B DUP3 SLOAD PUSH2 0x3D46 JUMP JUMPDEST PUSH2 0x4096 DUP3 DUP3 DUP6 PUSH2 0x3FD2 JUMP JUMPDEST PUSH1 0x0 PUSH1 0x20 SWAP1 POP PUSH1 0x1F DUP4 GT PUSH1 0x1 DUP2 EQ PUSH2 0x40C9 JUMPI PUSH1 0x0 DUP5 ISZERO PUSH2 0x40B7 JUMPI DUP3 DUP8 ADD MLOAD SWAP1 POP JUMPDEST PUSH2 0x40C1 DUP6 DUP3 PUSH2 0x4043 JUMP JUMPDEST DUP7 SSTORE POP PUSH2 0x4129 JUMP JUMPDEST PUSH1 0x1F NOT DUP5 AND PUSH2 0x40D7 DUP7 PUSH2 0x3EB3 JUMP JUMPDEST PUSH1 0x0 JUMPDEST DUP3 DUP2 LT ISZERO PUSH2 0x40FF JUMPI DUP5 DUP10 ADD MLOAD DUP3 SSTORE PUSH1 0x1 DUP3 ADD SWAP2 POP PUSH1 0x20 DUP6 ADD SWAP5 POP PUSH1 0x20 DUP2 ADD SWAP1 POP PUSH2 0x40DA JUMP JUMPDEST DUP7 DUP4 LT ISZERO PUSH2 0x411C JUMPI DUP5 DUP10 ADD MLOAD PUSH2 0x4118 PUSH1 0x1F DUP10 AND DUP3 PUSH2 0x4025 JUMP JUMPDEST DUP4 SSTORE POP JUMPDEST PUSH1 0x1 PUSH1 0x2 DUP9 MUL ADD DUP9 SSTORE POP POP POP JUMPDEST POP POP POP POP POP POP JUMP JUMPDEST PUSH32 0x4465616C20646F6573206E6F7420657869737400000000000000000000000000 PUSH1 0x0 DUP3 ADD MSTORE POP JUMP JUMPDEST PUSH1 0x0 PUSH2 0x4167 PUSH1 0x13 DUP4 PUSH2 0x3D77 JUMP JUMPDEST SWAP2 POP PUSH2 0x4172 DUP3 PUSH2 0x4131 JUMP JUMPDEST PUSH1 0x20 DUP3 ADD SWAP1 POP SWAP2 SWAP1 POP JUMP JUMPDEST PUSH1 0x0 PUSH1 0x20 DUP3 ADD SWAP1 POP DUP2 DUP2 SUB PUSH1 0x0 DUP4 ADD MSTORE PUSH2 0x4196 DUP2 PUSH2 0x415A JUMP JUMPDEST SWAP1 POP SWAP2 SWAP1 POP JUMP JUMPDEST PUSH32 0x4A432068617320616C7265616479206167726565640000000000000000000000 PUSH1 0x0 DUP3 ADD MSTORE POP JUMP JUMPDEST PUSH1 0x0 PUSH2 0x41D3 PUSH1 0x15 DUP4 PUSH2 0x3D77 JUMP JUMPDEST SWAP2 POP PUSH2 0x41DE DUP3 PUSH2 0x419D JUMP JUMPDEST PUSH1 0x20 DUP3 ADD SWAP1 POP SWAP2 SWAP1 POP JUMP JUMPDEST PUSH1 0x0 PUSH1 0x20 DUP3 ADD SWAP1 POP DUP2 DUP2 SUB PUSH1 0x0 DUP4 ADD MSTORE PUSH2 0x4202 DUP2 PUSH2 0x41C6 JUMP JUMPDEST SWAP1 POP SWAP2 SWAP1 POP JUMP JUMPDEST PUSH32 0x4E487B7100000000000000000000000000000000000000000000000000000000 PUSH1 0x0 MSTORE PUSH1 0x11 PUSH1 0x4 MSTORE PUSH1 0x24 PUSH1 0x0 REVERT JUMPDEST PUSH1 0x0 PUSH2 0x4243 DUP3 PUSH2 0x332B JUMP JUMPDEST SWAP2 POP PUSH2 0x424E DUP4 PUSH2 0x332B JUMP JUMPDEST SWAP3 POP DUP3 DUP3 MUL PUSH2 0x425C DUP2 PUSH2 0x332B JUMP JUMPDEST SWAP2 POP DUP3 DUP3 DIV DUP5 EQ DUP4 ISZERO OR PUSH2 0x4273 JUMPI PUSH2 0x4272 PUSH2 0x4209 JUMP JUMPDEST JUMPDEST POP SWAP3 SWAP2 POP POP JUMP JUMPDEST PUSH32 0x4465616C4E65676F74696174696E670000000000000000000000000000000000 PUSH1 0x0 DUP3 ADD MSTORE POP JUMP JUMPDEST PUSH1 0x0 PUSH2 0x42B0 PUSH1 0xF DUP4 PUSH2 0x3D77 JUMP JUMPDEST SWAP2 POP PUSH2 0x42BB DUP3 PUSH2 0x427A JUMP JUMPDEST PUSH1 0x20 DUP3 ADD SWAP1 POP SWAP2 SWAP1 POP JUMP JUMPDEST PUSH1 0x0 PUSH1 0x20 DUP3 ADD SWAP1 POP DUP2 DUP2 SUB PUSH1 0x0 DUP4 ADD MSTORE PUSH2 0x42DF DUP2 PUSH2 0x42A3 JUMP JUMPDEST SWAP1 POP SWAP2 SWAP1 POP JUMP JUMPDEST PUSH32 0x526573756C7473436865636B6564000000000000000000000000000000000000 PUSH1 0x0 DUP3 ADD MSTORE POP JUMP JUMPDEST PUSH1 0x0 PUSH2 0x431C PUSH1 0xE DUP4 PUSH2 0x3D77 JUMP JUMPDEST SWAP2 POP PUSH2 0x4327 DUP3 PUSH2 0x42E6 JUMP JUMPDEST PUSH1 0x20 DUP3 ADD SWAP1 POP SWAP2 SWAP1 POP JUMP JUMPDEST PUSH1 0x0 PUSH1 0x20 DUP3 ADD SWAP1 POP DUP2 DUP2 SUB PUSH1 0x0 DUP4 ADD MSTORE PUSH2 0x434B DUP2 PUSH2 0x430F JUMP JUMPDEST SWAP1 POP SWAP2 SWAP1 POP JUMP JUMPDEST PUSH32 0x496E697469616C697A61626C653A20636F6E747261637420697320616C726561 PUSH1 0x0 DUP3 ADD MSTORE PUSH32 0x647920696E697469616C697A6564000000000000000000000000000000000000 PUSH1 0x20 DUP3 ADD MSTORE POP JUMP JUMPDEST PUSH1 0x0 PUSH2 0x43AE PUSH1 0x2E DUP4 PUSH2 0x3D77 JUMP JUMPDEST SWAP2 POP PUSH2 0x43B9 DUP3 PUSH2 0x4352 JUMP JUMPDEST PUSH1 0x40 DUP3 ADD SWAP1 POP SWAP2 SWAP1 POP JUMP JUMPDEST PUSH1 0x0 PUSH1 0x20 DUP3 ADD SWAP1 POP DUP2 DUP2 SUB PUSH1 0x0 DUP4 ADD MSTORE PUSH2 0x43DD DUP2 PUSH2 0x43A1 JUMP JUMPDEST SWAP1 POP SWAP2 SWAP1 POP JUMP JUMPDEST PUSH1 0x0 DUP2 SWAP1 POP SWAP2 SWAP1 POP JUMP JUMPDEST PUSH1 0x0 PUSH1 0xFF DUP3 AND SWAP1 POP SWAP2 SWAP1 POP JUMP JUMPDEST PUSH1 0x0 PUSH2 0x4416 PUSH2 0x4411 PUSH2 0x440C DUP5 PUSH2 0x43E4 JUMP JUMPDEST PUSH2 0x3F37 JUMP JUMPDEST PUSH2 0x43EE JUMP JUMPDEST SWAP1 POP SWAP2 SWAP1 POP JUMP JUMPDEST PUSH2 0x4426 DUP2 PUSH2 0x43FB JUMP JUMPDEST DUP3 MSTORE POP POP JUMP JUMPDEST PUSH1 0x0 PUSH1 0x20 DUP3 ADD SWAP1 POP PUSH2 0x4441 PUSH1 0x0 DUP4 ADD DUP5 PUSH2 0x441D JUMP JUMPDEST SWAP3 SWAP2 POP POP JUMP JUMPDEST PUSH32 0x52502068617320616C7265616479206167726565640000000000000000000000 PUSH1 0x0 DUP3 ADD MSTORE POP JUMP JUMPDEST PUSH1 0x0 PUSH2 0x447D PUSH1 0x15 DUP4 PUSH2 0x3D77 JUMP JUMPDEST SWAP2 POP PUSH2 0x4488 DUP3 PUSH2 0x4447 JUMP JUMPDEST PUSH1 0x20 DUP3 ADD SWAP1 POP SWAP2 SWAP1 POP JUMP JUMPDEST PUSH1 0x0 PUSH1 0x20 DUP3 ADD SWAP1 POP DUP2 DUP2 SUB PUSH1 0x0 DUP4 ADD MSTORE PUSH2 0x44AC DUP2 PUSH2 0x4470 JUMP JUMPDEST SWAP1 POP SWAP2 SWAP1 POP JUMP JUMPDEST PUSH32 0x4F776E61626C653A206E6577206F776E657220697320746865207A65726F2061 PUSH1 0x0 DUP3 ADD MSTORE PUSH32 0x6464726573730000000000000000000000000000000000000000000000000000 PUSH1 0x20 DUP3 ADD MSTORE POP JUMP JUMPDEST PUSH1 0x0 PUSH2 0x450F PUSH1 0x26 DUP4 PUSH2 0x3D77 JUMP JUMPDEST SWAP2 POP PUSH2 0x451A DUP3 PUSH2 0x44B3 JUMP JUMPDEST PUSH1 0x40 DUP3 ADD SWAP1 POP SWAP2 SWAP1 POP JUMP JUMPDEST PUSH1 0x0 PUSH1 0x20 DUP3 ADD SWAP1 POP DUP2 DUP2 SUB PUSH1 0x0 DUP4 ADD MSTORE PUSH2 0x453E DUP2 PUSH2 0x4502 JUMP JUMPDEST SWAP1 POP SWAP2 SWAP1 POP JUMP JUMPDEST PUSH32 0x436F6E74726F6C6C65724F776E61626C653A20436F6E74726F6C6C6572206164 PUSH1 0x0 DUP3 ADD MSTORE PUSH32 0x6472657373206D75737420626520646566696E65640000000000000000000000 PUSH1 0x20 DUP3 ADD MSTORE POP JUMP JUMPDEST PUSH1 0x0 PUSH2 0x45A1 PUSH1 0x35 DUP4 PUSH2 0x3D77 JUMP JUMPDEST SWAP2 POP PUSH2 0x45AC DUP3 PUSH2 0x4545 JUMP JUMPDEST PUSH1 0x40 DUP3 ADD SWAP1 POP SWAP2 SWAP1 POP JUMP JUMPDEST PUSH1 0x0 PUSH1 0x20 DUP3 ADD SWAP1 POP DUP2 DUP2 SUB PUSH1 0x0 DUP4 ADD MSTORE PUSH2 0x45D0 DUP2 PUSH2 0x4594 JUMP JUMPDEST SWAP1 POP SWAP2 SWAP1 POP JUMP JUMPDEST PUSH32 0x436F6E74726F6C6C65724F776E61626C653A2063616E4368616E6765436F6E74 PUSH1 0x0 DUP3 ADD MSTORE PUSH32 0x726F6C6C6572416464726573732069732064697361626C656400000000000000 PUSH1 0x20 DUP3 ADD MSTORE POP JUMP JUMPDEST PUSH1 0x0 PUSH2 0x4633 PUSH1 0x39 DUP4 PUSH2 0x3D77 JUMP JUMPDEST SWAP2 POP PUSH2 0x463E DUP3 PUSH2 0x45D7 JUMP JUMPDEST PUSH1 0x40 DUP3 ADD SWAP1 POP SWAP2 SWAP1 POP JUMP JUMPDEST PUSH1 0x0 PUSH1 0x20 DUP3 ADD SWAP1 POP DUP2 DUP2 SUB PUSH1 0x0 DUP4 ADD MSTORE PUSH2 0x4662 DUP2 PUSH2 0x4626 JUMP JUMPDEST SWAP1 POP SWAP2 SWAP1 POP JUMP JUMPDEST PUSH1 0x0 PUSH2 0x4674 DUP3 PUSH2 0x302F JUMP JUMPDEST PUSH2 0x467E DUP2 DUP6 PUSH2 0x3D77 JUMP JUMPDEST SWAP4 POP PUSH2 0x468E DUP2 DUP6 PUSH1 0x20 DUP7 ADD PUSH2 0x304B JUMP JUMPDEST PUSH2 0x4697 DUP2 PUSH2 0x3075 JUMP JUMPDEST DUP5 ADD SWAP2 POP POP SWAP3 SWAP2 POP POP JUMP JUMPDEST PUSH2 0x46AB DUP2 PUSH2 0x3514 JUMP JUMPDEST DUP3 MSTORE POP POP JUMP JUMPDEST PUSH1 0x0 PUSH1 0x40 DUP3 ADD SWAP1 POP DUP2 DUP2 SUB PUSH1 0x0 DUP4 ADD MSTORE PUSH2 0x46CB DUP2 DUP6 PUSH2 0x4669 JUMP JUMPDEST SWAP1 POP PUSH2 0x46DA PUSH1 0x20 DUP4 ADD DUP5 PUSH2 0x46A2 JUMP JUMPDEST SWAP4 SWAP3 POP POP POP JUMP JUMPDEST PUSH32 0x4F776E61626C653A2063616C6C6572206973206E6F7420746865206F776E6572 PUSH1 0x0 DUP3 ADD MSTORE POP JUMP JUMPDEST PUSH1 0x0 PUSH2 0x4717 PUSH1 0x20 DUP4 PUSH2 0x3D77 JUMP JUMPDEST SWAP2 POP PUSH2 0x4722 DUP3 PUSH2 0x46E1 JUMP JUMPDEST PUSH1 0x20 DUP3 ADD SWAP1 POP SWAP2 SWAP1 POP JUMP JUMPDEST PUSH1 0x0 PUSH1 0x20 DUP3 ADD SWAP1 POP DUP2 DUP2 SUB PUSH1 0x0 DUP4 ADD MSTORE PUSH2 0x4746 DUP2 PUSH2 0x470A JUMP JUMPDEST SWAP1 POP SWAP2 SWAP1 POP JUMP JUMPDEST PUSH32 0x5250206D697373696E6700000000000000000000000000000000000000000000 PUSH1 0x0 DUP3 ADD MSTORE POP JUMP JUMPDEST PUSH1 0x0 PUSH2 0x4783 PUSH1 0xA DUP4 PUSH2 0x3D77 JUMP JUMPDEST SWAP2 POP PUSH2 0x478E DUP3 PUSH2 0x474D JUMP JUMPDEST PUSH1 0x20 DUP3 ADD SWAP1 POP SWAP2 SWAP1 POP JUMP JUMPDEST PUSH1 0x0 PUSH1 0x20 DUP3 ADD SWAP1 POP DUP2 DUP2 SUB PUSH1 0x0 DUP4 ADD MSTORE PUSH2 0x47B2 DUP2 PUSH2 0x4776 JUMP JUMPDEST SWAP1 POP SWAP2 SWAP1 POP JUMP JUMPDEST PUSH32 0x4A43206D697373696E6700000000000000000000000000000000000000000000 PUSH1 0x0 DUP3 ADD MSTORE POP JUMP JUMPDEST PUSH1 0x0 PUSH2 0x47EF PUSH1 0xA DUP4 PUSH2 0x3D77 JUMP JUMPDEST SWAP2 POP PUSH2 0x47FA DUP3 PUSH2 0x47B9 JUMP JUMPDEST PUSH1 0x20 DUP3 ADD SWAP1 POP SWAP2 SWAP1 POP JUMP JUMPDEST PUSH1 0x0 PUSH1 0x20 DUP3 ADD SWAP1 POP DUP2 DUP2 SUB PUSH1 0x0 DUP4 ADD MSTORE PUSH2 0x481E DUP2 PUSH2 0x47E2 JUMP JUMPDEST SWAP1 POP SWAP2 SWAP1 POP JUMP JUMPDEST PUSH32 0x536F6C766572206D697373696E67000000000000000000000000000000000000 PUSH1 0x0 DUP3 ADD MSTORE POP JUMP JUMPDEST PUSH1 0x0 PUSH2 0x485B PUSH1 0xE DUP4 PUSH2 0x3D77 JUMP JUMPDEST SWAP2 POP PUSH2 0x4866 DUP3 PUSH2 0x4825 JUMP JUMPDEST PUSH1 0x20 DUP3 ADD SWAP1 POP SWAP2 SWAP1 POP JUMP JUMPDEST PUSH1 0x0 PUSH1 0x20 DUP3 ADD SWAP1 POP DUP2 DUP2 SUB PUSH1 0x0 DUP4 ADD MSTORE PUSH2 0x488A DUP2 PUSH2 0x484E JUMP JUMPDEST SWAP1 POP SWAP2 SWAP1 POP JUMP JUMPDEST PUSH32 0x4D65646961746F7273203C3D2030000000000000000000000000000000000000 PUSH1 0x0 DUP3 ADD MSTORE POP JUMP JUMPDEST PUSH1 0x0 PUSH2 0x48C7 PUSH1 0xE DUP4 PUSH2 0x3D77 JUMP JUMPDEST SWAP2 POP PUSH2 0x48D2 DUP3 PUSH2 0x4891 JUMP JUMPDEST PUSH1 0x20 DUP3 ADD SWAP1 POP SWAP2 SWAP1 POP JUMP JUMPDEST PUSH1 0x0 PUSH1 0x20 DUP3 ADD SWAP1 POP DUP2 DUP2 SUB PUSH1 0x0 DUP4 ADD MSTORE PUSH2 0x48F6 DUP2 PUSH2 0x48BA JUMP JUMPDEST SWAP1 POP SWAP2 SWAP1 POP JUMP JUMPDEST PUSH32 0x4167726565206465706F736974206D7573742062652030000000000000000000 PUSH1 0x0 DUP3 ADD MSTORE POP JUMP JUMPDEST PUSH1 0x0 PUSH2 0x4933 PUSH1 0x17 DUP4 PUSH2 0x3D77 JUMP JUMPDEST SWAP2 POP PUSH2 0x493E DUP3 PUSH2 0x48FD JUMP JUMPDEST PUSH1 0x20 DUP3 ADD SWAP1 POP SWAP2 SWAP1 POP JUMP JUMPDEST PUSH1 0x0 PUSH1 0x20 DUP3 ADD SWAP1 POP DUP2 DUP2 SUB PUSH1 0x0 DUP4 ADD MSTORE PUSH2 0x4962 DUP2 PUSH2 0x4926 JUMP JUMPDEST SWAP1 POP SWAP2 SWAP1 POP JUMP JUMPDEST PUSH32 0x4D656469617465206465706F736974206D757374206265203000000000000000 PUSH1 0x0 DUP3 ADD MSTORE POP JUMP JUMPDEST PUSH1 0x0 PUSH2 0x499F PUSH1 0x19 DUP4 PUSH2 0x3D77 JUMP JUMPDEST SWAP2 POP PUSH2 0x49AA DUP3 PUSH2 0x4969 JUMP JUMPDEST PUSH1 0x20 DUP3 ADD SWAP1 POP SWAP2 SWAP1 POP JUMP JUMPDEST PUSH1 0x0 PUSH1 0x20 DUP3 ADD SWAP1 POP DUP2 DUP2 SUB PUSH1 0x0 DUP4 ADD MSTORE PUSH2 0x49CE DUP2 PUSH2 0x4992 JUMP JUMPDEST SWAP1 POP SWAP2 SWAP1 POP JUMP JUMPDEST PUSH32 0x5250000000000000000000000000000000000000000000000000000000000000 PUSH1 0x0 DUP3 ADD MSTORE POP JUMP JUMPDEST PUSH1 0x0 PUSH2 0x4A0B PUSH1 0x2 DUP4 PUSH2 0x3D77 JUMP JUMPDEST SWAP2 POP PUSH2 0x4A16 DUP3 PUSH2 0x49D5 JUMP JUMPDEST PUSH1 0x20 DUP3 ADD SWAP1 POP SWAP2 SWAP1 POP JUMP JUMPDEST PUSH1 0x0 PUSH1 0x20 DUP3 ADD SWAP1 POP DUP2 DUP2 SUB PUSH1 0x0 DUP4 ADD MSTORE PUSH2 0x4A3A DUP2 PUSH2 0x49FE JUMP JUMPDEST SWAP1 POP SWAP2 SWAP1 POP JUMP JUMPDEST PUSH32 0x4A43000000000000000000000000000000000000000000000000000000000000 PUSH1 0x0 DUP3 ADD MSTORE POP JUMP JUMPDEST PUSH1 0x0 PUSH2 0x4A77 PUSH1 0x2 DUP4 PUSH2 0x3D77 JUMP JUMPDEST SWAP2 POP PUSH2 0x4A82 DUP3 PUSH2 0x4A41 JUMP JUMPDEST PUSH1 0x20 DUP3 ADD SWAP1 POP SWAP2 SWAP1 POP JUMP JUMPDEST PUSH1 0x0 PUSH1 0x20 DUP3 ADD SWAP1 POP DUP2 DUP2 SUB PUSH1 0x0 DUP4 ADD MSTORE PUSH2 0x4AA6 DUP2 PUSH2 0x4A6A JUMP JUMPDEST SWAP1 POP SWAP2 SWAP1 POP JUMP JUMPDEST PUSH32 0x536F6C7665720000000000000000000000000000000000000000000000000000 PUSH1 0x0 DUP3 ADD MSTORE POP JUMP JUMPDEST PUSH1 0x0 PUSH2 0x4AE3 PUSH1 0x6 DUP4 PUSH2 0x3D77 JUMP JUMPDEST SWAP2 POP PUSH2 0x4AEE DUP3 PUSH2 0x4AAD JUMP JUMPDEST PUSH1 0x20 DUP3 ADD SWAP1 POP SWAP2 SWAP1 POP JUMP JUMPDEST PUSH1 0x0 PUSH1 0x20 DUP3 ADD SWAP1 POP DUP2 DUP2 SUB PUSH1 0x0 DUP4 ADD MSTORE PUSH2 0x4B12 DUP2 PUSH2 0x4AD6 JUMP JUMPDEST SWAP1 POP SWAP2 SWAP1 POP JUMP JUMPDEST PUSH32 0x4D65646961746F72730000000000000000000000000000000000000000000000 PUSH1 0x0 DUP3 ADD MSTORE POP JUMP JUMPDEST PUSH1 0x0 PUSH2 0x4B4F PUSH1 0x9 DUP4 PUSH2 0x3D77 JUMP JUMPDEST SWAP2 POP PUSH2 0x4B5A DUP3 PUSH2 0x4B19 JUMP JUMPDEST PUSH1 0x20 DUP3 ADD SWAP1 POP SWAP2 SWAP1 POP JUMP JUMPDEST PUSH1 0x0 PUSH1 0x20 DUP3 ADD SWAP1 POP DUP2 DUP2 SUB PUSH1 0x0 DUP4 ADD MSTORE PUSH2 0x4B7E DUP2 PUSH2 0x4B42 JUMP JUMPDEST SWAP1 POP SWAP2 SWAP1 POP JUMP JUMPDEST PUSH32 0x4E487B7100000000000000000000000000000000000000000000000000000000 PUSH1 0x0 MSTORE PUSH1 0x32 PUSH1 0x4 MSTORE PUSH1 0x24 PUSH1 0x0 REVERT JUMPDEST PUSH32 0x4D65646961746F72000000000000000000000000000000000000000000000000 PUSH1 0x0 DUP3 ADD MSTORE POP JUMP JUMPDEST PUSH1 0x0 PUSH2 0x4BEA PUSH1 0x8 DUP4 PUSH2 0x3D77 JUMP JUMPDEST SWAP2 POP PUSH2 0x4BF5 DUP3 PUSH2 0x4BB4 JUMP JUMPDEST PUSH1 0x20 DUP3 ADD SWAP1 POP SWAP2 SWAP1 POP JUMP JUMPDEST PUSH1 0x0 PUSH1 0x20 DUP3 ADD SWAP1 POP DUP2 DUP2 SUB PUSH1 0x0 DUP4 ADD MSTORE PUSH2 0x4C19 DUP2 PUSH2 0x4BDD JUMP JUMPDEST SWAP1 POP SWAP2 SWAP1 POP JUMP JUMPDEST PUSH1 0x0 PUSH2 0x4C2B DUP3 PUSH2 0x332B JUMP JUMPDEST SWAP2 POP PUSH32 0xFFFFFFFFFFFFFFFFFFFFFFFFFFFFFFFFFFFFFFFFFFFFFFFFFFFFFFFFFFFFFFFF DUP3 SUB PUSH2 0x4C5D JUMPI PUSH2 0x4C5C PUSH2 0x4209 JUMP JUMPDEST JUMPDEST PUSH1 0x1 DUP3 ADD SWAP1 POP SWAP2 SWAP1 POP JUMP JUMPDEST PUSH32 0x5072696365000000000000000000000000000000000000000000000000000000 PUSH1 0x0 DUP3 ADD MSTORE POP JUMP JUMPDEST PUSH1 0x0 PUSH2 0x4C9E PUSH1 0x5 DUP4 PUSH2 0x3D77 JUMP JUMPDEST SWAP2 POP PUSH2 0x4CA9 DUP3 PUSH2 0x4C68 JUMP JUMPDEST PUSH1 0x20 DUP3 ADD SWAP1 POP SWAP2 SWAP1 POP JUMP JUMPDEST PUSH1 0x0 PUSH1 0x20 DUP3 ADD SWAP1 POP DUP2 DUP2 SUB PUSH1 0x0 DUP4 ADD MSTORE PUSH2 0x4CCD DUP2 PUSH2 0x4C91 JUMP JUMPDEST SWAP1 POP SWAP2 SWAP1 POP JUMP JUMPDEST PUSH32 0x5061796D656E7400000000000000000000000000000000000000000000000000 PUSH1 0x0 DUP3 ADD MSTORE POP JUMP JUMPDEST PUSH1 0x0 PUSH2 0x4D0A PUSH1 0x7 DUP4 PUSH2 0x3D77 JUMP JUMPDEST SWAP2 POP PUSH2 0x4D15 DUP3 PUSH2 0x4CD4 JUMP JUMPDEST PUSH1 0x20 DUP3 ADD SWAP1 POP SWAP2 SWAP1 POP JUMP JUMPDEST PUSH1 0x0 PUSH1 0x20 DUP3 ADD SWAP1 POP DUP2 DUP2 SUB PUSH1 0x0 DUP4 ADD MSTORE PUSH2 0x4D39 DUP2 PUSH2 0x4CFD JUMP JUMPDEST SWAP1 POP SWAP2 SWAP1 POP JUMP JUMPDEST PUSH32 0x526573756C747300000000000000000000000000000000000000000000000000 PUSH1 0x0 DUP3 ADD MSTORE POP JUMP JUMPDEST PUSH1 0x0 PUSH2 0x4D76 PUSH1 0x7 DUP4 PUSH2 0x3D77 JUMP JUMPDEST SWAP2 POP PUSH2 0x4D81 DUP3 PUSH2 0x4D40 JUMP JUMPDEST PUSH1 0x20 DUP3 ADD SWAP1 POP SWAP2 SWAP1 POP JUMP JUMPDEST PUSH1 0x0 PUSH1 0x20 DUP3 ADD SWAP1 POP DUP2 DUP2 SUB PUSH1 0x0 DUP4 ADD MSTORE PUSH2 0x4DA5 DUP2 PUSH2 0x4D69 JUMP JUMPDEST SWAP1 POP SWAP2 SWAP1 POP JUMP JUMPDEST PUSH32 0x4D6564696174696F6E0000000000000000000000000000000000000000000000 PUSH1 0x0 DUP3 ADD MSTORE POP JUMP JUMPDEST PUSH1 0x0 PUSH2 0x4DE2 PUSH1 0x9 DUP4 PUSH2 0x3D77 JUMP JUMPDEST SWAP2 POP PUSH2 0x4DED DUP3 PUSH2 0x4DAC JUMP JUMPDEST PUSH1 0x20 DUP3 ADD SWAP1 POP SWAP2 SWAP1 POP JUMP JUMPDEST PUSH1 0x0 PUSH1 0x20 DUP3 ADD SWAP1 POP DUP2 DUP2 SUB PUSH1 0x0 DUP4 ADD MSTORE PUSH2 0x4E11 DUP2 PUSH2 0x4DD5 JUMP JUMPDEST SWAP1 POP SWAP2 SWAP1 POP JUMP JUMPDEST PUSH32 0x54696D656F757400000000000000000000000000000000000000000000000000 PUSH1 0x0 DUP3 ADD MSTORE POP JUMP JUMPDEST PUSH1 0x0 PUSH2 0x4E4E PUSH1 0x7 DUP4 PUSH2 0x3D77 JUMP JUMPDEST SWAP2 POP PUSH2 0x4E59 DUP3 PUSH2 0x4E18 JUMP JUMPDEST PUSH1 0x20 DUP3 ADD SWAP1 POP SWAP2 SWAP1 POP JUMP JUMPDEST PUSH1 0x0 PUSH1 0x20 DUP3 ADD SWAP1 POP DUP2 DUP2 SUB PUSH1 0x0 DUP4 ADD MSTORE PUSH2 0x4E7D DUP2 PUSH2 0x4E41 JUMP JUMPDEST SWAP1 POP SWAP2 SWAP1 POP JUMP JUMPDEST PUSH32 0x436F6C6C61746572616C00000000000000000000000000000000000000000000 PUSH1 0x0 DUP3 ADD MSTORE POP JUMP JUMPDEST PUSH1 0x0 PUSH2 0x4EBA PUSH1 0xA DUP4 PUSH2 0x3D77 JUMP JUMPDEST SWAP2 POP PUSH2 0x4EC5 DUP3 PUSH2 0x4E84 JUMP JUMPDEST PUSH1 0x20 DUP3 ADD SWAP1 POP SWAP2 SWAP1 POP JUMP JUMPDEST PUSH1 0x0 PUSH1 0x20 DUP3 ADD SWAP1 POP DUP2 DUP2 SUB PUSH1 0x0 DUP4 ADD MSTORE PUSH2 0x4EE9 DUP2 PUSH2 0x4EAD JUMP JUMPDEST SWAP1 POP SWAP2 SWAP1 POP JUMP INVALID LOG2 PUSH5 0x6970667358 0x22 SLT KECCAK256 0x2F 0xB1 0xAD PUSH28 0xA118FDC8EC7006F1EB2A22BC62A2E0B13822BE1BB398FAA1B711AF7B PUSH5 0x736F6C6343 STOP ADDMOD ISZERO STOP CALLER "},"gasEstimates":{"creation":{"codeDepositCost":"4052400","executionCost":"infinite","totalCost":"infinite"},"external":{"acceptResult(string)":"infinite","addResult(string,string,string,uint256)":"infinite","agreeJobCreator(string)":"infinite","agreeResourceProvider(string)":"infinite","checkResult(string)":"infinite","disableChangeControllerAddress()":"26770","ensureDeal(string,(address,address,address,address[]),((uint256,uint256),(uint256,uint256),(uint256,uint256),(uint256,uint256)),(uint256,uint256,uint256,uint256))":"infinite","getAgreement(string)":"infinite","getControllerAddress()":"2633","getDeal(string)":"infinite","getDealsForParty(address)":"infinite","getJobCost(string)":"infinite","getResult(string)":"infinite","getResultsCollateral(string)":"infinite","hasDeal(string)":"infinite","initialize()":"83916","isState(string,uint8)":"infinite","mediationAcceptResult(string)":"infinite","mediationRejectResult(string)":"infinite","owner()":"2612","renounceOwnership()":"30488","setControllerAddress(address)":"29334","timeoutAgree(string)":"infinite","timeoutJudgeResult(string)":"infinite","timeoutMediateResult(string)":"infinite","timeoutSubmitResult(string)":"infinite","transferOwnership(address)":"30832"},"internal":{"_checkControllerAccess()":"23"}},"methodIdentifiers":{"acceptResult(string)":"297f9e55","addResult(string,string,string,uint256)":"3955548e","agreeJobCreator(string)":"3c4135da","agreeResourceProvider(string)":"ec95b967","checkResult(string)":"46834d1e","disableChangeControllerAddress()":"a4702958","ensureDeal(string,(address,address,address,address[]),((uint256,uint256),(uint256,uint256),(uint256,uint256),(uint256,uint256)),(uint256,uint256,uint256,uint256))":"a6370b0e","getAgreement(string)":"cdd82d1d","getControllerAddress()":"c57380a2","getDeal(string)":"e7079180","getDealsForParty(address)":"11d5af33","getJobCost(string)":"73db5c6a","getResult(string)":"498cc70d","getResultsCollateral(string)":"8224ce5f","hasDeal(string)":"2244ad2b","initialize()":"8129fc1c","isState(string,uint8)":"b050e74b","mediationAcceptResult(string)":"824518aa","mediationRejectResult(string)":"80ffdfe0","owner()":"8da5cb5b","renounceOwnership()":"715018a6","setControllerAddress(address)":"f3d3d448","timeoutAgree(string)":"795f9abf","timeoutJudgeResult(string)":"e850be37","timeoutMediateResult(string)":"e7b957d1","timeoutSubmitResult(string)":"511a9f68","transferOwnership(address)":"f2fde38b"}},"storageLayout":{"storage":[{"astId":506,"contract":"contracts/HiveStorageTestable.sol:HiveStorageTestable","label":"_owner","offset":0,"slot":"0","type":"t_address"},{"astId":648,"contract":"contracts/HiveStorageTestable.sol:HiveStorageTestable","label":"controllerAddress","offset":0,"slot":"1","type":"t_address"},{"astId":651,"contract":"contracts/HiveStorageTestable.sol:HiveStorageTestable","label":"canChangeControllerAddress","offset":20,"slot":"1","type":"t_bool"},{"astId":6,"contract":"contracts/HiveStorageTestable.sol:HiveStorageTestable","label":"_initialized","offset":21,"slot":"1","type":"t_uint8"},{"astId":9,"contract":"contracts/HiveStorageTestable.sol:HiveStorageTestable","label":"_initializing","offset":22,"slot":"1","type":"t_bool"},{"astId":741,"contract":"contracts/HiveStorageTestable.sol:HiveStorageTestable","label":"controllerAddress","offset":0,"slot":"2","type":"t_address"},{"astId":744,"contract":"contracts/HiveStorageTestable.sol:HiveStorageTestable","label":"canChangeControllerAddress","offset":20,"slot":"2","type":"t_bool"},{"astId":749,"contract":"contracts/HiveStorageTestable.sol:HiveStorageTestable","label":"deals","offset":0,"slot":"3","type":"t_mapping(t_string_memory_ptr,t_struct(Deal)1865_storage)"},{"astId":754,"contract":"contracts/HiveStorageTestable.sol:HiveStorageTestable","label":"dealsForParty","offset":0,"slot":"4","type":"t_mapping(t_address,t_array(t_string_storage)dyn_storage)"},{"astId":759,"contract":"contracts/HiveStorageTestable.sol:HiveStorageTestable","label":"agreements","offset":0,"slot":"5","type":"t_mapping(t_string_memory_ptr,t_struct(Agreement)1904_storage)"},{"astId":764,"contract":"contracts/HiveStorageTestable.sol:HiveStorageTestable","label":"results","offset":0,"slot":"6","type":"t_mapping(t_string_memory_ptr,t_struct(Result)1874_storage)"},{"astId":769,"contract":"contracts/HiveStorageTestable.sol:HiveStorageTestable","label":"mediations","offset":0,"slot":"7","type":"t_mapping(t_string_memory_ptr,t_struct(Result)1874_storage)"}],"types":{"t_address":{"encoding":"inplace","label":"address","numberOfBytes":"20"},"t_array(t_address)dyn_storage":{"base":"t_address","encoding":"dynamic_array","label":"address[]","numberOfBytes":"32"},"t_array(t_string_storage)dyn_storage":{"base":"t_string_storage","encoding":"dynamic_array","label":"string[]","numberOfBytes":"32"},"t_bool":{"encoding":"inplace","label":"bool","numberOfBytes":"1"},"t_enum(AgreementState)1805":{"encoding":"inplace","label":"enum SharedStructs.AgreementState","numberOfBytes":"1"},"t_mapping(t_address,t_array(t_string_storage)dyn_storage)":{"encoding":"mapping","key":"t_address","label":"mapping(address => string[])","numberOfBytes":"32","value":"t_array(t_string_storage)dyn_storage"},"t_mapping(t_string_memory_ptr,t_struct(Agreement)1904_storage)":{"encoding":"mapping","key":"t_string_memory_ptr","label":"mapping(string => struct SharedStructs.Agreement)","numberOfBytes":"32","value":"t_struct(Agreement)1904_storage"},"t_mapping(t_string_memory_ptr,t_struct(Deal)1865_storage)":{"encoding":"mapping","key":"t_string_memory_ptr","label":"mapping(string => struct SharedStructs.Deal)","numberOfBytes":"32","value":"t_struct(Deal)1865_storage"},"t_mapping(t_string_memory_ptr,t_struct(Result)1874_storage)":{"encoding":"mapping","key":"t_string_memory_ptr","label":"mapping(string => struct SharedStructs.Result)","numberOfBytes":"32","value":"t_struct(Result)1874_storage"},"t_string_memory_ptr":{"encoding":"bytes","label":"string","numberOfBytes":"32"},"t_string_storage":{"encoding":"bytes","label":"string","numberOfBytes":"32"},"t_struct(Agreement)1904_storage":{"encoding":"inplace","label":"struct SharedStructs.Agreement","members":[{"astId":1877,"contract":"contracts/HiveStorageTestable.sol:HiveStorageTestable","label":"state","offset":0,"slot":"0","type":"t_enum(AgreementState)1805"},{"astId":1879,"contract":"contracts/HiveStorageTestable.sol:HiveStorageTestable","label":"resourceProviderAgreedAt","offset":0,"slot":"1","type":"t_uint256"},{"astId":1881,"contract":"contracts/HiveStorageTestable.sol:HiveStorageTestable","label":"jobCreatorAgreedAt","offset":0,"slot":"2","type":"t_uint256"},{"astId":1883,"contract":"contracts/HiveStorageTestable.sol:HiveStorageTestable","label":"dealCreatedAt","offset":0,"slot":"3","type":"t_uint256"},{"astId":1885,"contract":"contracts/HiveStorageTestable.sol:HiveStorageTestable","label":"dealAgreedAt","offset":0,"slot":"4","type":"t_uint256"},{"astId":1887,"contract":"contracts/HiveStorageTestable.sol:HiveStorageTestable","label":"resultsSubmittedAt","offset":0,"slot":"5","type":"t_uint256"},{"astId":1889,"contract":"contracts/HiveStorageTestable.sol:HiveStorageTestable","label":"resultsAcceptedAt","offset":0,"slot":"6","type":"t_uint256"},{"astId":1891,"contract":"contracts/HiveStorageTestable.sol:HiveStorageTestable","label":"resultsCheckedAt","offset":0,"slot":"7","type":"t_uint256"},{"astId":1893,"contract":"contracts/HiveStorageTestable.sol:HiveStorageTestable","label":"mediationAcceptedAt","offset":0,"slot":"8","type":"t_uint256"},{"astId":1895,"contract":"contracts/HiveStorageTestable.sol:HiveStorageTestable","label":"mediationRejectedAt","offset":0,"slot":"9","type":"t_uint256"},{"astId":1897,"contract":"contracts/HiveStorageTestable.sol:HiveStorageTestable","label":"timeoutAgreeAt","offset":0,"slot":"10","type":"t_uint256"},{"astId":1899,"contract":"contracts/HiveStorageTestable.sol:HiveStorageTestable","label":"timeoutSubmitResultsAt","offset":0,"slot":"11","type":"t_uint256"},{"astId":1901,"contract":"contracts/HiveStorageTestable.sol:HiveStorageTestable","label":"timeoutJudgeResultsAt","offset":0,"slot":"12","type":"t_uint256"},{"astId":1903,"contract":"contracts/HiveStorageTestable.sol:HiveStorageTestable","label":"timeoutMediateResultsAt","offset":0,"slot":"13","type":"t_uint256"}],"numberOfBytes":"448"},"t_struct(Deal)1865_storage":{"encoding":"inplace","label":"struct SharedStructs.Deal","members":[{"astId":1855,"contract":"contracts/HiveStorageTestable.sol:HiveStorageTestable","label":"dealId","offset":0,"slot":"0","type":"t_string_storage"},{"astId":1858,"contract":"contracts/HiveStorageTestable.sol:HiveStorageTestable","label":"members","offset":0,"slot":"1","type":"t_struct(DealMembers)1826_storage"},{"astId":1861,"contract":"contracts/HiveStorageTestable.sol:HiveStorageTestable","label":"timeouts","offset":0,"slot":"5","type":"t_struct(DealTimeouts)1844_storage"},{"astId":1864,"contract":"contracts/HiveStorageTestable.sol:HiveStorageTestable","label":"pricing","offset":0,"slot":"13","type":"t_struct(DealPricing)1853_storage"}],"numberOfBytes":"544"},"t_struct(DealMembers)1826_storage":{"encoding":"inplace","label":"struct SharedStructs.DealMembers","members":[{"astId":1818,"contract":"contracts/HiveStorageTestable.sol:HiveStorageTestable","label":"solver","offset":0,"slot":"0","type":"t_address"},{"astId":1820,"contract":"contracts/HiveStorageTestable.sol:HiveStorageTestable","label":"jobCreator","offset":0,"slot":"1","type":"t_address"},{"astId":1822,"contract":"contracts/HiveStorageTestable.sol:HiveStorageTestable","label":"resourceProvider","offset":0,"slot":"2","type":"t_address"},{"astId":1825,"contract":"contracts/HiveStorageTestable.sol:HiveStorageTestable","label":"mediators","offset":0,"slot":"3","type":"t_array(t_address)dyn_storage"}],"numberOfBytes":"128"},"t_struct(DealPricing)1853_storage":{"encoding":"inplace","label":"struct SharedStructs.DealPricing","members":[{"astId":1846,"contract":"contracts/HiveStorageTestable.sol:HiveStorageTestable","label":"instructionPrice","offset":0,"slot":"0","type":"t_uint256"},{"astId":1848,"contract":"contracts/HiveStorageTestable.sol:HiveStorageTestable","label":"paymentCollateral","offset":0,"slot":"1","type":"t_uint256"},{"astId":1850,"contract":"contracts/HiveStorageTestable.sol:HiveStorageTestable","label":"resultsCollateralMultiple","offset":0,"slot":"2","type":"t_uint256"},{"astId":1852,"contract":"contracts/HiveStorageTestable.sol:HiveStorageTestable","label":"mediationFee","offset":0,"slot":"3","type":"t_uint256"}],"numberOfBytes":"128"},"t_struct(DealTimeout)1831_storage":{"encoding":"inplace","label":"struct SharedStructs.DealTimeout","members":[{"astId":1828,"contract":"contracts/HiveStorageTestable.sol:HiveStorageTestable","label":"timeout","offset":0,"slot":"0","type":"t_uint256"},{"astId":1830,"contract":"contracts/HiveStorageTestable.sol:HiveStorageTestable","label":"collateral","offset":0,"slot":"1","type":"t_uint256"}],"numberOfBytes":"64"},"t_struct(DealTimeouts)1844_storage":{"encoding":"inplace","label":"struct SharedStructs.DealTimeouts","members":[{"astId":1834,"contract":"contracts/HiveStorageTestable.sol:HiveStorageTestable","label":"agree","offset":0,"slot":"0","type":"t_struct(DealTimeout)1831_storage"},{"astId":1837,"contract":"contracts/HiveStorageTestable.sol:HiveStorageTestable","label":"submitResults","offset":0,"slot":"2","type":"t_struct(DealTimeout)1831_storage"},{"astId":1840,"contract":"contracts/HiveStorageTestable.sol:HiveStorageTestable","label":"judgeResults","offset":0,"slot":"4","type":"t_struct(DealTimeout)1831_storage"},{"astId":1843,"contract":"contracts/HiveStorageTestable.sol:HiveStorageTestable","label":"mediateResults","offset":0,"slot":"6","type":"t_struct(DealTimeout)1831_storage"}],"numberOfBytes":"256"},"t_struct(Result)1874_storage":{"encoding":"inplace","label":"struct SharedStructs.Result","members":[{"astId":1867,"contract":"contracts/HiveStorageTestable.sol:HiveStorageTestable","label":"dealId","offset":0,"slot":"0","type":"t_string_storage"},{"astId":1869,"contract":"contracts/HiveStorageTestable.sol:HiveStorageTestable","label":"resultsId","offset":0,"slot":"1","type":"t_string_storage"},{"astId":1871,"contract":"contracts/HiveStorageTestable.sol:HiveStorageTestable","label":"dataId","offset":0,"slot":"2","type":"t_string_storage"},{"astId":1873,"contract":"contracts/HiveStorageTestable.sol:HiveStorageTestable","label":"instructionCount","offset":0,"slot":"3","type":"t_uint256"}],"numberOfBytes":"128"},"t_uint256":{"encoding":"inplace","label":"uint256","numberOfBytes":"32"},"t_uint8":{"encoding":"inplace","label":"uint8","numberOfBytes":"1"}}},"userdoc":{"kind":"user","methods":{"acceptResult(string)":{"notice":"Judge Results"},"getAgreement(string)":{"notice":"Agreements"},"getDeal(string)":{"notice":"Deals"},"getJobCost(string)":{"notice":"Costings"},"getResult(string)":{"notice":"Post Results"},"hasDeal(string)":{"notice":"Checkers"},"initialize()":{"notice":"Init"},"mediationAcceptResult(string)":{"notice":"Mediati:"},"timeoutAgree(string)":{"notice":"Timeouts"}},"version":1}}}}