{
  "_format": "hh-sol-artifact-1",
  "contractName": "HiveToken",
  "sourceName": "contracts/HiveToken.sol",
  "abi": [
    {
      "inputs": [
        {
          "internalType": "string",
          "name": "name",
          "type": "string"
        },
        {
          "internalType": "string",
          "name": "symbol",
          "type": "string"
        },
        {
          "internalType": "uint256",
          "name": "initialSupply",
          "type": "uint256"
        }
      ],
      "stateMutability": "nonpayable",
      "type": "constructor"
    },
    {
      "anonymous": false,
      "inputs": [
        {
          "indexed": true,
          "internalType": "address",
          "name": "owner",
          "type": "address"
        },
        {
          "indexed": true,
          "internalType": "address",
          "name": "spender",
          "type": "address"
        },
        {
          "indexed": false,
          "internalType": "uint256",
          "name": "value",
          "type": "uint256"
        }
      ],
      "name": "Approval",
      "type": "event"
    },
    {
      "anonymous": false,
      "inputs": [
        {
          "indexed": true,
          "internalType": "address",
          "name": "previousOwner",
          "type": "address"
        },
        {
          "indexed": true,
          "internalType": "address",
          "name": "newOwner",
          "type": "address"
        }
      ],
      "name": "OwnershipTransferred",
      "type": "event"
    },
    {
      "anonymous": false,
      "inputs": [
        {
          "indexed": false,
          "internalType": "address",
          "name": "account",
          "type": "address"
        }
      ],
      "name": "Paused",
      "type": "event"
    },
    {
      "anonymous": false,
      "inputs": [
        {
          "indexed": true,
          "internalType": "address",
          "name": "from",
          "type": "address"
        },
        {
          "indexed": true,
          "internalType": "address",
          "name": "to",
          "type": "address"
        },
        {
          "indexed": false,
          "internalType": "uint256",
          "name": "value",
          "type": "uint256"
        }
      ],
      "name": "Transfer",
      "type": "event"
    },
    {
      "anonymous": false,
      "inputs": [
        {
          "indexed": false,
          "internalType": "address",
          "name": "account",
          "type": "address"
        }
      ],
      "name": "Unpaused",
      "type": "event"
    },
    {
      "inputs": [
        {
          "internalType": "address",
          "name": "owner",
          "type": "address"
        },
        {
          "internalType": "address",
          "name": "spender",
          "type": "address"
        }
      ],
      "name": "allowance",
      "outputs": [
        {
          "internalType": "uint256",
          "name": "",
          "type": "uint256"
        }
      ],
      "stateMutability": "view",
      "type": "function"
    },
    {
      "inputs": [
        {
          "internalType": "address",
          "name": "spender",
          "type": "address"
        },
        {
          "internalType": "uint256",
          "name": "amount",
          "type": "uint256"
        }
      ],
      "name": "approve",
      "outputs": [
        {
          "internalType": "bool",
          "name": "",
          "type": "bool"
        }
      ],
      "stateMutability": "nonpayable",
      "type": "function"
    },
    {
      "inputs": [
        {
          "internalType": "address",
          "name": "account",
          "type": "address"
        }
      ],
      "name": "balanceOf",
      "outputs": [
        {
          "internalType": "uint256",
          "name": "",
          "type": "uint256"
        }
      ],
      "stateMutability": "view",
      "type": "function"
    },
    {
      "inputs": [],
      "name": "decimals",
      "outputs": [
        {
          "internalType": "uint8",
          "name": "",
          "type": "uint8"
        }
      ],
      "stateMutability": "view",
      "type": "function"
    },
    {
      "inputs": [
        {
          "internalType": "address",
          "name": "spender",
          "type": "address"
        },
        {
          "internalType": "uint256",
          "name": "subtractedValue",
          "type": "uint256"
        }
      ],
      "name": "decreaseAllowance",
      "outputs": [
        {
          "internalType": "bool",
          "name": "",
          "type": "bool"
        }
      ],
      "stateMutability": "nonpayable",
      "type": "function"
    },
    {
      "inputs": [],
      "name": "disableChangeControllerAddress",
      "outputs": [],
      "stateMutability": "nonpayable",
      "type": "function"
    },
    {
      "inputs": [
        {
          "internalType": "address",
          "name": "_address",
          "type": "address"
        }
      ],
      "name": "escrowBalanceOf",
      "outputs": [
        {
          "internalType": "uint256",
          "name": "",
          "type": "uint256"
        }
      ],
      "stateMutability": "view",
      "type": "function"
    },
    {
      "inputs": [],
      "name": "getControllerAddress",
      "outputs": [
        {
          "internalType": "address",
          "name": "",
          "type": "address"
        }
      ],
      "stateMutability": "view",
      "type": "function"
    },
    {
      "inputs": [
        {
          "internalType": "address",
          "name": "spender",
          "type": "address"
        },
        {
          "internalType": "uint256",
          "name": "addedValue",
          "type": "uint256"
        }
      ],
      "name": "increaseAllowance",
      "outputs": [
        {
          "internalType": "bool",
          "name": "",
          "type": "bool"
        }
      ],
      "stateMutability": "nonpayable",
      "type": "function"
    },
    {
      "inputs": [],
      "name": "name",
      "outputs": [
        {
          "internalType": "string",
          "name": "",
          "type": "string"
        }
      ],
      "stateMutability": "view",
      "type": "function"
    },
    {
      "inputs": [],
      "name": "owner",
      "outputs": [
        {
          "internalType": "address",
          "name": "",
          "type": "address"
        }
      ],
      "stateMutability": "view",
      "type": "function"
    },
    {
      "inputs": [],
      "name": "pause",
      "outputs": [],
      "stateMutability": "nonpayable",
      "type": "function"
    },
    {
      "inputs": [],
      "name": "paused",
      "outputs": [
        {
          "internalType": "bool",
          "name": "",
          "type": "bool"
        }
      ],
      "stateMutability": "view",
      "type": "function"
    },
    {
      "inputs": [
        {
          "internalType": "uint256",
          "name": "amount",
          "type": "uint256"
        }
      ],
      "name": "payEscrow",
      "outputs": [
        {
          "internalType": "bool",
          "name": "",
          "type": "bool"
        }
      ],
      "stateMutability": "nonpayable",
      "type": "function"
    },
    {
      "inputs": [
        {
          "internalType": "address",
          "name": "fromAddress",
          "type": "address"
        },
        {
          "internalType": "address",
          "name": "toAddress",
          "type": "address"
        },
        {
          "internalType": "uint256",
          "name": "amount",
          "type": "uint256"
        }
      ],
      "name": "payJob",
      "outputs": [
        {
          "internalType": "bool",
          "name": "",
          "type": "bool"
        }
      ],
      "stateMutability": "nonpayable",
      "type": "function"
    },
    {
      "inputs": [
        {
          "internalType": "address",
          "name": "toAddress",
          "type": "address"
        },
        {
          "internalType": "uint256",
          "name": "amount",
          "type": "uint256"
        }
      ],
      "name": "refundEscrow",
      "outputs": [
        {
          "internalType": "bool",
          "name": "",
          "type": "bool"
        }
      ],
      "stateMutability": "nonpayable",
      "type": "function"
    },
    {
      "inputs": [],
      "name": "renounceOwnership",
      "outputs": [],
      "stateMutability": "nonpayable",
      "type": "function"
    },
    {
      "inputs": [
        {
          "internalType": "address",
          "name": "_controllerAddress",
          "type": "address"
        }
      ],
      "name": "setControllerAddress",
      "outputs": [],
      "stateMutability": "nonpayable",
      "type": "function"
    },
    {
      "inputs": [
        {
          "internalType": "address",
          "name": "slashedAddress",
          "type": "address"
        },
        {
          "internalType": "uint256",
          "name": "amount",
          "type": "uint256"
        }
      ],
      "name": "slashEscrow",
      "outputs": [
        {
          "internalType": "bool",
          "name": "",
          "type": "bool"
        }
      ],
      "stateMutability": "nonpayable",
      "type": "function"
    },
    {
      "inputs": [],
      "name": "symbol",
      "outputs": [
        {
          "internalType": "string",
          "name": "",
          "type": "string"
        }
      ],
      "stateMutability": "view",
      "type": "function"
    },
    {
      "inputs": [],
      "name": "totalSupply",
      "outputs": [
        {
          "internalType": "uint256",
          "name": "",
          "type": "uint256"
        }
      ],
      "stateMutability": "view",
      "type": "function"
    },
    {
      "inputs": [
        {
          "internalType": "address",
          "name": "to",
          "type": "address"
        },
        {
          "internalType": "uint256",
          "name": "amount",
          "type": "uint256"
        }
      ],
      "name": "transfer",
      "outputs": [
        {
          "internalType": "bool",
          "name": "",
          "type": "bool"
        }
      ],
      "stateMutability": "nonpayable",
      "type": "function"
    },
    {
      "inputs": [
        {
          "internalType": "address",
          "name": "from",
          "type": "address"
        },
        {
          "internalType": "address",
          "name": "to",
          "type": "address"
        },
        {
          "internalType": "uint256",
          "name": "amount",
          "type": "uint256"
        }
      ],
      "name": "transferFrom",
      "outputs": [
        {
          "internalType": "bool",
          "name": "",
          "type": "bool"
        }
      ],
      "stateMutability": "nonpayable",
      "type": "function"
    },
    {
      "inputs": [
        {
          "internalType": "address",
          "name": "newOwner",
          "type": "address"
        }
      ],
      "name": "transferOwnership",
      "outputs": [],
      "stateMutability": "nonpayable",
      "type": "function"
    },
    {
      "inputs": [],
      "name": "unpause",
      "outputs": [],
      "stateMutability": "nonpayable",
      "type": "function"
    }
  ],
  "bytecode": "0x608060405260018060146101000a81548160ff0219169083151502179055503480156200002b57600080fd5b506040516200300f3803806200300f83398181016040528101906200005191906200057b565b82826200007362000067620000cf60201b60201c565b620000d760201b60201c565b816005908162000084919062000856565b50806006908162000096919062000856565b5050506000600760006101000a81548160ff021916908315150217905550620000c633826200019b60201b60201c565b50505062000af0565b600033905090565b60008060009054906101000a900473ffffffffffffffffffffffffffffffffffffffff169050816000806101000a81548173ffffffffffffffffffffffffffffffffffffffff021916908373ffffffffffffffffffffffffffffffffffffffff1602179055508173ffffffffffffffffffffffffffffffffffffffff168173ffffffffffffffffffffffffffffffffffffffff167f8be0079c531659141344cd1fd0a4f28419497f9722a3daafe3b4186f6b6457e060405160405180910390a35050565b600073ffffffffffffffffffffffffffffffffffffffff168273ffffffffffffffffffffffffffffffffffffffff16036200020d576040517f08c379a000000000000000000000000000000000000000000000000000000000815260040162000204906200099e565b60405180910390fd5b62000221600083836200030960201b60201c565b8060046000828254620002359190620009ef565b9250508190555080600260008473ffffffffffffffffffffffffffffffffffffffff1673ffffffffffffffffffffffffffffffffffffffff168152602001908152602001600020600082825401925050819055508173ffffffffffffffffffffffffffffffffffffffff16600073ffffffffffffffffffffffffffffffffffffffff167fddf252ad1be2c89b69c2b068fc378daa952ba7f163c4a11628f55a4df523b3ef83604051620002e9919062000a3b565b60405180910390a362000305600083836200032160201b60201c565b5050565b6200031c8383836200032660201b60201c565b505050565b505050565b620003398383836200039160201b60201c565b620003496200039660201b60201c565b156200038c576040517f08c379a0000000000000000000000000000000000000000000000000000000008152600401620003839062000ace565b60405180910390fd5b505050565b505050565b6000600760009054906101000a900460ff16905090565b6000604051905090565b600080fd5b600080fd5b600080fd5b600080fd5b6000601f19601f8301169050919050565b7f4e487b7100000000000000000000000000000000000000000000000000000000600052604160045260246000fd5b6200041682620003cb565b810181811067ffffffffffffffff82111715620004385762000437620003dc565b5b80604052505050565b60006200044d620003ad565b90506200045b82826200040b565b919050565b600067ffffffffffffffff8211156200047e576200047d620003dc565b5b6200048982620003cb565b9050602081019050919050565b60005b83811015620004b657808201518184015260208101905062000499565b60008484015250505050565b6000620004d9620004d38462000460565b62000441565b905082815260208101848484011115620004f857620004f7620003c6565b5b6200050584828562000496565b509392505050565b600082601f830112620005255762000524620003c1565b5b815162000537848260208601620004c2565b91505092915050565b6000819050919050565b620005558162000540565b81146200056157600080fd5b50565b60008151905062000575816200054a565b92915050565b600080600060608486031215620005975762000596620003b7565b5b600084015167ffffffffffffffff811115620005b857620005b7620003bc565b5b620005c6868287016200050d565b935050602084015167ffffffffffffffff811115620005ea57620005e9620003bc565b5b620005f8868287016200050d565b92505060406200060b8682870162000564565b9150509250925092565b600081519050919050565b7f4e487b7100000000000000000000000000000000000000000000000000000000600052602260045260246000fd5b600060028204905060018216806200066857607f821691505b6020821081036200067e576200067d62000620565b5b50919050565b60008190508160005260206000209050919050565b60006020601f8301049050919050565b600082821b905092915050565b600060088302620006e87fffffffffffffffffffffffffffffffffffffffffffffffffffffffffffffffff82620006a9565b620006f48683620006a9565b95508019841693508086168417925050509392505050565b6000819050919050565b600062000737620007316200072b8462000540565b6200070c565b62000540565b9050919050565b6000819050919050565b620007538362000716565b6200076b62000762826200073e565b848454620006b6565b825550505050565b600090565b6200078262000773565b6200078f81848462000748565b505050565b5b81811015620007b757620007ab60008262000778565b60018101905062000795565b5050565b601f8211156200080657620007d08162000684565b620007db8462000699565b81016020851015620007eb578190505b62000803620007fa8562000699565b83018262000794565b50505b505050565b600082821c905092915050565b60006200082b600019846008026200080b565b1980831691505092915050565b600062000846838362000818565b9150826002028217905092915050565b620008618262000615565b67ffffffffffffffff8111156200087d576200087c620003dc565b5b6200088982546200064f565b62000896828285620007bb565b600060209050601f831160018114620008ce5760008415620008b9578287015190505b620008c5858262000838565b86555062000935565b601f198416620008de8662000684565b60005b828110156200090857848901518255600182019150602085019450602081019050620008e1565b8683101562000928578489015162000924601f89168262000818565b8355505b6001600288020188555050505b505050505050565b600082825260208201905092915050565b7f45524332303a206d696e7420746f20746865207a65726f206164647265737300600082015250565b600062000986601f836200093d565b915062000993826200094e565b602082019050919050565b60006020820190508181036000830152620009b98162000977565b9050919050565b7f4e487b7100000000000000000000000000000000000000000000000000000000600052601160045260246000fd5b6000620009fc8262000540565b915062000a098362000540565b925082820190508082111562000a245762000a23620009c0565b5b92915050565b62000a358162000540565b82525050565b600060208201905062000a52600083018462000a2a565b92915050565b7f45524332305061757361626c653a20746f6b656e207472616e7366657220776860008201527f696c652070617573656400000000000000000000000000000000000000000000602082015250565b600062000ab6602a836200093d565b915062000ac38262000a58565b604082019050919050565b6000602082019050818103600083015262000ae98162000aa7565b9050919050565b61250f8062000b006000396000f3fe608060405234801561001057600080fd5b50600436106101735760003560e01c8063715018a6116100de578063a457c2d711610097578063c57380a211610071578063c57380a214610464578063dd62ed3e14610482578063f2fde38b146104b2578063f3d3d448146104ce57610173565b8063a457c2d7146103fa578063a47029581461042a578063a9059cbb1461043457610173565b8063715018a61461034a5780638456cb591461035457806388c2bdfe1461035e5780638da5cb5b1461038e57806395d89b41146103ac578063987bf9a7146103ca57610173565b8063395093511161013057806339509351146102625780633f4ba83a146102925780635407e93c1461029c578063599efa6b146102cc5780635c975abb146102fc57806370a082311461031a57610173565b8063065e86c81461017857806306fdde03146101a8578063095ea7b3146101c657806318160ddd146101f657806323b872dd14610214578063313ce56714610244575b600080fd5b610192600480360381019061018d9190611828565b6104ea565b60405161019f9190611896565b60405180910390f35b6101b06105e3565b6040516101bd9190611941565b60405180910390f35b6101e060048036038101906101db9190611963565b610675565b6040516101ed9190611896565b60405180910390f35b6101fe610698565b60405161020b91906119b2565b60405180910390f35b61022e60048036038101906102299190611828565b6106a2565b60405161023b9190611896565b60405180910390f35b61024c6106d1565b60405161025991906119e9565b60405180910390f35b61027c60048036038101906102779190611963565b6106da565b6040516102899190611896565b60405180910390f35b61029a610711565b005b6102b660048036038101906102b19190611a04565b610723565b6040516102c39190611896565b60405180910390f35b6102e660048036038101906102e19190611963565b61078f565b6040516102f39190611896565b60405180910390f35b6103046108f6565b6040516103119190611896565b60405180910390f35b610334600480360381019061032f9190611a31565b61090d565b60405161034191906119b2565b60405180910390f35b610352610956565b005b61035c61096a565b005b61037860048036038101906103739190611963565b61097c565b6040516103859190611896565b60405180910390f35b610396610a7b565b6040516103a39190611a6d565b60405180910390f35b6103b4610aa4565b6040516103c19190611941565b60405180910390f35b6103e460048036038101906103df9190611a31565b610b36565b6040516103f191906119b2565b60405180910390f35b610414600480360381019061040f9190611963565b610b7f565b6040516104219190611896565b60405180910390f35b610432610bf6565b005b61044e60048036038101906104499190611963565b610c1b565b60405161045b9190611896565b60405180910390f35b61046c610c3e565b6040516104799190611a6d565b60405180910390f35b61049c60048036038101906104979190611a88565b610c68565b6040516104a991906119b2565b60405180910390f35b6104cc60048036038101906104c79190611a31565b610cef565b005b6104e860048036038101906104e39190611a31565b610d72565b005b60006104f4610e7c565b5081600860008673ffffffffffffffffffffffffffffffffffffffff1673ffffffffffffffffffffffffffffffffffffffff168152602001908152602001600020541015610577576040517f08c379a000000000000000000000000000000000000000000000000000000000815260040161056e90611b3a565b60405180910390fd5b81600860008673ffffffffffffffffffffffffffffffffffffffff1673ffffffffffffffffffffffffffffffffffffffff16815260200190815260200160002060008282546105c69190611b89565b925050819055506105d8308484610fac565b600190509392505050565b6060600580546105f290611bec565b80601f016020809104026020016040519081016040528092919081815260200182805461061e90611bec565b801561066b5780601f106106405761010080835404028352916020019161066b565b820191906000526020600020905b81548152906001019060200180831161064e57829003601f168201915b5050505050905090565b600080610680611225565b905061068d81858561122d565b600191505092915050565b6000600454905090565b6000806106ad611225565b90506106ba8582856113f6565b6106c5858585610fac565b60019150509392505050565b60006012905090565b6000806106e5611225565b90506107068185856106f78589610c68565b6107019190611c1d565b61122d565b600191505092915050565b610719611482565b610721611500565b565b6000610730323084610fac565b81600860003273ffffffffffffffffffffffffffffffffffffffff1673ffffffffffffffffffffffffffffffffffffffff168152602001908152602001600020600082825461077f9190611c1d565b9250508190555060019050919050565b6000610799610e7c565b50600073ffffffffffffffffffffffffffffffffffffffff168373ffffffffffffffffffffffffffffffffffffffff1603610809576040517f08c379a000000000000000000000000000000000000000000000000000000000815260040161080090611cc3565b60405180910390fd5b81600860008573ffffffffffffffffffffffffffffffffffffffff1673ffffffffffffffffffffffffffffffffffffffff16815260200190815260200160002054101561088b576040517f08c379a000000000000000000000000000000000000000000000000000000000815260040161088290611b3a565b60405180910390fd5b81600860008573ffffffffffffffffffffffffffffffffffffffff1673ffffffffffffffffffffffffffffffffffffffff16815260200190815260200160002060008282546108da9190611b89565b925050819055506108ec308484610fac565b6001905092915050565b6000600760009054906101000a900460ff16905090565b6000600260008373ffffffffffffffffffffffffffffffffffffffff1673ffffffffffffffffffffffffffffffffffffffff168152602001908152602001600020549050919050565b61095e611482565b6109686000611563565b565b610972611482565b61097a611627565b565b6000610986610e7c565b5081600860008573ffffffffffffffffffffffffffffffffffffffff1673ffffffffffffffffffffffffffffffffffffffff168152602001908152602001600020541015610a09576040517f08c379a0000000000000000000000000000000000000000000000000000000008152600401610a0090611b3a565b60405180910390fd5b81600860008573ffffffffffffffffffffffffffffffffffffffff1673ffffffffffffffffffffffffffffffffffffffff1681526020019081526020016000206000828254610a589190611b89565b92505081905550610a7130610a6b610a7b565b84610fac565b6001905092915050565b60008060009054906101000a900473ffffffffffffffffffffffffffffffffffffffff16905090565b606060068054610ab390611bec565b80601f0160208091040260200160405190810160405280929190818152602001828054610adf90611bec565b8015610b2c5780601f10610b0157610100808354040283529160200191610b2c565b820191906000526020600020905b815481529060010190602001808311610b0f57829003601f168201915b5050505050905090565b6000600860008373ffffffffffffffffffffffffffffffffffffffff1673ffffffffffffffffffffffffffffffffffffffff168152602001908152602001600020549050919050565b600080610b8a611225565b90506000610b988286610c68565b905083811015610bdd576040517f08c379a0000000000000000000000000000000000000000000000000000000008152600401610bd490611d55565b60405180910390fd5b610bea828686840361122d565b60019250505092915050565b610bfe611482565b6000600160146101000a81548160ff021916908315150217905550565b600080610c26611225565b9050610c33818585610fac565b600191505092915050565b6000600160009054906101000a900473ffffffffffffffffffffffffffffffffffffffff16905090565b6000600360008473ffffffffffffffffffffffffffffffffffffffff1673ffffffffffffffffffffffffffffffffffffffff16815260200190815260200160002060008373ffffffffffffffffffffffffffffffffffffffff1673ffffffffffffffffffffffffffffffffffffffff16815260200190815260200160002054905092915050565b610cf7611482565b600073ffffffffffffffffffffffffffffffffffffffff168173ffffffffffffffffffffffffffffffffffffffff1603610d66576040517f08c379a0000000000000000000000000000000000000000000000000000000008152600401610d5d90611de7565b60405180910390fd5b610d6f81611563565b50565b610d7a611482565b600073ffffffffffffffffffffffffffffffffffffffff168173ffffffffffffffffffffffffffffffffffffffff1603610de9576040517f08c379a0000000000000000000000000000000000000000000000000000000008152600401610de090611e79565b60405180910390fd5b600160149054906101000a900460ff16610e38576040517f08c379a0000000000000000000000000000000000000000000000000000000008152600401610e2f90611f0b565b60405180910390fd5b80600160006101000a81548173ffffffffffffffffffffffffffffffffffffffff021916908373ffffffffffffffffffffffffffffffffffffffff16021790555050565b60008073ffffffffffffffffffffffffffffffffffffffff16600160009054906101000a900473ffffffffffffffffffffffffffffffffffffffff1673ffffffffffffffffffffffffffffffffffffffff1603610f0e576040517f08c379a0000000000000000000000000000000000000000000000000000000008152600401610f0590611e79565b60405180910390fd5b600160009054906101000a900473ffffffffffffffffffffffffffffffffffffffff1673ffffffffffffffffffffffffffffffffffffffff16610f4f611225565b73ffffffffffffffffffffffffffffffffffffffff1614610fa5576040517f08c379a0000000000000000000000000000000000000000000000000000000008152600401610f9c90611f9d565b60405180910390fd5b6001905090565b600073ffffffffffffffffffffffffffffffffffffffff168373ffffffffffffffffffffffffffffffffffffffff160361101b576040517f08c379a00000000000000000000000000000000000000000000000000000000081526004016110129061202f565b60405180910390fd5b600073ffffffffffffffffffffffffffffffffffffffff168273ffffffffffffffffffffffffffffffffffffffff160361108a576040517f08c379a0000000000000000000000000000000000000000000000000000000008152600401611081906120c1565b60405180910390fd5b61109583838361168a565b6000600260008573ffffffffffffffffffffffffffffffffffffffff1673ffffffffffffffffffffffffffffffffffffffff1681526020019081526020016000205490508181101561111c576040517f08c379a000000000000000000000000000000000000000000000000000000000815260040161111390612153565b60405180910390fd5b818103600260008673ffffffffffffffffffffffffffffffffffffffff1673ffffffffffffffffffffffffffffffffffffffff1681526020019081526020016000208190555081600260008573ffffffffffffffffffffffffffffffffffffffff1673ffffffffffffffffffffffffffffffffffffffff168152602001908152602001600020600082825401925050819055508273ffffffffffffffffffffffffffffffffffffffff168473ffffffffffffffffffffffffffffffffffffffff167fddf252ad1be2c89b69c2b068fc378daa952ba7f163c4a11628f55a4df523b3ef8460405161120c91906119b2565b60405180910390a361121f84848461169a565b50505050565b600033905090565b600073ffffffffffffffffffffffffffffffffffffffff168373ffffffffffffffffffffffffffffffffffffffff160361129c576040517f08c379a0000000000000000000000000000000000000000000000000000000008152600401611293906121e5565b60405180910390fd5b600073ffffffffffffffffffffffffffffffffffffffff168273ffffffffffffffffffffffffffffffffffffffff160361130b576040517f08c379a000000000000000000000000000000000000000000000000000000000815260040161130290612277565b60405180910390fd5b80600360008573ffffffffffffffffffffffffffffffffffffffff1673ffffffffffffffffffffffffffffffffffffffff16815260200190815260200160002060008473ffffffffffffffffffffffffffffffffffffffff1673ffffffffffffffffffffffffffffffffffffffff168152602001908152602001600020819055508173ffffffffffffffffffffffffffffffffffffffff168373ffffffffffffffffffffffffffffffffffffffff167f8c5be1e5ebec7d5bd14f71427d1e84f3dd0314c0f7b2291e5b200ac8c7c3b925836040516113e991906119b2565b60405180910390a3505050565b60006114028484610c68565b90507fffffffffffffffffffffffffffffffffffffffffffffffffffffffffffffffff811461147c578181101561146e576040517f08c379a0000000000000000000000000000000000000000000000000000000008152600401611465906122e3565b60405180910390fd5b61147b848484840361122d565b5b50505050565b61148a611225565b73ffffffffffffffffffffffffffffffffffffffff166114a8610a7b565b73ffffffffffffffffffffffffffffffffffffffff16146114fe576040517f08c379a00000000000000000000000000000000000000000000000000000000081526004016114f59061234f565b60405180910390fd5b565b61150861169f565b6000600760006101000a81548160ff0219169083151502179055507f5db9ee0a495bf2e6ff9c91a7834c1ba4fdd244a5e8aa4e537bd38aeae4b073aa61154c611225565b6040516115599190611a6d565b60405180910390a1565b60008060009054906101000a900473ffffffffffffffffffffffffffffffffffffffff169050816000806101000a81548173ffffffffffffffffffffffffffffffffffffffff021916908373ffffffffffffffffffffffffffffffffffffffff1602179055508173ffffffffffffffffffffffffffffffffffffffff168173ffffffffffffffffffffffffffffffffffffffff167f8be0079c531659141344cd1fd0a4f28419497f9722a3daafe3b4186f6b6457e060405160405180910390a35050565b61162f6116e8565b6001600760006101000a81548160ff0219169083151502179055507f62e78cea01bee320cd4e420270b5ea74000d11b0c9f74754ebdbfc544b05a258611673611225565b6040516116809190611a6d565b60405180910390a1565b611695838383611732565b505050565b505050565b6116a76108f6565b6116e6576040517f08c379a00000000000000000000000000000000000000000000000000000000081526004016116dd906123bb565b60405180910390fd5b565b6116f06108f6565b15611730576040517f08c379a000000000000000000000000000000000000000000000000000000000815260040161172790612427565b60405180910390fd5b565b61173d83838361178a565b6117456108f6565b15611785576040517f08c379a000000000000000000000000000000000000000000000000000000000815260040161177c906124b9565b60405180910390fd5b505050565b505050565b600080fd5b600073ffffffffffffffffffffffffffffffffffffffff82169050919050565b60006117bf82611794565b9050919050565b6117cf816117b4565b81146117da57600080fd5b50565b6000813590506117ec816117c6565b92915050565b6000819050919050565b611805816117f2565b811461181057600080fd5b50565b600081359050611822816117fc565b92915050565b6000806000606084860312156118415761184061178f565b5b600061184f868287016117dd565b9350506020611860868287016117dd565b925050604061187186828701611813565b9150509250925092565b60008115159050919050565b6118908161187b565b82525050565b60006020820190506118ab6000830184611887565b92915050565b600081519050919050565b600082825260208201905092915050565b60005b838110156118eb5780820151818401526020810190506118d0565b60008484015250505050565b6000601f19601f8301169050919050565b6000611913826118b1565b61191d81856118bc565b935061192d8185602086016118cd565b611936816118f7565b840191505092915050565b6000602082019050818103600083015261195b8184611908565b905092915050565b6000806040838503121561197a5761197961178f565b5b6000611988858286016117dd565b925050602061199985828601611813565b9150509250929050565b6119ac816117f2565b82525050565b60006020820190506119c760008301846119a3565b92915050565b600060ff82169050919050565b6119e3816119cd565b82525050565b60006020820190506119fe60008301846119da565b92915050565b600060208284031215611a1a57611a1961178f565b5b6000611a2884828501611813565b91505092915050565b600060208284031215611a4757611a4661178f565b5b6000611a55848285016117dd565b91505092915050565b611a67816117b4565b82525050565b6000602082019050611a826000830184611a5e565b92915050565b60008060408385031215611a9f57611a9e61178f565b5b6000611aad858286016117dd565b9250506020611abe858286016117dd565b9150509250929050565b7f48697665546f6b656e3a206e6f7420656e6f7567682066756e647320696e206560008201527f7363726f77000000000000000000000000000000000000000000000000000000602082015250565b6000611b246025836118bc565b9150611b2f82611ac8565b604082019050919050565b60006020820190508181036000830152611b5381611b17565b9050919050565b7f4e487b7100000000000000000000000000000000000000000000000000000000600052601160045260246000fd5b6000611b94826117f2565b9150611b9f836117f2565b9250828203905081811115611bb757611bb6611b5a565b5b92915050565b7f4e487b7100000000000000000000000000000000000000000000000000000000600052602260045260246000fd5b60006002820490506001821680611c0457607f821691505b602082108103611c1757611c16611bbd565b5b50919050565b6000611c28826117f2565b9150611c33836117f2565b9250828201905080821115611c4b57611c4a611b5a565b5b92915050565b7f48697665546f6b656e3a20746f416464726573732063616e6e6f74206265207a60008201527f65726f2061646472657373000000000000000000000000000000000000000000602082015250565b6000611cad602b836118bc565b9150611cb882611c51565b604082019050919050565b60006020820190508181036000830152611cdc81611ca0565b9050919050565b7f45524332303a2064656372656173656420616c6c6f77616e63652062656c6f7760008201527f207a65726f000000000000000000000000000000000000000000000000000000602082015250565b6000611d3f6025836118bc565b9150611d4a82611ce3565b604082019050919050565b60006020820190508181036000830152611d6e81611d32565b9050919050565b7f4f776e61626c653a206e6577206f776e657220697320746865207a65726f206160008201527f6464726573730000000000000000000000000000000000000000000000000000602082015250565b6000611dd16026836118bc565b9150611ddc82611d75565b604082019050919050565b60006020820190508181036000830152611e0081611dc4565b9050919050565b7f436f6e74726f6c6c65724f776e61626c653a20436f6e74726f6c6c657220616460008201527f6472657373206d75737420626520646566696e65640000000000000000000000602082015250565b6000611e636035836118bc565b9150611e6e82611e07565b604082019050919050565b60006020820190508181036000830152611e9281611e56565b9050919050565b7f436f6e74726f6c6c65724f776e61626c653a2063616e4368616e6765436f6e7460008201527f726f6c6c6572416464726573732069732064697361626c656400000000000000602082015250565b6000611ef56039836118bc565b9150611f0082611e99565b604082019050919050565b60006020820190508181036000830152611f2481611ee8565b9050919050565b7f436f6e74726f6c6c65724f776e61626c653a204f6e6c792074686520636f6e7460008201527f726f6c6c65722063616e2063616c6c2074686973206d6574686f640000000000602082015250565b6000611f87603b836118bc565b9150611f9282611f2b565b604082019050919050565b60006020820190508181036000830152611fb681611f7a565b9050919050565b7f45524332303a207472616e736665722066726f6d20746865207a65726f20616460008201527f6472657373000000000000000000000000000000000000000000000000000000602082015250565b60006120196025836118bc565b915061202482611fbd565b604082019050919050565b600060208201905081810360008301526120488161200c565b9050919050565b7f45524332303a207472616e7366657220746f20746865207a65726f206164647260008201527f6573730000000000000000000000000000000000000000000000000000000000602082015250565b60006120ab6023836118bc565b91506120b68261204f565b604082019050919050565b600060208201905081810360008301526120da8161209e565b9050919050565b7f45524332303a207472616e7366657220616d6f756e742065786365656473206260008201527f616c616e63650000000000000000000000000000000000000000000000000000602082015250565b600061213d6026836118bc565b9150612148826120e1565b604082019050919050565b6000602082019050818103600083015261216c81612130565b9050919050565b7f45524332303a20617070726f76652066726f6d20746865207a65726f2061646460008201527f7265737300000000000000000000000000000000000000000000000000000000602082015250565b60006121cf6024836118bc565b91506121da82612173565b604082019050919050565b600060208201905081810360008301526121fe816121c2565b9050919050565b7f45524332303a20617070726f766520746f20746865207a65726f20616464726560008201527f7373000000000000000000000000000000000000000000000000000000000000602082015250565b60006122616022836118bc565b915061226c82612205565b604082019050919050565b6000602082019050818103600083015261229081612254565b9050919050565b7f45524332303a20696e73756666696369656e7420616c6c6f77616e6365000000600082015250565b60006122cd601d836118bc565b91506122d882612297565b602082019050919050565b600060208201905081810360008301526122fc816122c0565b9050919050565b7f4f776e61626c653a2063616c6c6572206973206e6f7420746865206f776e6572600082015250565b60006123396020836118bc565b915061234482612303565b602082019050919050565b600060208201905081810360008301526123688161232c565b9050919050565b7f5061757361626c653a206e6f7420706175736564000000000000000000000000600082015250565b60006123a56014836118bc565b91506123b08261236f565b602082019050919050565b600060208201905081810360008301526123d481612398565b9050919050565b7f5061757361626c653a2070617573656400000000000000000000000000000000600082015250565b60006124116010836118bc565b915061241c826123db565b602082019050919050565b6000602082019050818103600083015261244081612404565b9050919050565b7f45524332305061757361626c653a20746f6b656e207472616e7366657220776860008201527f696c652070617573656400000000000000000000000000000000000000000000602082015250565b60006124a3602a836118bc565b91506124ae82612447565b604082019050919050565b600060208201905081810360008301526124d281612496565b905091905056fea2646970667358221220d6ea0afb95ae0c30e38e5ae7850ef618c43df6e45de3c6aa3ca312b23291781d64736f6c63430008150033",
  "linkReferences": {},
  "deployedLinkReferences": {}
}